{
	"Updraft/04 struct.sol": {
		"SimpleStruct": {
			"abi": [
				{
					"inputs": [],
					"name": "get",
					"outputs": [
						{
							"components": [
								{
									"internalType": "uint256",
									"name": "myFavoriteNumber",
									"type": "uint256"
								},
								{
									"internalType": "string",
									"name": "FullName",
									"type": "string"
								},
								{
									"internalType": "uint16",
									"name": "Age",
									"type": "uint16"
								},
								{
									"internalType": "address",
									"name": "myWallet",
									"type": "address"
								}
							],
							"internalType": "struct SimpleStruct.Person",
							"name": "",
							"type": "tuple"
						}
					],
					"stateMutability": "view",
					"type": "function"
				},
				{
					"inputs": [
						{
							"internalType": "uint256",
							"name": "_FavoriteNumber",
							"type": "uint256"
						},
						{
							"internalType": "string",
							"name": "_FullName",
							"type": "string"
						},
						{
							"internalType": "uint16",
							"name": "_Age",
							"type": "uint16"
						},
						{
							"internalType": "address",
							"name": "_wallet",
							"type": "address"
						}
					],
					"name": "set",
					"outputs": [],
					"stateMutability": "nonpayable",
					"type": "function"
				}
			],
			"devdoc": {
				"kind": "dev",
				"methods": {},
				"version": 1
			},
			"evm": {
				"assembly": "    /* \"Updraft/04 struct.sol\":57:605  contract SimpleStruct{... */\n  mstore(0x40, 0x80)\n  callvalue\n  dup1\n  iszero\n  tag_1\n  jumpi\n  0x00\n  dup1\n  revert\ntag_1:\n  pop\n  dataSize(sub_0)\n  dup1\n  dataOffset(sub_0)\n  0x00\n  codecopy\n  0x00\n  return\nstop\n\nsub_0: assembly {\n        /* \"Updraft/04 struct.sol\":57:605  contract SimpleStruct{... */\n      mstore(0x40, 0x80)\n      callvalue\n      dup1\n      iszero\n      tag_1\n      jumpi\n      0x00\n      dup1\n      revert\n    tag_1:\n      pop\n      jumpi(tag_2, lt(calldatasize, 0x04))\n      shr(0xe0, calldataload(0x00))\n      dup1\n      0x6d4ce63c\n      eq\n      tag_3\n      jumpi\n      dup1\n      0x8ea4d0bd\n      eq\n      tag_4\n      jumpi\n    tag_2:\n      0x00\n      dup1\n      revert\n        /* \"Updraft/04 struct.sol\":524:603  function get()public view returns(Person memory){... */\n    tag_3:\n      tag_5\n      tag_6\n      jump\t// in\n    tag_5:\n      mload(0x40)\n      tag_7\n      swap2\n      swap1\n      tag_8\n      jump\t// in\n    tag_7:\n      mload(0x40)\n      dup1\n      swap2\n      sub\n      swap1\n      return\n        /* \"Updraft/04 struct.sol\":236:514  function set(uint256 _FavoriteNumber, string memory _FullName, uint16 _Age, address _wallet)public {... */\n    tag_4:\n      tag_9\n      0x04\n      dup1\n      calldatasize\n      sub\n      dup2\n      add\n      swap1\n      tag_10\n      swap2\n      swap1\n      tag_11\n      jump\t// in\n    tag_10:\n      tag_12\n      jump\t// in\n    tag_9:\n      stop\n        /* \"Updraft/04 struct.sol\":524:603  function get()public view returns(Person memory){... */\n    tag_6:\n        /* \"Updraft/04 struct.sol\":558:571  Person memory */\n      tag_13\n      tag_14\n      jump\t// in\n    tag_13:\n        /* \"Updraft/04 struct.sol\":589:596  student */\n      0x00\n        /* \"Updraft/04 struct.sol\":582:596  return student */\n      mload(0x40)\n      dup1\n      0x80\n      add\n      0x40\n      mstore\n      swap1\n      dup2\n      0x00\n      dup3\n      add\n      sload\n      dup2\n      mstore\n      0x20\n      add\n      0x01\n      dup3\n      add\n      dup1\n      sload\n      tag_16\n      swap1\n      tag_17\n      jump\t// in\n    tag_16:\n      dup1\n      0x1f\n      add\n      0x20\n      dup1\n      swap2\n      div\n      mul\n      0x20\n      add\n      mload(0x40)\n      swap1\n      dup2\n      add\n      0x40\n      mstore\n      dup1\n      swap3\n      swap2\n      swap1\n      dup2\n      dup2\n      mstore\n      0x20\n      add\n      dup3\n      dup1\n      sload\n      tag_18\n      swap1\n      tag_17\n      jump\t// in\n    tag_18:\n      dup1\n      iszero\n      tag_19\n      jumpi\n      dup1\n      0x1f\n      lt\n      tag_20\n      jumpi\n      0x0100\n      dup1\n      dup4\n      sload\n      div\n      mul\n      dup4\n      mstore\n      swap2\n      0x20\n      add\n      swap2\n      jump(tag_19)\n    tag_20:\n      dup3\n      add\n      swap2\n      swap1\n      0x00\n      mstore\n      keccak256(0x00, 0x20)\n      swap1\n    tag_21:\n      dup2\n      sload\n      dup2\n      mstore\n      swap1\n      0x01\n      add\n      swap1\n      0x20\n      add\n      dup1\n      dup4\n      gt\n      tag_21\n      jumpi\n      dup3\n      swap1\n      sub\n      0x1f\n      and\n      dup3\n      add\n      swap2\n    tag_19:\n      pop\n      pop\n      pop\n      pop\n      pop\n      dup2\n      mstore\n      0x20\n      add\n      0x02\n      dup3\n      add\n      0x00\n      swap1\n      sload\n      swap1\n      0x0100\n      exp\n      swap1\n      div\n      0xffff\n      and\n      0xffff\n      and\n      0xffff\n      and\n      dup2\n      mstore\n      0x20\n      add\n      0x02\n      dup3\n      add\n      0x02\n      swap1\n      sload\n      swap1\n      0x0100\n      exp\n      swap1\n      div\n      0xffffffffffffffffffffffffffffffffffffffff\n      and\n      0xffffffffffffffffffffffffffffffffffffffff\n      and\n      0xffffffffffffffffffffffffffffffffffffffff\n      and\n      dup2\n      mstore\n      pop\n      pop\n      swap1\n      pop\n        /* \"Updraft/04 struct.sol\":524:603  function get()public view returns(Person memory){... */\n      swap1\n      jump\t// out\n        /* \"Updraft/04 struct.sol\":236:514  function set(uint256 _FavoriteNumber, string memory _FullName, uint16 _Age, address _wallet)public {... */\n    tag_12:\n        /* \"Updraft/04 struct.sol\":355:507  Person({... */\n      mload(0x40)\n      dup1\n      0x80\n      add\n      0x40\n      mstore\n      dup1\n        /* \"Updraft/04 struct.sol\":394:409  _FavoriteNumber */\n      dup6\n        /* \"Updraft/04 struct.sol\":355:507  Person({... */\n      dup2\n      mstore\n      0x20\n      add\n        /* \"Updraft/04 struct.sol\":433:442  _FullName */\n      dup5\n        /* \"Updraft/04 struct.sol\":355:507  Person({... */\n      dup2\n      mstore\n      0x20\n      add\n        /* \"Updraft/04 struct.sol\":461:465  _Age */\n      dup4\n        /* \"Updraft/04 struct.sol\":355:507  Person({... */\n      0xffff\n      and\n      dup2\n      mstore\n      0x20\n      add\n        /* \"Updraft/04 struct.sol\":489:496  _wallet */\n      dup3\n        /* \"Updraft/04 struct.sol\":355:507  Person({... */\n      0xffffffffffffffffffffffffffffffffffffffff\n      and\n      dup2\n      mstore\n      pop\n        /* \"Updraft/04 struct.sol\":345:352  student */\n      0x00\n        /* \"Updraft/04 struct.sol\":345:507  student = Person({... */\n      dup1\n      dup3\n      add\n      mload\n      dup2\n      0x00\n      add\n      sstore\n      0x20\n      dup3\n      add\n      mload\n      dup2\n      0x01\n      add\n      swap1\n      dup2\n      tag_23\n      swap2\n      swap1\n      tag_24\n      jump\t// in\n    tag_23:\n      pop\n      0x40\n      dup3\n      add\n      mload\n      dup2\n      0x02\n      add\n      exp(0x0100, 0x00)\n      dup2\n      sload\n      dup2\n      0xffff\n      mul\n      not\n      and\n      swap1\n      dup4\n      0xffff\n      and\n      mul\n      or\n      swap1\n      sstore\n      pop\n      0x60\n      dup3\n      add\n      mload\n      dup2\n      0x02\n      add\n      exp(0x0100, 0x02)\n      dup2\n      sload\n      dup2\n      0xffffffffffffffffffffffffffffffffffffffff\n      mul\n      not\n      and\n      swap1\n      dup4\n      0xffffffffffffffffffffffffffffffffffffffff\n      and\n      mul\n      or\n      swap1\n      sstore\n      pop\n      swap1\n      pop\n      pop\n        /* \"Updraft/04 struct.sol\":236:514  function set(uint256 _FavoriteNumber, string memory _FullName, uint16 _Age, address _wallet)public {... */\n      pop\n      pop\n      pop\n      pop\n      jump\t// out\n    tag_14:\n      mload(0x40)\n      dup1\n      0x80\n      add\n      0x40\n      mstore\n      dup1\n      0x00\n      dup2\n      mstore\n      0x20\n      add\n      0x60\n      dup2\n      mstore\n      0x20\n      add\n      and(0xffff, 0x00)\n      dup2\n      mstore\n      0x20\n      add\n      and(0xffffffffffffffffffffffffffffffffffffffff, 0x00)\n      dup2\n      mstore\n      pop\n      swap1\n      jump\t// out\n        /* \"#utility.yul\":7:84   */\n    tag_25:\n        /* \"#utility.yul\":44:51   */\n      0x00\n        /* \"#utility.yul\":73:78   */\n      dup2\n        /* \"#utility.yul\":62:78   */\n      swap1\n      pop\n        /* \"#utility.yul\":7:84   */\n      swap2\n      swap1\n      pop\n      jump\t// out\n        /* \"#utility.yul\":90:198   */\n    tag_26:\n        /* \"#utility.yul\":167:191   */\n      tag_75\n        /* \"#utility.yul\":185:190   */\n      dup2\n        /* \"#utility.yul\":167:191   */\n      tag_25\n      jump\t// in\n    tag_75:\n        /* \"#utility.yul\":162:165   */\n      dup3\n        /* \"#utility.yul\":155:192   */\n      mstore\n        /* \"#utility.yul\":90:198   */\n      pop\n      pop\n      jump\t// out\n        /* \"#utility.yul\":204:303   */\n    tag_27:\n        /* \"#utility.yul\":256:262   */\n      0x00\n        /* \"#utility.yul\":290:295   */\n      dup2\n        /* \"#utility.yul\":284:296   */\n      mload\n        /* \"#utility.yul\":274:296   */\n      swap1\n      pop\n        /* \"#utility.yul\":204:303   */\n      swap2\n      swap1\n      pop\n      jump\t// out\n        /* \"#utility.yul\":309:468   */\n    tag_28:\n        /* \"#utility.yul\":383:394   */\n      0x00\n        /* \"#utility.yul\":417:423   */\n      dup3\n        /* \"#utility.yul\":412:415   */\n      dup3\n        /* \"#utility.yul\":405:424   */\n      mstore\n        /* \"#utility.yul\":457:461   */\n      0x20\n        /* \"#utility.yul\":452:455   */\n      dup3\n        /* \"#utility.yul\":448:462   */\n      add\n        /* \"#utility.yul\":433:462   */\n      swap1\n      pop\n        /* \"#utility.yul\":309:468   */\n      swap3\n      swap2\n      pop\n      pop\n      jump\t// out\n        /* \"#utility.yul\":474:613   */\n    tag_29:\n        /* \"#utility.yul\":563:569   */\n      dup3\n        /* \"#utility.yul\":558:561   */\n      dup2\n        /* \"#utility.yul\":553:556   */\n      dup4\n        /* \"#utility.yul\":547:570   */\n      mcopy\n        /* \"#utility.yul\":604:605   */\n      0x00\n        /* \"#utility.yul\":595:601   */\n      dup4\n        /* \"#utility.yul\":590:593   */\n      dup4\n        /* \"#utility.yul\":586:602   */\n      add\n        /* \"#utility.yul\":579:606   */\n      mstore\n        /* \"#utility.yul\":474:613   */\n      pop\n      pop\n      pop\n      jump\t// out\n        /* \"#utility.yul\":619:721   */\n    tag_30:\n        /* \"#utility.yul\":660:666   */\n      0x00\n        /* \"#utility.yul\":711:713   */\n      0x1f\n        /* \"#utility.yul\":707:714   */\n      not\n        /* \"#utility.yul\":702:704   */\n      0x1f\n        /* \"#utility.yul\":695:700   */\n      dup4\n        /* \"#utility.yul\":691:705   */\n      add\n        /* \"#utility.yul\":687:715   */\n      and\n        /* \"#utility.yul\":677:715   */\n      swap1\n      pop\n        /* \"#utility.yul\":619:721   */\n      swap2\n      swap1\n      pop\n      jump\t// out\n        /* \"#utility.yul\":727:1084   */\n    tag_31:\n        /* \"#utility.yul\":805:808   */\n      0x00\n        /* \"#utility.yul\":833:872   */\n      tag_81\n        /* \"#utility.yul\":866:871   */\n      dup3\n        /* \"#utility.yul\":833:872   */\n      tag_27\n      jump\t// in\n    tag_81:\n        /* \"#utility.yul\":888:949   */\n      tag_82\n        /* \"#utility.yul\":942:948   */\n      dup2\n        /* \"#utility.yul\":937:940   */\n      dup6\n        /* \"#utility.yul\":888:949   */\n      tag_28\n      jump\t// in\n    tag_82:\n        /* \"#utility.yul\":881:949   */\n      swap4\n      pop\n        /* \"#utility.yul\":958:1023   */\n      tag_83\n        /* \"#utility.yul\":1016:1022   */\n      dup2\n        /* \"#utility.yul\":1011:1014   */\n      dup6\n        /* \"#utility.yul\":1004:1008   */\n      0x20\n        /* \"#utility.yul\":997:1002   */\n      dup7\n        /* \"#utility.yul\":993:1009   */\n      add\n        /* \"#utility.yul\":958:1023   */\n      tag_29\n      jump\t// in\n    tag_83:\n        /* \"#utility.yul\":1048:1077   */\n      tag_84\n        /* \"#utility.yul\":1070:1076   */\n      dup2\n        /* \"#utility.yul\":1048:1077   */\n      tag_30\n      jump\t// in\n    tag_84:\n        /* \"#utility.yul\":1043:1046   */\n      dup5\n        /* \"#utility.yul\":1039:1078   */\n      add\n        /* \"#utility.yul\":1032:1078   */\n      swap2\n      pop\n        /* \"#utility.yul\":809:1084   */\n      pop\n        /* \"#utility.yul\":727:1084   */\n      swap3\n      swap2\n      pop\n      pop\n      jump\t// out\n        /* \"#utility.yul\":1090:1179   */\n    tag_32:\n        /* \"#utility.yul\":1126:1133   */\n      0x00\n        /* \"#utility.yul\":1166:1172   */\n      0xffff\n        /* \"#utility.yul\":1159:1164   */\n      dup3\n        /* \"#utility.yul\":1155:1173   */\n      and\n        /* \"#utility.yul\":1144:1173   */\n      swap1\n      pop\n        /* \"#utility.yul\":1090:1179   */\n      swap2\n      swap1\n      pop\n      jump\t// out\n        /* \"#utility.yul\":1185:1290   */\n    tag_33:\n        /* \"#utility.yul\":1260:1283   */\n      tag_87\n        /* \"#utility.yul\":1277:1282   */\n      dup2\n        /* \"#utility.yul\":1260:1283   */\n      tag_32\n      jump\t// in\n    tag_87:\n        /* \"#utility.yul\":1255:1258   */\n      dup3\n        /* \"#utility.yul\":1248:1284   */\n      mstore\n        /* \"#utility.yul\":1185:1290   */\n      pop\n      pop\n      jump\t// out\n        /* \"#utility.yul\":1296:1422   */\n    tag_34:\n        /* \"#utility.yul\":1333:1340   */\n      0x00\n        /* \"#utility.yul\":1373:1415   */\n      0xffffffffffffffffffffffffffffffffffffffff\n        /* \"#utility.yul\":1366:1371   */\n      dup3\n        /* \"#utility.yul\":1362:1416   */\n      and\n        /* \"#utility.yul\":1351:1416   */\n      swap1\n      pop\n        /* \"#utility.yul\":1296:1422   */\n      swap2\n      swap1\n      pop\n      jump\t// out\n        /* \"#utility.yul\":1428:1524   */\n    tag_35:\n        /* \"#utility.yul\":1465:1472   */\n      0x00\n        /* \"#utility.yul\":1494:1518   */\n      tag_90\n        /* \"#utility.yul\":1512:1517   */\n      dup3\n        /* \"#utility.yul\":1494:1518   */\n      tag_34\n      jump\t// in\n    tag_90:\n        /* \"#utility.yul\":1483:1518   */\n      swap1\n      pop\n        /* \"#utility.yul\":1428:1524   */\n      swap2\n      swap1\n      pop\n      jump\t// out\n        /* \"#utility.yul\":1530:1638   */\n    tag_36:\n        /* \"#utility.yul\":1607:1631   */\n      tag_92\n        /* \"#utility.yul\":1625:1630   */\n      dup2\n        /* \"#utility.yul\":1607:1631   */\n      tag_35\n      jump\t// in\n    tag_92:\n        /* \"#utility.yul\":1602:1605   */\n      dup3\n        /* \"#utility.yul\":1595:1632   */\n      mstore\n        /* \"#utility.yul\":1530:1638   */\n      pop\n      pop\n      jump\t// out\n        /* \"#utility.yul\":1708:2673   */\n    tag_37:\n        /* \"#utility.yul\":1821:1824   */\n      0x00\n        /* \"#utility.yul\":1857:1861   */\n      0x80\n        /* \"#utility.yul\":1852:1855   */\n      dup4\n        /* \"#utility.yul\":1848:1862   */\n      add\n        /* \"#utility.yul\":1956:1960   */\n      0x00\n        /* \"#utility.yul\":1949:1954   */\n      dup4\n        /* \"#utility.yul\":1945:1961   */\n      add\n        /* \"#utility.yul\":1939:1962   */\n      mload\n        /* \"#utility.yul\":1975:2038   */\n      tag_94\n        /* \"#utility.yul\":2032:2036   */\n      0x00\n        /* \"#utility.yul\":2027:2030   */\n      dup7\n        /* \"#utility.yul\":2023:2037   */\n      add\n        /* \"#utility.yul\":2009:2021   */\n      dup3\n        /* \"#utility.yul\":1975:2038   */\n      tag_26\n      jump\t// in\n    tag_94:\n        /* \"#utility.yul\":1872:2048   */\n      pop\n        /* \"#utility.yul\":2134:2138   */\n      0x20\n        /* \"#utility.yul\":2127:2132   */\n      dup4\n        /* \"#utility.yul\":2123:2139   */\n      add\n        /* \"#utility.yul\":2117:2140   */\n      mload\n        /* \"#utility.yul\":2187:2190   */\n      dup5\n        /* \"#utility.yul\":2181:2185   */\n      dup3\n        /* \"#utility.yul\":2177:2191   */\n      sub\n        /* \"#utility.yul\":2170:2174   */\n      0x20\n        /* \"#utility.yul\":2165:2168   */\n      dup7\n        /* \"#utility.yul\":2161:2175   */\n      add\n        /* \"#utility.yul\":2154:2192   */\n      mstore\n        /* \"#utility.yul\":2213:2286   */\n      tag_95\n        /* \"#utility.yul\":2281:2285   */\n      dup3\n        /* \"#utility.yul\":2267:2279   */\n      dup3\n        /* \"#utility.yul\":2213:2286   */\n      tag_31\n      jump\t// in\n    tag_95:\n        /* \"#utility.yul\":2205:2286   */\n      swap2\n      pop\n        /* \"#utility.yul\":2058:2297   */\n      pop\n        /* \"#utility.yul\":2378:2382   */\n      0x40\n        /* \"#utility.yul\":2371:2376   */\n      dup4\n        /* \"#utility.yul\":2367:2383   */\n      add\n        /* \"#utility.yul\":2361:2384   */\n      mload\n        /* \"#utility.yul\":2397:2458   */\n      tag_96\n        /* \"#utility.yul\":2452:2456   */\n      0x40\n        /* \"#utility.yul\":2447:2450   */\n      dup7\n        /* \"#utility.yul\":2443:2457   */\n      add\n        /* \"#utility.yul\":2429:2441   */\n      dup3\n        /* \"#utility.yul\":2397:2458   */\n      tag_33\n      jump\t// in\n    tag_96:\n        /* \"#utility.yul\":2307:2468   */\n      pop\n        /* \"#utility.yul\":2554:2558   */\n      0x60\n        /* \"#utility.yul\":2547:2552   */\n      dup4\n        /* \"#utility.yul\":2543:2559   */\n      add\n        /* \"#utility.yul\":2537:2560   */\n      mload\n        /* \"#utility.yul\":2573:2636   */\n      tag_97\n        /* \"#utility.yul\":2630:2634   */\n      0x60\n        /* \"#utility.yul\":2625:2628   */\n      dup7\n        /* \"#utility.yul\":2621:2635   */\n      add\n        /* \"#utility.yul\":2607:2619   */\n      dup3\n        /* \"#utility.yul\":2573:2636   */\n      tag_36\n      jump\t// in\n    tag_97:\n        /* \"#utility.yul\":2478:2646   */\n      pop\n        /* \"#utility.yul\":2663:2667   */\n      dup1\n        /* \"#utility.yul\":2656:2667   */\n      swap2\n      pop\n        /* \"#utility.yul\":1826:2673   */\n      pop\n        /* \"#utility.yul\":1708:2673   */\n      swap3\n      swap2\n      pop\n      pop\n      jump\t// out\n        /* \"#utility.yul\":2679:3040   */\n    tag_8:\n        /* \"#utility.yul\":2816:2820   */\n      0x00\n        /* \"#utility.yul\":2854:2856   */\n      0x20\n        /* \"#utility.yul\":2843:2852   */\n      dup3\n        /* \"#utility.yul\":2839:2857   */\n      add\n        /* \"#utility.yul\":2831:2857   */\n      swap1\n      pop\n        /* \"#utility.yul\":2903:2912   */\n      dup2\n        /* \"#utility.yul\":2897:2901   */\n      dup2\n        /* \"#utility.yul\":2893:2913   */\n      sub\n        /* \"#utility.yul\":2889:2890   */\n      0x00\n        /* \"#utility.yul\":2878:2887   */\n      dup4\n        /* \"#utility.yul\":2874:2891   */\n      add\n        /* \"#utility.yul\":2867:2914   */\n      mstore\n        /* \"#utility.yul\":2931:3033   */\n      tag_99\n        /* \"#utility.yul\":3028:3032   */\n      dup2\n        /* \"#utility.yul\":3019:3025   */\n      dup5\n        /* \"#utility.yul\":2931:3033   */\n      tag_37\n      jump\t// in\n    tag_99:\n        /* \"#utility.yul\":2923:3033   */\n      swap1\n      pop\n        /* \"#utility.yul\":2679:3040   */\n      swap3\n      swap2\n      pop\n      pop\n      jump\t// out\n        /* \"#utility.yul\":3046:3121   */\n    tag_38:\n        /* \"#utility.yul\":3079:3085   */\n      0x00\n        /* \"#utility.yul\":3112:3114   */\n      0x40\n        /* \"#utility.yul\":3106:3115   */\n      mload\n        /* \"#utility.yul\":3096:3115   */\n      swap1\n      pop\n        /* \"#utility.yul\":3046:3121   */\n      swap1\n      jump\t// out\n        /* \"#utility.yul\":3127:3244   */\n    tag_39:\n        /* \"#utility.yul\":3236:3237   */\n      0x00\n        /* \"#utility.yul\":3233:3234   */\n      dup1\n        /* \"#utility.yul\":3226:3238   */\n      revert\n        /* \"#utility.yul\":3250:3367   */\n    tag_40:\n        /* \"#utility.yul\":3359:3360   */\n      0x00\n        /* \"#utility.yul\":3356:3357   */\n      dup1\n        /* \"#utility.yul\":3349:3361   */\n      revert\n        /* \"#utility.yul\":3373:3495   */\n    tag_41:\n        /* \"#utility.yul\":3446:3470   */\n      tag_104\n        /* \"#utility.yul\":3464:3469   */\n      dup2\n        /* \"#utility.yul\":3446:3470   */\n      tag_25\n      jump\t// in\n    tag_104:\n        /* \"#utility.yul\":3439:3444   */\n      dup2\n        /* \"#utility.yul\":3436:3471   */\n      eq\n        /* \"#utility.yul\":3426:3489   */\n      tag_105\n      jumpi\n        /* \"#utility.yul\":3485:3486   */\n      0x00\n        /* \"#utility.yul\":3482:3483   */\n      dup1\n        /* \"#utility.yul\":3475:3487   */\n      revert\n        /* \"#utility.yul\":3426:3489   */\n    tag_105:\n        /* \"#utility.yul\":3373:3495   */\n      pop\n      jump\t// out\n        /* \"#utility.yul\":3501:3640   */\n    tag_42:\n        /* \"#utility.yul\":3547:3552   */\n      0x00\n        /* \"#utility.yul\":3585:3591   */\n      dup2\n        /* \"#utility.yul\":3572:3592   */\n      calldataload\n        /* \"#utility.yul\":3563:3592   */\n      swap1\n      pop\n        /* \"#utility.yul\":3601:3634   */\n      tag_107\n        /* \"#utility.yul\":3628:3633   */\n      dup2\n        /* \"#utility.yul\":3601:3634   */\n      tag_41\n      jump\t// in\n    tag_107:\n        /* \"#utility.yul\":3501:3640   */\n      swap3\n      swap2\n      pop\n      pop\n      jump\t// out\n        /* \"#utility.yul\":3646:3763   */\n    tag_43:\n        /* \"#utility.yul\":3755:3756   */\n      0x00\n        /* \"#utility.yul\":3752:3753   */\n      dup1\n        /* \"#utility.yul\":3745:3757   */\n      revert\n        /* \"#utility.yul\":3769:3886   */\n    tag_44:\n        /* \"#utility.yul\":3878:3879   */\n      0x00\n        /* \"#utility.yul\":3875:3876   */\n      dup1\n        /* \"#utility.yul\":3868:3880   */\n      revert\n        /* \"#utility.yul\":3892:4072   */\n    tag_45:\n        /* \"#utility.yul\":3940:4017   */\n      0x4e487b7100000000000000000000000000000000000000000000000000000000\n        /* \"#utility.yul\":3937:3938   */\n      0x00\n        /* \"#utility.yul\":3930:4018   */\n      mstore\n        /* \"#utility.yul\":4037:4041   */\n      0x41\n        /* \"#utility.yul\":4034:4035   */\n      0x04\n        /* \"#utility.yul\":4027:4042   */\n      mstore\n        /* \"#utility.yul\":4061:4065   */\n      0x24\n        /* \"#utility.yul\":4058:4059   */\n      0x00\n        /* \"#utility.yul\":4051:4066   */\n      revert\n        /* \"#utility.yul\":4078:4359   */\n    tag_46:\n        /* \"#utility.yul\":4161:4188   */\n      tag_112\n        /* \"#utility.yul\":4183:4187   */\n      dup3\n        /* \"#utility.yul\":4161:4188   */\n      tag_30\n      jump\t// in\n    tag_112:\n        /* \"#utility.yul\":4153:4159   */\n      dup2\n        /* \"#utility.yul\":4149:4189   */\n      add\n        /* \"#utility.yul\":4291:4297   */\n      dup2\n        /* \"#utility.yul\":4279:4289   */\n      dup2\n        /* \"#utility.yul\":4276:4298   */\n      lt\n        /* \"#utility.yul\":4255:4273   */\n      0xffffffffffffffff\n        /* \"#utility.yul\":4243:4253   */\n      dup3\n        /* \"#utility.yul\":4240:4274   */\n      gt\n        /* \"#utility.yul\":4237:4299   */\n      or\n        /* \"#utility.yul\":4234:4322   */\n      iszero\n      tag_113\n      jumpi\n        /* \"#utility.yul\":4302:4320   */\n      tag_114\n      tag_45\n      jump\t// in\n    tag_114:\n        /* \"#utility.yul\":4234:4322   */\n    tag_113:\n        /* \"#utility.yul\":4342:4352   */\n      dup1\n        /* \"#utility.yul\":4338:4340   */\n      0x40\n        /* \"#utility.yul\":4331:4353   */\n      mstore\n        /* \"#utility.yul\":4121:4359   */\n      pop\n        /* \"#utility.yul\":4078:4359   */\n      pop\n      pop\n      jump\t// out\n        /* \"#utility.yul\":4365:4494   */\n    tag_47:\n        /* \"#utility.yul\":4399:4405   */\n      0x00\n        /* \"#utility.yul\":4426:4446   */\n      tag_116\n      tag_38\n      jump\t// in\n    tag_116:\n        /* \"#utility.yul\":4416:4446   */\n      swap1\n      pop\n        /* \"#utility.yul\":4455:4488   */\n      tag_117\n        /* \"#utility.yul\":4483:4487   */\n      dup3\n        /* \"#utility.yul\":4475:4481   */\n      dup3\n        /* \"#utility.yul\":4455:4488   */\n      tag_46\n      jump\t// in\n    tag_117:\n        /* \"#utility.yul\":4365:4494   */\n      swap2\n      swap1\n      pop\n      jump\t// out\n        /* \"#utility.yul\":4500:4808   */\n    tag_48:\n        /* \"#utility.yul\":4562:4566   */\n      0x00\n        /* \"#utility.yul\":4652:4670   */\n      0xffffffffffffffff\n        /* \"#utility.yul\":4644:4650   */\n      dup3\n        /* \"#utility.yul\":4641:4671   */\n      gt\n        /* \"#utility.yul\":4638:4694   */\n      iszero\n      tag_119\n      jumpi\n        /* \"#utility.yul\":4674:4692   */\n      tag_120\n      tag_45\n      jump\t// in\n    tag_120:\n        /* \"#utility.yul\":4638:4694   */\n    tag_119:\n        /* \"#utility.yul\":4712:4741   */\n      tag_121\n        /* \"#utility.yul\":4734:4740   */\n      dup3\n        /* \"#utility.yul\":4712:4741   */\n      tag_30\n      jump\t// in\n    tag_121:\n        /* \"#utility.yul\":4704:4741   */\n      swap1\n      pop\n        /* \"#utility.yul\":4796:4800   */\n      0x20\n        /* \"#utility.yul\":4790:4794   */\n      dup2\n        /* \"#utility.yul\":4786:4801   */\n      add\n        /* \"#utility.yul\":4778:4801   */\n      swap1\n      pop\n        /* \"#utility.yul\":4500:4808   */\n      swap2\n      swap1\n      pop\n      jump\t// out\n        /* \"#utility.yul\":4814:4962   */\n    tag_49:\n        /* \"#utility.yul\":4912:4918   */\n      dup3\n        /* \"#utility.yul\":4907:4910   */\n      dup2\n        /* \"#utility.yul\":4902:4905   */\n      dup4\n        /* \"#utility.yul\":4889:4919   */\n      calldatacopy\n        /* \"#utility.yul\":4953:4954   */\n      0x00\n        /* \"#utility.yul\":4944:4950   */\n      dup4\n        /* \"#utility.yul\":4939:4942   */\n      dup4\n        /* \"#utility.yul\":4935:4951   */\n      add\n        /* \"#utility.yul\":4928:4955   */\n      mstore\n        /* \"#utility.yul\":4814:4962   */\n      pop\n      pop\n      pop\n      jump\t// out\n        /* \"#utility.yul\":4968:5393   */\n    tag_50:\n        /* \"#utility.yul\":5046:5051   */\n      0x00\n        /* \"#utility.yul\":5071:5137   */\n      tag_124\n        /* \"#utility.yul\":5087:5136   */\n      tag_125\n        /* \"#utility.yul\":5129:5135   */\n      dup5\n        /* \"#utility.yul\":5087:5136   */\n      tag_48\n      jump\t// in\n    tag_125:\n        /* \"#utility.yul\":5071:5137   */\n      tag_47\n      jump\t// in\n    tag_124:\n        /* \"#utility.yul\":5062:5137   */\n      swap1\n      pop\n        /* \"#utility.yul\":5160:5166   */\n      dup3\n        /* \"#utility.yul\":5153:5158   */\n      dup2\n        /* \"#utility.yul\":5146:5167   */\n      mstore\n        /* \"#utility.yul\":5198:5202   */\n      0x20\n        /* \"#utility.yul\":5191:5196   */\n      dup2\n        /* \"#utility.yul\":5187:5203   */\n      add\n        /* \"#utility.yul\":5236:5239   */\n      dup5\n        /* \"#utility.yul\":5227:5233   */\n      dup5\n        /* \"#utility.yul\":5222:5225   */\n      dup5\n        /* \"#utility.yul\":5218:5234   */\n      add\n        /* \"#utility.yul\":5215:5240   */\n      gt\n        /* \"#utility.yul\":5212:5324   */\n      iszero\n      tag_126\n      jumpi\n        /* \"#utility.yul\":5243:5322   */\n      tag_127\n      tag_44\n      jump\t// in\n    tag_127:\n        /* \"#utility.yul\":5212:5324   */\n    tag_126:\n        /* \"#utility.yul\":5333:5387   */\n      tag_128\n        /* \"#utility.yul\":5380:5386   */\n      dup5\n        /* \"#utility.yul\":5375:5378   */\n      dup3\n        /* \"#utility.yul\":5370:5373   */\n      dup6\n        /* \"#utility.yul\":5333:5387   */\n      tag_49\n      jump\t// in\n    tag_128:\n        /* \"#utility.yul\":5052:5393   */\n      pop\n        /* \"#utility.yul\":4968:5393   */\n      swap4\n      swap3\n      pop\n      pop\n      pop\n      jump\t// out\n        /* \"#utility.yul\":5413:5753   */\n    tag_51:\n        /* \"#utility.yul\":5469:5474   */\n      0x00\n        /* \"#utility.yul\":5518:5521   */\n      dup3\n        /* \"#utility.yul\":5511:5515   */\n      0x1f\n        /* \"#utility.yul\":5503:5509   */\n      dup4\n        /* \"#utility.yul\":5499:5516   */\n      add\n        /* \"#utility.yul\":5495:5522   */\n      slt\n        /* \"#utility.yul\":5485:5607   */\n      tag_130\n      jumpi\n        /* \"#utility.yul\":5526:5605   */\n      tag_131\n      tag_43\n      jump\t// in\n    tag_131:\n        /* \"#utility.yul\":5485:5607   */\n    tag_130:\n        /* \"#utility.yul\":5643:5649   */\n      dup2\n        /* \"#utility.yul\":5630:5650   */\n      calldataload\n        /* \"#utility.yul\":5668:5747   */\n      tag_132\n        /* \"#utility.yul\":5743:5746   */\n      dup5\n        /* \"#utility.yul\":5735:5741   */\n      dup3\n        /* \"#utility.yul\":5728:5732   */\n      0x20\n        /* \"#utility.yul\":5720:5726   */\n      dup7\n        /* \"#utility.yul\":5716:5733   */\n      add\n        /* \"#utility.yul\":5668:5747   */\n      tag_50\n      jump\t// in\n    tag_132:\n        /* \"#utility.yul\":5659:5747   */\n      swap2\n      pop\n        /* \"#utility.yul\":5475:5753   */\n      pop\n        /* \"#utility.yul\":5413:5753   */\n      swap3\n      swap2\n      pop\n      pop\n      jump\t// out\n        /* \"#utility.yul\":5759:5879   */\n    tag_52:\n        /* \"#utility.yul\":5831:5854   */\n      tag_134\n        /* \"#utility.yul\":5848:5853   */\n      dup2\n        /* \"#utility.yul\":5831:5854   */\n      tag_32\n      jump\t// in\n    tag_134:\n        /* \"#utility.yul\":5824:5829   */\n      dup2\n        /* \"#utility.yul\":5821:5855   */\n      eq\n        /* \"#utility.yul\":5811:5873   */\n      tag_135\n      jumpi\n        /* \"#utility.yul\":5869:5870   */\n      0x00\n        /* \"#utility.yul\":5866:5867   */\n      dup1\n        /* \"#utility.yul\":5859:5871   */\n      revert\n        /* \"#utility.yul\":5811:5873   */\n    tag_135:\n        /* \"#utility.yul\":5759:5879   */\n      pop\n      jump\t// out\n        /* \"#utility.yul\":5885:6022   */\n    tag_53:\n        /* \"#utility.yul\":5930:5935   */\n      0x00\n        /* \"#utility.yul\":5968:5974   */\n      dup2\n        /* \"#utility.yul\":5955:5975   */\n      calldataload\n        /* \"#utility.yul\":5946:5975   */\n      swap1\n      pop\n        /* \"#utility.yul\":5984:6016   */\n      tag_137\n        /* \"#utility.yul\":6010:6015   */\n      dup2\n        /* \"#utility.yul\":5984:6016   */\n      tag_52\n      jump\t// in\n    tag_137:\n        /* \"#utility.yul\":5885:6022   */\n      swap3\n      swap2\n      pop\n      pop\n      jump\t// out\n        /* \"#utility.yul\":6028:6150   */\n    tag_54:\n        /* \"#utility.yul\":6101:6125   */\n      tag_139\n        /* \"#utility.yul\":6119:6124   */\n      dup2\n        /* \"#utility.yul\":6101:6125   */\n      tag_35\n      jump\t// in\n    tag_139:\n        /* \"#utility.yul\":6094:6099   */\n      dup2\n        /* \"#utility.yul\":6091:6126   */\n      eq\n        /* \"#utility.yul\":6081:6144   */\n      tag_140\n      jumpi\n        /* \"#utility.yul\":6140:6141   */\n      0x00\n        /* \"#utility.yul\":6137:6138   */\n      dup1\n        /* \"#utility.yul\":6130:6142   */\n      revert\n        /* \"#utility.yul\":6081:6144   */\n    tag_140:\n        /* \"#utility.yul\":6028:6150   */\n      pop\n      jump\t// out\n        /* \"#utility.yul\":6156:6295   */\n    tag_55:\n        /* \"#utility.yul\":6202:6207   */\n      0x00\n        /* \"#utility.yul\":6240:6246   */\n      dup2\n        /* \"#utility.yul\":6227:6247   */\n      calldataload\n        /* \"#utility.yul\":6218:6247   */\n      swap1\n      pop\n        /* \"#utility.yul\":6256:6289   */\n      tag_142\n        /* \"#utility.yul\":6283:6288   */\n      dup2\n        /* \"#utility.yul\":6256:6289   */\n      tag_54\n      jump\t// in\n    tag_142:\n        /* \"#utility.yul\":6156:6295   */\n      swap3\n      swap2\n      pop\n      pop\n      jump\t// out\n        /* \"#utility.yul\":6301:7244   */\n    tag_11:\n        /* \"#utility.yul\":6396:6402   */\n      0x00\n        /* \"#utility.yul\":6404:6410   */\n      dup1\n        /* \"#utility.yul\":6412:6418   */\n      0x00\n        /* \"#utility.yul\":6420:6426   */\n      dup1\n        /* \"#utility.yul\":6469:6472   */\n      0x80\n        /* \"#utility.yul\":6457:6466   */\n      dup6\n        /* \"#utility.yul\":6448:6455   */\n      dup8\n        /* \"#utility.yul\":6444:6467   */\n      sub\n        /* \"#utility.yul\":6440:6473   */\n      slt\n        /* \"#utility.yul\":6437:6557   */\n      iszero\n      tag_144\n      jumpi\n        /* \"#utility.yul\":6476:6555   */\n      tag_145\n      tag_39\n      jump\t// in\n    tag_145:\n        /* \"#utility.yul\":6437:6557   */\n    tag_144:\n        /* \"#utility.yul\":6596:6597   */\n      0x00\n        /* \"#utility.yul\":6621:6674   */\n      tag_146\n        /* \"#utility.yul\":6666:6673   */\n      dup8\n        /* \"#utility.yul\":6657:6663   */\n      dup3\n        /* \"#utility.yul\":6646:6655   */\n      dup9\n        /* \"#utility.yul\":6642:6664   */\n      add\n        /* \"#utility.yul\":6621:6674   */\n      tag_42\n      jump\t// in\n    tag_146:\n        /* \"#utility.yul\":6611:6674   */\n      swap5\n      pop\n        /* \"#utility.yul\":6567:6684   */\n      pop\n        /* \"#utility.yul\":6751:6753   */\n      0x20\n        /* \"#utility.yul\":6740:6749   */\n      dup6\n        /* \"#utility.yul\":6736:6754   */\n      add\n        /* \"#utility.yul\":6723:6755   */\n      calldataload\n        /* \"#utility.yul\":6782:6800   */\n      0xffffffffffffffff\n        /* \"#utility.yul\":6774:6780   */\n      dup2\n        /* \"#utility.yul\":6771:6801   */\n      gt\n        /* \"#utility.yul\":6768:6885   */\n      iszero\n      tag_147\n      jumpi\n        /* \"#utility.yul\":6804:6883   */\n      tag_148\n      tag_40\n      jump\t// in\n    tag_148:\n        /* \"#utility.yul\":6768:6885   */\n    tag_147:\n        /* \"#utility.yul\":6909:6972   */\n      tag_149\n        /* \"#utility.yul\":6964:6971   */\n      dup8\n        /* \"#utility.yul\":6955:6961   */\n      dup3\n        /* \"#utility.yul\":6944:6953   */\n      dup9\n        /* \"#utility.yul\":6940:6962   */\n      add\n        /* \"#utility.yul\":6909:6972   */\n      tag_51\n      jump\t// in\n    tag_149:\n        /* \"#utility.yul\":6899:6972   */\n      swap4\n      pop\n        /* \"#utility.yul\":6694:6982   */\n      pop\n        /* \"#utility.yul\":7021:7023   */\n      0x40\n        /* \"#utility.yul\":7047:7099   */\n      tag_150\n        /* \"#utility.yul\":7091:7098   */\n      dup8\n        /* \"#utility.yul\":7082:7088   */\n      dup3\n        /* \"#utility.yul\":7071:7080   */\n      dup9\n        /* \"#utility.yul\":7067:7089   */\n      add\n        /* \"#utility.yul\":7047:7099   */\n      tag_53\n      jump\t// in\n    tag_150:\n        /* \"#utility.yul\":7037:7099   */\n      swap3\n      pop\n        /* \"#utility.yul\":6992:7109   */\n      pop\n        /* \"#utility.yul\":7148:7150   */\n      0x60\n        /* \"#utility.yul\":7174:7227   */\n      tag_151\n        /* \"#utility.yul\":7219:7226   */\n      dup8\n        /* \"#utility.yul\":7210:7216   */\n      dup3\n        /* \"#utility.yul\":7199:7208   */\n      dup9\n        /* \"#utility.yul\":7195:7217   */\n      add\n        /* \"#utility.yul\":7174:7227   */\n      tag_55\n      jump\t// in\n    tag_151:\n        /* \"#utility.yul\":7164:7227   */\n      swap2\n      pop\n        /* \"#utility.yul\":7119:7237   */\n      pop\n        /* \"#utility.yul\":6301:7244   */\n      swap3\n      swap6\n      swap2\n      swap5\n      pop\n      swap3\n      pop\n      jump\t// out\n        /* \"#utility.yul\":7250:7430   */\n    tag_56:\n        /* \"#utility.yul\":7298:7375   */\n      0x4e487b7100000000000000000000000000000000000000000000000000000000\n        /* \"#utility.yul\":7295:7296   */\n      0x00\n        /* \"#utility.yul\":7288:7376   */\n      mstore\n        /* \"#utility.yul\":7395:7399   */\n      0x22\n        /* \"#utility.yul\":7392:7393   */\n      0x04\n        /* \"#utility.yul\":7385:7400   */\n      mstore\n        /* \"#utility.yul\":7419:7423   */\n      0x24\n        /* \"#utility.yul\":7416:7417   */\n      0x00\n        /* \"#utility.yul\":7409:7424   */\n      revert\n        /* \"#utility.yul\":7436:7756   */\n    tag_17:\n        /* \"#utility.yul\":7480:7486   */\n      0x00\n        /* \"#utility.yul\":7517:7518   */\n      0x02\n        /* \"#utility.yul\":7511:7515   */\n      dup3\n        /* \"#utility.yul\":7507:7519   */\n      div\n        /* \"#utility.yul\":7497:7519   */\n      swap1\n      pop\n        /* \"#utility.yul\":7564:7565   */\n      0x01\n        /* \"#utility.yul\":7558:7562   */\n      dup3\n        /* \"#utility.yul\":7554:7566   */\n      and\n        /* \"#utility.yul\":7585:7603   */\n      dup1\n        /* \"#utility.yul\":7575:7656   */\n      tag_154\n      jumpi\n        /* \"#utility.yul\":7641:7645   */\n      0x7f\n        /* \"#utility.yul\":7633:7639   */\n      dup3\n        /* \"#utility.yul\":7629:7646   */\n      and\n        /* \"#utility.yul\":7619:7646   */\n      swap2\n      pop\n        /* \"#utility.yul\":7575:7656   */\n    tag_154:\n        /* \"#utility.yul\":7703:7705   */\n      0x20\n        /* \"#utility.yul\":7695:7701   */\n      dup3\n        /* \"#utility.yul\":7692:7706   */\n      lt\n        /* \"#utility.yul\":7672:7690   */\n      dup2\n        /* \"#utility.yul\":7669:7707   */\n      sub\n        /* \"#utility.yul\":7666:7750   */\n      tag_155\n      jumpi\n        /* \"#utility.yul\":7722:7740   */\n      tag_156\n      tag_56\n      jump\t// in\n    tag_156:\n        /* \"#utility.yul\":7666:7750   */\n    tag_155:\n        /* \"#utility.yul\":7487:7756   */\n      pop\n        /* \"#utility.yul\":7436:7756   */\n      swap2\n      swap1\n      pop\n      jump\t// out\n        /* \"#utility.yul\":7762:7903   */\n    tag_57:\n        /* \"#utility.yul\":7811:7815   */\n      0x00\n        /* \"#utility.yul\":7834:7837   */\n      dup2\n        /* \"#utility.yul\":7826:7837   */\n      swap1\n      pop\n        /* \"#utility.yul\":7857:7860   */\n      dup2\n        /* \"#utility.yul\":7854:7855   */\n      0x00\n        /* \"#utility.yul\":7847:7861   */\n      mstore\n        /* \"#utility.yul\":7891:7895   */\n      0x20\n        /* \"#utility.yul\":7888:7889   */\n      0x00\n        /* \"#utility.yul\":7878:7896   */\n      keccak256\n        /* \"#utility.yul\":7870:7896   */\n      swap1\n      pop\n        /* \"#utility.yul\":7762:7903   */\n      swap2\n      swap1\n      pop\n      jump\t// out\n        /* \"#utility.yul\":7909:8002   */\n    tag_58:\n        /* \"#utility.yul\":7946:7952   */\n      0x00\n        /* \"#utility.yul\":7993:7995   */\n      0x20\n        /* \"#utility.yul\":7988:7990   */\n      0x1f\n        /* \"#utility.yul\":7981:7986   */\n      dup4\n        /* \"#utility.yul\":7977:7991   */\n      add\n        /* \"#utility.yul\":7973:7996   */\n      div\n        /* \"#utility.yul\":7963:7996   */\n      swap1\n      pop\n        /* \"#utility.yul\":7909:8002   */\n      swap2\n      swap1\n      pop\n      jump\t// out\n        /* \"#utility.yul\":8008:8115   */\n    tag_59:\n        /* \"#utility.yul\":8052:8060   */\n      0x00\n        /* \"#utility.yul\":8102:8107   */\n      dup3\n        /* \"#utility.yul\":8096:8100   */\n      dup3\n        /* \"#utility.yul\":8092:8108   */\n      shl\n        /* \"#utility.yul\":8071:8108   */\n      swap1\n      pop\n        /* \"#utility.yul\":8008:8115   */\n      swap3\n      swap2\n      pop\n      pop\n      jump\t// out\n        /* \"#utility.yul\":8121:8514   */\n    tag_60:\n        /* \"#utility.yul\":8190:8196   */\n      0x00\n        /* \"#utility.yul\":8240:8241   */\n      0x08\n        /* \"#utility.yul\":8228:8238   */\n      dup4\n        /* \"#utility.yul\":8224:8242   */\n      mul\n        /* \"#utility.yul\":8263:8360   */\n      tag_161\n        /* \"#utility.yul\":8293:8359   */\n      0xffffffffffffffffffffffffffffffffffffffffffffffffffffffffffffffff\n        /* \"#utility.yul\":8282:8291   */\n      dup3\n        /* \"#utility.yul\":8263:8360   */\n      tag_59\n      jump\t// in\n    tag_161:\n        /* \"#utility.yul\":8381:8420   */\n      tag_162\n        /* \"#utility.yul\":8411:8419   */\n      dup7\n        /* \"#utility.yul\":8400:8409   */\n      dup4\n        /* \"#utility.yul\":8381:8420   */\n      tag_59\n      jump\t// in\n    tag_162:\n        /* \"#utility.yul\":8369:8420   */\n      swap6\n      pop\n        /* \"#utility.yul\":8453:8457   */\n      dup1\n        /* \"#utility.yul\":8449:8458   */\n      not\n        /* \"#utility.yul\":8442:8447   */\n      dup5\n        /* \"#utility.yul\":8438:8459   */\n      and\n        /* \"#utility.yul\":8429:8459   */\n      swap4\n      pop\n        /* \"#utility.yul\":8502:8506   */\n      dup1\n        /* \"#utility.yul\":8492:8500   */\n      dup7\n        /* \"#utility.yul\":8488:8507   */\n      and\n        /* \"#utility.yul\":8481:8486   */\n      dup5\n        /* \"#utility.yul\":8478:8508   */\n      or\n        /* \"#utility.yul\":8468:8508   */\n      swap3\n      pop\n        /* \"#utility.yul\":8197:8514   */\n      pop\n      pop\n        /* \"#utility.yul\":8121:8514   */\n      swap4\n      swap3\n      pop\n      pop\n      pop\n      jump\t// out\n        /* \"#utility.yul\":8520:8580   */\n    tag_61:\n        /* \"#utility.yul\":8548:8551   */\n      0x00\n        /* \"#utility.yul\":8569:8574   */\n      dup2\n        /* \"#utility.yul\":8562:8574   */\n      swap1\n      pop\n        /* \"#utility.yul\":8520:8580   */\n      swap2\n      swap1\n      pop\n      jump\t// out\n        /* \"#utility.yul\":8586:8728   */\n    tag_62:\n        /* \"#utility.yul\":8636:8645   */\n      0x00\n        /* \"#utility.yul\":8669:8722   */\n      tag_165\n        /* \"#utility.yul\":8687:8721   */\n      tag_166\n        /* \"#utility.yul\":8696:8720   */\n      tag_167\n        /* \"#utility.yul\":8714:8719   */\n      dup5\n        /* \"#utility.yul\":8696:8720   */\n      tag_25\n      jump\t// in\n    tag_167:\n        /* \"#utility.yul\":8687:8721   */\n      tag_61\n      jump\t// in\n    tag_166:\n        /* \"#utility.yul\":8669:8722   */\n      tag_25\n      jump\t// in\n    tag_165:\n        /* \"#utility.yul\":8656:8722   */\n      swap1\n      pop\n        /* \"#utility.yul\":8586:8728   */\n      swap2\n      swap1\n      pop\n      jump\t// out\n        /* \"#utility.yul\":8734:8809   */\n    tag_63:\n        /* \"#utility.yul\":8777:8780   */\n      0x00\n        /* \"#utility.yul\":8798:8803   */\n      dup2\n        /* \"#utility.yul\":8791:8803   */\n      swap1\n      pop\n        /* \"#utility.yul\":8734:8809   */\n      swap2\n      swap1\n      pop\n      jump\t// out\n        /* \"#utility.yul\":8815:9084   */\n    tag_64:\n        /* \"#utility.yul\":8925:8964   */\n      tag_170\n        /* \"#utility.yul\":8956:8963   */\n      dup4\n        /* \"#utility.yul\":8925:8964   */\n      tag_62\n      jump\t// in\n    tag_170:\n        /* \"#utility.yul\":8986:9077   */\n      tag_171\n        /* \"#utility.yul\":9035:9076   */\n      tag_172\n        /* \"#utility.yul\":9059:9075   */\n      dup3\n        /* \"#utility.yul\":9035:9076   */\n      tag_63\n      jump\t// in\n    tag_172:\n        /* \"#utility.yul\":9027:9033   */\n      dup5\n        /* \"#utility.yul\":9020:9024   */\n      dup5\n        /* \"#utility.yul\":9014:9025   */\n      sload\n        /* \"#utility.yul\":8986:9077   */\n      tag_60\n      jump\t// in\n    tag_171:\n        /* \"#utility.yul\":8980:8984   */\n      dup3\n        /* \"#utility.yul\":8973:9078   */\n      sstore\n        /* \"#utility.yul\":8891:9084   */\n      pop\n        /* \"#utility.yul\":8815:9084   */\n      pop\n      pop\n      pop\n      jump\t// out\n        /* \"#utility.yul\":9090:9163   */\n    tag_65:\n        /* \"#utility.yul\":9135:9138   */\n      0x00\n        /* \"#utility.yul\":9090:9163   */\n      swap1\n      jump\t// out\n        /* \"#utility.yul\":9169:9358   */\n    tag_66:\n        /* \"#utility.yul\":9246:9278   */\n      tag_175\n      tag_65\n      jump\t// in\n    tag_175:\n        /* \"#utility.yul\":9287:9352   */\n      tag_176\n        /* \"#utility.yul\":9345:9351   */\n      dup2\n        /* \"#utility.yul\":9337:9343   */\n      dup5\n        /* \"#utility.yul\":9331:9335   */\n      dup5\n        /* \"#utility.yul\":9287:9352   */\n      tag_64\n      jump\t// in\n    tag_176:\n        /* \"#utility.yul\":9222:9358   */\n      pop\n        /* \"#utility.yul\":9169:9358   */\n      pop\n      pop\n      jump\t// out\n        /* \"#utility.yul\":9364:9550   */\n    tag_67:\n        /* \"#utility.yul\":9424:9544   */\n    tag_178:\n        /* \"#utility.yul\":9441:9444   */\n      dup2\n        /* \"#utility.yul\":9434:9439   */\n      dup2\n        /* \"#utility.yul\":9431:9445   */\n      lt\n        /* \"#utility.yul\":9424:9544   */\n      iszero\n      tag_180\n      jumpi\n        /* \"#utility.yul\":9495:9534   */\n      tag_181\n        /* \"#utility.yul\":9532:9533   */\n      0x00\n        /* \"#utility.yul\":9525:9530   */\n      dup3\n        /* \"#utility.yul\":9495:9534   */\n      tag_66\n      jump\t// in\n    tag_181:\n        /* \"#utility.yul\":9468:9469   */\n      0x01\n        /* \"#utility.yul\":9461:9466   */\n      dup2\n        /* \"#utility.yul\":9457:9470   */\n      add\n        /* \"#utility.yul\":9448:9470   */\n      swap1\n      pop\n        /* \"#utility.yul\":9424:9544   */\n      jump(tag_178)\n    tag_180:\n        /* \"#utility.yul\":9364:9550   */\n      pop\n      pop\n      jump\t// out\n        /* \"#utility.yul\":9556:10099   */\n    tag_68:\n        /* \"#utility.yul\":9657:9659   */\n      0x1f\n        /* \"#utility.yul\":9652:9655   */\n      dup3\n        /* \"#utility.yul\":9649:9660   */\n      gt\n        /* \"#utility.yul\":9646:10092   */\n      iszero\n      tag_183\n      jumpi\n        /* \"#utility.yul\":9691:9729   */\n      tag_184\n        /* \"#utility.yul\":9723:9728   */\n      dup2\n        /* \"#utility.yul\":9691:9729   */\n      tag_57\n      jump\t// in\n    tag_184:\n        /* \"#utility.yul\":9775:9804   */\n      tag_185\n        /* \"#utility.yul\":9793:9803   */\n      dup5\n        /* \"#utility.yul\":9775:9804   */\n      tag_58\n      jump\t// in\n    tag_185:\n        /* \"#utility.yul\":9765:9773   */\n      dup2\n        /* \"#utility.yul\":9761:9805   */\n      add\n        /* \"#utility.yul\":9958:9960   */\n      0x20\n        /* \"#utility.yul\":9946:9956   */\n      dup6\n        /* \"#utility.yul\":9943:9961   */\n      lt\n        /* \"#utility.yul\":9940:9989   */\n      iszero\n      tag_186\n      jumpi\n        /* \"#utility.yul\":9979:9987   */\n      dup2\n        /* \"#utility.yul\":9964:9987   */\n      swap1\n      pop\n        /* \"#utility.yul\":9940:9989   */\n    tag_186:\n        /* \"#utility.yul\":10002:10082   */\n      tag_187\n        /* \"#utility.yul\":10058:10080   */\n      tag_188\n        /* \"#utility.yul\":10076:10079   */\n      dup6\n        /* \"#utility.yul\":10058:10080   */\n      tag_58\n      jump\t// in\n    tag_188:\n        /* \"#utility.yul\":10048:10056   */\n      dup4\n        /* \"#utility.yul\":10044:10081   */\n      add\n        /* \"#utility.yul\":10031:10042   */\n      dup3\n        /* \"#utility.yul\":10002:10082   */\n      tag_67\n      jump\t// in\n    tag_187:\n        /* \"#utility.yul\":9661:10092   */\n      pop\n      pop\n        /* \"#utility.yul\":9646:10092   */\n    tag_183:\n        /* \"#utility.yul\":9556:10099   */\n      pop\n      pop\n      pop\n      jump\t// out\n        /* \"#utility.yul\":10105:10222   */\n    tag_69:\n        /* \"#utility.yul\":10159:10167   */\n      0x00\n        /* \"#utility.yul\":10209:10214   */\n      dup3\n        /* \"#utility.yul\":10203:10207   */\n      dup3\n        /* \"#utility.yul\":10199:10215   */\n      shr\n        /* \"#utility.yul\":10178:10215   */\n      swap1\n      pop\n        /* \"#utility.yul\":10105:10222   */\n      swap3\n      swap2\n      pop\n      pop\n      jump\t// out\n        /* \"#utility.yul\":10228:10397   */\n    tag_70:\n        /* \"#utility.yul\":10272:10278   */\n      0x00\n        /* \"#utility.yul\":10305:10356   */\n      tag_191\n        /* \"#utility.yul\":10353:10354   */\n      0x00\n        /* \"#utility.yul\":10349:10355   */\n      not\n        /* \"#utility.yul\":10341:10346   */\n      dup5\n        /* \"#utility.yul\":10338:10339   */\n      0x08\n        /* \"#utility.yul\":10334:10347   */\n      mul\n        /* \"#utility.yul\":10305:10356   */\n      tag_69\n      jump\t// in\n    tag_191:\n        /* \"#utility.yul\":10301:10357   */\n      not\n        /* \"#utility.yul\":10386:10390   */\n      dup1\n        /* \"#utility.yul\":10380:10384   */\n      dup4\n        /* \"#utility.yul\":10376:10391   */\n      and\n        /* \"#utility.yul\":10366:10391   */\n      swap2\n      pop\n        /* \"#utility.yul\":10279:10397   */\n      pop\n        /* \"#utility.yul\":10228:10397   */\n      swap3\n      swap2\n      pop\n      pop\n      jump\t// out\n        /* \"#utility.yul\":10402:10697   */\n    tag_71:\n        /* \"#utility.yul\":10478:10482   */\n      0x00\n        /* \"#utility.yul\":10624:10653   */\n      tag_193\n        /* \"#utility.yul\":10649:10652   */\n      dup4\n        /* \"#utility.yul\":10643:10647   */\n      dup4\n        /* \"#utility.yul\":10624:10653   */\n      tag_70\n      jump\t// in\n    tag_193:\n        /* \"#utility.yul\":10616:10653   */\n      swap2\n      pop\n        /* \"#utility.yul\":10686:10689   */\n      dup3\n        /* \"#utility.yul\":10683:10684   */\n      0x02\n        /* \"#utility.yul\":10679:10690   */\n      mul\n        /* \"#utility.yul\":10673:10677   */\n      dup3\n        /* \"#utility.yul\":10670:10691   */\n      or\n        /* \"#utility.yul\":10662:10691   */\n      swap1\n      pop\n        /* \"#utility.yul\":10402:10697   */\n      swap3\n      swap2\n      pop\n      pop\n      jump\t// out\n        /* \"#utility.yul\":10702:12097   */\n    tag_24:\n        /* \"#utility.yul\":10819:10856   */\n      tag_195\n        /* \"#utility.yul\":10852:10855   */\n      dup3\n        /* \"#utility.yul\":10819:10856   */\n      tag_27\n      jump\t// in\n    tag_195:\n        /* \"#utility.yul\":10921:10939   */\n      0xffffffffffffffff\n        /* \"#utility.yul\":10913:10919   */\n      dup2\n        /* \"#utility.yul\":10910:10940   */\n      gt\n        /* \"#utility.yul\":10907:10963   */\n      iszero\n      tag_196\n      jumpi\n        /* \"#utility.yul\":10943:10961   */\n      tag_197\n      tag_45\n      jump\t// in\n    tag_197:\n        /* \"#utility.yul\":10907:10963   */\n    tag_196:\n        /* \"#utility.yul\":10987:11025   */\n      tag_198\n        /* \"#utility.yul\":11019:11023   */\n      dup3\n        /* \"#utility.yul\":11013:11024   */\n      sload\n        /* \"#utility.yul\":10987:11025   */\n      tag_17\n      jump\t// in\n    tag_198:\n        /* \"#utility.yul\":11072:11139   */\n      tag_199\n        /* \"#utility.yul\":11132:11138   */\n      dup3\n        /* \"#utility.yul\":11124:11130   */\n      dup3\n        /* \"#utility.yul\":11118:11122   */\n      dup6\n        /* \"#utility.yul\":11072:11139   */\n      tag_68\n      jump\t// in\n    tag_199:\n        /* \"#utility.yul\":11166:11167   */\n      0x00\n        /* \"#utility.yul\":11190:11194   */\n      0x20\n        /* \"#utility.yul\":11177:11194   */\n      swap1\n      pop\n        /* \"#utility.yul\":11222:11224   */\n      0x1f\n        /* \"#utility.yul\":11214:11220   */\n      dup4\n        /* \"#utility.yul\":11211:11225   */\n      gt\n        /* \"#utility.yul\":11239:11240   */\n      0x01\n        /* \"#utility.yul\":11234:11852   */\n      dup2\n      eq\n      tag_201\n      jumpi\n        /* \"#utility.yul\":11896:11897   */\n      0x00\n        /* \"#utility.yul\":11913:11919   */\n      dup5\n        /* \"#utility.yul\":11910:11987   */\n      iszero\n      tag_202\n      jumpi\n        /* \"#utility.yul\":11962:11971   */\n      dup3\n        /* \"#utility.yul\":11957:11960   */\n      dup8\n        /* \"#utility.yul\":11953:11972   */\n      add\n        /* \"#utility.yul\":11947:11973   */\n      mload\n        /* \"#utility.yul\":11938:11973   */\n      swap1\n      pop\n        /* \"#utility.yul\":11910:11987   */\n    tag_202:\n        /* \"#utility.yul\":12013:12080   */\n      tag_203\n        /* \"#utility.yul\":12073:12079   */\n      dup6\n        /* \"#utility.yul\":12066:12071   */\n      dup3\n        /* \"#utility.yul\":12013:12080   */\n      tag_71\n      jump\t// in\n    tag_203:\n        /* \"#utility.yul\":12007:12011   */\n      dup7\n        /* \"#utility.yul\":12000:12081   */\n      sstore\n        /* \"#utility.yul\":11869:12091   */\n      pop\n        /* \"#utility.yul\":11204:12091   */\n      jump(tag_200)\n        /* \"#utility.yul\":11234:11852   */\n    tag_201:\n        /* \"#utility.yul\":11286:11290   */\n      0x1f\n        /* \"#utility.yul\":11282:11291   */\n      not\n        /* \"#utility.yul\":11274:11280   */\n      dup5\n        /* \"#utility.yul\":11270:11292   */\n      and\n        /* \"#utility.yul\":11320:11357   */\n      tag_204\n        /* \"#utility.yul\":11352:11356   */\n      dup7\n        /* \"#utility.yul\":11320:11357   */\n      tag_57\n      jump\t// in\n    tag_204:\n        /* \"#utility.yul\":11379:11380   */\n      0x00\n        /* \"#utility.yul\":11393:11601   */\n    tag_205:\n        /* \"#utility.yul\":11407:11414   */\n      dup3\n        /* \"#utility.yul\":11404:11405   */\n      dup2\n        /* \"#utility.yul\":11401:11415   */\n      lt\n        /* \"#utility.yul\":11393:11601   */\n      iszero\n      tag_207\n      jumpi\n        /* \"#utility.yul\":11486:11495   */\n      dup5\n        /* \"#utility.yul\":11481:11484   */\n      dup10\n        /* \"#utility.yul\":11477:11496   */\n      add\n        /* \"#utility.yul\":11471:11497   */\n      mload\n        /* \"#utility.yul\":11463:11469   */\n      dup3\n        /* \"#utility.yul\":11456:11498   */\n      sstore\n        /* \"#utility.yul\":11537:11538   */\n      0x01\n        /* \"#utility.yul\":11529:11535   */\n      dup3\n        /* \"#utility.yul\":11525:11539   */\n      add\n        /* \"#utility.yul\":11515:11539   */\n      swap2\n      pop\n        /* \"#utility.yul\":11584:11586   */\n      0x20\n        /* \"#utility.yul\":11573:11582   */\n      dup6\n        /* \"#utility.yul\":11569:11587   */\n      add\n        /* \"#utility.yul\":11556:11587   */\n      swap5\n      pop\n        /* \"#utility.yul\":11430:11434   */\n      0x20\n        /* \"#utility.yul\":11427:11428   */\n      dup2\n        /* \"#utility.yul\":11423:11435   */\n      add\n        /* \"#utility.yul\":11418:11435   */\n      swap1\n      pop\n        /* \"#utility.yul\":11393:11601   */\n      jump(tag_205)\n    tag_207:\n        /* \"#utility.yul\":11629:11635   */\n      dup7\n        /* \"#utility.yul\":11620:11627   */\n      dup4\n        /* \"#utility.yul\":11617:11636   */\n      lt\n        /* \"#utility.yul\":11614:11793   */\n      iszero\n      tag_208\n      jumpi\n        /* \"#utility.yul\":11687:11696   */\n      dup5\n        /* \"#utility.yul\":11682:11685   */\n      dup10\n        /* \"#utility.yul\":11678:11697   */\n      add\n        /* \"#utility.yul\":11672:11698   */\n      mload\n        /* \"#utility.yul\":11730:11778   */\n      tag_209\n        /* \"#utility.yul\":11772:11776   */\n      0x1f\n        /* \"#utility.yul\":11764:11770   */\n      dup10\n        /* \"#utility.yul\":11760:11777   */\n      and\n        /* \"#utility.yul\":11749:11758   */\n      dup3\n        /* \"#utility.yul\":11730:11778   */\n      tag_70\n      jump\t// in\n    tag_209:\n        /* \"#utility.yul\":11722:11728   */\n      dup4\n        /* \"#utility.yul\":11715:11779   */\n      sstore\n        /* \"#utility.yul\":11637:11793   */\n      pop\n        /* \"#utility.yul\":11614:11793   */\n    tag_208:\n        /* \"#utility.yul\":11839:11840   */\n      0x01\n        /* \"#utility.yul\":11835:11836   */\n      0x02\n        /* \"#utility.yul\":11827:11833   */\n      dup9\n        /* \"#utility.yul\":11823:11837   */\n      mul\n        /* \"#utility.yul\":11819:11841   */\n      add\n        /* \"#utility.yul\":11813:11817   */\n      dup9\n        /* \"#utility.yul\":11806:11842   */\n      sstore\n        /* \"#utility.yul\":11241:11852   */\n      pop\n      pop\n      pop\n        /* \"#utility.yul\":11204:12091   */\n    tag_200:\n      pop\n        /* \"#utility.yul\":10794:12097   */\n      pop\n      pop\n      pop\n        /* \"#utility.yul\":10702:12097   */\n      pop\n      pop\n      jump\t// out\n\n    auxdata: 0xa2646970667358221220bec42e2cee08309f97aa018c6c6347c0c2e65c0e291d0bb95cdef049d0c2a5e264736f6c634300081a0033\n}\n",
				"bytecode": {
					"linkReferences": {},
					"object": "6080604052348015600e575f80fd5b506109418061001c5f395ff3fe608060405234801561000f575f80fd5b5060043610610034575f3560e01c80636d4ce63c146100385780638ea4d0bd14610056575b5f80fd5b610040610072565b60405161004d91906103e7565b60405180910390f35b610070600480360381019061006b91906105c2565b610199565b005b61007a610265565b5f6040518060800160405290815f820154815260200160018201805461009f9061066f565b80601f01602080910402602001604051908101604052809291908181526020018280546100cb9061066f565b80156101165780601f106100ed57610100808354040283529160200191610116565b820191905f5260205f20905b8154815290600101906020018083116100f957829003601f168201915b50505050508152602001600282015f9054906101000a900461ffff1661ffff1661ffff1681526020016002820160029054906101000a900473ffffffffffffffffffffffffffffffffffffffff1673ffffffffffffffffffffffffffffffffffffffff1673ffffffffffffffffffffffffffffffffffffffff1681525050905090565b60405180608001604052808581526020018481526020018361ffff1681526020018273ffffffffffffffffffffffffffffffffffffffff168152505f80820151815f015560208201518160010190816101f2919061083c565b506040820151816002015f6101000a81548161ffff021916908361ffff16021790555060608201518160020160026101000a81548173ffffffffffffffffffffffffffffffffffffffff021916908373ffffffffffffffffffffffffffffffffffffffff16021790555090505050505050565b60405180608001604052805f8152602001606081526020015f61ffff1681526020015f73ffffffffffffffffffffffffffffffffffffffff1681525090565b5f819050919050565b6102b6816102a4565b82525050565b5f81519050919050565b5f82825260208201905092915050565b8281835e5f83830152505050565b5f601f19601f8301169050919050565b5f6102fe826102bc565b61030881856102c6565b93506103188185602086016102d6565b610321816102e4565b840191505092915050565b5f61ffff82169050919050565b6103428161032c565b82525050565b5f73ffffffffffffffffffffffffffffffffffffffff82169050919050565b5f61037182610348565b9050919050565b61038181610367565b82525050565b5f608083015f83015161039c5f8601826102ad565b50602083015184820360208601526103b482826102f4565b91505060408301516103c96040860182610339565b5060608301516103dc6060860182610378565b508091505092915050565b5f6020820190508181035f8301526103ff8184610387565b905092915050565b5f604051905090565b5f80fd5b5f80fd5b610421816102a4565b811461042b575f80fd5b50565b5f8135905061043c81610418565b92915050565b5f80fd5b5f80fd5b7f4e487b71000000000000000000000000000000000000000000000000000000005f52604160045260245ffd5b610480826102e4565b810181811067ffffffffffffffff8211171561049f5761049e61044a565b5b80604052505050565b5f6104b1610407565b90506104bd8282610477565b919050565b5f67ffffffffffffffff8211156104dc576104db61044a565b5b6104e5826102e4565b9050602081019050919050565b828183375f83830152505050565b5f61051261050d846104c2565b6104a8565b90508281526020810184848401111561052e5761052d610446565b5b6105398482856104f2565b509392505050565b5f82601f83011261055557610554610442565b5b8135610565848260208601610500565b91505092915050565b6105778161032c565b8114610581575f80fd5b50565b5f813590506105928161056e565b92915050565b6105a181610367565b81146105ab575f80fd5b50565b5f813590506105bc81610598565b92915050565b5f805f80608085870312156105da576105d9610410565b5b5f6105e78782880161042e565b945050602085013567ffffffffffffffff81111561060857610607610414565b5b61061487828801610541565b935050604061062587828801610584565b9250506060610636878288016105ae565b91505092959194509250565b7f4e487b71000000000000000000000000000000000000000000000000000000005f52602260045260245ffd5b5f600282049050600182168061068657607f821691505b60208210810361069957610698610642565b5b50919050565b5f819050815f5260205f209050919050565b5f6020601f8301049050919050565b5f82821b905092915050565b5f600883026106fb7fffffffffffffffffffffffffffffffffffffffffffffffffffffffffffffffff826106c0565b61070586836106c0565b95508019841693508086168417925050509392505050565b5f819050919050565b5f61074061073b610736846102a4565b61071d565b6102a4565b9050919050565b5f819050919050565b61075983610726565b61076d61076582610747565b8484546106cc565b825550505050565b5f90565b610781610775565b61078c818484610750565b505050565b5b818110156107af576107a45f82610779565b600181019050610792565b5050565b601f8211156107f4576107c58161069f565b6107ce846106b1565b810160208510156107dd578190505b6107f16107e9856106b1565b830182610791565b50505b505050565b5f82821c905092915050565b5f6108145f19846008026107f9565b1980831691505092915050565b5f61082c8383610805565b9150826002028217905092915050565b610845826102bc565b67ffffffffffffffff81111561085e5761085d61044a565b5b610868825461066f565b6108738282856107b3565b5f60209050601f8311600181146108a4575f8415610892578287015190505b61089c8582610821565b865550610903565b601f1984166108b28661069f565b5f5b828110156108d9578489015182556001820191506020850194506020810190506108b4565b868310156108f657848901516108f2601f891682610805565b8355505b6001600288020188555050505b50505050505056fea2646970667358221220bec42e2cee08309f97aa018c6c6347c0c2e65c0e291d0bb95cdef049d0c2a5e264736f6c634300081a0033",
					"opcodes": "PUSH1 0x80 PUSH1 0x40 MSTORE CALLVALUE DUP1 ISZERO PUSH1 0xE JUMPI PUSH0 DUP1 REVERT JUMPDEST POP PUSH2 0x941 DUP1 PUSH2 0x1C PUSH0 CODECOPY PUSH0 RETURN INVALID PUSH1 0x80 PUSH1 0x40 MSTORE CALLVALUE DUP1 ISZERO PUSH2 0xF JUMPI PUSH0 DUP1 REVERT JUMPDEST POP PUSH1 0x4 CALLDATASIZE LT PUSH2 0x34 JUMPI PUSH0 CALLDATALOAD PUSH1 0xE0 SHR DUP1 PUSH4 0x6D4CE63C EQ PUSH2 0x38 JUMPI DUP1 PUSH4 0x8EA4D0BD EQ PUSH2 0x56 JUMPI JUMPDEST PUSH0 DUP1 REVERT JUMPDEST PUSH2 0x40 PUSH2 0x72 JUMP JUMPDEST PUSH1 0x40 MLOAD PUSH2 0x4D SWAP2 SWAP1 PUSH2 0x3E7 JUMP JUMPDEST PUSH1 0x40 MLOAD DUP1 SWAP2 SUB SWAP1 RETURN JUMPDEST PUSH2 0x70 PUSH1 0x4 DUP1 CALLDATASIZE SUB DUP2 ADD SWAP1 PUSH2 0x6B SWAP2 SWAP1 PUSH2 0x5C2 JUMP JUMPDEST PUSH2 0x199 JUMP JUMPDEST STOP JUMPDEST PUSH2 0x7A PUSH2 0x265 JUMP JUMPDEST PUSH0 PUSH1 0x40 MLOAD DUP1 PUSH1 0x80 ADD PUSH1 0x40 MSTORE SWAP1 DUP2 PUSH0 DUP3 ADD SLOAD DUP2 MSTORE PUSH1 0x20 ADD PUSH1 0x1 DUP3 ADD DUP1 SLOAD PUSH2 0x9F SWAP1 PUSH2 0x66F JUMP JUMPDEST DUP1 PUSH1 0x1F ADD PUSH1 0x20 DUP1 SWAP2 DIV MUL PUSH1 0x20 ADD PUSH1 0x40 MLOAD SWAP1 DUP2 ADD PUSH1 0x40 MSTORE DUP1 SWAP3 SWAP2 SWAP1 DUP2 DUP2 MSTORE PUSH1 0x20 ADD DUP3 DUP1 SLOAD PUSH2 0xCB SWAP1 PUSH2 0x66F JUMP JUMPDEST DUP1 ISZERO PUSH2 0x116 JUMPI DUP1 PUSH1 0x1F LT PUSH2 0xED JUMPI PUSH2 0x100 DUP1 DUP4 SLOAD DIV MUL DUP4 MSTORE SWAP2 PUSH1 0x20 ADD SWAP2 PUSH2 0x116 JUMP JUMPDEST DUP3 ADD SWAP2 SWAP1 PUSH0 MSTORE PUSH1 0x20 PUSH0 KECCAK256 SWAP1 JUMPDEST DUP2 SLOAD DUP2 MSTORE SWAP1 PUSH1 0x1 ADD SWAP1 PUSH1 0x20 ADD DUP1 DUP4 GT PUSH2 0xF9 JUMPI DUP3 SWAP1 SUB PUSH1 0x1F AND DUP3 ADD SWAP2 JUMPDEST POP POP POP POP POP DUP2 MSTORE PUSH1 0x20 ADD PUSH1 0x2 DUP3 ADD PUSH0 SWAP1 SLOAD SWAP1 PUSH2 0x100 EXP SWAP1 DIV PUSH2 0xFFFF AND PUSH2 0xFFFF AND PUSH2 0xFFFF AND DUP2 MSTORE PUSH1 0x20 ADD PUSH1 0x2 DUP3 ADD PUSH1 0x2 SWAP1 SLOAD SWAP1 PUSH2 0x100 EXP SWAP1 DIV PUSH20 0xFFFFFFFFFFFFFFFFFFFFFFFFFFFFFFFFFFFFFFFF AND PUSH20 0xFFFFFFFFFFFFFFFFFFFFFFFFFFFFFFFFFFFFFFFF AND PUSH20 0xFFFFFFFFFFFFFFFFFFFFFFFFFFFFFFFFFFFFFFFF AND DUP2 MSTORE POP POP SWAP1 POP SWAP1 JUMP JUMPDEST PUSH1 0x40 MLOAD DUP1 PUSH1 0x80 ADD PUSH1 0x40 MSTORE DUP1 DUP6 DUP2 MSTORE PUSH1 0x20 ADD DUP5 DUP2 MSTORE PUSH1 0x20 ADD DUP4 PUSH2 0xFFFF AND DUP2 MSTORE PUSH1 0x20 ADD DUP3 PUSH20 0xFFFFFFFFFFFFFFFFFFFFFFFFFFFFFFFFFFFFFFFF AND DUP2 MSTORE POP PUSH0 DUP1 DUP3 ADD MLOAD DUP2 PUSH0 ADD SSTORE PUSH1 0x20 DUP3 ADD MLOAD DUP2 PUSH1 0x1 ADD SWAP1 DUP2 PUSH2 0x1F2 SWAP2 SWAP1 PUSH2 0x83C JUMP JUMPDEST POP PUSH1 0x40 DUP3 ADD MLOAD DUP2 PUSH1 0x2 ADD PUSH0 PUSH2 0x100 EXP DUP2 SLOAD DUP2 PUSH2 0xFFFF MUL NOT AND SWAP1 DUP4 PUSH2 0xFFFF AND MUL OR SWAP1 SSTORE POP PUSH1 0x60 DUP3 ADD MLOAD DUP2 PUSH1 0x2 ADD PUSH1 0x2 PUSH2 0x100 EXP DUP2 SLOAD DUP2 PUSH20 0xFFFFFFFFFFFFFFFFFFFFFFFFFFFFFFFFFFFFFFFF MUL NOT AND SWAP1 DUP4 PUSH20 0xFFFFFFFFFFFFFFFFFFFFFFFFFFFFFFFFFFFFFFFF AND MUL OR SWAP1 SSTORE POP SWAP1 POP POP POP POP POP POP JUMP JUMPDEST PUSH1 0x40 MLOAD DUP1 PUSH1 0x80 ADD PUSH1 0x40 MSTORE DUP1 PUSH0 DUP2 MSTORE PUSH1 0x20 ADD PUSH1 0x60 DUP2 MSTORE PUSH1 0x20 ADD PUSH0 PUSH2 0xFFFF AND DUP2 MSTORE PUSH1 0x20 ADD PUSH0 PUSH20 0xFFFFFFFFFFFFFFFFFFFFFFFFFFFFFFFFFFFFFFFF AND DUP2 MSTORE POP SWAP1 JUMP JUMPDEST PUSH0 DUP2 SWAP1 POP SWAP2 SWAP1 POP JUMP JUMPDEST PUSH2 0x2B6 DUP2 PUSH2 0x2A4 JUMP JUMPDEST DUP3 MSTORE POP POP JUMP JUMPDEST PUSH0 DUP2 MLOAD SWAP1 POP SWAP2 SWAP1 POP JUMP JUMPDEST PUSH0 DUP3 DUP3 MSTORE PUSH1 0x20 DUP3 ADD SWAP1 POP SWAP3 SWAP2 POP POP JUMP JUMPDEST DUP3 DUP2 DUP4 MCOPY PUSH0 DUP4 DUP4 ADD MSTORE POP POP POP JUMP JUMPDEST PUSH0 PUSH1 0x1F NOT PUSH1 0x1F DUP4 ADD AND SWAP1 POP SWAP2 SWAP1 POP JUMP JUMPDEST PUSH0 PUSH2 0x2FE DUP3 PUSH2 0x2BC JUMP JUMPDEST PUSH2 0x308 DUP2 DUP6 PUSH2 0x2C6 JUMP JUMPDEST SWAP4 POP PUSH2 0x318 DUP2 DUP6 PUSH1 0x20 DUP7 ADD PUSH2 0x2D6 JUMP JUMPDEST PUSH2 0x321 DUP2 PUSH2 0x2E4 JUMP JUMPDEST DUP5 ADD SWAP2 POP POP SWAP3 SWAP2 POP POP JUMP JUMPDEST PUSH0 PUSH2 0xFFFF DUP3 AND SWAP1 POP SWAP2 SWAP1 POP JUMP JUMPDEST PUSH2 0x342 DUP2 PUSH2 0x32C JUMP JUMPDEST DUP3 MSTORE POP POP JUMP JUMPDEST PUSH0 PUSH20 0xFFFFFFFFFFFFFFFFFFFFFFFFFFFFFFFFFFFFFFFF DUP3 AND SWAP1 POP SWAP2 SWAP1 POP JUMP JUMPDEST PUSH0 PUSH2 0x371 DUP3 PUSH2 0x348 JUMP JUMPDEST SWAP1 POP SWAP2 SWAP1 POP JUMP JUMPDEST PUSH2 0x381 DUP2 PUSH2 0x367 JUMP JUMPDEST DUP3 MSTORE POP POP JUMP JUMPDEST PUSH0 PUSH1 0x80 DUP4 ADD PUSH0 DUP4 ADD MLOAD PUSH2 0x39C PUSH0 DUP7 ADD DUP3 PUSH2 0x2AD JUMP JUMPDEST POP PUSH1 0x20 DUP4 ADD MLOAD DUP5 DUP3 SUB PUSH1 0x20 DUP7 ADD MSTORE PUSH2 0x3B4 DUP3 DUP3 PUSH2 0x2F4 JUMP JUMPDEST SWAP2 POP POP PUSH1 0x40 DUP4 ADD MLOAD PUSH2 0x3C9 PUSH1 0x40 DUP7 ADD DUP3 PUSH2 0x339 JUMP JUMPDEST POP PUSH1 0x60 DUP4 ADD MLOAD PUSH2 0x3DC PUSH1 0x60 DUP7 ADD DUP3 PUSH2 0x378 JUMP JUMPDEST POP DUP1 SWAP2 POP POP SWAP3 SWAP2 POP POP JUMP JUMPDEST PUSH0 PUSH1 0x20 DUP3 ADD SWAP1 POP DUP2 DUP2 SUB PUSH0 DUP4 ADD MSTORE PUSH2 0x3FF DUP2 DUP5 PUSH2 0x387 JUMP JUMPDEST SWAP1 POP SWAP3 SWAP2 POP POP JUMP JUMPDEST PUSH0 PUSH1 0x40 MLOAD SWAP1 POP SWAP1 JUMP JUMPDEST PUSH0 DUP1 REVERT JUMPDEST PUSH0 DUP1 REVERT JUMPDEST PUSH2 0x421 DUP2 PUSH2 0x2A4 JUMP JUMPDEST DUP2 EQ PUSH2 0x42B JUMPI PUSH0 DUP1 REVERT JUMPDEST POP JUMP JUMPDEST PUSH0 DUP2 CALLDATALOAD SWAP1 POP PUSH2 0x43C DUP2 PUSH2 0x418 JUMP JUMPDEST SWAP3 SWAP2 POP POP JUMP JUMPDEST PUSH0 DUP1 REVERT JUMPDEST PUSH0 DUP1 REVERT JUMPDEST PUSH32 0x4E487B7100000000000000000000000000000000000000000000000000000000 PUSH0 MSTORE PUSH1 0x41 PUSH1 0x4 MSTORE PUSH1 0x24 PUSH0 REVERT JUMPDEST PUSH2 0x480 DUP3 PUSH2 0x2E4 JUMP JUMPDEST DUP2 ADD DUP2 DUP2 LT PUSH8 0xFFFFFFFFFFFFFFFF DUP3 GT OR ISZERO PUSH2 0x49F JUMPI PUSH2 0x49E PUSH2 0x44A JUMP JUMPDEST JUMPDEST DUP1 PUSH1 0x40 MSTORE POP POP POP JUMP JUMPDEST PUSH0 PUSH2 0x4B1 PUSH2 0x407 JUMP JUMPDEST SWAP1 POP PUSH2 0x4BD DUP3 DUP3 PUSH2 0x477 JUMP JUMPDEST SWAP2 SWAP1 POP JUMP JUMPDEST PUSH0 PUSH8 0xFFFFFFFFFFFFFFFF DUP3 GT ISZERO PUSH2 0x4DC JUMPI PUSH2 0x4DB PUSH2 0x44A JUMP JUMPDEST JUMPDEST PUSH2 0x4E5 DUP3 PUSH2 0x2E4 JUMP JUMPDEST SWAP1 POP PUSH1 0x20 DUP2 ADD SWAP1 POP SWAP2 SWAP1 POP JUMP JUMPDEST DUP3 DUP2 DUP4 CALLDATACOPY PUSH0 DUP4 DUP4 ADD MSTORE POP POP POP JUMP JUMPDEST PUSH0 PUSH2 0x512 PUSH2 0x50D DUP5 PUSH2 0x4C2 JUMP JUMPDEST PUSH2 0x4A8 JUMP JUMPDEST SWAP1 POP DUP3 DUP2 MSTORE PUSH1 0x20 DUP2 ADD DUP5 DUP5 DUP5 ADD GT ISZERO PUSH2 0x52E JUMPI PUSH2 0x52D PUSH2 0x446 JUMP JUMPDEST JUMPDEST PUSH2 0x539 DUP5 DUP3 DUP6 PUSH2 0x4F2 JUMP JUMPDEST POP SWAP4 SWAP3 POP POP POP JUMP JUMPDEST PUSH0 DUP3 PUSH1 0x1F DUP4 ADD SLT PUSH2 0x555 JUMPI PUSH2 0x554 PUSH2 0x442 JUMP JUMPDEST JUMPDEST DUP2 CALLDATALOAD PUSH2 0x565 DUP5 DUP3 PUSH1 0x20 DUP7 ADD PUSH2 0x500 JUMP JUMPDEST SWAP2 POP POP SWAP3 SWAP2 POP POP JUMP JUMPDEST PUSH2 0x577 DUP2 PUSH2 0x32C JUMP JUMPDEST DUP2 EQ PUSH2 0x581 JUMPI PUSH0 DUP1 REVERT JUMPDEST POP JUMP JUMPDEST PUSH0 DUP2 CALLDATALOAD SWAP1 POP PUSH2 0x592 DUP2 PUSH2 0x56E JUMP JUMPDEST SWAP3 SWAP2 POP POP JUMP JUMPDEST PUSH2 0x5A1 DUP2 PUSH2 0x367 JUMP JUMPDEST DUP2 EQ PUSH2 0x5AB JUMPI PUSH0 DUP1 REVERT JUMPDEST POP JUMP JUMPDEST PUSH0 DUP2 CALLDATALOAD SWAP1 POP PUSH2 0x5BC DUP2 PUSH2 0x598 JUMP JUMPDEST SWAP3 SWAP2 POP POP JUMP JUMPDEST PUSH0 DUP1 PUSH0 DUP1 PUSH1 0x80 DUP6 DUP8 SUB SLT ISZERO PUSH2 0x5DA JUMPI PUSH2 0x5D9 PUSH2 0x410 JUMP JUMPDEST JUMPDEST PUSH0 PUSH2 0x5E7 DUP8 DUP3 DUP9 ADD PUSH2 0x42E JUMP JUMPDEST SWAP5 POP POP PUSH1 0x20 DUP6 ADD CALLDATALOAD PUSH8 0xFFFFFFFFFFFFFFFF DUP2 GT ISZERO PUSH2 0x608 JUMPI PUSH2 0x607 PUSH2 0x414 JUMP JUMPDEST JUMPDEST PUSH2 0x614 DUP8 DUP3 DUP9 ADD PUSH2 0x541 JUMP JUMPDEST SWAP4 POP POP PUSH1 0x40 PUSH2 0x625 DUP8 DUP3 DUP9 ADD PUSH2 0x584 JUMP JUMPDEST SWAP3 POP POP PUSH1 0x60 PUSH2 0x636 DUP8 DUP3 DUP9 ADD PUSH2 0x5AE JUMP JUMPDEST SWAP2 POP POP SWAP3 SWAP6 SWAP2 SWAP5 POP SWAP3 POP JUMP JUMPDEST PUSH32 0x4E487B7100000000000000000000000000000000000000000000000000000000 PUSH0 MSTORE PUSH1 0x22 PUSH1 0x4 MSTORE PUSH1 0x24 PUSH0 REVERT JUMPDEST PUSH0 PUSH1 0x2 DUP3 DIV SWAP1 POP PUSH1 0x1 DUP3 AND DUP1 PUSH2 0x686 JUMPI PUSH1 0x7F DUP3 AND SWAP2 POP JUMPDEST PUSH1 0x20 DUP3 LT DUP2 SUB PUSH2 0x699 JUMPI PUSH2 0x698 PUSH2 0x642 JUMP JUMPDEST JUMPDEST POP SWAP2 SWAP1 POP JUMP JUMPDEST PUSH0 DUP2 SWAP1 POP DUP2 PUSH0 MSTORE PUSH1 0x20 PUSH0 KECCAK256 SWAP1 POP SWAP2 SWAP1 POP JUMP JUMPDEST PUSH0 PUSH1 0x20 PUSH1 0x1F DUP4 ADD DIV SWAP1 POP SWAP2 SWAP1 POP JUMP JUMPDEST PUSH0 DUP3 DUP3 SHL SWAP1 POP SWAP3 SWAP2 POP POP JUMP JUMPDEST PUSH0 PUSH1 0x8 DUP4 MUL PUSH2 0x6FB PUSH32 0xFFFFFFFFFFFFFFFFFFFFFFFFFFFFFFFFFFFFFFFFFFFFFFFFFFFFFFFFFFFFFFFF DUP3 PUSH2 0x6C0 JUMP JUMPDEST PUSH2 0x705 DUP7 DUP4 PUSH2 0x6C0 JUMP JUMPDEST SWAP6 POP DUP1 NOT DUP5 AND SWAP4 POP DUP1 DUP7 AND DUP5 OR SWAP3 POP POP POP SWAP4 SWAP3 POP POP POP JUMP JUMPDEST PUSH0 DUP2 SWAP1 POP SWAP2 SWAP1 POP JUMP JUMPDEST PUSH0 PUSH2 0x740 PUSH2 0x73B PUSH2 0x736 DUP5 PUSH2 0x2A4 JUMP JUMPDEST PUSH2 0x71D JUMP JUMPDEST PUSH2 0x2A4 JUMP JUMPDEST SWAP1 POP SWAP2 SWAP1 POP JUMP JUMPDEST PUSH0 DUP2 SWAP1 POP SWAP2 SWAP1 POP JUMP JUMPDEST PUSH2 0x759 DUP4 PUSH2 0x726 JUMP JUMPDEST PUSH2 0x76D PUSH2 0x765 DUP3 PUSH2 0x747 JUMP JUMPDEST DUP5 DUP5 SLOAD PUSH2 0x6CC JUMP JUMPDEST DUP3 SSTORE POP POP POP POP JUMP JUMPDEST PUSH0 SWAP1 JUMP JUMPDEST PUSH2 0x781 PUSH2 0x775 JUMP JUMPDEST PUSH2 0x78C DUP2 DUP5 DUP5 PUSH2 0x750 JUMP JUMPDEST POP POP POP JUMP JUMPDEST JUMPDEST DUP2 DUP2 LT ISZERO PUSH2 0x7AF JUMPI PUSH2 0x7A4 PUSH0 DUP3 PUSH2 0x779 JUMP JUMPDEST PUSH1 0x1 DUP2 ADD SWAP1 POP PUSH2 0x792 JUMP JUMPDEST POP POP JUMP JUMPDEST PUSH1 0x1F DUP3 GT ISZERO PUSH2 0x7F4 JUMPI PUSH2 0x7C5 DUP2 PUSH2 0x69F JUMP JUMPDEST PUSH2 0x7CE DUP5 PUSH2 0x6B1 JUMP JUMPDEST DUP2 ADD PUSH1 0x20 DUP6 LT ISZERO PUSH2 0x7DD JUMPI DUP2 SWAP1 POP JUMPDEST PUSH2 0x7F1 PUSH2 0x7E9 DUP6 PUSH2 0x6B1 JUMP JUMPDEST DUP4 ADD DUP3 PUSH2 0x791 JUMP JUMPDEST POP POP JUMPDEST POP POP POP JUMP JUMPDEST PUSH0 DUP3 DUP3 SHR SWAP1 POP SWAP3 SWAP2 POP POP JUMP JUMPDEST PUSH0 PUSH2 0x814 PUSH0 NOT DUP5 PUSH1 0x8 MUL PUSH2 0x7F9 JUMP JUMPDEST NOT DUP1 DUP4 AND SWAP2 POP POP SWAP3 SWAP2 POP POP JUMP JUMPDEST PUSH0 PUSH2 0x82C DUP4 DUP4 PUSH2 0x805 JUMP JUMPDEST SWAP2 POP DUP3 PUSH1 0x2 MUL DUP3 OR SWAP1 POP SWAP3 SWAP2 POP POP JUMP JUMPDEST PUSH2 0x845 DUP3 PUSH2 0x2BC JUMP JUMPDEST PUSH8 0xFFFFFFFFFFFFFFFF DUP2 GT ISZERO PUSH2 0x85E JUMPI PUSH2 0x85D PUSH2 0x44A JUMP JUMPDEST JUMPDEST PUSH2 0x868 DUP3 SLOAD PUSH2 0x66F JUMP JUMPDEST PUSH2 0x873 DUP3 DUP3 DUP6 PUSH2 0x7B3 JUMP JUMPDEST PUSH0 PUSH1 0x20 SWAP1 POP PUSH1 0x1F DUP4 GT PUSH1 0x1 DUP2 EQ PUSH2 0x8A4 JUMPI PUSH0 DUP5 ISZERO PUSH2 0x892 JUMPI DUP3 DUP8 ADD MLOAD SWAP1 POP JUMPDEST PUSH2 0x89C DUP6 DUP3 PUSH2 0x821 JUMP JUMPDEST DUP7 SSTORE POP PUSH2 0x903 JUMP JUMPDEST PUSH1 0x1F NOT DUP5 AND PUSH2 0x8B2 DUP7 PUSH2 0x69F JUMP JUMPDEST PUSH0 JUMPDEST DUP3 DUP2 LT ISZERO PUSH2 0x8D9 JUMPI DUP5 DUP10 ADD MLOAD DUP3 SSTORE PUSH1 0x1 DUP3 ADD SWAP2 POP PUSH1 0x20 DUP6 ADD SWAP5 POP PUSH1 0x20 DUP2 ADD SWAP1 POP PUSH2 0x8B4 JUMP JUMPDEST DUP7 DUP4 LT ISZERO PUSH2 0x8F6 JUMPI DUP5 DUP10 ADD MLOAD PUSH2 0x8F2 PUSH1 0x1F DUP10 AND DUP3 PUSH2 0x805 JUMP JUMPDEST DUP4 SSTORE POP JUMPDEST PUSH1 0x1 PUSH1 0x2 DUP9 MUL ADD DUP9 SSTORE POP POP POP JUMPDEST POP POP POP POP POP POP JUMP INVALID LOG2 PUSH5 0x6970667358 0x22 SLT KECCAK256 0xBE 0xC4 0x2E 0x2C 0xEE ADDMOD ADDRESS SWAP16 SWAP8 0xAA ADD DUP13 PUSH13 0x6347C0C2E65C0E291D0BB95CDE CREATE BLOBHASH 0xD0 0xC2 0xA5 0xE2 PUSH5 0x736F6C6343 STOP ADDMOD BYTE STOP CALLER "
				},
				"gasEstimates": {
					"creation": {
						"codeDepositCost": "473800",
						"executionCost": "509",
						"totalCost": "474309"
					},
					"external": {
						"get()": "infinite",
						"set(uint256,string,uint16,address)": "infinite"
					}
				},
				"methodIdentifiers": {
					"get()": "6d4ce63c",
					"set(uint256,string,uint16,address)": "8ea4d0bd"
				}
			},
			"storageLayout": {
				"storage": [
					{
						"astId": 13,
						"contract": "Updraft/04 struct.sol:SimpleStruct",
						"label": "student",
						"offset": 0,
						"slot": "0",
						"type": "t_struct(Person)10_storage"
					}
				],
				"types": {
					"t_address": {
						"encoding": "inplace",
						"label": "address",
						"numberOfBytes": "20"
					},
					"t_string_storage": {
						"encoding": "bytes",
						"label": "string",
						"numberOfBytes": "32"
					},
					"t_struct(Person)10_storage": {
						"encoding": "inplace",
						"label": "struct SimpleStruct.Person",
						"members": [
							{
								"astId": 3,
								"contract": "Updraft/04 struct.sol:SimpleStruct",
								"label": "myFavoriteNumber",
								"offset": 0,
								"slot": "0",
								"type": "t_uint256"
							},
							{
								"astId": 5,
								"contract": "Updraft/04 struct.sol:SimpleStruct",
								"label": "FullName",
								"offset": 0,
								"slot": "1",
								"type": "t_string_storage"
							},
							{
								"astId": 7,
								"contract": "Updraft/04 struct.sol:SimpleStruct",
								"label": "Age",
								"offset": 0,
								"slot": "2",
								"type": "t_uint16"
							},
							{
								"astId": 9,
								"contract": "Updraft/04 struct.sol:SimpleStruct",
								"label": "myWallet",
								"offset": 2,
								"slot": "2",
								"type": "t_address"
							}
						],
						"numberOfBytes": "96"
					},
					"t_uint16": {
						"encoding": "inplace",
						"label": "uint16",
						"numberOfBytes": "2"
					},
					"t_uint256": {
						"encoding": "inplace",
						"label": "uint256",
						"numberOfBytes": "32"
					}
				}
			},
			"userdoc": {
				"kind": "user",
				"methods": {},
				"version": 1
			}
		}
	}
}