{
	"contracts/29 data collection.sol": {
		"DataCollection": {
			"abi": [
				{
					"inputs": [
						{
							"internalType": "uint256",
							"name": "",
							"type": "uint256"
						}
					],
					"name": "arr",
					"outputs": [
						{
							"internalType": "uint256",
							"name": "",
							"type": "uint256"
						}
					],
					"stateMutability": "view",
					"type": "function"
				},
				{
					"inputs": [],
					"name": "f",
					"outputs": [],
					"stateMutability": "nonpayable",
					"type": "function"
				},
				{
					"inputs": [
						{
							"internalType": "uint256[]",
							"name": "_arr",
							"type": "uint256[]"
						}
					],
					"name": "g",
					"outputs": [
						{
							"internalType": "uint256[]",
							"name": "",
							"type": "uint256[]"
						}
					],
					"stateMutability": "pure",
					"type": "function"
				},
				{
					"inputs": [
						{
							"internalType": "uint256[]",
							"name": "_arr",
							"type": "uint256[]"
						}
					],
					"name": "h",
					"outputs": [
						{
							"internalType": "uint256",
							"name": "",
							"type": "uint256"
						}
					],
					"stateMutability": "pure",
					"type": "function"
				},
				{
					"inputs": [
						{
							"internalType": "uint256",
							"name": "",
							"type": "uint256"
						}
					],
					"name": "map",
					"outputs": [
						{
							"internalType": "address",
							"name": "",
							"type": "address"
						}
					],
					"stateMutability": "view",
					"type": "function"
				},
				{
					"inputs": [
						{
							"internalType": "uint256",
							"name": "",
							"type": "uint256"
						}
					],
					"name": "myStructs",
					"outputs": [
						{
							"internalType": "uint256",
							"name": "foo",
							"type": "uint256"
						}
					],
					"stateMutability": "view",
					"type": "function"
				}
			],
			"devdoc": {
				"kind": "dev",
				"methods": {},
				"version": 1
			},
			"evm": {
				"assembly": "    /* \"contracts/29 data collection.sol\":57:1106  contract DataCollection{... */\n  mstore(0x40, 0x80)\n  callvalue\n  dup1\n  iszero\n  tag_1\n  jumpi\n  0x00\n  dup1\n  revert\ntag_1:\n  pop\n  dataSize(sub_0)\n  dup1\n  dataOffset(sub_0)\n  0x00\n  codecopy\n  0x00\n  return\nstop\n\nsub_0: assembly {\n        /* \"contracts/29 data collection.sol\":57:1106  contract DataCollection{... */\n      mstore(0x40, 0x80)\n      callvalue\n      dup1\n      iszero\n      tag_1\n      jumpi\n      0x00\n      dup1\n      revert\n    tag_1:\n      pop\n      jumpi(tag_2, lt(calldatasize, 0x04))\n      shr(0xe0, calldataload(0x00))\n      dup1\n      0x26121ff0\n      eq\n      tag_3\n      jumpi\n      dup1\n      0x40dcbb08\n      eq\n      tag_4\n      jumpi\n      dup1\n      0x71e5ee5f\n      eq\n      tag_5\n      jumpi\n      dup1\n      0xb8dda9c7\n      eq\n      tag_6\n      jumpi\n      dup1\n      0xbaf71609\n      eq\n      tag_7\n      jumpi\n      dup1\n      0xdf90c8d3\n      eq\n      tag_8\n      jumpi\n    tag_2:\n      0x00\n      dup1\n      revert\n        /* \"contracts/29 data collection.sol\":265:464  function f() public {... */\n    tag_3:\n      tag_9\n      tag_10\n      jump\t// in\n    tag_9:\n      stop\n        /* \"contracts/29 data collection.sol\":904:1104  function h(uint[] calldata _arr)external pure returns(uint){... */\n    tag_4:\n      tag_11\n      0x04\n      dup1\n      calldatasize\n      sub\n      dup2\n      add\n      swap1\n      tag_12\n      swap2\n      swap1\n      tag_13\n      jump\t// in\n    tag_12:\n      tag_14\n      jump\t// in\n    tag_11:\n      mload(0x40)\n      tag_15\n      swap2\n      swap1\n      tag_16\n      jump\t// in\n    tag_15:\n      mload(0x40)\n      dup1\n      swap2\n      sub\n      swap1\n      return\n        /* \"contracts/29 data collection.sol\":108:125  uint[] public arr */\n    tag_5:\n      tag_17\n      0x04\n      dup1\n      calldatasize\n      sub\n      dup2\n      add\n      swap1\n      tag_18\n      swap2\n      swap1\n      tag_19\n      jump\t// in\n    tag_18:\n      tag_20\n      jump\t// in\n    tag_17:\n      mload(0x40)\n      tag_21\n      swap2\n      swap1\n      tag_16\n      jump\t// in\n    tag_21:\n      mload(0x40)\n      dup1\n      swap2\n      sub\n      swap1\n      return\n        /* \"contracts/29 data collection.sol\":132:165  mapping(uint=>address) public map */\n    tag_6:\n      tag_22\n      0x04\n      dup1\n      calldatasize\n      sub\n      dup2\n      add\n      swap1\n      tag_23\n      swap2\n      swap1\n      tag_19\n      jump\t// in\n    tag_23:\n      tag_24\n      jump\t// in\n    tag_22:\n      mload(0x40)\n      tag_25\n      swap2\n      swap1\n      tag_26\n      jump\t// in\n    tag_25:\n      mload(0x40)\n      dup1\n      swap2\n      sub\n      swap1\n      return\n        /* \"contracts/29 data collection.sol\":702:894  function g(uint[] memory _arr)public pure returns(uint[] memory){... */\n    tag_7:\n      tag_27\n      0x04\n      dup1\n      calldatasize\n      sub\n      dup2\n      add\n      swap1\n      tag_28\n      swap2\n      swap1\n      tag_29\n      jump\t// in\n    tag_28:\n      tag_30\n      jump\t// in\n    tag_27:\n      mload(0x40)\n      tag_31\n      swap2\n      swap1\n      tag_32\n      jump\t// in\n    tag_31:\n      mload(0x40)\n      dup1\n      swap2\n      sub\n      swap1\n      return\n        /* \"contracts/29 data collection.sol\":218:258  mapping(uint=>MyStruct) public myStructs */\n    tag_8:\n      tag_33\n      0x04\n      dup1\n      calldatasize\n      sub\n      dup2\n      add\n      swap1\n      tag_34\n      swap2\n      swap1\n      tag_19\n      jump\t// in\n    tag_34:\n      tag_35\n      jump\t// in\n    tag_33:\n      mload(0x40)\n      tag_36\n      swap2\n      swap1\n      tag_16\n      jump\t// in\n    tag_36:\n      mload(0x40)\n      dup1\n      swap2\n      sub\n      swap1\n      return\n        /* \"contracts/29 data collection.sol\":265:464  function f() public {... */\n    tag_10:\n        /* \"contracts/29 data collection.sol\":296:322  _f(arr, map, myStructs[1]) */\n      tag_38\n        /* \"contracts/29 data collection.sol\":299:302  arr */\n      0x00\n        /* \"contracts/29 data collection.sol\":304:307  map */\n      0x01\n        /* \"contracts/29 data collection.sol\":309:318  myStructs */\n      0x02\n        /* \"contracts/29 data collection.sol\":309:321  myStructs[1] */\n      0x00\n        /* \"contracts/29 data collection.sol\":319:320  1 */\n      0x01\n        /* \"contracts/29 data collection.sol\":309:321  myStructs[1] */\n      dup2\n      mstore\n      0x20\n      add\n      swap1\n      dup2\n      mstore\n      0x20\n      add\n      0x00\n      keccak256\n        /* \"contracts/29 data collection.sol\":296:298  _f */\n      tag_39\n        /* \"contracts/29 data collection.sol\":296:322  _f(arr, map, myStructs[1]) */\n      jump\t// in\n    tag_38:\n        /* \"contracts/29 data collection.sol\":333:358  MyStruct storage mystruct */\n      0x00\n        /* \"contracts/29 data collection.sol\":361:370  myStructs */\n      0x02\n        /* \"contracts/29 data collection.sol\":361:373  myStructs[1] */\n      0x00\n        /* \"contracts/29 data collection.sol\":371:372  1 */\n      0x01\n        /* \"contracts/29 data collection.sol\":361:373  myStructs[1] */\n      dup2\n      mstore\n      0x20\n      add\n      swap1\n      dup2\n      mstore\n      0x20\n      add\n      0x00\n      keccak256\n        /* \"contracts/29 data collection.sol\":333:373  MyStruct storage mystruct = myStructs[1] */\n      swap1\n      pop\n        /* \"contracts/29 data collection.sol\":399:402  123 */\n      0x7b\n        /* \"contracts/29 data collection.sol\":384:392  mystruct */\n      dup2\n        /* \"contracts/29 data collection.sol\":384:396  mystruct.foo */\n      0x00\n      add\n        /* \"contracts/29 data collection.sol\":384:402  mystruct.foo = 123 */\n      dup2\n      swap1\n      sstore\n      pop\n        /* \"contracts/29 data collection.sol\":413:440  MyStruct memory myMemStruct */\n      0x00\n        /* \"contracts/29 data collection.sol\":443:456  MyStruct(999) */\n      mload(0x40)\n      dup1\n      0x20\n      add\n      0x40\n      mstore\n      dup1\n        /* \"contracts/29 data collection.sol\":452:455  999 */\n      0x03e7\n        /* \"contracts/29 data collection.sol\":443:456  MyStruct(999) */\n      dup2\n      mstore\n      pop\n        /* \"contracts/29 data collection.sol\":413:456  MyStruct memory myMemStruct = MyStruct(999) */\n      swap1\n      pop\n        /* \"contracts/29 data collection.sol\":285:464  {... */\n      pop\n      pop\n        /* \"contracts/29 data collection.sol\":265:464  function f() public {... */\n      jump\t// out\n        /* \"contracts/29 data collection.sol\":904:1104  function h(uint[] calldata _arr)external pure returns(uint){... */\n    tag_14:\n        /* \"contracts/29 data collection.sol\":958:962  uint */\n      0x00\n        /* \"contracts/29 data collection.sol\":973:981  uint sum */\n      dup1\n        /* \"contracts/29 data collection.sol\":996:1002  uint x */\n      0x00\n        /* \"contracts/29 data collection.sol\":991:1078  for (uint x = 0; x < _arr.length; x++) ... */\n    tag_41:\n        /* \"contracts/29 data collection.sol\":1012:1016  _arr */\n      dup5\n      dup5\n        /* \"contracts/29 data collection.sol\":1012:1023  _arr.length */\n      swap1\n      pop\n        /* \"contracts/29 data collection.sol\":1008:1009  x */\n      dup2\n        /* \"contracts/29 data collection.sol\":1008:1023  x < _arr.length */\n      lt\n        /* \"contracts/29 data collection.sol\":991:1078  for (uint x = 0; x < _arr.length; x++) ... */\n      iszero\n      tag_42\n      jumpi\n        /* \"contracts/29 data collection.sol\":1060:1064  _arr */\n      dup5\n      dup5\n        /* \"contracts/29 data collection.sol\":1065:1066  x */\n      dup3\n        /* \"contracts/29 data collection.sol\":1060:1067  _arr[x] */\n      dup2\n      dup2\n      lt\n      tag_44\n      jumpi\n      tag_45\n      tag_46\n      jump\t// in\n    tag_45:\n    tag_44:\n      swap1\n      pop\n      0x20\n      mul\n      add\n      calldataload\n        /* \"contracts/29 data collection.sol\":1053:1067  sum += _arr[x] */\n      dup3\n      tag_47\n      swap2\n      swap1\n      tag_48\n      jump\t// in\n    tag_47:\n      swap2\n      pop\n        /* \"contracts/29 data collection.sol\":1025:1028  x++ */\n      dup1\n      dup1\n      0x01\n      add\n      swap2\n      pop\n      pop\n        /* \"contracts/29 data collection.sol\":991:1078  for (uint x = 0; x < _arr.length; x++) ... */\n      jump(tag_41)\n    tag_42:\n      pop\n        /* \"contracts/29 data collection.sol\":1094:1097  sum */\n      dup1\n        /* \"contracts/29 data collection.sol\":1087:1097  return sum */\n      swap2\n      pop\n      pop\n        /* \"contracts/29 data collection.sol\":904:1104  function h(uint[] calldata _arr)external pure returns(uint){... */\n      swap3\n      swap2\n      pop\n      pop\n      jump\t// out\n        /* \"contracts/29 data collection.sol\":108:125  uint[] public arr */\n    tag_20:\n      0x00\n      dup2\n      dup2\n      sload\n      dup2\n      lt\n      tag_49\n      jumpi\n      0x00\n      dup1\n      revert\n    tag_49:\n      swap1\n      0x00\n      mstore\n      keccak256(0x00, 0x20)\n      add\n      0x00\n      swap2\n      pop\n      swap1\n      pop\n      sload\n      dup2\n      jump\t// out\n        /* \"contracts/29 data collection.sol\":132:165  mapping(uint=>address) public map */\n    tag_24:\n      mstore(0x20, 0x01)\n      dup1\n      0x00\n      mstore\n      keccak256(0x00, 0x40)\n      0x00\n      swap2\n      pop\n      sload\n      swap1\n      0x0100\n      exp\n      swap1\n      div\n      0xffffffffffffffffffffffffffffffffffffffff\n      and\n      dup2\n      jump\t// out\n        /* \"contracts/29 data collection.sol\":702:894  function g(uint[] memory _arr)public pure returns(uint[] memory){... */\n    tag_30:\n        /* \"contracts/29 data collection.sol\":752:765  uint[] memory */\n      0x60\n        /* \"contracts/29 data collection.sol\":781:787  uint x */\n      0x00\n        /* \"contracts/29 data collection.sol\":776:867  for (uint x=0; x<_arr.length; x++) ... */\n    tag_52:\n        /* \"contracts/29 data collection.sol\":793:797  _arr */\n      dup3\n        /* \"contracts/29 data collection.sol\":793:804  _arr.length */\n      mload\n        /* \"contracts/29 data collection.sol\":791:792  x */\n      dup2\n        /* \"contracts/29 data collection.sol\":791:804  x<_arr.length */\n      lt\n        /* \"contracts/29 data collection.sol\":776:867  for (uint x=0; x<_arr.length; x++) ... */\n      iszero\n      tag_53\n      jumpi\n        /* \"contracts/29 data collection.sol\":855:856  2 */\n      0x02\n        /* \"contracts/29 data collection.sol\":845:849  _arr */\n      dup4\n        /* \"contracts/29 data collection.sol\":850:851  x */\n      dup3\n        /* \"contracts/29 data collection.sol\":845:852  _arr[x] */\n      dup2\n      mload\n      dup2\n      lt\n      tag_55\n      jumpi\n      tag_56\n      tag_46\n      jump\t// in\n    tag_56:\n    tag_55:\n      0x20\n      mul\n      0x20\n      add\n      add\n      mload\n        /* \"contracts/29 data collection.sol\":845:856  _arr[x] * 2 */\n      tag_57\n      swap2\n      swap1\n      tag_58\n      jump\t// in\n    tag_57:\n        /* \"contracts/29 data collection.sol\":834:838  _arr */\n      dup4\n        /* \"contracts/29 data collection.sol\":839:840  x */\n      dup3\n        /* \"contracts/29 data collection.sol\":834:841  _arr[x] */\n      dup2\n      mload\n      dup2\n      lt\n      tag_59\n      jumpi\n      tag_60\n      tag_46\n      jump\t// in\n    tag_60:\n    tag_59:\n      0x20\n      mul\n      0x20\n      add\n      add\n        /* \"contracts/29 data collection.sol\":834:856  _arr[x] =  _arr[x] * 2 */\n      dup2\n      dup2\n      mstore\n      pop\n      pop\n        /* \"contracts/29 data collection.sol\":806:809  x++ */\n      dup1\n      dup1\n      0x01\n      add\n      swap2\n      pop\n      pop\n        /* \"contracts/29 data collection.sol\":776:867  for (uint x=0; x<_arr.length; x++) ... */\n      jump(tag_52)\n    tag_53:\n      pop\n        /* \"contracts/29 data collection.sol\":883:887  _arr */\n      dup2\n        /* \"contracts/29 data collection.sol\":876:887  return _arr */\n      swap1\n      pop\n        /* \"contracts/29 data collection.sol\":702:894  function g(uint[] memory _arr)public pure returns(uint[] memory){... */\n      swap2\n      swap1\n      pop\n      jump\t// out\n        /* \"contracts/29 data collection.sol\":218:258  mapping(uint=>MyStruct) public myStructs */\n    tag_35:\n      mstore(0x20, 0x02)\n      dup1\n      0x00\n      mstore\n      keccak256(0x00, 0x40)\n      0x00\n      swap2\n      pop\n      swap1\n      pop\n      dup1\n      0x00\n      add\n      sload\n      swap1\n      pop\n      dup2\n      jump\t// out\n        /* \"contracts/29 data collection.sol\":470:696  function _f(... */\n    tag_39:\n        /* \"contracts/29 data collection.sol\":616:620  _arr */\n      dup3\n        /* \"contracts/29 data collection.sol\":626:629  789 */\n      0x0315\n        /* \"contracts/29 data collection.sol\":616:630  _arr.push(789) */\n      swap1\n      dup1\n      0x01\n      dup2\n      sload\n      add\n      dup1\n      dup3\n      sstore\n      dup1\n      swap2\n      pop\n      pop\n      0x01\n      swap1\n      sub\n      swap1\n      0x00\n      mstore\n      keccak256(0x00, 0x20)\n      add\n      0x00\n      swap1\n      swap2\n      swap1\n      swap2\n      swap1\n      swap2\n      pop\n      sstore\n        /* \"contracts/29 data collection.sol\":650:660  msg.sender */\n      caller\n        /* \"contracts/29 data collection.sol\":640:644  _map */\n      dup3\n        /* \"contracts/29 data collection.sol\":640:647  _map[1] */\n      0x00\n        /* \"contracts/29 data collection.sol\":645:646  1 */\n      0x01\n        /* \"contracts/29 data collection.sol\":640:647  _map[1] */\n      dup2\n      mstore\n      0x20\n      add\n      swap1\n      dup2\n      mstore\n      0x20\n      add\n      0x00\n      keccak256\n      0x00\n        /* \"contracts/29 data collection.sol\":640:660  _map[1] = msg.sender */\n      0x0100\n      exp\n      dup2\n      sload\n      dup2\n      0xffffffffffffffffffffffffffffffffffffffff\n      mul\n      not\n      and\n      swap1\n      dup4\n      0xffffffffffffffffffffffffffffffffffffffff\n      and\n      mul\n      or\n      swap1\n      sstore\n      pop\n        /* \"contracts/29 data collection.sol\":686:689  999 */\n      0x03e7\n        /* \"contracts/29 data collection.sol\":670:679  _myStruct */\n      dup2\n        /* \"contracts/29 data collection.sol\":670:683  _myStruct.foo */\n      0x00\n      add\n        /* \"contracts/29 data collection.sol\":670:689  _myStruct.foo = 999 */\n      dup2\n      swap1\n      sstore\n      pop\n        /* \"contracts/29 data collection.sol\":470:696  function _f(... */\n      pop\n      pop\n      pop\n      jump\t// out\n        /* \"#utility.yul\":7:82   */\n    tag_63:\n        /* \"#utility.yul\":40:46   */\n      0x00\n        /* \"#utility.yul\":73:75   */\n      0x40\n        /* \"#utility.yul\":67:76   */\n      mload\n        /* \"#utility.yul\":57:76   */\n      swap1\n      pop\n        /* \"#utility.yul\":7:82   */\n      swap1\n      jump\t// out\n        /* \"#utility.yul\":88:205   */\n    tag_64:\n        /* \"#utility.yul\":197:198   */\n      0x00\n        /* \"#utility.yul\":194:195   */\n      dup1\n        /* \"#utility.yul\":187:199   */\n      revert\n        /* \"#utility.yul\":211:328   */\n    tag_65:\n        /* \"#utility.yul\":320:321   */\n      0x00\n        /* \"#utility.yul\":317:318   */\n      dup1\n        /* \"#utility.yul\":310:322   */\n      revert\n        /* \"#utility.yul\":334:451   */\n    tag_66:\n        /* \"#utility.yul\":443:444   */\n      0x00\n        /* \"#utility.yul\":440:441   */\n      dup1\n        /* \"#utility.yul\":433:445   */\n      revert\n        /* \"#utility.yul\":457:574   */\n    tag_67:\n        /* \"#utility.yul\":566:567   */\n      0x00\n        /* \"#utility.yul\":563:564   */\n      dup1\n        /* \"#utility.yul\":556:568   */\n      revert\n        /* \"#utility.yul\":580:697   */\n    tag_68:\n        /* \"#utility.yul\":689:690   */\n      0x00\n        /* \"#utility.yul\":686:687   */\n      dup1\n        /* \"#utility.yul\":679:691   */\n      revert\n        /* \"#utility.yul\":720:1288   */\n    tag_69:\n        /* \"#utility.yul\":793:801   */\n      0x00\n        /* \"#utility.yul\":803:809   */\n      dup1\n        /* \"#utility.yul\":853:856   */\n      dup4\n        /* \"#utility.yul\":846:850   */\n      0x1f\n        /* \"#utility.yul\":838:844   */\n      dup5\n        /* \"#utility.yul\":834:851   */\n      add\n        /* \"#utility.yul\":830:857   */\n      slt\n        /* \"#utility.yul\":820:942   */\n      tag_100\n      jumpi\n        /* \"#utility.yul\":861:940   */\n      tag_101\n      tag_66\n      jump\t// in\n    tag_101:\n        /* \"#utility.yul\":820:942   */\n    tag_100:\n        /* \"#utility.yul\":974:980   */\n      dup3\n        /* \"#utility.yul\":961:981   */\n      calldataload\n        /* \"#utility.yul\":951:981   */\n      swap1\n      pop\n        /* \"#utility.yul\":1004:1022   */\n      0xffffffffffffffff\n        /* \"#utility.yul\":996:1002   */\n      dup2\n        /* \"#utility.yul\":993:1023   */\n      gt\n        /* \"#utility.yul\":990:1107   */\n      iszero\n      tag_102\n      jumpi\n        /* \"#utility.yul\":1026:1105   */\n      tag_103\n      tag_67\n      jump\t// in\n    tag_103:\n        /* \"#utility.yul\":990:1107   */\n    tag_102:\n        /* \"#utility.yul\":1140:1144   */\n      0x20\n        /* \"#utility.yul\":1132:1138   */\n      dup4\n        /* \"#utility.yul\":1128:1145   */\n      add\n        /* \"#utility.yul\":1116:1145   */\n      swap2\n      pop\n        /* \"#utility.yul\":1194:1197   */\n      dup4\n        /* \"#utility.yul\":1186:1190   */\n      0x20\n        /* \"#utility.yul\":1178:1184   */\n      dup3\n        /* \"#utility.yul\":1174:1191   */\n      mul\n        /* \"#utility.yul\":1164:1172   */\n      dup4\n        /* \"#utility.yul\":1160:1192   */\n      add\n        /* \"#utility.yul\":1157:1198   */\n      gt\n        /* \"#utility.yul\":1154:1282   */\n      iszero\n      tag_104\n      jumpi\n        /* \"#utility.yul\":1201:1280   */\n      tag_105\n      tag_68\n      jump\t// in\n    tag_105:\n        /* \"#utility.yul\":1154:1282   */\n    tag_104:\n        /* \"#utility.yul\":720:1288   */\n      swap3\n      pop\n      swap3\n      swap1\n      pop\n      jump\t// out\n        /* \"#utility.yul\":1294:1853   */\n    tag_13:\n        /* \"#utility.yul\":1380:1386   */\n      0x00\n        /* \"#utility.yul\":1388:1394   */\n      dup1\n        /* \"#utility.yul\":1437:1439   */\n      0x20\n        /* \"#utility.yul\":1425:1434   */\n      dup4\n        /* \"#utility.yul\":1416:1423   */\n      dup6\n        /* \"#utility.yul\":1412:1435   */\n      sub\n        /* \"#utility.yul\":1408:1440   */\n      slt\n        /* \"#utility.yul\":1405:1524   */\n      iszero\n      tag_107\n      jumpi\n        /* \"#utility.yul\":1443:1522   */\n      tag_108\n      tag_64\n      jump\t// in\n    tag_108:\n        /* \"#utility.yul\":1405:1524   */\n    tag_107:\n        /* \"#utility.yul\":1591:1592   */\n      0x00\n        /* \"#utility.yul\":1580:1589   */\n      dup4\n        /* \"#utility.yul\":1576:1593   */\n      add\n        /* \"#utility.yul\":1563:1594   */\n      calldataload\n        /* \"#utility.yul\":1621:1639   */\n      0xffffffffffffffff\n        /* \"#utility.yul\":1613:1619   */\n      dup2\n        /* \"#utility.yul\":1610:1640   */\n      gt\n        /* \"#utility.yul\":1607:1724   */\n      iszero\n      tag_109\n      jumpi\n        /* \"#utility.yul\":1643:1722   */\n      tag_110\n      tag_65\n      jump\t// in\n    tag_110:\n        /* \"#utility.yul\":1607:1724   */\n    tag_109:\n        /* \"#utility.yul\":1756:1836   */\n      tag_111\n        /* \"#utility.yul\":1828:1835   */\n      dup6\n        /* \"#utility.yul\":1819:1825   */\n      dup3\n        /* \"#utility.yul\":1808:1817   */\n      dup7\n        /* \"#utility.yul\":1804:1826   */\n      add\n        /* \"#utility.yul\":1756:1836   */\n      tag_69\n      jump\t// in\n    tag_111:\n        /* \"#utility.yul\":1738:1836   */\n      swap3\n      pop\n      swap3\n      pop\n        /* \"#utility.yul\":1534:1846   */\n      pop\n        /* \"#utility.yul\":1294:1853   */\n      swap3\n      pop\n      swap3\n      swap1\n      pop\n      jump\t// out\n        /* \"#utility.yul\":1859:1936   */\n    tag_70:\n        /* \"#utility.yul\":1896:1903   */\n      0x00\n        /* \"#utility.yul\":1925:1930   */\n      dup2\n        /* \"#utility.yul\":1914:1930   */\n      swap1\n      pop\n        /* \"#utility.yul\":1859:1936   */\n      swap2\n      swap1\n      pop\n      jump\t// out\n        /* \"#utility.yul\":1942:2060   */\n    tag_71:\n        /* \"#utility.yul\":2029:2053   */\n      tag_114\n        /* \"#utility.yul\":2047:2052   */\n      dup2\n        /* \"#utility.yul\":2029:2053   */\n      tag_70\n      jump\t// in\n    tag_114:\n        /* \"#utility.yul\":2024:2027   */\n      dup3\n        /* \"#utility.yul\":2017:2054   */\n      mstore\n        /* \"#utility.yul\":1942:2060   */\n      pop\n      pop\n      jump\t// out\n        /* \"#utility.yul\":2066:2288   */\n    tag_16:\n        /* \"#utility.yul\":2159:2163   */\n      0x00\n        /* \"#utility.yul\":2197:2199   */\n      0x20\n        /* \"#utility.yul\":2186:2195   */\n      dup3\n        /* \"#utility.yul\":2182:2200   */\n      add\n        /* \"#utility.yul\":2174:2200   */\n      swap1\n      pop\n        /* \"#utility.yul\":2210:2281   */\n      tag_116\n        /* \"#utility.yul\":2278:2279   */\n      0x00\n        /* \"#utility.yul\":2267:2276   */\n      dup4\n        /* \"#utility.yul\":2263:2280   */\n      add\n        /* \"#utility.yul\":2254:2260   */\n      dup5\n        /* \"#utility.yul\":2210:2281   */\n      tag_71\n      jump\t// in\n    tag_116:\n        /* \"#utility.yul\":2066:2288   */\n      swap3\n      swap2\n      pop\n      pop\n      jump\t// out\n        /* \"#utility.yul\":2294:2416   */\n    tag_72:\n        /* \"#utility.yul\":2367:2391   */\n      tag_118\n        /* \"#utility.yul\":2385:2390   */\n      dup2\n        /* \"#utility.yul\":2367:2391   */\n      tag_70\n      jump\t// in\n    tag_118:\n        /* \"#utility.yul\":2360:2365   */\n      dup2\n        /* \"#utility.yul\":2357:2392   */\n      eq\n        /* \"#utility.yul\":2347:2410   */\n      tag_119\n      jumpi\n        /* \"#utility.yul\":2406:2407   */\n      0x00\n        /* \"#utility.yul\":2403:2404   */\n      dup1\n        /* \"#utility.yul\":2396:2408   */\n      revert\n        /* \"#utility.yul\":2347:2410   */\n    tag_119:\n        /* \"#utility.yul\":2294:2416   */\n      pop\n      jump\t// out\n        /* \"#utility.yul\":2422:2561   */\n    tag_73:\n        /* \"#utility.yul\":2468:2473   */\n      0x00\n        /* \"#utility.yul\":2506:2512   */\n      dup2\n        /* \"#utility.yul\":2493:2513   */\n      calldataload\n        /* \"#utility.yul\":2484:2513   */\n      swap1\n      pop\n        /* \"#utility.yul\":2522:2555   */\n      tag_121\n        /* \"#utility.yul\":2549:2554   */\n      dup2\n        /* \"#utility.yul\":2522:2555   */\n      tag_72\n      jump\t// in\n    tag_121:\n        /* \"#utility.yul\":2422:2561   */\n      swap3\n      swap2\n      pop\n      pop\n      jump\t// out\n        /* \"#utility.yul\":2567:2896   */\n    tag_19:\n        /* \"#utility.yul\":2626:2632   */\n      0x00\n        /* \"#utility.yul\":2675:2677   */\n      0x20\n        /* \"#utility.yul\":2663:2672   */\n      dup3\n        /* \"#utility.yul\":2654:2661   */\n      dup5\n        /* \"#utility.yul\":2650:2673   */\n      sub\n        /* \"#utility.yul\":2646:2678   */\n      slt\n        /* \"#utility.yul\":2643:2762   */\n      iszero\n      tag_123\n      jumpi\n        /* \"#utility.yul\":2681:2760   */\n      tag_124\n      tag_64\n      jump\t// in\n    tag_124:\n        /* \"#utility.yul\":2643:2762   */\n    tag_123:\n        /* \"#utility.yul\":2801:2802   */\n      0x00\n        /* \"#utility.yul\":2826:2879   */\n      tag_125\n        /* \"#utility.yul\":2871:2878   */\n      dup5\n        /* \"#utility.yul\":2862:2868   */\n      dup3\n        /* \"#utility.yul\":2851:2860   */\n      dup6\n        /* \"#utility.yul\":2847:2869   */\n      add\n        /* \"#utility.yul\":2826:2879   */\n      tag_73\n      jump\t// in\n    tag_125:\n        /* \"#utility.yul\":2816:2879   */\n      swap2\n      pop\n        /* \"#utility.yul\":2772:2889   */\n      pop\n        /* \"#utility.yul\":2567:2896   */\n      swap3\n      swap2\n      pop\n      pop\n      jump\t// out\n        /* \"#utility.yul\":2902:3028   */\n    tag_74:\n        /* \"#utility.yul\":2939:2946   */\n      0x00\n        /* \"#utility.yul\":2979:3021   */\n      0xffffffffffffffffffffffffffffffffffffffff\n        /* \"#utility.yul\":2972:2977   */\n      dup3\n        /* \"#utility.yul\":2968:3022   */\n      and\n        /* \"#utility.yul\":2957:3022   */\n      swap1\n      pop\n        /* \"#utility.yul\":2902:3028   */\n      swap2\n      swap1\n      pop\n      jump\t// out\n        /* \"#utility.yul\":3034:3130   */\n    tag_75:\n        /* \"#utility.yul\":3071:3078   */\n      0x00\n        /* \"#utility.yul\":3100:3124   */\n      tag_128\n        /* \"#utility.yul\":3118:3123   */\n      dup3\n        /* \"#utility.yul\":3100:3124   */\n      tag_74\n      jump\t// in\n    tag_128:\n        /* \"#utility.yul\":3089:3124   */\n      swap1\n      pop\n        /* \"#utility.yul\":3034:3130   */\n      swap2\n      swap1\n      pop\n      jump\t// out\n        /* \"#utility.yul\":3136:3254   */\n    tag_76:\n        /* \"#utility.yul\":3223:3247   */\n      tag_130\n        /* \"#utility.yul\":3241:3246   */\n      dup2\n        /* \"#utility.yul\":3223:3247   */\n      tag_75\n      jump\t// in\n    tag_130:\n        /* \"#utility.yul\":3218:3221   */\n      dup3\n        /* \"#utility.yul\":3211:3248   */\n      mstore\n        /* \"#utility.yul\":3136:3254   */\n      pop\n      pop\n      jump\t// out\n        /* \"#utility.yul\":3260:3482   */\n    tag_26:\n        /* \"#utility.yul\":3353:3357   */\n      0x00\n        /* \"#utility.yul\":3391:3393   */\n      0x20\n        /* \"#utility.yul\":3380:3389   */\n      dup3\n        /* \"#utility.yul\":3376:3394   */\n      add\n        /* \"#utility.yul\":3368:3394   */\n      swap1\n      pop\n        /* \"#utility.yul\":3404:3475   */\n      tag_132\n        /* \"#utility.yul\":3472:3473   */\n      0x00\n        /* \"#utility.yul\":3461:3470   */\n      dup4\n        /* \"#utility.yul\":3457:3474   */\n      add\n        /* \"#utility.yul\":3448:3454   */\n      dup5\n        /* \"#utility.yul\":3404:3475   */\n      tag_76\n      jump\t// in\n    tag_132:\n        /* \"#utility.yul\":3260:3482   */\n      swap3\n      swap2\n      pop\n      pop\n      jump\t// out\n        /* \"#utility.yul\":3488:3590   */\n    tag_77:\n        /* \"#utility.yul\":3529:3535   */\n      0x00\n        /* \"#utility.yul\":3580:3582   */\n      0x1f\n        /* \"#utility.yul\":3576:3583   */\n      not\n        /* \"#utility.yul\":3571:3573   */\n      0x1f\n        /* \"#utility.yul\":3564:3569   */\n      dup4\n        /* \"#utility.yul\":3560:3574   */\n      add\n        /* \"#utility.yul\":3556:3584   */\n      and\n        /* \"#utility.yul\":3546:3584   */\n      swap1\n      pop\n        /* \"#utility.yul\":3488:3590   */\n      swap2\n      swap1\n      pop\n      jump\t// out\n        /* \"#utility.yul\":3596:3776   */\n    tag_78:\n        /* \"#utility.yul\":3644:3721   */\n      0x4e487b7100000000000000000000000000000000000000000000000000000000\n        /* \"#utility.yul\":3641:3642   */\n      0x00\n        /* \"#utility.yul\":3634:3722   */\n      mstore\n        /* \"#utility.yul\":3741:3745   */\n      0x41\n        /* \"#utility.yul\":3738:3739   */\n      0x04\n        /* \"#utility.yul\":3731:3746   */\n      mstore\n        /* \"#utility.yul\":3765:3769   */\n      0x24\n        /* \"#utility.yul\":3762:3763   */\n      0x00\n        /* \"#utility.yul\":3755:3770   */\n      revert\n        /* \"#utility.yul\":3782:4063   */\n    tag_79:\n        /* \"#utility.yul\":3865:3892   */\n      tag_136\n        /* \"#utility.yul\":3887:3891   */\n      dup3\n        /* \"#utility.yul\":3865:3892   */\n      tag_77\n      jump\t// in\n    tag_136:\n        /* \"#utility.yul\":3857:3863   */\n      dup2\n        /* \"#utility.yul\":3853:3893   */\n      add\n        /* \"#utility.yul\":3995:4001   */\n      dup2\n        /* \"#utility.yul\":3983:3993   */\n      dup2\n        /* \"#utility.yul\":3980:4002   */\n      lt\n        /* \"#utility.yul\":3959:3977   */\n      0xffffffffffffffff\n        /* \"#utility.yul\":3947:3957   */\n      dup3\n        /* \"#utility.yul\":3944:3978   */\n      gt\n        /* \"#utility.yul\":3941:4003   */\n      or\n        /* \"#utility.yul\":3938:4026   */\n      iszero\n      tag_137\n      jumpi\n        /* \"#utility.yul\":4006:4024   */\n      tag_138\n      tag_78\n      jump\t// in\n    tag_138:\n        /* \"#utility.yul\":3938:4026   */\n    tag_137:\n        /* \"#utility.yul\":4046:4056   */\n      dup1\n        /* \"#utility.yul\":4042:4044   */\n      0x40\n        /* \"#utility.yul\":4035:4057   */\n      mstore\n        /* \"#utility.yul\":3825:4063   */\n      pop\n        /* \"#utility.yul\":3782:4063   */\n      pop\n      pop\n      jump\t// out\n        /* \"#utility.yul\":4069:4198   */\n    tag_80:\n        /* \"#utility.yul\":4103:4109   */\n      0x00\n        /* \"#utility.yul\":4130:4150   */\n      tag_140\n      tag_63\n      jump\t// in\n    tag_140:\n        /* \"#utility.yul\":4120:4150   */\n      swap1\n      pop\n        /* \"#utility.yul\":4159:4192   */\n      tag_141\n        /* \"#utility.yul\":4187:4191   */\n      dup3\n        /* \"#utility.yul\":4179:4185   */\n      dup3\n        /* \"#utility.yul\":4159:4192   */\n      tag_79\n      jump\t// in\n    tag_141:\n        /* \"#utility.yul\":4069:4198   */\n      swap2\n      swap1\n      pop\n      jump\t// out\n        /* \"#utility.yul\":4204:4515   */\n    tag_81:\n        /* \"#utility.yul\":4281:4285   */\n      0x00\n        /* \"#utility.yul\":4371:4389   */\n      0xffffffffffffffff\n        /* \"#utility.yul\":4363:4369   */\n      dup3\n        /* \"#utility.yul\":4360:4390   */\n      gt\n        /* \"#utility.yul\":4357:4413   */\n      iszero\n      tag_143\n      jumpi\n        /* \"#utility.yul\":4393:4411   */\n      tag_144\n      tag_78\n      jump\t// in\n    tag_144:\n        /* \"#utility.yul\":4357:4413   */\n    tag_143:\n        /* \"#utility.yul\":4443:4447   */\n      0x20\n        /* \"#utility.yul\":4435:4441   */\n      dup3\n        /* \"#utility.yul\":4431:4448   */\n      mul\n        /* \"#utility.yul\":4423:4448   */\n      swap1\n      pop\n        /* \"#utility.yul\":4503:4507   */\n      0x20\n        /* \"#utility.yul\":4497:4501   */\n      dup2\n        /* \"#utility.yul\":4493:4508   */\n      add\n        /* \"#utility.yul\":4485:4508   */\n      swap1\n      pop\n        /* \"#utility.yul\":4204:4515   */\n      swap2\n      swap1\n      pop\n      jump\t// out\n        /* \"#utility.yul\":4538:5248   */\n    tag_82:\n        /* \"#utility.yul\":4634:4639   */\n      0x00\n        /* \"#utility.yul\":4659:4740   */\n      tag_146\n        /* \"#utility.yul\":4675:4739   */\n      tag_147\n        /* \"#utility.yul\":4732:4738   */\n      dup5\n        /* \"#utility.yul\":4675:4739   */\n      tag_81\n      jump\t// in\n    tag_147:\n        /* \"#utility.yul\":4659:4740   */\n      tag_80\n      jump\t// in\n    tag_146:\n        /* \"#utility.yul\":4650:4740   */\n      swap1\n      pop\n        /* \"#utility.yul\":4760:4765   */\n      dup1\n        /* \"#utility.yul\":4789:4795   */\n      dup4\n        /* \"#utility.yul\":4782:4787   */\n      dup3\n        /* \"#utility.yul\":4775:4796   */\n      mstore\n        /* \"#utility.yul\":4823:4827   */\n      0x20\n        /* \"#utility.yul\":4816:4821   */\n      dup3\n        /* \"#utility.yul\":4812:4828   */\n      add\n        /* \"#utility.yul\":4805:4828   */\n      swap1\n      pop\n        /* \"#utility.yul\":4876:4880   */\n      0x20\n        /* \"#utility.yul\":4868:4874   */\n      dup5\n        /* \"#utility.yul\":4864:4881   */\n      mul\n        /* \"#utility.yul\":4856:4862   */\n      dup4\n        /* \"#utility.yul\":4852:4882   */\n      add\n        /* \"#utility.yul\":4905:4908   */\n      dup6\n        /* \"#utility.yul\":4897:4903   */\n      dup2\n        /* \"#utility.yul\":4894:4909   */\n      gt\n        /* \"#utility.yul\":4891:5013   */\n      iszero\n      tag_148\n      jumpi\n        /* \"#utility.yul\":4924:5003   */\n      tag_149\n      tag_68\n      jump\t// in\n    tag_149:\n        /* \"#utility.yul\":4891:5013   */\n    tag_148:\n        /* \"#utility.yul\":5039:5045   */\n      dup4\n        /* \"#utility.yul\":5022:5242   */\n    tag_150:\n        /* \"#utility.yul\":5056:5062   */\n      dup2\n        /* \"#utility.yul\":5051:5054   */\n      dup2\n        /* \"#utility.yul\":5048:5063   */\n      lt\n        /* \"#utility.yul\":5022:5242   */\n      iszero\n      tag_152\n      jumpi\n        /* \"#utility.yul\":5131:5134   */\n      dup1\n        /* \"#utility.yul\":5160:5197   */\n      tag_153\n        /* \"#utility.yul\":5193:5196   */\n      dup9\n        /* \"#utility.yul\":5181:5191   */\n      dup3\n        /* \"#utility.yul\":5160:5197   */\n      tag_73\n      jump\t// in\n    tag_153:\n        /* \"#utility.yul\":5155:5158   */\n      dup5\n        /* \"#utility.yul\":5148:5198   */\n      mstore\n        /* \"#utility.yul\":5227:5231   */\n      0x20\n        /* \"#utility.yul\":5222:5225   */\n      dup5\n        /* \"#utility.yul\":5218:5232   */\n      add\n        /* \"#utility.yul\":5211:5232   */\n      swap4\n      pop\n        /* \"#utility.yul\":5098:5242   */\n      pop\n        /* \"#utility.yul\":5082:5086   */\n      0x20\n        /* \"#utility.yul\":5077:5080   */\n      dup2\n        /* \"#utility.yul\":5073:5087   */\n      add\n        /* \"#utility.yul\":5066:5087   */\n      swap1\n      pop\n        /* \"#utility.yul\":5022:5242   */\n      jump(tag_150)\n    tag_152:\n        /* \"#utility.yul\":5026:5047   */\n      pop\n        /* \"#utility.yul\":4640:5248   */\n      pop\n      pop\n        /* \"#utility.yul\":4538:5248   */\n      swap4\n      swap3\n      pop\n      pop\n      pop\n      jump\t// out\n        /* \"#utility.yul\":5271:5641   */\n    tag_83:\n        /* \"#utility.yul\":5342:5347   */\n      0x00\n        /* \"#utility.yul\":5391:5394   */\n      dup3\n        /* \"#utility.yul\":5384:5388   */\n      0x1f\n        /* \"#utility.yul\":5376:5382   */\n      dup4\n        /* \"#utility.yul\":5372:5389   */\n      add\n        /* \"#utility.yul\":5368:5395   */\n      slt\n        /* \"#utility.yul\":5358:5480   */\n      tag_155\n      jumpi\n        /* \"#utility.yul\":5399:5478   */\n      tag_156\n      tag_66\n      jump\t// in\n    tag_156:\n        /* \"#utility.yul\":5358:5480   */\n    tag_155:\n        /* \"#utility.yul\":5516:5522   */\n      dup2\n        /* \"#utility.yul\":5503:5523   */\n      calldataload\n        /* \"#utility.yul\":5541:5635   */\n      tag_157\n        /* \"#utility.yul\":5631:5634   */\n      dup5\n        /* \"#utility.yul\":5623:5629   */\n      dup3\n        /* \"#utility.yul\":5616:5620   */\n      0x20\n        /* \"#utility.yul\":5608:5614   */\n      dup7\n        /* \"#utility.yul\":5604:5621   */\n      add\n        /* \"#utility.yul\":5541:5635   */\n      tag_82\n      jump\t// in\n    tag_157:\n        /* \"#utility.yul\":5532:5635   */\n      swap2\n      pop\n        /* \"#utility.yul\":5348:5641   */\n      pop\n        /* \"#utility.yul\":5271:5641   */\n      swap3\n      swap2\n      pop\n      pop\n      jump\t// out\n        /* \"#utility.yul\":5647:6186   */\n    tag_29:\n        /* \"#utility.yul\":5731:5737   */\n      0x00\n        /* \"#utility.yul\":5780:5782   */\n      0x20\n        /* \"#utility.yul\":5768:5777   */\n      dup3\n        /* \"#utility.yul\":5759:5766   */\n      dup5\n        /* \"#utility.yul\":5755:5778   */\n      sub\n        /* \"#utility.yul\":5751:5783   */\n      slt\n        /* \"#utility.yul\":5748:5867   */\n      iszero\n      tag_159\n      jumpi\n        /* \"#utility.yul\":5786:5865   */\n      tag_160\n      tag_64\n      jump\t// in\n    tag_160:\n        /* \"#utility.yul\":5748:5867   */\n    tag_159:\n        /* \"#utility.yul\":5934:5935   */\n      0x00\n        /* \"#utility.yul\":5923:5932   */\n      dup3\n        /* \"#utility.yul\":5919:5936   */\n      add\n        /* \"#utility.yul\":5906:5937   */\n      calldataload\n        /* \"#utility.yul\":5964:5982   */\n      0xffffffffffffffff\n        /* \"#utility.yul\":5956:5962   */\n      dup2\n        /* \"#utility.yul\":5953:5983   */\n      gt\n        /* \"#utility.yul\":5950:6067   */\n      iszero\n      tag_161\n      jumpi\n        /* \"#utility.yul\":5986:6065   */\n      tag_162\n      tag_65\n      jump\t// in\n    tag_162:\n        /* \"#utility.yul\":5950:6067   */\n    tag_161:\n        /* \"#utility.yul\":6091:6169   */\n      tag_163\n        /* \"#utility.yul\":6161:6168   */\n      dup5\n        /* \"#utility.yul\":6152:6158   */\n      dup3\n        /* \"#utility.yul\":6141:6150   */\n      dup6\n        /* \"#utility.yul\":6137:6159   */\n      add\n        /* \"#utility.yul\":6091:6169   */\n      tag_83\n      jump\t// in\n    tag_163:\n        /* \"#utility.yul\":6081:6169   */\n      swap2\n      pop\n        /* \"#utility.yul\":5877:6179   */\n      pop\n        /* \"#utility.yul\":5647:6186   */\n      swap3\n      swap2\n      pop\n      pop\n      jump\t// out\n        /* \"#utility.yul\":6192:6306   */\n    tag_84:\n        /* \"#utility.yul\":6259:6265   */\n      0x00\n        /* \"#utility.yul\":6293:6298   */\n      dup2\n        /* \"#utility.yul\":6287:6299   */\n      mload\n        /* \"#utility.yul\":6277:6299   */\n      swap1\n      pop\n        /* \"#utility.yul\":6192:6306   */\n      swap2\n      swap1\n      pop\n      jump\t// out\n        /* \"#utility.yul\":6312:6496   */\n    tag_85:\n        /* \"#utility.yul\":6411:6422   */\n      0x00\n        /* \"#utility.yul\":6445:6451   */\n      dup3\n        /* \"#utility.yul\":6440:6443   */\n      dup3\n        /* \"#utility.yul\":6433:6452   */\n      mstore\n        /* \"#utility.yul\":6485:6489   */\n      0x20\n        /* \"#utility.yul\":6480:6483   */\n      dup3\n        /* \"#utility.yul\":6476:6490   */\n      add\n        /* \"#utility.yul\":6461:6490   */\n      swap1\n      pop\n        /* \"#utility.yul\":6312:6496   */\n      swap3\n      swap2\n      pop\n      pop\n      jump\t// out\n        /* \"#utility.yul\":6502:6634   */\n    tag_86:\n        /* \"#utility.yul\":6569:6573   */\n      0x00\n        /* \"#utility.yul\":6592:6595   */\n      dup2\n        /* \"#utility.yul\":6584:6595   */\n      swap1\n      pop\n        /* \"#utility.yul\":6622:6626   */\n      0x20\n        /* \"#utility.yul\":6617:6620   */\n      dup3\n        /* \"#utility.yul\":6613:6627   */\n      add\n        /* \"#utility.yul\":6605:6627   */\n      swap1\n      pop\n        /* \"#utility.yul\":6502:6634   */\n      swap2\n      swap1\n      pop\n      jump\t// out\n        /* \"#utility.yul\":6640:6748   */\n    tag_87:\n        /* \"#utility.yul\":6717:6741   */\n      tag_168\n        /* \"#utility.yul\":6735:6740   */\n      dup2\n        /* \"#utility.yul\":6717:6741   */\n      tag_70\n      jump\t// in\n    tag_168:\n        /* \"#utility.yul\":6712:6715   */\n      dup3\n        /* \"#utility.yul\":6705:6742   */\n      mstore\n        /* \"#utility.yul\":6640:6748   */\n      pop\n      pop\n      jump\t// out\n        /* \"#utility.yul\":6754:6933   */\n    tag_88:\n        /* \"#utility.yul\":6823:6833   */\n      0x00\n        /* \"#utility.yul\":6844:6890   */\n      tag_170\n        /* \"#utility.yul\":6886:6889   */\n      dup4\n        /* \"#utility.yul\":6878:6884   */\n      dup4\n        /* \"#utility.yul\":6844:6890   */\n      tag_87\n      jump\t// in\n    tag_170:\n        /* \"#utility.yul\":6922:6926   */\n      0x20\n        /* \"#utility.yul\":6917:6920   */\n      dup4\n        /* \"#utility.yul\":6913:6927   */\n      add\n        /* \"#utility.yul\":6899:6927   */\n      swap1\n      pop\n        /* \"#utility.yul\":6754:6933   */\n      swap3\n      swap2\n      pop\n      pop\n      jump\t// out\n        /* \"#utility.yul\":6939:7052   */\n    tag_89:\n        /* \"#utility.yul\":7009:7013   */\n      0x00\n        /* \"#utility.yul\":7041:7045   */\n      0x20\n        /* \"#utility.yul\":7036:7039   */\n      dup3\n        /* \"#utility.yul\":7032:7046   */\n      add\n        /* \"#utility.yul\":7024:7046   */\n      swap1\n      pop\n        /* \"#utility.yul\":6939:7052   */\n      swap2\n      swap1\n      pop\n      jump\t// out\n        /* \"#utility.yul\":7088:7820   */\n    tag_90:\n        /* \"#utility.yul\":7207:7210   */\n      0x00\n        /* \"#utility.yul\":7236:7290   */\n      tag_173\n        /* \"#utility.yul\":7284:7289   */\n      dup3\n        /* \"#utility.yul\":7236:7290   */\n      tag_84\n      jump\t// in\n    tag_173:\n        /* \"#utility.yul\":7306:7392   */\n      tag_174\n        /* \"#utility.yul\":7385:7391   */\n      dup2\n        /* \"#utility.yul\":7380:7383   */\n      dup6\n        /* \"#utility.yul\":7306:7392   */\n      tag_85\n      jump\t// in\n    tag_174:\n        /* \"#utility.yul\":7299:7392   */\n      swap4\n      pop\n        /* \"#utility.yul\":7416:7472   */\n      tag_175\n        /* \"#utility.yul\":7466:7471   */\n      dup4\n        /* \"#utility.yul\":7416:7472   */\n      tag_86\n      jump\t// in\n    tag_175:\n        /* \"#utility.yul\":7495:7502   */\n      dup1\n        /* \"#utility.yul\":7526:7527   */\n      0x00\n        /* \"#utility.yul\":7511:7795   */\n    tag_176:\n        /* \"#utility.yul\":7536:7542   */\n      dup4\n        /* \"#utility.yul\":7533:7534   */\n      dup2\n        /* \"#utility.yul\":7530:7543   */\n      lt\n        /* \"#utility.yul\":7511:7795   */\n      iszero\n      tag_178\n      jumpi\n        /* \"#utility.yul\":7612:7618   */\n      dup2\n        /* \"#utility.yul\":7606:7619   */\n      mload\n        /* \"#utility.yul\":7639:7702   */\n      tag_179\n        /* \"#utility.yul\":7698:7701   */\n      dup9\n        /* \"#utility.yul\":7683:7696   */\n      dup3\n        /* \"#utility.yul\":7639:7702   */\n      tag_88\n      jump\t// in\n    tag_179:\n        /* \"#utility.yul\":7632:7702   */\n      swap8\n      pop\n        /* \"#utility.yul\":7725:7785   */\n      tag_180\n        /* \"#utility.yul\":7778:7784   */\n      dup4\n        /* \"#utility.yul\":7725:7785   */\n      tag_89\n      jump\t// in\n    tag_180:\n        /* \"#utility.yul\":7715:7785   */\n      swap3\n      pop\n        /* \"#utility.yul\":7571:7795   */\n      pop\n        /* \"#utility.yul\":7558:7559   */\n      0x01\n        /* \"#utility.yul\":7555:7556   */\n      dup2\n        /* \"#utility.yul\":7551:7560   */\n      add\n        /* \"#utility.yul\":7546:7560   */\n      swap1\n      pop\n        /* \"#utility.yul\":7511:7795   */\n      jump(tag_176)\n    tag_178:\n        /* \"#utility.yul\":7515:7529   */\n      pop\n        /* \"#utility.yul\":7811:7814   */\n      dup6\n        /* \"#utility.yul\":7804:7814   */\n      swap4\n      pop\n        /* \"#utility.yul\":7212:7820   */\n      pop\n      pop\n      pop\n        /* \"#utility.yul\":7088:7820   */\n      swap3\n      swap2\n      pop\n      pop\n      jump\t// out\n        /* \"#utility.yul\":7826:8199   */\n    tag_32:\n        /* \"#utility.yul\":7969:7973   */\n      0x00\n        /* \"#utility.yul\":8007:8009   */\n      0x20\n        /* \"#utility.yul\":7996:8005   */\n      dup3\n        /* \"#utility.yul\":7992:8010   */\n      add\n        /* \"#utility.yul\":7984:8010   */\n      swap1\n      pop\n        /* \"#utility.yul\":8056:8065   */\n      dup2\n        /* \"#utility.yul\":8050:8054   */\n      dup2\n        /* \"#utility.yul\":8046:8066   */\n      sub\n        /* \"#utility.yul\":8042:8043   */\n      0x00\n        /* \"#utility.yul\":8031:8040   */\n      dup4\n        /* \"#utility.yul\":8027:8044   */\n      add\n        /* \"#utility.yul\":8020:8067   */\n      mstore\n        /* \"#utility.yul\":8084:8192   */\n      tag_182\n        /* \"#utility.yul\":8187:8191   */\n      dup2\n        /* \"#utility.yul\":8178:8184   */\n      dup5\n        /* \"#utility.yul\":8084:8192   */\n      tag_90\n      jump\t// in\n    tag_182:\n        /* \"#utility.yul\":8076:8192   */\n      swap1\n      pop\n        /* \"#utility.yul\":7826:8199   */\n      swap3\n      swap2\n      pop\n      pop\n      jump\t// out\n        /* \"#utility.yul\":8205:8385   */\n    tag_46:\n        /* \"#utility.yul\":8253:8330   */\n      0x4e487b7100000000000000000000000000000000000000000000000000000000\n        /* \"#utility.yul\":8250:8251   */\n      0x00\n        /* \"#utility.yul\":8243:8331   */\n      mstore\n        /* \"#utility.yul\":8350:8354   */\n      0x32\n        /* \"#utility.yul\":8347:8348   */\n      0x04\n        /* \"#utility.yul\":8340:8355   */\n      mstore\n        /* \"#utility.yul\":8374:8378   */\n      0x24\n        /* \"#utility.yul\":8371:8372   */\n      0x00\n        /* \"#utility.yul\":8364:8379   */\n      revert\n        /* \"#utility.yul\":8391:8571   */\n    tag_91:\n        /* \"#utility.yul\":8439:8516   */\n      0x4e487b7100000000000000000000000000000000000000000000000000000000\n        /* \"#utility.yul\":8436:8437   */\n      0x00\n        /* \"#utility.yul\":8429:8517   */\n      mstore\n        /* \"#utility.yul\":8536:8540   */\n      0x11\n        /* \"#utility.yul\":8533:8534   */\n      0x04\n        /* \"#utility.yul\":8526:8541   */\n      mstore\n        /* \"#utility.yul\":8560:8564   */\n      0x24\n        /* \"#utility.yul\":8557:8558   */\n      0x00\n        /* \"#utility.yul\":8550:8565   */\n      revert\n        /* \"#utility.yul\":8577:8768   */\n    tag_48:\n        /* \"#utility.yul\":8617:8620   */\n      0x00\n        /* \"#utility.yul\":8636:8656   */\n      tag_186\n        /* \"#utility.yul\":8654:8655   */\n      dup3\n        /* \"#utility.yul\":8636:8656   */\n      tag_70\n      jump\t// in\n    tag_186:\n        /* \"#utility.yul\":8631:8656   */\n      swap2\n      pop\n        /* \"#utility.yul\":8670:8690   */\n      tag_187\n        /* \"#utility.yul\":8688:8689   */\n      dup4\n        /* \"#utility.yul\":8670:8690   */\n      tag_70\n      jump\t// in\n    tag_187:\n        /* \"#utility.yul\":8665:8690   */\n      swap3\n      pop\n        /* \"#utility.yul\":8713:8714   */\n      dup3\n        /* \"#utility.yul\":8710:8711   */\n      dup3\n        /* \"#utility.yul\":8706:8715   */\n      add\n        /* \"#utility.yul\":8699:8715   */\n      swap1\n      pop\n        /* \"#utility.yul\":8734:8737   */\n      dup1\n        /* \"#utility.yul\":8731:8732   */\n      dup3\n        /* \"#utility.yul\":8728:8738   */\n      gt\n        /* \"#utility.yul\":8725:8761   */\n      iszero\n      tag_188\n      jumpi\n        /* \"#utility.yul\":8741:8759   */\n      tag_189\n      tag_91\n      jump\t// in\n    tag_189:\n        /* \"#utility.yul\":8725:8761   */\n    tag_188:\n        /* \"#utility.yul\":8577:8768   */\n      swap3\n      swap2\n      pop\n      pop\n      jump\t// out\n        /* \"#utility.yul\":8774:9184   */\n    tag_58:\n        /* \"#utility.yul\":8814:8821   */\n      0x00\n        /* \"#utility.yul\":8837:8857   */\n      tag_191\n        /* \"#utility.yul\":8855:8856   */\n      dup3\n        /* \"#utility.yul\":8837:8857   */\n      tag_70\n      jump\t// in\n    tag_191:\n        /* \"#utility.yul\":8832:8857   */\n      swap2\n      pop\n        /* \"#utility.yul\":8871:8891   */\n      tag_192\n        /* \"#utility.yul\":8889:8890   */\n      dup4\n        /* \"#utility.yul\":8871:8891   */\n      tag_70\n      jump\t// in\n    tag_192:\n        /* \"#utility.yul\":8866:8891   */\n      swap3\n      pop\n        /* \"#utility.yul\":8926:8927   */\n      dup3\n        /* \"#utility.yul\":8923:8924   */\n      dup3\n        /* \"#utility.yul\":8919:8928   */\n      mul\n        /* \"#utility.yul\":8948:8978   */\n      tag_193\n        /* \"#utility.yul\":8966:8977   */\n      dup2\n        /* \"#utility.yul\":8948:8978   */\n      tag_70\n      jump\t// in\n    tag_193:\n        /* \"#utility.yul\":8937:8978   */\n      swap2\n      pop\n        /* \"#utility.yul\":9127:9128   */\n      dup3\n        /* \"#utility.yul\":9118:9125   */\n      dup3\n        /* \"#utility.yul\":9114:9129   */\n      div\n        /* \"#utility.yul\":9111:9112   */\n      dup5\n        /* \"#utility.yul\":9108:9130   */\n      eq\n        /* \"#utility.yul\":9088:9089   */\n      dup4\n        /* \"#utility.yul\":9081:9090   */\n      iszero\n        /* \"#utility.yul\":9061:9144   */\n      or\n        /* \"#utility.yul\":9038:9177   */\n      tag_194\n      jumpi\n        /* \"#utility.yul\":9157:9175   */\n      tag_195\n      tag_91\n      jump\t// in\n    tag_195:\n        /* \"#utility.yul\":9038:9177   */\n    tag_194:\n        /* \"#utility.yul\":8822:9184   */\n      pop\n        /* \"#utility.yul\":8774:9184   */\n      swap3\n      swap2\n      pop\n      pop\n      jump\t// out\n\n    auxdata: 0xa2646970667358221220ef46bf39c06de54deed294cdf63a01985da03855f898e6c972ea4cbc363efb8b64736f6c634300081a0033\n}\n",
				"bytecode": {
					"linkReferences": {},
					"object": "6080604052348015600e575f80fd5b5061085b8061001c5f395ff3fe608060405234801561000f575f80fd5b5060043610610060575f3560e01c806326121ff01461006457806340dcbb081461006e57806371e5ee5f1461009e578063b8dda9c7146100ce578063baf71609146100fe578063df90c8d31461012e575b5f80fd5b61006c61015e565b005b610088600480360381019061008391906103c8565b6101b1565b604051610095919061042b565b60405180910390f35b6100b860048036038101906100b3919061046e565b6101ff565b6040516100c5919061042b565b60405180910390f35b6100e860048036038101906100e3919061046e565b61021e565b6040516100f591906104d8565b60405180910390f35b61011860048036038101906101139190610639565b61024e565b6040516101259190610737565b60405180910390f35b6101486004803603810190610143919061046e565b6102b7565b604051610155919061042b565b60405180910390f35b61017b5f600160025f600181526020019081526020015f206102d1565b5f60025f600181526020019081526020015f209050607b815f01819055505f60405180602001604052806103e781525090505050565b5f805f5b848490508110156101f4578484828181106101d3576101d2610757565b5b90506020020135826101e591906107b1565b915080806001019150506101b5565b508091505092915050565b5f818154811061020d575f80fd5b905f5260205f20015f915090505481565b6001602052805f5260405f205f915054906101000a900473ffffffffffffffffffffffffffffffffffffffff1681565b60605f5b82518110156102ae5760028382815181106102705761026f610757565b5b602002602001015161028291906107e4565b83828151811061029557610294610757565b5b6020026020010181815250508080600101915050610252565b50819050919050565b6002602052805f5260405f205f91509050805f0154905081565b82610315908060018154018082558091505060019003905f5260205f20015f909190919091505533825f600181526020019081526020015f205f6101000a81548173ffffffffffffffffffffffffffffffffffffffff021916908373ffffffffffffffffffffffffffffffffffffffff1602179055506103e7815f0181905550505050565b5f604051905090565b5f80fd5b5f80fd5b5f80fd5b5f80fd5b5f80fd5b5f8083601f84011261038857610387610367565b5b8235905067ffffffffffffffff8111156103a5576103a461036b565b5b6020830191508360208202830111156103c1576103c061036f565b5b9250929050565b5f80602083850312156103de576103dd61035f565b5b5f83013567ffffffffffffffff8111156103fb576103fa610363565b5b61040785828601610373565b92509250509250929050565b5f819050919050565b61042581610413565b82525050565b5f60208201905061043e5f83018461041c565b92915050565b61044d81610413565b8114610457575f80fd5b50565b5f8135905061046881610444565b92915050565b5f602082840312156104835761048261035f565b5b5f6104908482850161045a565b91505092915050565b5f73ffffffffffffffffffffffffffffffffffffffff82169050919050565b5f6104c282610499565b9050919050565b6104d2816104b8565b82525050565b5f6020820190506104eb5f8301846104c9565b92915050565b5f601f19601f8301169050919050565b7f4e487b71000000000000000000000000000000000000000000000000000000005f52604160045260245ffd5b610537826104f1565b810181811067ffffffffffffffff8211171561055657610555610501565b5b80604052505050565b5f610568610356565b9050610574828261052e565b919050565b5f67ffffffffffffffff82111561059357610592610501565b5b602082029050602081019050919050565b5f6105b66105b184610579565b61055f565b905080838252602082019050602084028301858111156105d9576105d861036f565b5b835b8181101561060257806105ee888261045a565b8452602084019350506020810190506105db565b5050509392505050565b5f82601f8301126106205761061f610367565b5b81356106308482602086016105a4565b91505092915050565b5f6020828403121561064e5761064d61035f565b5b5f82013567ffffffffffffffff81111561066b5761066a610363565b5b6106778482850161060c565b91505092915050565b5f81519050919050565b5f82825260208201905092915050565b5f819050602082019050919050565b6106b281610413565b82525050565b5f6106c383836106a9565b60208301905092915050565b5f602082019050919050565b5f6106e582610680565b6106ef818561068a565b93506106fa8361069a565b805f5b8381101561072a57815161071188826106b8565b975061071c836106cf565b9250506001810190506106fd565b5085935050505092915050565b5f6020820190508181035f83015261074f81846106db565b905092915050565b7f4e487b71000000000000000000000000000000000000000000000000000000005f52603260045260245ffd5b7f4e487b71000000000000000000000000000000000000000000000000000000005f52601160045260245ffd5b5f6107bb82610413565b91506107c683610413565b92508282019050808211156107de576107dd610784565b5b92915050565b5f6107ee82610413565b91506107f983610413565b925082820261080781610413565b9150828204841483151761081e5761081d610784565b5b509291505056fea2646970667358221220ef46bf39c06de54deed294cdf63a01985da03855f898e6c972ea4cbc363efb8b64736f6c634300081a0033",
					"opcodes": "PUSH1 0x80 PUSH1 0x40 MSTORE CALLVALUE DUP1 ISZERO PUSH1 0xE JUMPI PUSH0 DUP1 REVERT JUMPDEST POP PUSH2 0x85B DUP1 PUSH2 0x1C PUSH0 CODECOPY PUSH0 RETURN INVALID PUSH1 0x80 PUSH1 0x40 MSTORE CALLVALUE DUP1 ISZERO PUSH2 0xF JUMPI PUSH0 DUP1 REVERT JUMPDEST POP PUSH1 0x4 CALLDATASIZE LT PUSH2 0x60 JUMPI PUSH0 CALLDATALOAD PUSH1 0xE0 SHR DUP1 PUSH4 0x26121FF0 EQ PUSH2 0x64 JUMPI DUP1 PUSH4 0x40DCBB08 EQ PUSH2 0x6E JUMPI DUP1 PUSH4 0x71E5EE5F EQ PUSH2 0x9E JUMPI DUP1 PUSH4 0xB8DDA9C7 EQ PUSH2 0xCE JUMPI DUP1 PUSH4 0xBAF71609 EQ PUSH2 0xFE JUMPI DUP1 PUSH4 0xDF90C8D3 EQ PUSH2 0x12E JUMPI JUMPDEST PUSH0 DUP1 REVERT JUMPDEST PUSH2 0x6C PUSH2 0x15E JUMP JUMPDEST STOP JUMPDEST PUSH2 0x88 PUSH1 0x4 DUP1 CALLDATASIZE SUB DUP2 ADD SWAP1 PUSH2 0x83 SWAP2 SWAP1 PUSH2 0x3C8 JUMP JUMPDEST PUSH2 0x1B1 JUMP JUMPDEST PUSH1 0x40 MLOAD PUSH2 0x95 SWAP2 SWAP1 PUSH2 0x42B JUMP JUMPDEST PUSH1 0x40 MLOAD DUP1 SWAP2 SUB SWAP1 RETURN JUMPDEST PUSH2 0xB8 PUSH1 0x4 DUP1 CALLDATASIZE SUB DUP2 ADD SWAP1 PUSH2 0xB3 SWAP2 SWAP1 PUSH2 0x46E JUMP JUMPDEST PUSH2 0x1FF JUMP JUMPDEST PUSH1 0x40 MLOAD PUSH2 0xC5 SWAP2 SWAP1 PUSH2 0x42B JUMP JUMPDEST PUSH1 0x40 MLOAD DUP1 SWAP2 SUB SWAP1 RETURN JUMPDEST PUSH2 0xE8 PUSH1 0x4 DUP1 CALLDATASIZE SUB DUP2 ADD SWAP1 PUSH2 0xE3 SWAP2 SWAP1 PUSH2 0x46E JUMP JUMPDEST PUSH2 0x21E JUMP JUMPDEST PUSH1 0x40 MLOAD PUSH2 0xF5 SWAP2 SWAP1 PUSH2 0x4D8 JUMP JUMPDEST PUSH1 0x40 MLOAD DUP1 SWAP2 SUB SWAP1 RETURN JUMPDEST PUSH2 0x118 PUSH1 0x4 DUP1 CALLDATASIZE SUB DUP2 ADD SWAP1 PUSH2 0x113 SWAP2 SWAP1 PUSH2 0x639 JUMP JUMPDEST PUSH2 0x24E JUMP JUMPDEST PUSH1 0x40 MLOAD PUSH2 0x125 SWAP2 SWAP1 PUSH2 0x737 JUMP JUMPDEST PUSH1 0x40 MLOAD DUP1 SWAP2 SUB SWAP1 RETURN JUMPDEST PUSH2 0x148 PUSH1 0x4 DUP1 CALLDATASIZE SUB DUP2 ADD SWAP1 PUSH2 0x143 SWAP2 SWAP1 PUSH2 0x46E JUMP JUMPDEST PUSH2 0x2B7 JUMP JUMPDEST PUSH1 0x40 MLOAD PUSH2 0x155 SWAP2 SWAP1 PUSH2 0x42B JUMP JUMPDEST PUSH1 0x40 MLOAD DUP1 SWAP2 SUB SWAP1 RETURN JUMPDEST PUSH2 0x17B PUSH0 PUSH1 0x1 PUSH1 0x2 PUSH0 PUSH1 0x1 DUP2 MSTORE PUSH1 0x20 ADD SWAP1 DUP2 MSTORE PUSH1 0x20 ADD PUSH0 KECCAK256 PUSH2 0x2D1 JUMP JUMPDEST PUSH0 PUSH1 0x2 PUSH0 PUSH1 0x1 DUP2 MSTORE PUSH1 0x20 ADD SWAP1 DUP2 MSTORE PUSH1 0x20 ADD PUSH0 KECCAK256 SWAP1 POP PUSH1 0x7B DUP2 PUSH0 ADD DUP2 SWAP1 SSTORE POP PUSH0 PUSH1 0x40 MLOAD DUP1 PUSH1 0x20 ADD PUSH1 0x40 MSTORE DUP1 PUSH2 0x3E7 DUP2 MSTORE POP SWAP1 POP POP POP JUMP JUMPDEST PUSH0 DUP1 PUSH0 JUMPDEST DUP5 DUP5 SWAP1 POP DUP2 LT ISZERO PUSH2 0x1F4 JUMPI DUP5 DUP5 DUP3 DUP2 DUP2 LT PUSH2 0x1D3 JUMPI PUSH2 0x1D2 PUSH2 0x757 JUMP JUMPDEST JUMPDEST SWAP1 POP PUSH1 0x20 MUL ADD CALLDATALOAD DUP3 PUSH2 0x1E5 SWAP2 SWAP1 PUSH2 0x7B1 JUMP JUMPDEST SWAP2 POP DUP1 DUP1 PUSH1 0x1 ADD SWAP2 POP POP PUSH2 0x1B5 JUMP JUMPDEST POP DUP1 SWAP2 POP POP SWAP3 SWAP2 POP POP JUMP JUMPDEST PUSH0 DUP2 DUP2 SLOAD DUP2 LT PUSH2 0x20D JUMPI PUSH0 DUP1 REVERT JUMPDEST SWAP1 PUSH0 MSTORE PUSH1 0x20 PUSH0 KECCAK256 ADD PUSH0 SWAP2 POP SWAP1 POP SLOAD DUP2 JUMP JUMPDEST PUSH1 0x1 PUSH1 0x20 MSTORE DUP1 PUSH0 MSTORE PUSH1 0x40 PUSH0 KECCAK256 PUSH0 SWAP2 POP SLOAD SWAP1 PUSH2 0x100 EXP SWAP1 DIV PUSH20 0xFFFFFFFFFFFFFFFFFFFFFFFFFFFFFFFFFFFFFFFF AND DUP2 JUMP JUMPDEST PUSH1 0x60 PUSH0 JUMPDEST DUP3 MLOAD DUP2 LT ISZERO PUSH2 0x2AE JUMPI PUSH1 0x2 DUP4 DUP3 DUP2 MLOAD DUP2 LT PUSH2 0x270 JUMPI PUSH2 0x26F PUSH2 0x757 JUMP JUMPDEST JUMPDEST PUSH1 0x20 MUL PUSH1 0x20 ADD ADD MLOAD PUSH2 0x282 SWAP2 SWAP1 PUSH2 0x7E4 JUMP JUMPDEST DUP4 DUP3 DUP2 MLOAD DUP2 LT PUSH2 0x295 JUMPI PUSH2 0x294 PUSH2 0x757 JUMP JUMPDEST JUMPDEST PUSH1 0x20 MUL PUSH1 0x20 ADD ADD DUP2 DUP2 MSTORE POP POP DUP1 DUP1 PUSH1 0x1 ADD SWAP2 POP POP PUSH2 0x252 JUMP JUMPDEST POP DUP2 SWAP1 POP SWAP2 SWAP1 POP JUMP JUMPDEST PUSH1 0x2 PUSH1 0x20 MSTORE DUP1 PUSH0 MSTORE PUSH1 0x40 PUSH0 KECCAK256 PUSH0 SWAP2 POP SWAP1 POP DUP1 PUSH0 ADD SLOAD SWAP1 POP DUP2 JUMP JUMPDEST DUP3 PUSH2 0x315 SWAP1 DUP1 PUSH1 0x1 DUP2 SLOAD ADD DUP1 DUP3 SSTORE DUP1 SWAP2 POP POP PUSH1 0x1 SWAP1 SUB SWAP1 PUSH0 MSTORE PUSH1 0x20 PUSH0 KECCAK256 ADD PUSH0 SWAP1 SWAP2 SWAP1 SWAP2 SWAP1 SWAP2 POP SSTORE CALLER DUP3 PUSH0 PUSH1 0x1 DUP2 MSTORE PUSH1 0x20 ADD SWAP1 DUP2 MSTORE PUSH1 0x20 ADD PUSH0 KECCAK256 PUSH0 PUSH2 0x100 EXP DUP2 SLOAD DUP2 PUSH20 0xFFFFFFFFFFFFFFFFFFFFFFFFFFFFFFFFFFFFFFFF MUL NOT AND SWAP1 DUP4 PUSH20 0xFFFFFFFFFFFFFFFFFFFFFFFFFFFFFFFFFFFFFFFF AND MUL OR SWAP1 SSTORE POP PUSH2 0x3E7 DUP2 PUSH0 ADD DUP2 SWAP1 SSTORE POP POP POP POP JUMP JUMPDEST PUSH0 PUSH1 0x40 MLOAD SWAP1 POP SWAP1 JUMP JUMPDEST PUSH0 DUP1 REVERT JUMPDEST PUSH0 DUP1 REVERT JUMPDEST PUSH0 DUP1 REVERT JUMPDEST PUSH0 DUP1 REVERT JUMPDEST PUSH0 DUP1 REVERT JUMPDEST PUSH0 DUP1 DUP4 PUSH1 0x1F DUP5 ADD SLT PUSH2 0x388 JUMPI PUSH2 0x387 PUSH2 0x367 JUMP JUMPDEST JUMPDEST DUP3 CALLDATALOAD SWAP1 POP PUSH8 0xFFFFFFFFFFFFFFFF DUP2 GT ISZERO PUSH2 0x3A5 JUMPI PUSH2 0x3A4 PUSH2 0x36B JUMP JUMPDEST JUMPDEST PUSH1 0x20 DUP4 ADD SWAP2 POP DUP4 PUSH1 0x20 DUP3 MUL DUP4 ADD GT ISZERO PUSH2 0x3C1 JUMPI PUSH2 0x3C0 PUSH2 0x36F JUMP JUMPDEST JUMPDEST SWAP3 POP SWAP3 SWAP1 POP JUMP JUMPDEST PUSH0 DUP1 PUSH1 0x20 DUP4 DUP6 SUB SLT ISZERO PUSH2 0x3DE JUMPI PUSH2 0x3DD PUSH2 0x35F JUMP JUMPDEST JUMPDEST PUSH0 DUP4 ADD CALLDATALOAD PUSH8 0xFFFFFFFFFFFFFFFF DUP2 GT ISZERO PUSH2 0x3FB JUMPI PUSH2 0x3FA PUSH2 0x363 JUMP JUMPDEST JUMPDEST PUSH2 0x407 DUP6 DUP3 DUP7 ADD PUSH2 0x373 JUMP JUMPDEST SWAP3 POP SWAP3 POP POP SWAP3 POP SWAP3 SWAP1 POP JUMP JUMPDEST PUSH0 DUP2 SWAP1 POP SWAP2 SWAP1 POP JUMP JUMPDEST PUSH2 0x425 DUP2 PUSH2 0x413 JUMP JUMPDEST DUP3 MSTORE POP POP JUMP JUMPDEST PUSH0 PUSH1 0x20 DUP3 ADD SWAP1 POP PUSH2 0x43E PUSH0 DUP4 ADD DUP5 PUSH2 0x41C JUMP JUMPDEST SWAP3 SWAP2 POP POP JUMP JUMPDEST PUSH2 0x44D DUP2 PUSH2 0x413 JUMP JUMPDEST DUP2 EQ PUSH2 0x457 JUMPI PUSH0 DUP1 REVERT JUMPDEST POP JUMP JUMPDEST PUSH0 DUP2 CALLDATALOAD SWAP1 POP PUSH2 0x468 DUP2 PUSH2 0x444 JUMP JUMPDEST SWAP3 SWAP2 POP POP JUMP JUMPDEST PUSH0 PUSH1 0x20 DUP3 DUP5 SUB SLT ISZERO PUSH2 0x483 JUMPI PUSH2 0x482 PUSH2 0x35F JUMP JUMPDEST JUMPDEST PUSH0 PUSH2 0x490 DUP5 DUP3 DUP6 ADD PUSH2 0x45A JUMP JUMPDEST SWAP2 POP POP SWAP3 SWAP2 POP POP JUMP JUMPDEST PUSH0 PUSH20 0xFFFFFFFFFFFFFFFFFFFFFFFFFFFFFFFFFFFFFFFF DUP3 AND SWAP1 POP SWAP2 SWAP1 POP JUMP JUMPDEST PUSH0 PUSH2 0x4C2 DUP3 PUSH2 0x499 JUMP JUMPDEST SWAP1 POP SWAP2 SWAP1 POP JUMP JUMPDEST PUSH2 0x4D2 DUP2 PUSH2 0x4B8 JUMP JUMPDEST DUP3 MSTORE POP POP JUMP JUMPDEST PUSH0 PUSH1 0x20 DUP3 ADD SWAP1 POP PUSH2 0x4EB PUSH0 DUP4 ADD DUP5 PUSH2 0x4C9 JUMP JUMPDEST SWAP3 SWAP2 POP POP JUMP JUMPDEST PUSH0 PUSH1 0x1F NOT PUSH1 0x1F DUP4 ADD AND SWAP1 POP SWAP2 SWAP1 POP JUMP JUMPDEST PUSH32 0x4E487B7100000000000000000000000000000000000000000000000000000000 PUSH0 MSTORE PUSH1 0x41 PUSH1 0x4 MSTORE PUSH1 0x24 PUSH0 REVERT JUMPDEST PUSH2 0x537 DUP3 PUSH2 0x4F1 JUMP JUMPDEST DUP2 ADD DUP2 DUP2 LT PUSH8 0xFFFFFFFFFFFFFFFF DUP3 GT OR ISZERO PUSH2 0x556 JUMPI PUSH2 0x555 PUSH2 0x501 JUMP JUMPDEST JUMPDEST DUP1 PUSH1 0x40 MSTORE POP POP POP JUMP JUMPDEST PUSH0 PUSH2 0x568 PUSH2 0x356 JUMP JUMPDEST SWAP1 POP PUSH2 0x574 DUP3 DUP3 PUSH2 0x52E JUMP JUMPDEST SWAP2 SWAP1 POP JUMP JUMPDEST PUSH0 PUSH8 0xFFFFFFFFFFFFFFFF DUP3 GT ISZERO PUSH2 0x593 JUMPI PUSH2 0x592 PUSH2 0x501 JUMP JUMPDEST JUMPDEST PUSH1 0x20 DUP3 MUL SWAP1 POP PUSH1 0x20 DUP2 ADD SWAP1 POP SWAP2 SWAP1 POP JUMP JUMPDEST PUSH0 PUSH2 0x5B6 PUSH2 0x5B1 DUP5 PUSH2 0x579 JUMP JUMPDEST PUSH2 0x55F JUMP JUMPDEST SWAP1 POP DUP1 DUP4 DUP3 MSTORE PUSH1 0x20 DUP3 ADD SWAP1 POP PUSH1 0x20 DUP5 MUL DUP4 ADD DUP6 DUP2 GT ISZERO PUSH2 0x5D9 JUMPI PUSH2 0x5D8 PUSH2 0x36F JUMP JUMPDEST JUMPDEST DUP4 JUMPDEST DUP2 DUP2 LT ISZERO PUSH2 0x602 JUMPI DUP1 PUSH2 0x5EE DUP9 DUP3 PUSH2 0x45A JUMP JUMPDEST DUP5 MSTORE PUSH1 0x20 DUP5 ADD SWAP4 POP POP PUSH1 0x20 DUP2 ADD SWAP1 POP PUSH2 0x5DB JUMP JUMPDEST POP POP POP SWAP4 SWAP3 POP POP POP JUMP JUMPDEST PUSH0 DUP3 PUSH1 0x1F DUP4 ADD SLT PUSH2 0x620 JUMPI PUSH2 0x61F PUSH2 0x367 JUMP JUMPDEST JUMPDEST DUP2 CALLDATALOAD PUSH2 0x630 DUP5 DUP3 PUSH1 0x20 DUP7 ADD PUSH2 0x5A4 JUMP JUMPDEST SWAP2 POP POP SWAP3 SWAP2 POP POP JUMP JUMPDEST PUSH0 PUSH1 0x20 DUP3 DUP5 SUB SLT ISZERO PUSH2 0x64E JUMPI PUSH2 0x64D PUSH2 0x35F JUMP JUMPDEST JUMPDEST PUSH0 DUP3 ADD CALLDATALOAD PUSH8 0xFFFFFFFFFFFFFFFF DUP2 GT ISZERO PUSH2 0x66B JUMPI PUSH2 0x66A PUSH2 0x363 JUMP JUMPDEST JUMPDEST PUSH2 0x677 DUP5 DUP3 DUP6 ADD PUSH2 0x60C JUMP JUMPDEST SWAP2 POP POP SWAP3 SWAP2 POP POP JUMP JUMPDEST PUSH0 DUP2 MLOAD SWAP1 POP SWAP2 SWAP1 POP JUMP JUMPDEST PUSH0 DUP3 DUP3 MSTORE PUSH1 0x20 DUP3 ADD SWAP1 POP SWAP3 SWAP2 POP POP JUMP JUMPDEST PUSH0 DUP2 SWAP1 POP PUSH1 0x20 DUP3 ADD SWAP1 POP SWAP2 SWAP1 POP JUMP JUMPDEST PUSH2 0x6B2 DUP2 PUSH2 0x413 JUMP JUMPDEST DUP3 MSTORE POP POP JUMP JUMPDEST PUSH0 PUSH2 0x6C3 DUP4 DUP4 PUSH2 0x6A9 JUMP JUMPDEST PUSH1 0x20 DUP4 ADD SWAP1 POP SWAP3 SWAP2 POP POP JUMP JUMPDEST PUSH0 PUSH1 0x20 DUP3 ADD SWAP1 POP SWAP2 SWAP1 POP JUMP JUMPDEST PUSH0 PUSH2 0x6E5 DUP3 PUSH2 0x680 JUMP JUMPDEST PUSH2 0x6EF DUP2 DUP6 PUSH2 0x68A JUMP JUMPDEST SWAP4 POP PUSH2 0x6FA DUP4 PUSH2 0x69A JUMP JUMPDEST DUP1 PUSH0 JUMPDEST DUP4 DUP2 LT ISZERO PUSH2 0x72A JUMPI DUP2 MLOAD PUSH2 0x711 DUP9 DUP3 PUSH2 0x6B8 JUMP JUMPDEST SWAP8 POP PUSH2 0x71C DUP4 PUSH2 0x6CF JUMP JUMPDEST SWAP3 POP POP PUSH1 0x1 DUP2 ADD SWAP1 POP PUSH2 0x6FD JUMP JUMPDEST POP DUP6 SWAP4 POP POP POP POP SWAP3 SWAP2 POP POP JUMP JUMPDEST PUSH0 PUSH1 0x20 DUP3 ADD SWAP1 POP DUP2 DUP2 SUB PUSH0 DUP4 ADD MSTORE PUSH2 0x74F DUP2 DUP5 PUSH2 0x6DB JUMP JUMPDEST SWAP1 POP SWAP3 SWAP2 POP POP JUMP JUMPDEST PUSH32 0x4E487B7100000000000000000000000000000000000000000000000000000000 PUSH0 MSTORE PUSH1 0x32 PUSH1 0x4 MSTORE PUSH1 0x24 PUSH0 REVERT JUMPDEST PUSH32 0x4E487B7100000000000000000000000000000000000000000000000000000000 PUSH0 MSTORE PUSH1 0x11 PUSH1 0x4 MSTORE PUSH1 0x24 PUSH0 REVERT JUMPDEST PUSH0 PUSH2 0x7BB DUP3 PUSH2 0x413 JUMP JUMPDEST SWAP2 POP PUSH2 0x7C6 DUP4 PUSH2 0x413 JUMP JUMPDEST SWAP3 POP DUP3 DUP3 ADD SWAP1 POP DUP1 DUP3 GT ISZERO PUSH2 0x7DE JUMPI PUSH2 0x7DD PUSH2 0x784 JUMP JUMPDEST JUMPDEST SWAP3 SWAP2 POP POP JUMP JUMPDEST PUSH0 PUSH2 0x7EE DUP3 PUSH2 0x413 JUMP JUMPDEST SWAP2 POP PUSH2 0x7F9 DUP4 PUSH2 0x413 JUMP JUMPDEST SWAP3 POP DUP3 DUP3 MUL PUSH2 0x807 DUP2 PUSH2 0x413 JUMP JUMPDEST SWAP2 POP DUP3 DUP3 DIV DUP5 EQ DUP4 ISZERO OR PUSH2 0x81E JUMPI PUSH2 0x81D PUSH2 0x784 JUMP JUMPDEST JUMPDEST POP SWAP3 SWAP2 POP POP JUMP INVALID LOG2 PUSH5 0x6970667358 0x22 SLT KECCAK256 0xEF CHAINID 0xBF CODECOPY 0xC0 PUSH14 0xE54DEED294CDF63A01985DA03855 0xF8 SWAP9 0xE6 0xC9 PUSH19 0xEA4CBC363EFB8B64736F6C634300081A003300 "
				},
				"gasEstimates": {
					"creation": {
						"codeDepositCost": "427800",
						"executionCost": "459",
						"totalCost": "428259"
					},
					"external": {
						"arr(uint256)": "infinite",
						"f()": "98272",
						"g(uint256[])": "infinite",
						"h(uint256[])": "infinite",
						"map(uint256)": "2871",
						"myStructs(uint256)": "infinite"
					},
					"internal": {
						"_f(uint256[] storage pointer,mapping(uint256 => address),struct DataCollection.MyStruct storage pointer)": "92901"
					}
				},
				"methodIdentifiers": {
					"arr(uint256)": "71e5ee5f",
					"f()": "26121ff0",
					"g(uint256[])": "baf71609",
					"h(uint256[])": "40dcbb08",
					"map(uint256)": "b8dda9c7",
					"myStructs(uint256)": "df90c8d3"
				}
			},
			"storageLayout": {
				"storage": [
					{
						"astId": 4,
						"contract": "contracts/29 data collection.sol:DataCollection",
						"label": "arr",
						"offset": 0,
						"slot": "0",
						"type": "t_array(t_uint256)dyn_storage"
					},
					{
						"astId": 8,
						"contract": "contracts/29 data collection.sol:DataCollection",
						"label": "map",
						"offset": 0,
						"slot": "1",
						"type": "t_mapping(t_uint256,t_address)"
					},
					{
						"astId": 16,
						"contract": "contracts/29 data collection.sol:DataCollection",
						"label": "myStructs",
						"offset": 0,
						"slot": "2",
						"type": "t_mapping(t_uint256,t_struct(MyStruct)11_storage)"
					}
				],
				"types": {
					"t_address": {
						"encoding": "inplace",
						"label": "address",
						"numberOfBytes": "20"
					},
					"t_array(t_uint256)dyn_storage": {
						"base": "t_uint256",
						"encoding": "dynamic_array",
						"label": "uint256[]",
						"numberOfBytes": "32"
					},
					"t_mapping(t_uint256,t_address)": {
						"encoding": "mapping",
						"key": "t_uint256",
						"label": "mapping(uint256 => address)",
						"numberOfBytes": "32",
						"value": "t_address"
					},
					"t_mapping(t_uint256,t_struct(MyStruct)11_storage)": {
						"encoding": "mapping",
						"key": "t_uint256",
						"label": "mapping(uint256 => struct DataCollection.MyStruct)",
						"numberOfBytes": "32",
						"value": "t_struct(MyStruct)11_storage"
					},
					"t_struct(MyStruct)11_storage": {
						"encoding": "inplace",
						"label": "struct DataCollection.MyStruct",
						"members": [
							{
								"astId": 10,
								"contract": "contracts/29 data collection.sol:DataCollection",
								"label": "foo",
								"offset": 0,
								"slot": "0",
								"type": "t_uint256"
							}
						],
						"numberOfBytes": "32"
					},
					"t_uint256": {
						"encoding": "inplace",
						"label": "uint256",
						"numberOfBytes": "32"
					}
				}
			},
			"userdoc": {
				"kind": "user",
				"methods": {},
				"version": 1
			}
		}
	}
}