{
	"contracts/28 struct.sol": {
		"BasicStruct": {
			"abi": [
				{
					"inputs": [
						{
							"internalType": "uint256",
							"name": "_index",
							"type": "uint256"
						}
					],
					"name": "Get",
					"outputs": [
						{
							"internalType": "string",
							"name": "text",
							"type": "string"
						},
						{
							"internalType": "bool",
							"name": "completed",
							"type": "bool"
						}
					],
					"stateMutability": "view",
					"type": "function"
				},
				{
					"inputs": [
						{
							"internalType": "string",
							"name": "_name",
							"type": "string"
						}
					],
					"name": "Set",
					"outputs": [],
					"stateMutability": "nonpayable",
					"type": "function"
				},
				{
					"inputs": [
						{
							"internalType": "uint256",
							"name": "_index",
							"type": "uint256"
						}
					],
					"name": "UpdateCompleted",
					"outputs": [],
					"stateMutability": "nonpayable",
					"type": "function"
				},
				{
					"inputs": [
						{
							"internalType": "uint256",
							"name": "_index",
							"type": "uint256"
						},
						{
							"internalType": "string",
							"name": "taskName",
							"type": "string"
						}
					],
					"name": "UpdateTask",
					"outputs": [],
					"stateMutability": "nonpayable",
					"type": "function"
				},
				{
					"inputs": [
						{
							"internalType": "uint256",
							"name": "",
							"type": "uint256"
						}
					],
					"name": "todos",
					"outputs": [
						{
							"internalType": "string",
							"name": "nameTask",
							"type": "string"
						},
						{
							"internalType": "bool",
							"name": "completed",
							"type": "bool"
						}
					],
					"stateMutability": "view",
					"type": "function"
				}
			],
			"devdoc": {
				"kind": "dev",
				"methods": {},
				"version": 1
			},
			"evm": {
				"assembly": "    /* \"contracts/28 struct.sol\":57:810  contract BasicStruct{... */\n  mstore(0x40, 0x80)\n  callvalue\n  dup1\n  iszero\n  tag_1\n  jumpi\n  0x00\n  dup1\n  revert\ntag_1:\n  pop\n  dataSize(sub_0)\n  dup1\n  dataOffset(sub_0)\n  0x00\n  codecopy\n  0x00\n  return\nstop\n\nsub_0: assembly {\n        /* \"contracts/28 struct.sol\":57:810  contract BasicStruct{... */\n      mstore(0x40, 0x80)\n      callvalue\n      dup1\n      iszero\n      tag_1\n      jumpi\n      0x00\n      dup1\n      revert\n    tag_1:\n      pop\n      jumpi(tag_2, lt(calldatasize, 0x04))\n      shr(0xe0, calldataload(0x00))\n      dup1\n      0x34541fcd\n      eq\n      tag_3\n      jumpi\n      dup1\n      0x60cd2685\n      eq\n      tag_4\n      jumpi\n      dup1\n      0x9353d785\n      eq\n      tag_5\n      jumpi\n      dup1\n      0xae49eceb\n      eq\n      tag_6\n      jumpi\n      dup1\n      0xbc8bc2b4\n      eq\n      tag_7\n      jumpi\n    tag_2:\n      0x00\n      dup1\n      revert\n        /* \"contracts/28 struct.sol\":183:328  function Set(string calldata _name)public{... */\n    tag_3:\n      tag_8\n      0x04\n      dup1\n      calldatasize\n      sub\n      dup2\n      add\n      swap1\n      tag_9\n      swap2\n      swap1\n      tag_10\n      jump\t// in\n    tag_9:\n      tag_11\n      jump\t// in\n    tag_8:\n      stop\n        /* \"contracts/28 struct.sol\":334:511  function Get(uint _index) public view returns(string memory text,bool completed){... */\n    tag_4:\n      tag_12\n      0x04\n      dup1\n      calldatasize\n      sub\n      dup2\n      add\n      swap1\n      tag_13\n      swap2\n      swap1\n      tag_14\n      jump\t// in\n    tag_13:\n      tag_15\n      jump\t// in\n    tag_12:\n      mload(0x40)\n      tag_16\n      swap3\n      swap2\n      swap1\n      tag_17\n      jump\t// in\n    tag_16:\n      mload(0x40)\n      dup1\n      swap2\n      sub\n      swap1\n      return\n        /* \"contracts/28 struct.sol\":670:807  function UpdateCompleted(uint _index) public {... */\n    tag_5:\n      tag_18\n      0x04\n      dup1\n      calldatasize\n      sub\n      dup2\n      add\n      swap1\n      tag_19\n      swap2\n      swap1\n      tag_14\n      jump\t// in\n    tag_19:\n      tag_20\n      jump\t// in\n    tag_18:\n      stop\n        /* \"contracts/28 struct.sol\":517:664  function UpdateTask(uint _index,string calldata taskName)public{... */\n    tag_6:\n      tag_21\n      0x04\n      dup1\n      calldatasize\n      sub\n      dup2\n      add\n      swap1\n      tag_22\n      swap2\n      swap1\n      tag_23\n      jump\t// in\n    tag_22:\n      tag_24\n      jump\t// in\n    tag_21:\n      stop\n        /* \"contracts/28 struct.sol\":157:176  Todo[] public todos */\n    tag_7:\n      tag_25\n      0x04\n      dup1\n      calldatasize\n      sub\n      dup2\n      add\n      swap1\n      tag_26\n      swap2\n      swap1\n      tag_14\n      jump\t// in\n    tag_26:\n      tag_27\n      jump\t// in\n    tag_25:\n      mload(0x40)\n      tag_28\n      swap3\n      swap2\n      swap1\n      tag_17\n      jump\t// in\n    tag_28:\n      mload(0x40)\n      dup1\n      swap2\n      sub\n      swap1\n      return\n        /* \"contracts/28 struct.sol\":183:328  function Set(string calldata _name)public{... */\n    tag_11:\n        /* \"contracts/28 struct.sol\":234:239  todos */\n      0x00\n        /* \"contracts/28 struct.sol\":245:320  Todo({... */\n      mload(0x40)\n      dup1\n      0x40\n      add\n      0x40\n      mstore\n      dup1\n        /* \"contracts/28 struct.sol\":274:279  _name */\n      dup5\n      dup5\n        /* \"contracts/28 struct.sol\":245:320  Todo({... */\n      dup1\n      dup1\n      0x1f\n      add\n      0x20\n      dup1\n      swap2\n      div\n      mul\n      0x20\n      add\n      mload(0x40)\n      swap1\n      dup2\n      add\n      0x40\n      mstore\n      dup1\n      swap4\n      swap3\n      swap2\n      swap1\n      dup2\n      dup2\n      mstore\n      0x20\n      add\n      dup4\n      dup4\n      dup1\n      dup3\n      dup5\n      calldatacopy\n      0x00\n      dup2\n      dup5\n      add\n      mstore\n      not(0x1f)\n      0x1f\n      dup3\n      add\n      and\n      swap1\n      pop\n      dup1\n      dup4\n      add\n      swap3\n      pop\n      pop\n      pop\n      pop\n      pop\n      pop\n      pop\n      dup2\n      mstore\n      0x20\n      add\n        /* \"contracts/28 struct.sol\":304:309  false */\n      0x00\n        /* \"contracts/28 struct.sol\":245:320  Todo({... */\n      iszero\n      iszero\n      dup2\n      mstore\n      pop\n        /* \"contracts/28 struct.sol\":234:321  todos.push(Todo({... */\n      swap1\n      dup1\n      0x01\n      dup2\n      sload\n      add\n      dup1\n      dup3\n      sstore\n      dup1\n      swap2\n      pop\n      pop\n      0x01\n      swap1\n      sub\n      swap1\n      0x00\n      mstore\n      keccak256(0x00, 0x20)\n      swap1\n      0x02\n      mul\n      add\n      0x00\n      swap1\n      swap2\n      swap1\n      swap2\n      swap1\n      swap2\n      pop\n      0x00\n      dup3\n      add\n      mload\n      dup2\n      0x00\n      add\n      swap1\n      dup2\n      tag_31\n      swap2\n      swap1\n      tag_32\n      jump\t// in\n    tag_31:\n      pop\n      0x20\n      dup3\n      add\n      mload\n      dup2\n      0x01\n      add\n      exp(0x0100, 0x00)\n      dup2\n      sload\n      dup2\n      0xff\n      mul\n      not\n      and\n      swap1\n      dup4\n      iszero\n      iszero\n      mul\n      or\n      swap1\n      sstore\n      pop\n      pop\n      pop\n        /* \"contracts/28 struct.sol\":183:328  function Set(string calldata _name)public{... */\n      pop\n      pop\n      jump\t// out\n        /* \"contracts/28 struct.sol\":334:511  function Get(uint _index) public view returns(string memory text,bool completed){... */\n    tag_15:\n        /* \"contracts/28 struct.sol\":380:398  string memory text */\n      0x60\n        /* \"contracts/28 struct.sol\":399:413  bool completed */\n      0x00\n        /* \"contracts/28 struct.sol\":424:441  Todo storage todo */\n      dup1\n        /* \"contracts/28 struct.sol\":444:449  todos */\n      0x00\n        /* \"contracts/28 struct.sol\":450:456  _index */\n      dup5\n        /* \"contracts/28 struct.sol\":444:457  todos[_index] */\n      dup2\n      sload\n      dup2\n      lt\n      tag_34\n      jumpi\n      tag_35\n      tag_36\n      jump\t// in\n    tag_35:\n    tag_34:\n      swap1\n      0x00\n      mstore\n      keccak256(0x00, 0x20)\n      swap1\n      0x02\n      mul\n      add\n        /* \"contracts/28 struct.sol\":424:457  Todo storage todo = todos[_index] */\n      swap1\n      pop\n        /* \"contracts/28 struct.sol\":475:479  todo */\n      dup1\n        /* \"contracts/28 struct.sol\":475:488  todo.nameTask */\n      0x00\n      add\n        /* \"contracts/28 struct.sol\":489:493  todo */\n      dup2\n        /* \"contracts/28 struct.sol\":489:503  todo.completed */\n      0x01\n      add\n      0x00\n      swap1\n      sload\n      swap1\n      0x0100\n      exp\n      swap1\n      div\n      0xff\n      and\n        /* \"contracts/28 struct.sol\":467:504  return (todo.nameTask,todo.completed) */\n      dup2\n      dup1\n      sload\n      tag_38\n      swap1\n      tag_39\n      jump\t// in\n    tag_38:\n      dup1\n      0x1f\n      add\n      0x20\n      dup1\n      swap2\n      div\n      mul\n      0x20\n      add\n      mload(0x40)\n      swap1\n      dup2\n      add\n      0x40\n      mstore\n      dup1\n      swap3\n      swap2\n      swap1\n      dup2\n      dup2\n      mstore\n      0x20\n      add\n      dup3\n      dup1\n      sload\n      tag_40\n      swap1\n      tag_39\n      jump\t// in\n    tag_40:\n      dup1\n      iszero\n      tag_41\n      jumpi\n      dup1\n      0x1f\n      lt\n      tag_42\n      jumpi\n      0x0100\n      dup1\n      dup4\n      sload\n      div\n      mul\n      dup4\n      mstore\n      swap2\n      0x20\n      add\n      swap2\n      jump(tag_41)\n    tag_42:\n      dup3\n      add\n      swap2\n      swap1\n      0x00\n      mstore\n      keccak256(0x00, 0x20)\n      swap1\n    tag_43:\n      dup2\n      sload\n      dup2\n      mstore\n      swap1\n      0x01\n      add\n      swap1\n      0x20\n      add\n      dup1\n      dup4\n      gt\n      tag_43\n      jumpi\n      dup3\n      swap1\n      sub\n      0x1f\n      and\n      dup3\n      add\n      swap2\n    tag_41:\n      pop\n      pop\n      pop\n      pop\n      pop\n      swap2\n      pop\n      swap3\n      pop\n      swap3\n      pop\n      pop\n        /* \"contracts/28 struct.sol\":334:511  function Get(uint _index) public view returns(string memory text,bool completed){... */\n      swap2\n      pop\n      swap2\n      jump\t// out\n        /* \"contracts/28 struct.sol\":670:807  function UpdateCompleted(uint _index) public {... */\n    tag_20:\n        /* \"contracts/28 struct.sol\":725:742  Todo storage todo */\n      0x00\n        /* \"contracts/28 struct.sol\":745:750  todos */\n      dup1\n        /* \"contracts/28 struct.sol\":751:757  _index */\n      dup3\n        /* \"contracts/28 struct.sol\":745:758  todos[_index] */\n      dup2\n      sload\n      dup2\n      lt\n      tag_45\n      jumpi\n      tag_46\n      tag_36\n      jump\t// in\n    tag_46:\n    tag_45:\n      swap1\n      0x00\n      mstore\n      keccak256(0x00, 0x20)\n      swap1\n      0x02\n      mul\n      add\n        /* \"contracts/28 struct.sol\":725:758  Todo storage todo = todos[_index] */\n      swap1\n      pop\n        /* \"contracts/28 struct.sol\":786:790  todo */\n      dup1\n        /* \"contracts/28 struct.sol\":786:800  todo.completed */\n      0x01\n      add\n      0x00\n      swap1\n      sload\n      swap1\n      0x0100\n      exp\n      swap1\n      div\n      0xff\n      and\n        /* \"contracts/28 struct.sol\":785:800  !todo.completed */\n      iszero\n        /* \"contracts/28 struct.sol\":768:772  todo */\n      dup2\n        /* \"contracts/28 struct.sol\":768:782  todo.completed */\n      0x01\n      add\n      0x00\n        /* \"contracts/28 struct.sol\":768:800  todo.completed = !todo.completed */\n      0x0100\n      exp\n      dup2\n      sload\n      dup2\n      0xff\n      mul\n      not\n      and\n      swap1\n      dup4\n      iszero\n      iszero\n      mul\n      or\n      swap1\n      sstore\n      pop\n        /* \"contracts/28 struct.sol\":715:807  {... */\n      pop\n        /* \"contracts/28 struct.sol\":670:807  function UpdateCompleted(uint _index) public {... */\n      pop\n      jump\t// out\n        /* \"contracts/28 struct.sol\":517:664  function UpdateTask(uint _index,string calldata taskName)public{... */\n    tag_24:\n        /* \"contracts/28 struct.sol\":590:607  Todo storage todo */\n      0x00\n        /* \"contracts/28 struct.sol\":610:615  todos */\n      dup1\n        /* \"contracts/28 struct.sol\":616:622  _index */\n      dup5\n        /* \"contracts/28 struct.sol\":610:623  todos[_index] */\n      dup2\n      sload\n      dup2\n      lt\n      tag_49\n      jumpi\n      tag_50\n      tag_36\n      jump\t// in\n    tag_50:\n    tag_49:\n      swap1\n      0x00\n      mstore\n      keccak256(0x00, 0x20)\n      swap1\n      0x02\n      mul\n      add\n        /* \"contracts/28 struct.sol\":590:623  Todo storage todo = todos[_index] */\n      swap1\n      pop\n        /* \"contracts/28 struct.sol\":649:657  taskName */\n      dup3\n      dup3\n        /* \"contracts/28 struct.sol\":633:637  todo */\n      dup3\n        /* \"contracts/28 struct.sol\":633:646  todo.nameTask */\n      0x00\n      add\n        /* \"contracts/28 struct.sol\":633:657  todo.nameTask = taskName */\n      swap2\n      dup3\n      tag_52\n      swap3\n      swap2\n      swap1\n      tag_53\n      jump\t// in\n    tag_52:\n      pop\n        /* \"contracts/28 struct.sol\":580:664  {... */\n      pop\n        /* \"contracts/28 struct.sol\":517:664  function UpdateTask(uint _index,string calldata taskName)public{... */\n      pop\n      pop\n      pop\n      jump\t// out\n        /* \"contracts/28 struct.sol\":157:176  Todo[] public todos */\n    tag_27:\n      0x00\n      dup2\n      dup2\n      sload\n      dup2\n      lt\n      tag_54\n      jumpi\n      0x00\n      dup1\n      revert\n    tag_54:\n      swap1\n      0x00\n      mstore\n      keccak256(0x00, 0x20)\n      swap1\n      0x02\n      mul\n      add\n      0x00\n      swap2\n      pop\n      swap1\n      pop\n      dup1\n      0x00\n      add\n      dup1\n      sload\n      tag_56\n      swap1\n      tag_39\n      jump\t// in\n    tag_56:\n      dup1\n      0x1f\n      add\n      0x20\n      dup1\n      swap2\n      div\n      mul\n      0x20\n      add\n      mload(0x40)\n      swap1\n      dup2\n      add\n      0x40\n      mstore\n      dup1\n      swap3\n      swap2\n      swap1\n      dup2\n      dup2\n      mstore\n      0x20\n      add\n      dup3\n      dup1\n      sload\n      tag_57\n      swap1\n      tag_39\n      jump\t// in\n    tag_57:\n      dup1\n      iszero\n      tag_58\n      jumpi\n      dup1\n      0x1f\n      lt\n      tag_59\n      jumpi\n      0x0100\n      dup1\n      dup4\n      sload\n      div\n      mul\n      dup4\n      mstore\n      swap2\n      0x20\n      add\n      swap2\n      jump(tag_58)\n    tag_59:\n      dup3\n      add\n      swap2\n      swap1\n      0x00\n      mstore\n      keccak256(0x00, 0x20)\n      swap1\n    tag_60:\n      dup2\n      sload\n      dup2\n      mstore\n      swap1\n      0x01\n      add\n      swap1\n      0x20\n      add\n      dup1\n      dup4\n      gt\n      tag_60\n      jumpi\n      dup3\n      swap1\n      sub\n      0x1f\n      and\n      dup3\n      add\n      swap2\n    tag_58:\n      pop\n      pop\n      pop\n      pop\n      pop\n      swap1\n      dup1\n      0x01\n      add\n      0x00\n      swap1\n      sload\n      swap1\n      0x0100\n      exp\n      swap1\n      div\n      0xff\n      and\n      swap1\n      pop\n      dup3\n      jump\t// out\n        /* \"#utility.yul\":88:205   */\n    tag_62:\n        /* \"#utility.yul\":197:198   */\n      0x00\n        /* \"#utility.yul\":194:195   */\n      dup1\n        /* \"#utility.yul\":187:199   */\n      revert\n        /* \"#utility.yul\":211:328   */\n    tag_63:\n        /* \"#utility.yul\":320:321   */\n      0x00\n        /* \"#utility.yul\":317:318   */\n      dup1\n        /* \"#utility.yul\":310:322   */\n      revert\n        /* \"#utility.yul\":334:451   */\n    tag_64:\n        /* \"#utility.yul\":443:444   */\n      0x00\n        /* \"#utility.yul\":440:441   */\n      dup1\n        /* \"#utility.yul\":433:445   */\n      revert\n        /* \"#utility.yul\":457:574   */\n    tag_65:\n        /* \"#utility.yul\":566:567   */\n      0x00\n        /* \"#utility.yul\":563:564   */\n      dup1\n        /* \"#utility.yul\":556:568   */\n      revert\n        /* \"#utility.yul\":580:697   */\n    tag_66:\n        /* \"#utility.yul\":689:690   */\n      0x00\n        /* \"#utility.yul\":686:687   */\n      dup1\n        /* \"#utility.yul\":679:691   */\n      revert\n        /* \"#utility.yul\":717:1270   */\n    tag_67:\n        /* \"#utility.yul\":775:783   */\n      0x00\n        /* \"#utility.yul\":785:791   */\n      dup1\n        /* \"#utility.yul\":835:838   */\n      dup4\n        /* \"#utility.yul\":828:832   */\n      0x1f\n        /* \"#utility.yul\":820:826   */\n      dup5\n        /* \"#utility.yul\":816:833   */\n      add\n        /* \"#utility.yul\":812:839   */\n      slt\n        /* \"#utility.yul\":802:924   */\n      tag_104\n      jumpi\n        /* \"#utility.yul\":843:922   */\n      tag_105\n      tag_64\n      jump\t// in\n    tag_105:\n        /* \"#utility.yul\":802:924   */\n    tag_104:\n        /* \"#utility.yul\":956:962   */\n      dup3\n        /* \"#utility.yul\":943:963   */\n      calldataload\n        /* \"#utility.yul\":933:963   */\n      swap1\n      pop\n        /* \"#utility.yul\":986:1004   */\n      0xffffffffffffffff\n        /* \"#utility.yul\":978:984   */\n      dup2\n        /* \"#utility.yul\":975:1005   */\n      gt\n        /* \"#utility.yul\":972:1089   */\n      iszero\n      tag_106\n      jumpi\n        /* \"#utility.yul\":1008:1087   */\n      tag_107\n      tag_65\n      jump\t// in\n    tag_107:\n        /* \"#utility.yul\":972:1089   */\n    tag_106:\n        /* \"#utility.yul\":1122:1126   */\n      0x20\n        /* \"#utility.yul\":1114:1120   */\n      dup4\n        /* \"#utility.yul\":1110:1127   */\n      add\n        /* \"#utility.yul\":1098:1127   */\n      swap2\n      pop\n        /* \"#utility.yul\":1176:1179   */\n      dup4\n        /* \"#utility.yul\":1168:1172   */\n      0x01\n        /* \"#utility.yul\":1160:1166   */\n      dup3\n        /* \"#utility.yul\":1156:1173   */\n      mul\n        /* \"#utility.yul\":1146:1154   */\n      dup4\n        /* \"#utility.yul\":1142:1174   */\n      add\n        /* \"#utility.yul\":1139:1180   */\n      gt\n        /* \"#utility.yul\":1136:1264   */\n      iszero\n      tag_108\n      jumpi\n        /* \"#utility.yul\":1183:1262   */\n      tag_109\n      tag_66\n      jump\t// in\n    tag_109:\n        /* \"#utility.yul\":1136:1264   */\n    tag_108:\n        /* \"#utility.yul\":717:1270   */\n      swap3\n      pop\n      swap3\n      swap1\n      pop\n      jump\t// out\n        /* \"#utility.yul\":1276:1805   */\n    tag_10:\n        /* \"#utility.yul\":1347:1353   */\n      0x00\n        /* \"#utility.yul\":1355:1361   */\n      dup1\n        /* \"#utility.yul\":1404:1406   */\n      0x20\n        /* \"#utility.yul\":1392:1401   */\n      dup4\n        /* \"#utility.yul\":1383:1390   */\n      dup6\n        /* \"#utility.yul\":1379:1402   */\n      sub\n        /* \"#utility.yul\":1375:1407   */\n      slt\n        /* \"#utility.yul\":1372:1491   */\n      iszero\n      tag_111\n      jumpi\n        /* \"#utility.yul\":1410:1489   */\n      tag_112\n      tag_62\n      jump\t// in\n    tag_112:\n        /* \"#utility.yul\":1372:1491   */\n    tag_111:\n        /* \"#utility.yul\":1558:1559   */\n      0x00\n        /* \"#utility.yul\":1547:1556   */\n      dup4\n        /* \"#utility.yul\":1543:1560   */\n      add\n        /* \"#utility.yul\":1530:1561   */\n      calldataload\n        /* \"#utility.yul\":1588:1606   */\n      0xffffffffffffffff\n        /* \"#utility.yul\":1580:1586   */\n      dup2\n        /* \"#utility.yul\":1577:1607   */\n      gt\n        /* \"#utility.yul\":1574:1691   */\n      iszero\n      tag_113\n      jumpi\n        /* \"#utility.yul\":1610:1689   */\n      tag_114\n      tag_63\n      jump\t// in\n    tag_114:\n        /* \"#utility.yul\":1574:1691   */\n    tag_113:\n        /* \"#utility.yul\":1723:1788   */\n      tag_115\n        /* \"#utility.yul\":1780:1787   */\n      dup6\n        /* \"#utility.yul\":1771:1777   */\n      dup3\n        /* \"#utility.yul\":1760:1769   */\n      dup7\n        /* \"#utility.yul\":1756:1778   */\n      add\n        /* \"#utility.yul\":1723:1788   */\n      tag_67\n      jump\t// in\n    tag_115:\n        /* \"#utility.yul\":1705:1788   */\n      swap3\n      pop\n      swap3\n      pop\n        /* \"#utility.yul\":1501:1798   */\n      pop\n        /* \"#utility.yul\":1276:1805   */\n      swap3\n      pop\n      swap3\n      swap1\n      pop\n      jump\t// out\n        /* \"#utility.yul\":1811:1888   */\n    tag_68:\n        /* \"#utility.yul\":1848:1855   */\n      0x00\n        /* \"#utility.yul\":1877:1882   */\n      dup2\n        /* \"#utility.yul\":1866:1882   */\n      swap1\n      pop\n        /* \"#utility.yul\":1811:1888   */\n      swap2\n      swap1\n      pop\n      jump\t// out\n        /* \"#utility.yul\":1894:2016   */\n    tag_69:\n        /* \"#utility.yul\":1967:1991   */\n      tag_118\n        /* \"#utility.yul\":1985:1990   */\n      dup2\n        /* \"#utility.yul\":1967:1991   */\n      tag_68\n      jump\t// in\n    tag_118:\n        /* \"#utility.yul\":1960:1965   */\n      dup2\n        /* \"#utility.yul\":1957:1992   */\n      eq\n        /* \"#utility.yul\":1947:2010   */\n      tag_119\n      jumpi\n        /* \"#utility.yul\":2006:2007   */\n      0x00\n        /* \"#utility.yul\":2003:2004   */\n      dup1\n        /* \"#utility.yul\":1996:2008   */\n      revert\n        /* \"#utility.yul\":1947:2010   */\n    tag_119:\n        /* \"#utility.yul\":1894:2016   */\n      pop\n      jump\t// out\n        /* \"#utility.yul\":2022:2161   */\n    tag_70:\n        /* \"#utility.yul\":2068:2073   */\n      0x00\n        /* \"#utility.yul\":2106:2112   */\n      dup2\n        /* \"#utility.yul\":2093:2113   */\n      calldataload\n        /* \"#utility.yul\":2084:2113   */\n      swap1\n      pop\n        /* \"#utility.yul\":2122:2155   */\n      tag_121\n        /* \"#utility.yul\":2149:2154   */\n      dup2\n        /* \"#utility.yul\":2122:2155   */\n      tag_69\n      jump\t// in\n    tag_121:\n        /* \"#utility.yul\":2022:2161   */\n      swap3\n      swap2\n      pop\n      pop\n      jump\t// out\n        /* \"#utility.yul\":2167:2496   */\n    tag_14:\n        /* \"#utility.yul\":2226:2232   */\n      0x00\n        /* \"#utility.yul\":2275:2277   */\n      0x20\n        /* \"#utility.yul\":2263:2272   */\n      dup3\n        /* \"#utility.yul\":2254:2261   */\n      dup5\n        /* \"#utility.yul\":2250:2273   */\n      sub\n        /* \"#utility.yul\":2246:2278   */\n      slt\n        /* \"#utility.yul\":2243:2362   */\n      iszero\n      tag_123\n      jumpi\n        /* \"#utility.yul\":2281:2360   */\n      tag_124\n      tag_62\n      jump\t// in\n    tag_124:\n        /* \"#utility.yul\":2243:2362   */\n    tag_123:\n        /* \"#utility.yul\":2401:2402   */\n      0x00\n        /* \"#utility.yul\":2426:2479   */\n      tag_125\n        /* \"#utility.yul\":2471:2478   */\n      dup5\n        /* \"#utility.yul\":2462:2468   */\n      dup3\n        /* \"#utility.yul\":2451:2460   */\n      dup6\n        /* \"#utility.yul\":2447:2469   */\n      add\n        /* \"#utility.yul\":2426:2479   */\n      tag_70\n      jump\t// in\n    tag_125:\n        /* \"#utility.yul\":2416:2479   */\n      swap2\n      pop\n        /* \"#utility.yul\":2372:2489   */\n      pop\n        /* \"#utility.yul\":2167:2496   */\n      swap3\n      swap2\n      pop\n      pop\n      jump\t// out\n        /* \"#utility.yul\":2502:2601   */\n    tag_71:\n        /* \"#utility.yul\":2554:2560   */\n      0x00\n        /* \"#utility.yul\":2588:2593   */\n      dup2\n        /* \"#utility.yul\":2582:2594   */\n      mload\n        /* \"#utility.yul\":2572:2594   */\n      swap1\n      pop\n        /* \"#utility.yul\":2502:2601   */\n      swap2\n      swap1\n      pop\n      jump\t// out\n        /* \"#utility.yul\":2607:2776   */\n    tag_72:\n        /* \"#utility.yul\":2691:2702   */\n      0x00\n        /* \"#utility.yul\":2725:2731   */\n      dup3\n        /* \"#utility.yul\":2720:2723   */\n      dup3\n        /* \"#utility.yul\":2713:2732   */\n      mstore\n        /* \"#utility.yul\":2765:2769   */\n      0x20\n        /* \"#utility.yul\":2760:2763   */\n      dup3\n        /* \"#utility.yul\":2756:2770   */\n      add\n        /* \"#utility.yul\":2741:2770   */\n      swap1\n      pop\n        /* \"#utility.yul\":2607:2776   */\n      swap3\n      swap2\n      pop\n      pop\n      jump\t// out\n        /* \"#utility.yul\":2782:2921   */\n    tag_73:\n        /* \"#utility.yul\":2871:2877   */\n      dup3\n        /* \"#utility.yul\":2866:2869   */\n      dup2\n        /* \"#utility.yul\":2861:2864   */\n      dup4\n        /* \"#utility.yul\":2855:2878   */\n      mcopy\n        /* \"#utility.yul\":2912:2913   */\n      0x00\n        /* \"#utility.yul\":2903:2909   */\n      dup4\n        /* \"#utility.yul\":2898:2901   */\n      dup4\n        /* \"#utility.yul\":2894:2910   */\n      add\n        /* \"#utility.yul\":2887:2914   */\n      mstore\n        /* \"#utility.yul\":2782:2921   */\n      pop\n      pop\n      pop\n      jump\t// out\n        /* \"#utility.yul\":2927:3029   */\n    tag_74:\n        /* \"#utility.yul\":2968:2974   */\n      0x00\n        /* \"#utility.yul\":3019:3021   */\n      0x1f\n        /* \"#utility.yul\":3015:3022   */\n      not\n        /* \"#utility.yul\":3010:3012   */\n      0x1f\n        /* \"#utility.yul\":3003:3008   */\n      dup4\n        /* \"#utility.yul\":2999:3013   */\n      add\n        /* \"#utility.yul\":2995:3023   */\n      and\n        /* \"#utility.yul\":2985:3023   */\n      swap1\n      pop\n        /* \"#utility.yul\":2927:3029   */\n      swap2\n      swap1\n      pop\n      jump\t// out\n        /* \"#utility.yul\":3035:3412   */\n    tag_75:\n        /* \"#utility.yul\":3123:3126   */\n      0x00\n        /* \"#utility.yul\":3151:3190   */\n      tag_131\n        /* \"#utility.yul\":3184:3189   */\n      dup3\n        /* \"#utility.yul\":3151:3190   */\n      tag_71\n      jump\t// in\n    tag_131:\n        /* \"#utility.yul\":3206:3277   */\n      tag_132\n        /* \"#utility.yul\":3270:3276   */\n      dup2\n        /* \"#utility.yul\":3265:3268   */\n      dup6\n        /* \"#utility.yul\":3206:3277   */\n      tag_72\n      jump\t// in\n    tag_132:\n        /* \"#utility.yul\":3199:3277   */\n      swap4\n      pop\n        /* \"#utility.yul\":3286:3351   */\n      tag_133\n        /* \"#utility.yul\":3344:3350   */\n      dup2\n        /* \"#utility.yul\":3339:3342   */\n      dup6\n        /* \"#utility.yul\":3332:3336   */\n      0x20\n        /* \"#utility.yul\":3325:3330   */\n      dup7\n        /* \"#utility.yul\":3321:3337   */\n      add\n        /* \"#utility.yul\":3286:3351   */\n      tag_73\n      jump\t// in\n    tag_133:\n        /* \"#utility.yul\":3376:3405   */\n      tag_134\n        /* \"#utility.yul\":3398:3404   */\n      dup2\n        /* \"#utility.yul\":3376:3405   */\n      tag_74\n      jump\t// in\n    tag_134:\n        /* \"#utility.yul\":3371:3374   */\n      dup5\n        /* \"#utility.yul\":3367:3406   */\n      add\n        /* \"#utility.yul\":3360:3406   */\n      swap2\n      pop\n        /* \"#utility.yul\":3127:3412   */\n      pop\n        /* \"#utility.yul\":3035:3412   */\n      swap3\n      swap2\n      pop\n      pop\n      jump\t// out\n        /* \"#utility.yul\":3418:3508   */\n    tag_76:\n        /* \"#utility.yul\":3452:3459   */\n      0x00\n        /* \"#utility.yul\":3495:3500   */\n      dup2\n        /* \"#utility.yul\":3488:3501   */\n      iszero\n        /* \"#utility.yul\":3481:3502   */\n      iszero\n        /* \"#utility.yul\":3470:3502   */\n      swap1\n      pop\n        /* \"#utility.yul\":3418:3508   */\n      swap2\n      swap1\n      pop\n      jump\t// out\n        /* \"#utility.yul\":3514:3623   */\n    tag_77:\n        /* \"#utility.yul\":3595:3616   */\n      tag_137\n        /* \"#utility.yul\":3610:3615   */\n      dup2\n        /* \"#utility.yul\":3595:3616   */\n      tag_76\n      jump\t// in\n    tag_137:\n        /* \"#utility.yul\":3590:3593   */\n      dup3\n        /* \"#utility.yul\":3583:3617   */\n      mstore\n        /* \"#utility.yul\":3514:3623   */\n      pop\n      pop\n      jump\t// out\n        /* \"#utility.yul\":3629:4040   */\n    tag_17:\n        /* \"#utility.yul\":3764:3768   */\n      0x00\n        /* \"#utility.yul\":3802:3804   */\n      0x40\n        /* \"#utility.yul\":3791:3800   */\n      dup3\n        /* \"#utility.yul\":3787:3805   */\n      add\n        /* \"#utility.yul\":3779:3805   */\n      swap1\n      pop\n        /* \"#utility.yul\":3851:3860   */\n      dup2\n        /* \"#utility.yul\":3845:3849   */\n      dup2\n        /* \"#utility.yul\":3841:3861   */\n      sub\n        /* \"#utility.yul\":3837:3838   */\n      0x00\n        /* \"#utility.yul\":3826:3835   */\n      dup4\n        /* \"#utility.yul\":3822:3839   */\n      add\n        /* \"#utility.yul\":3815:3862   */\n      mstore\n        /* \"#utility.yul\":3879:3957   */\n      tag_139\n        /* \"#utility.yul\":3952:3956   */\n      dup2\n        /* \"#utility.yul\":3943:3949   */\n      dup6\n        /* \"#utility.yul\":3879:3957   */\n      tag_75\n      jump\t// in\n    tag_139:\n        /* \"#utility.yul\":3871:3957   */\n      swap1\n      pop\n        /* \"#utility.yul\":3967:4033   */\n      tag_140\n        /* \"#utility.yul\":4029:4031   */\n      0x20\n        /* \"#utility.yul\":4018:4027   */\n      dup4\n        /* \"#utility.yul\":4014:4032   */\n      add\n        /* \"#utility.yul\":4005:4011   */\n      dup5\n        /* \"#utility.yul\":3967:4033   */\n      tag_77\n      jump\t// in\n    tag_140:\n        /* \"#utility.yul\":3629:4040   */\n      swap4\n      swap3\n      pop\n      pop\n      pop\n      jump\t// out\n        /* \"#utility.yul\":4046:4720   */\n    tag_23:\n        /* \"#utility.yul\":4126:4132   */\n      0x00\n        /* \"#utility.yul\":4134:4140   */\n      dup1\n        /* \"#utility.yul\":4142:4148   */\n      0x00\n        /* \"#utility.yul\":4191:4193   */\n      0x40\n        /* \"#utility.yul\":4179:4188   */\n      dup5\n        /* \"#utility.yul\":4170:4177   */\n      dup7\n        /* \"#utility.yul\":4166:4189   */\n      sub\n        /* \"#utility.yul\":4162:4194   */\n      slt\n        /* \"#utility.yul\":4159:4278   */\n      iszero\n      tag_142\n      jumpi\n        /* \"#utility.yul\":4197:4276   */\n      tag_143\n      tag_62\n      jump\t// in\n    tag_143:\n        /* \"#utility.yul\":4159:4278   */\n    tag_142:\n        /* \"#utility.yul\":4317:4318   */\n      0x00\n        /* \"#utility.yul\":4342:4395   */\n      tag_144\n        /* \"#utility.yul\":4387:4394   */\n      dup7\n        /* \"#utility.yul\":4378:4384   */\n      dup3\n        /* \"#utility.yul\":4367:4376   */\n      dup8\n        /* \"#utility.yul\":4363:4385   */\n      add\n        /* \"#utility.yul\":4342:4395   */\n      tag_70\n      jump\t// in\n    tag_144:\n        /* \"#utility.yul\":4332:4395   */\n      swap4\n      pop\n        /* \"#utility.yul\":4288:4405   */\n      pop\n        /* \"#utility.yul\":4472:4474   */\n      0x20\n        /* \"#utility.yul\":4461:4470   */\n      dup5\n        /* \"#utility.yul\":4457:4475   */\n      add\n        /* \"#utility.yul\":4444:4476   */\n      calldataload\n        /* \"#utility.yul\":4503:4521   */\n      0xffffffffffffffff\n        /* \"#utility.yul\":4495:4501   */\n      dup2\n        /* \"#utility.yul\":4492:4522   */\n      gt\n        /* \"#utility.yul\":4489:4606   */\n      iszero\n      tag_145\n      jumpi\n        /* \"#utility.yul\":4525:4604   */\n      tag_146\n      tag_63\n      jump\t// in\n    tag_146:\n        /* \"#utility.yul\":4489:4606   */\n    tag_145:\n        /* \"#utility.yul\":4638:4703   */\n      tag_147\n        /* \"#utility.yul\":4695:4702   */\n      dup7\n        /* \"#utility.yul\":4686:4692   */\n      dup3\n        /* \"#utility.yul\":4675:4684   */\n      dup8\n        /* \"#utility.yul\":4671:4693   */\n      add\n        /* \"#utility.yul\":4638:4703   */\n      tag_67\n      jump\t// in\n    tag_147:\n        /* \"#utility.yul\":4620:4703   */\n      swap3\n      pop\n      swap3\n      pop\n        /* \"#utility.yul\":4415:4713   */\n      pop\n        /* \"#utility.yul\":4046:4720   */\n      swap3\n      pop\n      swap3\n      pop\n      swap3\n      jump\t// out\n        /* \"#utility.yul\":4726:4906   */\n    tag_78:\n        /* \"#utility.yul\":4774:4851   */\n      0x4e487b7100000000000000000000000000000000000000000000000000000000\n        /* \"#utility.yul\":4771:4772   */\n      0x00\n        /* \"#utility.yul\":4764:4852   */\n      mstore\n        /* \"#utility.yul\":4871:4875   */\n      0x41\n        /* \"#utility.yul\":4868:4869   */\n      0x04\n        /* \"#utility.yul\":4861:4876   */\n      mstore\n        /* \"#utility.yul\":4895:4899   */\n      0x24\n        /* \"#utility.yul\":4892:4893   */\n      0x00\n        /* \"#utility.yul\":4885:4900   */\n      revert\n        /* \"#utility.yul\":4912:5092   */\n    tag_79:\n        /* \"#utility.yul\":4960:5037   */\n      0x4e487b7100000000000000000000000000000000000000000000000000000000\n        /* \"#utility.yul\":4957:4958   */\n      0x00\n        /* \"#utility.yul\":4950:5038   */\n      mstore\n        /* \"#utility.yul\":5057:5061   */\n      0x22\n        /* \"#utility.yul\":5054:5055   */\n      0x04\n        /* \"#utility.yul\":5047:5062   */\n      mstore\n        /* \"#utility.yul\":5081:5085   */\n      0x24\n        /* \"#utility.yul\":5078:5079   */\n      0x00\n        /* \"#utility.yul\":5071:5086   */\n      revert\n        /* \"#utility.yul\":5098:5418   */\n    tag_39:\n        /* \"#utility.yul\":5142:5148   */\n      0x00\n        /* \"#utility.yul\":5179:5180   */\n      0x02\n        /* \"#utility.yul\":5173:5177   */\n      dup3\n        /* \"#utility.yul\":5169:5181   */\n      div\n        /* \"#utility.yul\":5159:5181   */\n      swap1\n      pop\n        /* \"#utility.yul\":5226:5227   */\n      0x01\n        /* \"#utility.yul\":5220:5224   */\n      dup3\n        /* \"#utility.yul\":5216:5228   */\n      and\n        /* \"#utility.yul\":5247:5265   */\n      dup1\n        /* \"#utility.yul\":5237:5318   */\n      tag_151\n      jumpi\n        /* \"#utility.yul\":5303:5307   */\n      0x7f\n        /* \"#utility.yul\":5295:5301   */\n      dup3\n        /* \"#utility.yul\":5291:5308   */\n      and\n        /* \"#utility.yul\":5281:5308   */\n      swap2\n      pop\n        /* \"#utility.yul\":5237:5318   */\n    tag_151:\n        /* \"#utility.yul\":5365:5367   */\n      0x20\n        /* \"#utility.yul\":5357:5363   */\n      dup3\n        /* \"#utility.yul\":5354:5368   */\n      lt\n        /* \"#utility.yul\":5334:5352   */\n      dup2\n        /* \"#utility.yul\":5331:5369   */\n      sub\n        /* \"#utility.yul\":5328:5412   */\n      tag_152\n      jumpi\n        /* \"#utility.yul\":5384:5402   */\n      tag_153\n      tag_79\n      jump\t// in\n    tag_153:\n        /* \"#utility.yul\":5328:5412   */\n    tag_152:\n        /* \"#utility.yul\":5149:5418   */\n      pop\n        /* \"#utility.yul\":5098:5418   */\n      swap2\n      swap1\n      pop\n      jump\t// out\n        /* \"#utility.yul\":5424:5565   */\n    tag_80:\n        /* \"#utility.yul\":5473:5477   */\n      0x00\n        /* \"#utility.yul\":5496:5499   */\n      dup2\n        /* \"#utility.yul\":5488:5499   */\n      swap1\n      pop\n        /* \"#utility.yul\":5519:5522   */\n      dup2\n        /* \"#utility.yul\":5516:5517   */\n      0x00\n        /* \"#utility.yul\":5509:5523   */\n      mstore\n        /* \"#utility.yul\":5553:5557   */\n      0x20\n        /* \"#utility.yul\":5550:5551   */\n      0x00\n        /* \"#utility.yul\":5540:5558   */\n      keccak256\n        /* \"#utility.yul\":5532:5558   */\n      swap1\n      pop\n        /* \"#utility.yul\":5424:5565   */\n      swap2\n      swap1\n      pop\n      jump\t// out\n        /* \"#utility.yul\":5571:5664   */\n    tag_81:\n        /* \"#utility.yul\":5608:5614   */\n      0x00\n        /* \"#utility.yul\":5655:5657   */\n      0x20\n        /* \"#utility.yul\":5650:5652   */\n      0x1f\n        /* \"#utility.yul\":5643:5648   */\n      dup4\n        /* \"#utility.yul\":5639:5653   */\n      add\n        /* \"#utility.yul\":5635:5658   */\n      div\n        /* \"#utility.yul\":5625:5658   */\n      swap1\n      pop\n        /* \"#utility.yul\":5571:5664   */\n      swap2\n      swap1\n      pop\n      jump\t// out\n        /* \"#utility.yul\":5670:5777   */\n    tag_82:\n        /* \"#utility.yul\":5714:5722   */\n      0x00\n        /* \"#utility.yul\":5764:5769   */\n      dup3\n        /* \"#utility.yul\":5758:5762   */\n      dup3\n        /* \"#utility.yul\":5754:5770   */\n      shl\n        /* \"#utility.yul\":5733:5770   */\n      swap1\n      pop\n        /* \"#utility.yul\":5670:5777   */\n      swap3\n      swap2\n      pop\n      pop\n      jump\t// out\n        /* \"#utility.yul\":5783:6176   */\n    tag_83:\n        /* \"#utility.yul\":5852:5858   */\n      0x00\n        /* \"#utility.yul\":5902:5903   */\n      0x08\n        /* \"#utility.yul\":5890:5900   */\n      dup4\n        /* \"#utility.yul\":5886:5904   */\n      mul\n        /* \"#utility.yul\":5925:6022   */\n      tag_158\n        /* \"#utility.yul\":5955:6021   */\n      0xffffffffffffffffffffffffffffffffffffffffffffffffffffffffffffffff\n        /* \"#utility.yul\":5944:5953   */\n      dup3\n        /* \"#utility.yul\":5925:6022   */\n      tag_82\n      jump\t// in\n    tag_158:\n        /* \"#utility.yul\":6043:6082   */\n      tag_159\n        /* \"#utility.yul\":6073:6081   */\n      dup7\n        /* \"#utility.yul\":6062:6071   */\n      dup4\n        /* \"#utility.yul\":6043:6082   */\n      tag_82\n      jump\t// in\n    tag_159:\n        /* \"#utility.yul\":6031:6082   */\n      swap6\n      pop\n        /* \"#utility.yul\":6115:6119   */\n      dup1\n        /* \"#utility.yul\":6111:6120   */\n      not\n        /* \"#utility.yul\":6104:6109   */\n      dup5\n        /* \"#utility.yul\":6100:6121   */\n      and\n        /* \"#utility.yul\":6091:6121   */\n      swap4\n      pop\n        /* \"#utility.yul\":6164:6168   */\n      dup1\n        /* \"#utility.yul\":6154:6162   */\n      dup7\n        /* \"#utility.yul\":6150:6169   */\n      and\n        /* \"#utility.yul\":6143:6148   */\n      dup5\n        /* \"#utility.yul\":6140:6170   */\n      or\n        /* \"#utility.yul\":6130:6170   */\n      swap3\n      pop\n        /* \"#utility.yul\":5859:6176   */\n      pop\n      pop\n        /* \"#utility.yul\":5783:6176   */\n      swap4\n      swap3\n      pop\n      pop\n      pop\n      jump\t// out\n        /* \"#utility.yul\":6182:6242   */\n    tag_84:\n        /* \"#utility.yul\":6210:6213   */\n      0x00\n        /* \"#utility.yul\":6231:6236   */\n      dup2\n        /* \"#utility.yul\":6224:6236   */\n      swap1\n      pop\n        /* \"#utility.yul\":6182:6242   */\n      swap2\n      swap1\n      pop\n      jump\t// out\n        /* \"#utility.yul\":6248:6390   */\n    tag_85:\n        /* \"#utility.yul\":6298:6307   */\n      0x00\n        /* \"#utility.yul\":6331:6384   */\n      tag_162\n        /* \"#utility.yul\":6349:6383   */\n      tag_163\n        /* \"#utility.yul\":6358:6382   */\n      tag_164\n        /* \"#utility.yul\":6376:6381   */\n      dup5\n        /* \"#utility.yul\":6358:6382   */\n      tag_68\n      jump\t// in\n    tag_164:\n        /* \"#utility.yul\":6349:6383   */\n      tag_84\n      jump\t// in\n    tag_163:\n        /* \"#utility.yul\":6331:6384   */\n      tag_68\n      jump\t// in\n    tag_162:\n        /* \"#utility.yul\":6318:6384   */\n      swap1\n      pop\n        /* \"#utility.yul\":6248:6390   */\n      swap2\n      swap1\n      pop\n      jump\t// out\n        /* \"#utility.yul\":6396:6471   */\n    tag_86:\n        /* \"#utility.yul\":6439:6442   */\n      0x00\n        /* \"#utility.yul\":6460:6465   */\n      dup2\n        /* \"#utility.yul\":6453:6465   */\n      swap1\n      pop\n        /* \"#utility.yul\":6396:6471   */\n      swap2\n      swap1\n      pop\n      jump\t// out\n        /* \"#utility.yul\":6477:6746   */\n    tag_87:\n        /* \"#utility.yul\":6587:6626   */\n      tag_167\n        /* \"#utility.yul\":6618:6625   */\n      dup4\n        /* \"#utility.yul\":6587:6626   */\n      tag_85\n      jump\t// in\n    tag_167:\n        /* \"#utility.yul\":6648:6739   */\n      tag_168\n        /* \"#utility.yul\":6697:6738   */\n      tag_169\n        /* \"#utility.yul\":6721:6737   */\n      dup3\n        /* \"#utility.yul\":6697:6738   */\n      tag_86\n      jump\t// in\n    tag_169:\n        /* \"#utility.yul\":6689:6695   */\n      dup5\n        /* \"#utility.yul\":6682:6686   */\n      dup5\n        /* \"#utility.yul\":6676:6687   */\n      sload\n        /* \"#utility.yul\":6648:6739   */\n      tag_83\n      jump\t// in\n    tag_168:\n        /* \"#utility.yul\":6642:6646   */\n      dup3\n        /* \"#utility.yul\":6635:6740   */\n      sstore\n        /* \"#utility.yul\":6553:6746   */\n      pop\n        /* \"#utility.yul\":6477:6746   */\n      pop\n      pop\n      pop\n      jump\t// out\n        /* \"#utility.yul\":6752:6825   */\n    tag_88:\n        /* \"#utility.yul\":6797:6800   */\n      0x00\n        /* \"#utility.yul\":6752:6825   */\n      swap1\n      jump\t// out\n        /* \"#utility.yul\":6831:7020   */\n    tag_89:\n        /* \"#utility.yul\":6908:6940   */\n      tag_172\n      tag_88\n      jump\t// in\n    tag_172:\n        /* \"#utility.yul\":6949:7014   */\n      tag_173\n        /* \"#utility.yul\":7007:7013   */\n      dup2\n        /* \"#utility.yul\":6999:7005   */\n      dup5\n        /* \"#utility.yul\":6993:6997   */\n      dup5\n        /* \"#utility.yul\":6949:7014   */\n      tag_87\n      jump\t// in\n    tag_173:\n        /* \"#utility.yul\":6884:7020   */\n      pop\n        /* \"#utility.yul\":6831:7020   */\n      pop\n      pop\n      jump\t// out\n        /* \"#utility.yul\":7026:7212   */\n    tag_90:\n        /* \"#utility.yul\":7086:7206   */\n    tag_175:\n        /* \"#utility.yul\":7103:7106   */\n      dup2\n        /* \"#utility.yul\":7096:7101   */\n      dup2\n        /* \"#utility.yul\":7093:7107   */\n      lt\n        /* \"#utility.yul\":7086:7206   */\n      iszero\n      tag_177\n      jumpi\n        /* \"#utility.yul\":7157:7196   */\n      tag_178\n        /* \"#utility.yul\":7194:7195   */\n      0x00\n        /* \"#utility.yul\":7187:7192   */\n      dup3\n        /* \"#utility.yul\":7157:7196   */\n      tag_89\n      jump\t// in\n    tag_178:\n        /* \"#utility.yul\":7130:7131   */\n      0x01\n        /* \"#utility.yul\":7123:7128   */\n      dup2\n        /* \"#utility.yul\":7119:7132   */\n      add\n        /* \"#utility.yul\":7110:7132   */\n      swap1\n      pop\n        /* \"#utility.yul\":7086:7206   */\n      jump(tag_175)\n    tag_177:\n        /* \"#utility.yul\":7026:7212   */\n      pop\n      pop\n      jump\t// out\n        /* \"#utility.yul\":7218:7761   */\n    tag_91:\n        /* \"#utility.yul\":7319:7321   */\n      0x1f\n        /* \"#utility.yul\":7314:7317   */\n      dup3\n        /* \"#utility.yul\":7311:7322   */\n      gt\n        /* \"#utility.yul\":7308:7754   */\n      iszero\n      tag_180\n      jumpi\n        /* \"#utility.yul\":7353:7391   */\n      tag_181\n        /* \"#utility.yul\":7385:7390   */\n      dup2\n        /* \"#utility.yul\":7353:7391   */\n      tag_80\n      jump\t// in\n    tag_181:\n        /* \"#utility.yul\":7437:7466   */\n      tag_182\n        /* \"#utility.yul\":7455:7465   */\n      dup5\n        /* \"#utility.yul\":7437:7466   */\n      tag_81\n      jump\t// in\n    tag_182:\n        /* \"#utility.yul\":7427:7435   */\n      dup2\n        /* \"#utility.yul\":7423:7467   */\n      add\n        /* \"#utility.yul\":7620:7622   */\n      0x20\n        /* \"#utility.yul\":7608:7618   */\n      dup6\n        /* \"#utility.yul\":7605:7623   */\n      lt\n        /* \"#utility.yul\":7602:7651   */\n      iszero\n      tag_183\n      jumpi\n        /* \"#utility.yul\":7641:7649   */\n      dup2\n        /* \"#utility.yul\":7626:7649   */\n      swap1\n      pop\n        /* \"#utility.yul\":7602:7651   */\n    tag_183:\n        /* \"#utility.yul\":7664:7744   */\n      tag_184\n        /* \"#utility.yul\":7720:7742   */\n      tag_185\n        /* \"#utility.yul\":7738:7741   */\n      dup6\n        /* \"#utility.yul\":7720:7742   */\n      tag_81\n      jump\t// in\n    tag_185:\n        /* \"#utility.yul\":7710:7718   */\n      dup4\n        /* \"#utility.yul\":7706:7743   */\n      add\n        /* \"#utility.yul\":7693:7704   */\n      dup3\n        /* \"#utility.yul\":7664:7744   */\n      tag_90\n      jump\t// in\n    tag_184:\n        /* \"#utility.yul\":7323:7754   */\n      pop\n      pop\n        /* \"#utility.yul\":7308:7754   */\n    tag_180:\n        /* \"#utility.yul\":7218:7761   */\n      pop\n      pop\n      pop\n      jump\t// out\n        /* \"#utility.yul\":7767:7884   */\n    tag_92:\n        /* \"#utility.yul\":7821:7829   */\n      0x00\n        /* \"#utility.yul\":7871:7876   */\n      dup3\n        /* \"#utility.yul\":7865:7869   */\n      dup3\n        /* \"#utility.yul\":7861:7877   */\n      shr\n        /* \"#utility.yul\":7840:7877   */\n      swap1\n      pop\n        /* \"#utility.yul\":7767:7884   */\n      swap3\n      swap2\n      pop\n      pop\n      jump\t// out\n        /* \"#utility.yul\":7890:8059   */\n    tag_93:\n        /* \"#utility.yul\":7934:7940   */\n      0x00\n        /* \"#utility.yul\":7967:8018   */\n      tag_188\n        /* \"#utility.yul\":8015:8016   */\n      0x00\n        /* \"#utility.yul\":8011:8017   */\n      not\n        /* \"#utility.yul\":8003:8008   */\n      dup5\n        /* \"#utility.yul\":8000:8001   */\n      0x08\n        /* \"#utility.yul\":7996:8009   */\n      mul\n        /* \"#utility.yul\":7967:8018   */\n      tag_92\n      jump\t// in\n    tag_188:\n        /* \"#utility.yul\":7963:8019   */\n      not\n        /* \"#utility.yul\":8048:8052   */\n      dup1\n        /* \"#utility.yul\":8042:8046   */\n      dup4\n        /* \"#utility.yul\":8038:8053   */\n      and\n        /* \"#utility.yul\":8028:8053   */\n      swap2\n      pop\n        /* \"#utility.yul\":7941:8059   */\n      pop\n        /* \"#utility.yul\":7890:8059   */\n      swap3\n      swap2\n      pop\n      pop\n      jump\t// out\n        /* \"#utility.yul\":8064:8359   */\n    tag_94:\n        /* \"#utility.yul\":8140:8144   */\n      0x00\n        /* \"#utility.yul\":8286:8315   */\n      tag_190\n        /* \"#utility.yul\":8311:8314   */\n      dup4\n        /* \"#utility.yul\":8305:8309   */\n      dup4\n        /* \"#utility.yul\":8286:8315   */\n      tag_93\n      jump\t// in\n    tag_190:\n        /* \"#utility.yul\":8278:8315   */\n      swap2\n      pop\n        /* \"#utility.yul\":8348:8351   */\n      dup3\n        /* \"#utility.yul\":8345:8346   */\n      0x02\n        /* \"#utility.yul\":8341:8352   */\n      mul\n        /* \"#utility.yul\":8335:8339   */\n      dup3\n        /* \"#utility.yul\":8332:8353   */\n      or\n        /* \"#utility.yul\":8324:8353   */\n      swap1\n      pop\n        /* \"#utility.yul\":8064:8359   */\n      swap3\n      swap2\n      pop\n      pop\n      jump\t// out\n        /* \"#utility.yul\":8364:9759   */\n    tag_32:\n        /* \"#utility.yul\":8481:8518   */\n      tag_192\n        /* \"#utility.yul\":8514:8517   */\n      dup3\n        /* \"#utility.yul\":8481:8518   */\n      tag_71\n      jump\t// in\n    tag_192:\n        /* \"#utility.yul\":8583:8601   */\n      0xffffffffffffffff\n        /* \"#utility.yul\":8575:8581   */\n      dup2\n        /* \"#utility.yul\":8572:8602   */\n      gt\n        /* \"#utility.yul\":8569:8625   */\n      iszero\n      tag_193\n      jumpi\n        /* \"#utility.yul\":8605:8623   */\n      tag_194\n      tag_78\n      jump\t// in\n    tag_194:\n        /* \"#utility.yul\":8569:8625   */\n    tag_193:\n        /* \"#utility.yul\":8649:8687   */\n      tag_195\n        /* \"#utility.yul\":8681:8685   */\n      dup3\n        /* \"#utility.yul\":8675:8686   */\n      sload\n        /* \"#utility.yul\":8649:8687   */\n      tag_39\n      jump\t// in\n    tag_195:\n        /* \"#utility.yul\":8734:8801   */\n      tag_196\n        /* \"#utility.yul\":8794:8800   */\n      dup3\n        /* \"#utility.yul\":8786:8792   */\n      dup3\n        /* \"#utility.yul\":8780:8784   */\n      dup6\n        /* \"#utility.yul\":8734:8801   */\n      tag_91\n      jump\t// in\n    tag_196:\n        /* \"#utility.yul\":8828:8829   */\n      0x00\n        /* \"#utility.yul\":8852:8856   */\n      0x20\n        /* \"#utility.yul\":8839:8856   */\n      swap1\n      pop\n        /* \"#utility.yul\":8884:8886   */\n      0x1f\n        /* \"#utility.yul\":8876:8882   */\n      dup4\n        /* \"#utility.yul\":8873:8887   */\n      gt\n        /* \"#utility.yul\":8901:8902   */\n      0x01\n        /* \"#utility.yul\":8896:9514   */\n      dup2\n      eq\n      tag_198\n      jumpi\n        /* \"#utility.yul\":9558:9559   */\n      0x00\n        /* \"#utility.yul\":9575:9581   */\n      dup5\n        /* \"#utility.yul\":9572:9649   */\n      iszero\n      tag_199\n      jumpi\n        /* \"#utility.yul\":9624:9633   */\n      dup3\n        /* \"#utility.yul\":9619:9622   */\n      dup8\n        /* \"#utility.yul\":9615:9634   */\n      add\n        /* \"#utility.yul\":9609:9635   */\n      mload\n        /* \"#utility.yul\":9600:9635   */\n      swap1\n      pop\n        /* \"#utility.yul\":9572:9649   */\n    tag_199:\n        /* \"#utility.yul\":9675:9742   */\n      tag_200\n        /* \"#utility.yul\":9735:9741   */\n      dup6\n        /* \"#utility.yul\":9728:9733   */\n      dup3\n        /* \"#utility.yul\":9675:9742   */\n      tag_94\n      jump\t// in\n    tag_200:\n        /* \"#utility.yul\":9669:9673   */\n      dup7\n        /* \"#utility.yul\":9662:9743   */\n      sstore\n        /* \"#utility.yul\":9531:9753   */\n      pop\n        /* \"#utility.yul\":8866:9753   */\n      jump(tag_197)\n        /* \"#utility.yul\":8896:9514   */\n    tag_198:\n        /* \"#utility.yul\":8948:8952   */\n      0x1f\n        /* \"#utility.yul\":8944:8953   */\n      not\n        /* \"#utility.yul\":8936:8942   */\n      dup5\n        /* \"#utility.yul\":8932:8954   */\n      and\n        /* \"#utility.yul\":8982:9019   */\n      tag_201\n        /* \"#utility.yul\":9014:9018   */\n      dup7\n        /* \"#utility.yul\":8982:9019   */\n      tag_80\n      jump\t// in\n    tag_201:\n        /* \"#utility.yul\":9041:9042   */\n      0x00\n        /* \"#utility.yul\":9055:9263   */\n    tag_202:\n        /* \"#utility.yul\":9069:9076   */\n      dup3\n        /* \"#utility.yul\":9066:9067   */\n      dup2\n        /* \"#utility.yul\":9063:9077   */\n      lt\n        /* \"#utility.yul\":9055:9263   */\n      iszero\n      tag_204\n      jumpi\n        /* \"#utility.yul\":9148:9157   */\n      dup5\n        /* \"#utility.yul\":9143:9146   */\n      dup10\n        /* \"#utility.yul\":9139:9158   */\n      add\n        /* \"#utility.yul\":9133:9159   */\n      mload\n        /* \"#utility.yul\":9125:9131   */\n      dup3\n        /* \"#utility.yul\":9118:9160   */\n      sstore\n        /* \"#utility.yul\":9199:9200   */\n      0x01\n        /* \"#utility.yul\":9191:9197   */\n      dup3\n        /* \"#utility.yul\":9187:9201   */\n      add\n        /* \"#utility.yul\":9177:9201   */\n      swap2\n      pop\n        /* \"#utility.yul\":9246:9248   */\n      0x20\n        /* \"#utility.yul\":9235:9244   */\n      dup6\n        /* \"#utility.yul\":9231:9249   */\n      add\n        /* \"#utility.yul\":9218:9249   */\n      swap5\n      pop\n        /* \"#utility.yul\":9092:9096   */\n      0x20\n        /* \"#utility.yul\":9089:9090   */\n      dup2\n        /* \"#utility.yul\":9085:9097   */\n      add\n        /* \"#utility.yul\":9080:9097   */\n      swap1\n      pop\n        /* \"#utility.yul\":9055:9263   */\n      jump(tag_202)\n    tag_204:\n        /* \"#utility.yul\":9291:9297   */\n      dup7\n        /* \"#utility.yul\":9282:9289   */\n      dup4\n        /* \"#utility.yul\":9279:9298   */\n      lt\n        /* \"#utility.yul\":9276:9455   */\n      iszero\n      tag_205\n      jumpi\n        /* \"#utility.yul\":9349:9358   */\n      dup5\n        /* \"#utility.yul\":9344:9347   */\n      dup10\n        /* \"#utility.yul\":9340:9359   */\n      add\n        /* \"#utility.yul\":9334:9360   */\n      mload\n        /* \"#utility.yul\":9392:9440   */\n      tag_206\n        /* \"#utility.yul\":9434:9438   */\n      0x1f\n        /* \"#utility.yul\":9426:9432   */\n      dup10\n        /* \"#utility.yul\":9422:9439   */\n      and\n        /* \"#utility.yul\":9411:9420   */\n      dup3\n        /* \"#utility.yul\":9392:9440   */\n      tag_93\n      jump\t// in\n    tag_206:\n        /* \"#utility.yul\":9384:9390   */\n      dup4\n        /* \"#utility.yul\":9377:9441   */\n      sstore\n        /* \"#utility.yul\":9299:9455   */\n      pop\n        /* \"#utility.yul\":9276:9455   */\n    tag_205:\n        /* \"#utility.yul\":9501:9502   */\n      0x01\n        /* \"#utility.yul\":9497:9498   */\n      0x02\n        /* \"#utility.yul\":9489:9495   */\n      dup9\n        /* \"#utility.yul\":9485:9499   */\n      mul\n        /* \"#utility.yul\":9481:9503   */\n      add\n        /* \"#utility.yul\":9475:9479   */\n      dup9\n        /* \"#utility.yul\":9468:9504   */\n      sstore\n        /* \"#utility.yul\":8903:9514   */\n      pop\n      pop\n      pop\n        /* \"#utility.yul\":8866:9753   */\n    tag_197:\n      pop\n        /* \"#utility.yul\":8456:9759   */\n      pop\n      pop\n      pop\n        /* \"#utility.yul\":8364:9759   */\n      pop\n      pop\n      jump\t// out\n        /* \"#utility.yul\":9765:9945   */\n    tag_36:\n        /* \"#utility.yul\":9813:9890   */\n      0x4e487b7100000000000000000000000000000000000000000000000000000000\n        /* \"#utility.yul\":9810:9811   */\n      0x00\n        /* \"#utility.yul\":9803:9891   */\n      mstore\n        /* \"#utility.yul\":9910:9914   */\n      0x32\n        /* \"#utility.yul\":9907:9908   */\n      0x04\n        /* \"#utility.yul\":9900:9915   */\n      mstore\n        /* \"#utility.yul\":9934:9938   */\n      0x24\n        /* \"#utility.yul\":9931:9932   */\n      0x00\n        /* \"#utility.yul\":9924:9939   */\n      revert\n        /* \"#utility.yul\":9951:10048   */\n    tag_95:\n        /* \"#utility.yul\":10010:10016   */\n      0x00\n        /* \"#utility.yul\":10038:10041   */\n      dup3\n        /* \"#utility.yul\":10028:10041   */\n      swap1\n      pop\n        /* \"#utility.yul\":9951:10048   */\n      swap3\n      swap2\n      pop\n      pop\n      jump\t// out\n        /* \"#utility.yul\":10054:11457   */\n    tag_53:\n        /* \"#utility.yul\":10178:10222   */\n      tag_210\n        /* \"#utility.yul\":10218:10221   */\n      dup4\n        /* \"#utility.yul\":10213:10216   */\n      dup4\n        /* \"#utility.yul\":10178:10222   */\n      tag_95\n      jump\t// in\n    tag_210:\n        /* \"#utility.yul\":10287:10305   */\n      0xffffffffffffffff\n        /* \"#utility.yul\":10279:10285   */\n      dup2\n        /* \"#utility.yul\":10276:10306   */\n      gt\n        /* \"#utility.yul\":10273:10329   */\n      iszero\n      tag_211\n      jumpi\n        /* \"#utility.yul\":10309:10327   */\n      tag_212\n      tag_78\n      jump\t// in\n    tag_212:\n        /* \"#utility.yul\":10273:10329   */\n    tag_211:\n        /* \"#utility.yul\":10353:10391   */\n      tag_213\n        /* \"#utility.yul\":10385:10389   */\n      dup3\n        /* \"#utility.yul\":10379:10390   */\n      sload\n        /* \"#utility.yul\":10353:10391   */\n      tag_39\n      jump\t// in\n    tag_213:\n        /* \"#utility.yul\":10438:10505   */\n      tag_214\n        /* \"#utility.yul\":10498:10504   */\n      dup3\n        /* \"#utility.yul\":10490:10496   */\n      dup3\n        /* \"#utility.yul\":10484:10488   */\n      dup6\n        /* \"#utility.yul\":10438:10505   */\n      tag_91\n      jump\t// in\n    tag_214:\n        /* \"#utility.yul\":10532:10533   */\n      0x00\n        /* \"#utility.yul\":10561:10563   */\n      0x1f\n        /* \"#utility.yul\":10553:10559   */\n      dup4\n        /* \"#utility.yul\":10550:10564   */\n      gt\n        /* \"#utility.yul\":10578:10579   */\n      0x01\n        /* \"#utility.yul\":10573:11205   */\n      dup2\n      eq\n      tag_216\n      jumpi\n        /* \"#utility.yul\":11249:11250   */\n      0x00\n        /* \"#utility.yul\":11266:11272   */\n      dup5\n        /* \"#utility.yul\":11263:11347   */\n      iszero\n      tag_217\n      jumpi\n        /* \"#utility.yul\":11322:11331   */\n      dup3\n        /* \"#utility.yul\":11317:11320   */\n      dup8\n        /* \"#utility.yul\":11313:11332   */\n      add\n        /* \"#utility.yul\":11300:11333   */\n      calldataload\n        /* \"#utility.yul\":11291:11333   */\n      swap1\n      pop\n        /* \"#utility.yul\":11263:11347   */\n    tag_217:\n        /* \"#utility.yul\":11373:11440   */\n      tag_218\n        /* \"#utility.yul\":11433:11439   */\n      dup6\n        /* \"#utility.yul\":11426:11431   */\n      dup3\n        /* \"#utility.yul\":11373:11440   */\n      tag_94\n      jump\t// in\n    tag_218:\n        /* \"#utility.yul\":11367:11371   */\n      dup7\n        /* \"#utility.yul\":11360:11441   */\n      sstore\n        /* \"#utility.yul\":11222:11451   */\n      pop\n        /* \"#utility.yul\":10543:11451   */\n      jump(tag_215)\n        /* \"#utility.yul\":10573:11205   */\n    tag_216:\n        /* \"#utility.yul\":10625:10629   */\n      0x1f\n        /* \"#utility.yul\":10621:10630   */\n      not\n        /* \"#utility.yul\":10613:10619   */\n      dup5\n        /* \"#utility.yul\":10609:10631   */\n      and\n        /* \"#utility.yul\":10659:10696   */\n      tag_219\n        /* \"#utility.yul\":10691:10695   */\n      dup7\n        /* \"#utility.yul\":10659:10696   */\n      tag_80\n      jump\t// in\n    tag_219:\n        /* \"#utility.yul\":10718:10719   */\n      0x00\n        /* \"#utility.yul\":10732:10947   */\n    tag_220:\n        /* \"#utility.yul\":10746:10753   */\n      dup3\n        /* \"#utility.yul\":10743:10744   */\n      dup2\n        /* \"#utility.yul\":10740:10754   */\n      lt\n        /* \"#utility.yul\":10732:10947   */\n      iszero\n      tag_222\n      jumpi\n        /* \"#utility.yul\":10832:10841   */\n      dup5\n        /* \"#utility.yul\":10827:10830   */\n      dup10\n        /* \"#utility.yul\":10823:10842   */\n      add\n        /* \"#utility.yul\":10810:10843   */\n      calldataload\n        /* \"#utility.yul\":10802:10808   */\n      dup3\n        /* \"#utility.yul\":10795:10844   */\n      sstore\n        /* \"#utility.yul\":10883:10884   */\n      0x01\n        /* \"#utility.yul\":10875:10881   */\n      dup3\n        /* \"#utility.yul\":10871:10885   */\n      add\n        /* \"#utility.yul\":10861:10885   */\n      swap2\n      pop\n        /* \"#utility.yul\":10930:10932   */\n      0x20\n        /* \"#utility.yul\":10919:10928   */\n      dup6\n        /* \"#utility.yul\":10915:10933   */\n      add\n        /* \"#utility.yul\":10902:10933   */\n      swap5\n      pop\n        /* \"#utility.yul\":10769:10773   */\n      0x20\n        /* \"#utility.yul\":10766:10767   */\n      dup2\n        /* \"#utility.yul\":10762:10774   */\n      add\n        /* \"#utility.yul\":10757:10774   */\n      swap1\n      pop\n        /* \"#utility.yul\":10732:10947   */\n      jump(tag_220)\n    tag_222:\n        /* \"#utility.yul\":10975:10981   */\n      dup7\n        /* \"#utility.yul\":10966:10973   */\n      dup4\n        /* \"#utility.yul\":10963:10982   */\n      lt\n        /* \"#utility.yul\":10960:11146   */\n      iszero\n      tag_223\n      jumpi\n        /* \"#utility.yul\":11040:11049   */\n      dup5\n        /* \"#utility.yul\":11035:11038   */\n      dup10\n        /* \"#utility.yul\":11031:11050   */\n      add\n        /* \"#utility.yul\":11018:11051   */\n      calldataload\n        /* \"#utility.yul\":11083:11131   */\n      tag_224\n        /* \"#utility.yul\":11125:11129   */\n      0x1f\n        /* \"#utility.yul\":11117:11123   */\n      dup10\n        /* \"#utility.yul\":11113:11130   */\n      and\n        /* \"#utility.yul\":11102:11111   */\n      dup3\n        /* \"#utility.yul\":11083:11131   */\n      tag_93\n      jump\t// in\n    tag_224:\n        /* \"#utility.yul\":11075:11081   */\n      dup4\n        /* \"#utility.yul\":11068:11132   */\n      sstore\n        /* \"#utility.yul\":10983:11146   */\n      pop\n        /* \"#utility.yul\":10960:11146   */\n    tag_223:\n        /* \"#utility.yul\":11192:11193   */\n      0x01\n        /* \"#utility.yul\":11188:11189   */\n      0x02\n        /* \"#utility.yul\":11180:11186   */\n      dup9\n        /* \"#utility.yul\":11176:11190   */\n      mul\n        /* \"#utility.yul\":11172:11194   */\n      add\n        /* \"#utility.yul\":11166:11170   */\n      dup9\n        /* \"#utility.yul\":11159:11195   */\n      sstore\n        /* \"#utility.yul\":10580:11205   */\n      pop\n      pop\n      pop\n        /* \"#utility.yul\":10543:11451   */\n    tag_215:\n      pop\n        /* \"#utility.yul\":10153:11457   */\n      pop\n      pop\n      pop\n        /* \"#utility.yul\":10054:11457   */\n      pop\n      pop\n      pop\n      jump\t// out\n\n    auxdata: 0xa2646970667358221220777cf6a1f14991759afdcca0a8a6161e63d9769c2f18ac6f7c9bd21984a226b464736f6c634300081a0033\n}\n",
				"bytecode": {
					"linkReferences": {},
					"object": "6080604052348015600e575f80fd5b50610a3a8061001c5f395ff3fe608060405234801561000f575f80fd5b5060043610610055575f3560e01c806334541fcd1461005957806360cd2685146100755780639353d785146100a6578063ae49eceb146100c2578063bc8bc2b4146100de575b5f80fd5b610073600480360381019061006e919061044c565b61010f565b005b61008f600480360381019061008a91906104ca565b6101c9565b60405161009d92919061057f565b60405180910390f35b6100c060048036038101906100bb91906104ca565b610296565b005b6100dc60048036038101906100d791906105ad565b6102e8565b005b6100f860048036038101906100f391906104ca565b610323565b60405161010692919061057f565b60405180910390f35b5f604051806040016040528084848080601f0160208091040260200160405190810160405280939291908181526020018383808284375f81840152601f19601f8201169050808301925050505050505081526020015f1515815250908060018154018082558091505060019003905f5260205f2090600202015f909190919091505f820151815f0190816101a39190610831565b506020820151816001015f6101000a81548160ff02191690831515021790555050505050565b60605f805f84815481106101e0576101df610900565b5b905f5260205f2090600202019050805f01816001015f9054906101000a900460ff1681805461020e90610664565b80601f016020809104026020016040519081016040528092919081815260200182805461023a90610664565b80156102855780601f1061025c57610100808354040283529160200191610285565b820191905f5260205f20905b81548152906001019060200180831161026857829003601f168201915b505050505091509250925050915091565b5f8082815481106102aa576102a9610900565b5b905f5260205f2090600202019050806001015f9054906101000a900460ff1615816001015f6101000a81548160ff0219169083151502179055505050565b5f8084815481106102fc576102fb610900565b5b905f5260205f20906002020190508282825f01918261031c929190610937565b5050505050565b5f8181548110610331575f80fd5b905f5260205f2090600202015f91509050805f01805461035090610664565b80601f016020809104026020016040519081016040528092919081815260200182805461037c90610664565b80156103c75780601f1061039e576101008083540402835291602001916103c7565b820191905f5260205f20905b8154815290600101906020018083116103aa57829003601f168201915b505050505090806001015f9054906101000a900460ff16905082565b5f80fd5b5f80fd5b5f80fd5b5f80fd5b5f80fd5b5f8083601f84011261040c5761040b6103eb565b5b8235905067ffffffffffffffff811115610429576104286103ef565b5b602083019150836001820283011115610445576104446103f3565b5b9250929050565b5f8060208385031215610462576104616103e3565b5b5f83013567ffffffffffffffff81111561047f5761047e6103e7565b5b61048b858286016103f7565b92509250509250929050565b5f819050919050565b6104a981610497565b81146104b3575f80fd5b50565b5f813590506104c4816104a0565b92915050565b5f602082840312156104df576104de6103e3565b5b5f6104ec848285016104b6565b91505092915050565b5f81519050919050565b5f82825260208201905092915050565b8281835e5f83830152505050565b5f601f19601f8301169050919050565b5f610537826104f5565b61054181856104ff565b935061055181856020860161050f565b61055a8161051d565b840191505092915050565b5f8115159050919050565b61057981610565565b82525050565b5f6040820190508181035f830152610597818561052d565b90506105a66020830184610570565b9392505050565b5f805f604084860312156105c4576105c36103e3565b5b5f6105d1868287016104b6565b935050602084013567ffffffffffffffff8111156105f2576105f16103e7565b5b6105fe868287016103f7565b92509250509250925092565b7f4e487b71000000000000000000000000000000000000000000000000000000005f52604160045260245ffd5b7f4e487b71000000000000000000000000000000000000000000000000000000005f52602260045260245ffd5b5f600282049050600182168061067b57607f821691505b60208210810361068e5761068d610637565b5b50919050565b5f819050815f5260205f209050919050565b5f6020601f8301049050919050565b5f82821b905092915050565b5f600883026106f07fffffffffffffffffffffffffffffffffffffffffffffffffffffffffffffffff826106b5565b6106fa86836106b5565b95508019841693508086168417925050509392505050565b5f819050919050565b5f61073561073061072b84610497565b610712565b610497565b9050919050565b5f819050919050565b61074e8361071b565b61076261075a8261073c565b8484546106c1565b825550505050565b5f90565b61077661076a565b610781818484610745565b505050565b5b818110156107a4576107995f8261076e565b600181019050610787565b5050565b601f8211156107e9576107ba81610694565b6107c3846106a6565b810160208510156107d2578190505b6107e66107de856106a6565b830182610786565b50505b505050565b5f82821c905092915050565b5f6108095f19846008026107ee565b1980831691505092915050565b5f61082183836107fa565b9150826002028217905092915050565b61083a826104f5565b67ffffffffffffffff8111156108535761085261060a565b5b61085d8254610664565b6108688282856107a8565b5f60209050601f831160018114610899575f8415610887578287015190505b6108918582610816565b8655506108f8565b601f1984166108a786610694565b5f5b828110156108ce578489015182556001820191506020850194506020810190506108a9565b868310156108eb57848901516108e7601f8916826107fa565b8355505b6001600288020188555050505b505050505050565b7f4e487b71000000000000000000000000000000000000000000000000000000005f52603260045260245ffd5b5f82905092915050565b610941838361092d565b67ffffffffffffffff81111561095a5761095961060a565b5b6109648254610664565b61096f8282856107a8565b5f601f83116001811461099c575f841561098a578287013590505b6109948582610816565b8655506109fb565b601f1984166109aa86610694565b5f5b828110156109d1578489013582556001820191506020850194506020810190506109ac565b868310156109ee57848901356109ea601f8916826107fa565b8355505b6001600288020188555050505b5050505050505056fea2646970667358221220777cf6a1f14991759afdcca0a8a6161e63d9769c2f18ac6f7c9bd21984a226b464736f6c634300081a0033",
					"opcodes": "PUSH1 0x80 PUSH1 0x40 MSTORE CALLVALUE DUP1 ISZERO PUSH1 0xE JUMPI PUSH0 DUP1 REVERT JUMPDEST POP PUSH2 0xA3A DUP1 PUSH2 0x1C PUSH0 CODECOPY PUSH0 RETURN INVALID PUSH1 0x80 PUSH1 0x40 MSTORE CALLVALUE DUP1 ISZERO PUSH2 0xF JUMPI PUSH0 DUP1 REVERT JUMPDEST POP PUSH1 0x4 CALLDATASIZE LT PUSH2 0x55 JUMPI PUSH0 CALLDATALOAD PUSH1 0xE0 SHR DUP1 PUSH4 0x34541FCD EQ PUSH2 0x59 JUMPI DUP1 PUSH4 0x60CD2685 EQ PUSH2 0x75 JUMPI DUP1 PUSH4 0x9353D785 EQ PUSH2 0xA6 JUMPI DUP1 PUSH4 0xAE49ECEB EQ PUSH2 0xC2 JUMPI DUP1 PUSH4 0xBC8BC2B4 EQ PUSH2 0xDE JUMPI JUMPDEST PUSH0 DUP1 REVERT JUMPDEST PUSH2 0x73 PUSH1 0x4 DUP1 CALLDATASIZE SUB DUP2 ADD SWAP1 PUSH2 0x6E SWAP2 SWAP1 PUSH2 0x44C JUMP JUMPDEST PUSH2 0x10F JUMP JUMPDEST STOP JUMPDEST PUSH2 0x8F PUSH1 0x4 DUP1 CALLDATASIZE SUB DUP2 ADD SWAP1 PUSH2 0x8A SWAP2 SWAP1 PUSH2 0x4CA JUMP JUMPDEST PUSH2 0x1C9 JUMP JUMPDEST PUSH1 0x40 MLOAD PUSH2 0x9D SWAP3 SWAP2 SWAP1 PUSH2 0x57F JUMP JUMPDEST PUSH1 0x40 MLOAD DUP1 SWAP2 SUB SWAP1 RETURN JUMPDEST PUSH2 0xC0 PUSH1 0x4 DUP1 CALLDATASIZE SUB DUP2 ADD SWAP1 PUSH2 0xBB SWAP2 SWAP1 PUSH2 0x4CA JUMP JUMPDEST PUSH2 0x296 JUMP JUMPDEST STOP JUMPDEST PUSH2 0xDC PUSH1 0x4 DUP1 CALLDATASIZE SUB DUP2 ADD SWAP1 PUSH2 0xD7 SWAP2 SWAP1 PUSH2 0x5AD JUMP JUMPDEST PUSH2 0x2E8 JUMP JUMPDEST STOP JUMPDEST PUSH2 0xF8 PUSH1 0x4 DUP1 CALLDATASIZE SUB DUP2 ADD SWAP1 PUSH2 0xF3 SWAP2 SWAP1 PUSH2 0x4CA JUMP JUMPDEST PUSH2 0x323 JUMP JUMPDEST PUSH1 0x40 MLOAD PUSH2 0x106 SWAP3 SWAP2 SWAP1 PUSH2 0x57F JUMP JUMPDEST PUSH1 0x40 MLOAD DUP1 SWAP2 SUB SWAP1 RETURN JUMPDEST PUSH0 PUSH1 0x40 MLOAD DUP1 PUSH1 0x40 ADD PUSH1 0x40 MSTORE DUP1 DUP5 DUP5 DUP1 DUP1 PUSH1 0x1F ADD PUSH1 0x20 DUP1 SWAP2 DIV MUL PUSH1 0x20 ADD PUSH1 0x40 MLOAD SWAP1 DUP2 ADD PUSH1 0x40 MSTORE DUP1 SWAP4 SWAP3 SWAP2 SWAP1 DUP2 DUP2 MSTORE PUSH1 0x20 ADD DUP4 DUP4 DUP1 DUP3 DUP5 CALLDATACOPY PUSH0 DUP2 DUP5 ADD MSTORE PUSH1 0x1F NOT PUSH1 0x1F DUP3 ADD AND SWAP1 POP DUP1 DUP4 ADD SWAP3 POP POP POP POP POP POP POP DUP2 MSTORE PUSH1 0x20 ADD PUSH0 ISZERO ISZERO DUP2 MSTORE POP SWAP1 DUP1 PUSH1 0x1 DUP2 SLOAD ADD DUP1 DUP3 SSTORE DUP1 SWAP2 POP POP PUSH1 0x1 SWAP1 SUB SWAP1 PUSH0 MSTORE PUSH1 0x20 PUSH0 KECCAK256 SWAP1 PUSH1 0x2 MUL ADD PUSH0 SWAP1 SWAP2 SWAP1 SWAP2 SWAP1 SWAP2 POP PUSH0 DUP3 ADD MLOAD DUP2 PUSH0 ADD SWAP1 DUP2 PUSH2 0x1A3 SWAP2 SWAP1 PUSH2 0x831 JUMP JUMPDEST POP PUSH1 0x20 DUP3 ADD MLOAD DUP2 PUSH1 0x1 ADD PUSH0 PUSH2 0x100 EXP DUP2 SLOAD DUP2 PUSH1 0xFF MUL NOT AND SWAP1 DUP4 ISZERO ISZERO MUL OR SWAP1 SSTORE POP POP POP POP POP JUMP JUMPDEST PUSH1 0x60 PUSH0 DUP1 PUSH0 DUP5 DUP2 SLOAD DUP2 LT PUSH2 0x1E0 JUMPI PUSH2 0x1DF PUSH2 0x900 JUMP JUMPDEST JUMPDEST SWAP1 PUSH0 MSTORE PUSH1 0x20 PUSH0 KECCAK256 SWAP1 PUSH1 0x2 MUL ADD SWAP1 POP DUP1 PUSH0 ADD DUP2 PUSH1 0x1 ADD PUSH0 SWAP1 SLOAD SWAP1 PUSH2 0x100 EXP SWAP1 DIV PUSH1 0xFF AND DUP2 DUP1 SLOAD PUSH2 0x20E SWAP1 PUSH2 0x664 JUMP JUMPDEST DUP1 PUSH1 0x1F ADD PUSH1 0x20 DUP1 SWAP2 DIV MUL PUSH1 0x20 ADD PUSH1 0x40 MLOAD SWAP1 DUP2 ADD PUSH1 0x40 MSTORE DUP1 SWAP3 SWAP2 SWAP1 DUP2 DUP2 MSTORE PUSH1 0x20 ADD DUP3 DUP1 SLOAD PUSH2 0x23A SWAP1 PUSH2 0x664 JUMP JUMPDEST DUP1 ISZERO PUSH2 0x285 JUMPI DUP1 PUSH1 0x1F LT PUSH2 0x25C JUMPI PUSH2 0x100 DUP1 DUP4 SLOAD DIV MUL DUP4 MSTORE SWAP2 PUSH1 0x20 ADD SWAP2 PUSH2 0x285 JUMP JUMPDEST DUP3 ADD SWAP2 SWAP1 PUSH0 MSTORE PUSH1 0x20 PUSH0 KECCAK256 SWAP1 JUMPDEST DUP2 SLOAD DUP2 MSTORE SWAP1 PUSH1 0x1 ADD SWAP1 PUSH1 0x20 ADD DUP1 DUP4 GT PUSH2 0x268 JUMPI DUP3 SWAP1 SUB PUSH1 0x1F AND DUP3 ADD SWAP2 JUMPDEST POP POP POP POP POP SWAP2 POP SWAP3 POP SWAP3 POP POP SWAP2 POP SWAP2 JUMP JUMPDEST PUSH0 DUP1 DUP3 DUP2 SLOAD DUP2 LT PUSH2 0x2AA JUMPI PUSH2 0x2A9 PUSH2 0x900 JUMP JUMPDEST JUMPDEST SWAP1 PUSH0 MSTORE PUSH1 0x20 PUSH0 KECCAK256 SWAP1 PUSH1 0x2 MUL ADD SWAP1 POP DUP1 PUSH1 0x1 ADD PUSH0 SWAP1 SLOAD SWAP1 PUSH2 0x100 EXP SWAP1 DIV PUSH1 0xFF AND ISZERO DUP2 PUSH1 0x1 ADD PUSH0 PUSH2 0x100 EXP DUP2 SLOAD DUP2 PUSH1 0xFF MUL NOT AND SWAP1 DUP4 ISZERO ISZERO MUL OR SWAP1 SSTORE POP POP POP JUMP JUMPDEST PUSH0 DUP1 DUP5 DUP2 SLOAD DUP2 LT PUSH2 0x2FC JUMPI PUSH2 0x2FB PUSH2 0x900 JUMP JUMPDEST JUMPDEST SWAP1 PUSH0 MSTORE PUSH1 0x20 PUSH0 KECCAK256 SWAP1 PUSH1 0x2 MUL ADD SWAP1 POP DUP3 DUP3 DUP3 PUSH0 ADD SWAP2 DUP3 PUSH2 0x31C SWAP3 SWAP2 SWAP1 PUSH2 0x937 JUMP JUMPDEST POP POP POP POP POP JUMP JUMPDEST PUSH0 DUP2 DUP2 SLOAD DUP2 LT PUSH2 0x331 JUMPI PUSH0 DUP1 REVERT JUMPDEST SWAP1 PUSH0 MSTORE PUSH1 0x20 PUSH0 KECCAK256 SWAP1 PUSH1 0x2 MUL ADD PUSH0 SWAP2 POP SWAP1 POP DUP1 PUSH0 ADD DUP1 SLOAD PUSH2 0x350 SWAP1 PUSH2 0x664 JUMP JUMPDEST DUP1 PUSH1 0x1F ADD PUSH1 0x20 DUP1 SWAP2 DIV MUL PUSH1 0x20 ADD PUSH1 0x40 MLOAD SWAP1 DUP2 ADD PUSH1 0x40 MSTORE DUP1 SWAP3 SWAP2 SWAP1 DUP2 DUP2 MSTORE PUSH1 0x20 ADD DUP3 DUP1 SLOAD PUSH2 0x37C SWAP1 PUSH2 0x664 JUMP JUMPDEST DUP1 ISZERO PUSH2 0x3C7 JUMPI DUP1 PUSH1 0x1F LT PUSH2 0x39E JUMPI PUSH2 0x100 DUP1 DUP4 SLOAD DIV MUL DUP4 MSTORE SWAP2 PUSH1 0x20 ADD SWAP2 PUSH2 0x3C7 JUMP JUMPDEST DUP3 ADD SWAP2 SWAP1 PUSH0 MSTORE PUSH1 0x20 PUSH0 KECCAK256 SWAP1 JUMPDEST DUP2 SLOAD DUP2 MSTORE SWAP1 PUSH1 0x1 ADD SWAP1 PUSH1 0x20 ADD DUP1 DUP4 GT PUSH2 0x3AA JUMPI DUP3 SWAP1 SUB PUSH1 0x1F AND DUP3 ADD SWAP2 JUMPDEST POP POP POP POP POP SWAP1 DUP1 PUSH1 0x1 ADD PUSH0 SWAP1 SLOAD SWAP1 PUSH2 0x100 EXP SWAP1 DIV PUSH1 0xFF AND SWAP1 POP DUP3 JUMP JUMPDEST PUSH0 DUP1 REVERT JUMPDEST PUSH0 DUP1 REVERT JUMPDEST PUSH0 DUP1 REVERT JUMPDEST PUSH0 DUP1 REVERT JUMPDEST PUSH0 DUP1 REVERT JUMPDEST PUSH0 DUP1 DUP4 PUSH1 0x1F DUP5 ADD SLT PUSH2 0x40C JUMPI PUSH2 0x40B PUSH2 0x3EB JUMP JUMPDEST JUMPDEST DUP3 CALLDATALOAD SWAP1 POP PUSH8 0xFFFFFFFFFFFFFFFF DUP2 GT ISZERO PUSH2 0x429 JUMPI PUSH2 0x428 PUSH2 0x3EF JUMP JUMPDEST JUMPDEST PUSH1 0x20 DUP4 ADD SWAP2 POP DUP4 PUSH1 0x1 DUP3 MUL DUP4 ADD GT ISZERO PUSH2 0x445 JUMPI PUSH2 0x444 PUSH2 0x3F3 JUMP JUMPDEST JUMPDEST SWAP3 POP SWAP3 SWAP1 POP JUMP JUMPDEST PUSH0 DUP1 PUSH1 0x20 DUP4 DUP6 SUB SLT ISZERO PUSH2 0x462 JUMPI PUSH2 0x461 PUSH2 0x3E3 JUMP JUMPDEST JUMPDEST PUSH0 DUP4 ADD CALLDATALOAD PUSH8 0xFFFFFFFFFFFFFFFF DUP2 GT ISZERO PUSH2 0x47F JUMPI PUSH2 0x47E PUSH2 0x3E7 JUMP JUMPDEST JUMPDEST PUSH2 0x48B DUP6 DUP3 DUP7 ADD PUSH2 0x3F7 JUMP JUMPDEST SWAP3 POP SWAP3 POP POP SWAP3 POP SWAP3 SWAP1 POP JUMP JUMPDEST PUSH0 DUP2 SWAP1 POP SWAP2 SWAP1 POP JUMP JUMPDEST PUSH2 0x4A9 DUP2 PUSH2 0x497 JUMP JUMPDEST DUP2 EQ PUSH2 0x4B3 JUMPI PUSH0 DUP1 REVERT JUMPDEST POP JUMP JUMPDEST PUSH0 DUP2 CALLDATALOAD SWAP1 POP PUSH2 0x4C4 DUP2 PUSH2 0x4A0 JUMP JUMPDEST SWAP3 SWAP2 POP POP JUMP JUMPDEST PUSH0 PUSH1 0x20 DUP3 DUP5 SUB SLT ISZERO PUSH2 0x4DF JUMPI PUSH2 0x4DE PUSH2 0x3E3 JUMP JUMPDEST JUMPDEST PUSH0 PUSH2 0x4EC DUP5 DUP3 DUP6 ADD PUSH2 0x4B6 JUMP JUMPDEST SWAP2 POP POP SWAP3 SWAP2 POP POP JUMP JUMPDEST PUSH0 DUP2 MLOAD SWAP1 POP SWAP2 SWAP1 POP JUMP JUMPDEST PUSH0 DUP3 DUP3 MSTORE PUSH1 0x20 DUP3 ADD SWAP1 POP SWAP3 SWAP2 POP POP JUMP JUMPDEST DUP3 DUP2 DUP4 MCOPY PUSH0 DUP4 DUP4 ADD MSTORE POP POP POP JUMP JUMPDEST PUSH0 PUSH1 0x1F NOT PUSH1 0x1F DUP4 ADD AND SWAP1 POP SWAP2 SWAP1 POP JUMP JUMPDEST PUSH0 PUSH2 0x537 DUP3 PUSH2 0x4F5 JUMP JUMPDEST PUSH2 0x541 DUP2 DUP6 PUSH2 0x4FF JUMP JUMPDEST SWAP4 POP PUSH2 0x551 DUP2 DUP6 PUSH1 0x20 DUP7 ADD PUSH2 0x50F JUMP JUMPDEST PUSH2 0x55A DUP2 PUSH2 0x51D JUMP JUMPDEST DUP5 ADD SWAP2 POP POP SWAP3 SWAP2 POP POP JUMP JUMPDEST PUSH0 DUP2 ISZERO ISZERO SWAP1 POP SWAP2 SWAP1 POP JUMP JUMPDEST PUSH2 0x579 DUP2 PUSH2 0x565 JUMP JUMPDEST DUP3 MSTORE POP POP JUMP JUMPDEST PUSH0 PUSH1 0x40 DUP3 ADD SWAP1 POP DUP2 DUP2 SUB PUSH0 DUP4 ADD MSTORE PUSH2 0x597 DUP2 DUP6 PUSH2 0x52D JUMP JUMPDEST SWAP1 POP PUSH2 0x5A6 PUSH1 0x20 DUP4 ADD DUP5 PUSH2 0x570 JUMP JUMPDEST SWAP4 SWAP3 POP POP POP JUMP JUMPDEST PUSH0 DUP1 PUSH0 PUSH1 0x40 DUP5 DUP7 SUB SLT ISZERO PUSH2 0x5C4 JUMPI PUSH2 0x5C3 PUSH2 0x3E3 JUMP JUMPDEST JUMPDEST PUSH0 PUSH2 0x5D1 DUP7 DUP3 DUP8 ADD PUSH2 0x4B6 JUMP JUMPDEST SWAP4 POP POP PUSH1 0x20 DUP5 ADD CALLDATALOAD PUSH8 0xFFFFFFFFFFFFFFFF DUP2 GT ISZERO PUSH2 0x5F2 JUMPI PUSH2 0x5F1 PUSH2 0x3E7 JUMP JUMPDEST JUMPDEST PUSH2 0x5FE DUP7 DUP3 DUP8 ADD PUSH2 0x3F7 JUMP JUMPDEST SWAP3 POP SWAP3 POP POP SWAP3 POP SWAP3 POP SWAP3 JUMP JUMPDEST PUSH32 0x4E487B7100000000000000000000000000000000000000000000000000000000 PUSH0 MSTORE PUSH1 0x41 PUSH1 0x4 MSTORE PUSH1 0x24 PUSH0 REVERT JUMPDEST PUSH32 0x4E487B7100000000000000000000000000000000000000000000000000000000 PUSH0 MSTORE PUSH1 0x22 PUSH1 0x4 MSTORE PUSH1 0x24 PUSH0 REVERT JUMPDEST PUSH0 PUSH1 0x2 DUP3 DIV SWAP1 POP PUSH1 0x1 DUP3 AND DUP1 PUSH2 0x67B JUMPI PUSH1 0x7F DUP3 AND SWAP2 POP JUMPDEST PUSH1 0x20 DUP3 LT DUP2 SUB PUSH2 0x68E JUMPI PUSH2 0x68D PUSH2 0x637 JUMP JUMPDEST JUMPDEST POP SWAP2 SWAP1 POP JUMP JUMPDEST PUSH0 DUP2 SWAP1 POP DUP2 PUSH0 MSTORE PUSH1 0x20 PUSH0 KECCAK256 SWAP1 POP SWAP2 SWAP1 POP JUMP JUMPDEST PUSH0 PUSH1 0x20 PUSH1 0x1F DUP4 ADD DIV SWAP1 POP SWAP2 SWAP1 POP JUMP JUMPDEST PUSH0 DUP3 DUP3 SHL SWAP1 POP SWAP3 SWAP2 POP POP JUMP JUMPDEST PUSH0 PUSH1 0x8 DUP4 MUL PUSH2 0x6F0 PUSH32 0xFFFFFFFFFFFFFFFFFFFFFFFFFFFFFFFFFFFFFFFFFFFFFFFFFFFFFFFFFFFFFFFF DUP3 PUSH2 0x6B5 JUMP JUMPDEST PUSH2 0x6FA DUP7 DUP4 PUSH2 0x6B5 JUMP JUMPDEST SWAP6 POP DUP1 NOT DUP5 AND SWAP4 POP DUP1 DUP7 AND DUP5 OR SWAP3 POP POP POP SWAP4 SWAP3 POP POP POP JUMP JUMPDEST PUSH0 DUP2 SWAP1 POP SWAP2 SWAP1 POP JUMP JUMPDEST PUSH0 PUSH2 0x735 PUSH2 0x730 PUSH2 0x72B DUP5 PUSH2 0x497 JUMP JUMPDEST PUSH2 0x712 JUMP JUMPDEST PUSH2 0x497 JUMP JUMPDEST SWAP1 POP SWAP2 SWAP1 POP JUMP JUMPDEST PUSH0 DUP2 SWAP1 POP SWAP2 SWAP1 POP JUMP JUMPDEST PUSH2 0x74E DUP4 PUSH2 0x71B JUMP JUMPDEST PUSH2 0x762 PUSH2 0x75A DUP3 PUSH2 0x73C JUMP JUMPDEST DUP5 DUP5 SLOAD PUSH2 0x6C1 JUMP JUMPDEST DUP3 SSTORE POP POP POP POP JUMP JUMPDEST PUSH0 SWAP1 JUMP JUMPDEST PUSH2 0x776 PUSH2 0x76A JUMP JUMPDEST PUSH2 0x781 DUP2 DUP5 DUP5 PUSH2 0x745 JUMP JUMPDEST POP POP POP JUMP JUMPDEST JUMPDEST DUP2 DUP2 LT ISZERO PUSH2 0x7A4 JUMPI PUSH2 0x799 PUSH0 DUP3 PUSH2 0x76E JUMP JUMPDEST PUSH1 0x1 DUP2 ADD SWAP1 POP PUSH2 0x787 JUMP JUMPDEST POP POP JUMP JUMPDEST PUSH1 0x1F DUP3 GT ISZERO PUSH2 0x7E9 JUMPI PUSH2 0x7BA DUP2 PUSH2 0x694 JUMP JUMPDEST PUSH2 0x7C3 DUP5 PUSH2 0x6A6 JUMP JUMPDEST DUP2 ADD PUSH1 0x20 DUP6 LT ISZERO PUSH2 0x7D2 JUMPI DUP2 SWAP1 POP JUMPDEST PUSH2 0x7E6 PUSH2 0x7DE DUP6 PUSH2 0x6A6 JUMP JUMPDEST DUP4 ADD DUP3 PUSH2 0x786 JUMP JUMPDEST POP POP JUMPDEST POP POP POP JUMP JUMPDEST PUSH0 DUP3 DUP3 SHR SWAP1 POP SWAP3 SWAP2 POP POP JUMP JUMPDEST PUSH0 PUSH2 0x809 PUSH0 NOT DUP5 PUSH1 0x8 MUL PUSH2 0x7EE JUMP JUMPDEST NOT DUP1 DUP4 AND SWAP2 POP POP SWAP3 SWAP2 POP POP JUMP JUMPDEST PUSH0 PUSH2 0x821 DUP4 DUP4 PUSH2 0x7FA JUMP JUMPDEST SWAP2 POP DUP3 PUSH1 0x2 MUL DUP3 OR SWAP1 POP SWAP3 SWAP2 POP POP JUMP JUMPDEST PUSH2 0x83A DUP3 PUSH2 0x4F5 JUMP JUMPDEST PUSH8 0xFFFFFFFFFFFFFFFF DUP2 GT ISZERO PUSH2 0x853 JUMPI PUSH2 0x852 PUSH2 0x60A JUMP JUMPDEST JUMPDEST PUSH2 0x85D DUP3 SLOAD PUSH2 0x664 JUMP JUMPDEST PUSH2 0x868 DUP3 DUP3 DUP6 PUSH2 0x7A8 JUMP JUMPDEST PUSH0 PUSH1 0x20 SWAP1 POP PUSH1 0x1F DUP4 GT PUSH1 0x1 DUP2 EQ PUSH2 0x899 JUMPI PUSH0 DUP5 ISZERO PUSH2 0x887 JUMPI DUP3 DUP8 ADD MLOAD SWAP1 POP JUMPDEST PUSH2 0x891 DUP6 DUP3 PUSH2 0x816 JUMP JUMPDEST DUP7 SSTORE POP PUSH2 0x8F8 JUMP JUMPDEST PUSH1 0x1F NOT DUP5 AND PUSH2 0x8A7 DUP7 PUSH2 0x694 JUMP JUMPDEST PUSH0 JUMPDEST DUP3 DUP2 LT ISZERO PUSH2 0x8CE JUMPI DUP5 DUP10 ADD MLOAD DUP3 SSTORE PUSH1 0x1 DUP3 ADD SWAP2 POP PUSH1 0x20 DUP6 ADD SWAP5 POP PUSH1 0x20 DUP2 ADD SWAP1 POP PUSH2 0x8A9 JUMP JUMPDEST DUP7 DUP4 LT ISZERO PUSH2 0x8EB JUMPI DUP5 DUP10 ADD MLOAD PUSH2 0x8E7 PUSH1 0x1F DUP10 AND DUP3 PUSH2 0x7FA JUMP JUMPDEST DUP4 SSTORE POP JUMPDEST PUSH1 0x1 PUSH1 0x2 DUP9 MUL ADD DUP9 SSTORE POP POP POP JUMPDEST POP POP POP POP POP POP JUMP JUMPDEST PUSH32 0x4E487B7100000000000000000000000000000000000000000000000000000000 PUSH0 MSTORE PUSH1 0x32 PUSH1 0x4 MSTORE PUSH1 0x24 PUSH0 REVERT JUMPDEST PUSH0 DUP3 SWAP1 POP SWAP3 SWAP2 POP POP JUMP JUMPDEST PUSH2 0x941 DUP4 DUP4 PUSH2 0x92D JUMP JUMPDEST PUSH8 0xFFFFFFFFFFFFFFFF DUP2 GT ISZERO PUSH2 0x95A JUMPI PUSH2 0x959 PUSH2 0x60A JUMP JUMPDEST JUMPDEST PUSH2 0x964 DUP3 SLOAD PUSH2 0x664 JUMP JUMPDEST PUSH2 0x96F DUP3 DUP3 DUP6 PUSH2 0x7A8 JUMP JUMPDEST PUSH0 PUSH1 0x1F DUP4 GT PUSH1 0x1 DUP2 EQ PUSH2 0x99C JUMPI PUSH0 DUP5 ISZERO PUSH2 0x98A JUMPI DUP3 DUP8 ADD CALLDATALOAD SWAP1 POP JUMPDEST PUSH2 0x994 DUP6 DUP3 PUSH2 0x816 JUMP JUMPDEST DUP7 SSTORE POP PUSH2 0x9FB JUMP JUMPDEST PUSH1 0x1F NOT DUP5 AND PUSH2 0x9AA DUP7 PUSH2 0x694 JUMP JUMPDEST PUSH0 JUMPDEST DUP3 DUP2 LT ISZERO PUSH2 0x9D1 JUMPI DUP5 DUP10 ADD CALLDATALOAD DUP3 SSTORE PUSH1 0x1 DUP3 ADD SWAP2 POP PUSH1 0x20 DUP6 ADD SWAP5 POP PUSH1 0x20 DUP2 ADD SWAP1 POP PUSH2 0x9AC JUMP JUMPDEST DUP7 DUP4 LT ISZERO PUSH2 0x9EE JUMPI DUP5 DUP10 ADD CALLDATALOAD PUSH2 0x9EA PUSH1 0x1F DUP10 AND DUP3 PUSH2 0x7FA JUMP JUMPDEST DUP4 SSTORE POP JUMPDEST PUSH1 0x1 PUSH1 0x2 DUP9 MUL ADD DUP9 SSTORE POP POP POP JUMPDEST POP POP POP POP POP POP POP JUMP INVALID LOG2 PUSH5 0x6970667358 0x22 SLT KECCAK256 PUSH24 0x7CF6A1F14991759AFDCCA0A8A6161E63D9769C2F18AC6F7C SWAP12 0xD2 NOT DUP5 LOG2 0x26 0xB4 PUSH5 0x736F6C6343 STOP ADDMOD BYTE STOP CALLER "
				},
				"gasEstimates": {
					"creation": {
						"codeDepositCost": "523600",
						"executionCost": "554",
						"totalCost": "524154"
					},
					"external": {
						"Get(uint256)": "infinite",
						"Set(string)": "infinite",
						"UpdateCompleted(uint256)": "29040",
						"UpdateTask(uint256,string)": "infinite",
						"todos(uint256)": "infinite"
					}
				},
				"methodIdentifiers": {
					"Get(uint256)": "60cd2685",
					"Set(string)": "34541fcd",
					"UpdateCompleted(uint256)": "9353d785",
					"UpdateTask(uint256,string)": "ae49eceb",
					"todos(uint256)": "bc8bc2b4"
				}
			},
			"storageLayout": {
				"storage": [
					{
						"astId": 10,
						"contract": "contracts/28 struct.sol:BasicStruct",
						"label": "todos",
						"offset": 0,
						"slot": "0",
						"type": "t_array(t_struct(Todo)6_storage)dyn_storage"
					}
				],
				"types": {
					"t_array(t_struct(Todo)6_storage)dyn_storage": {
						"base": "t_struct(Todo)6_storage",
						"encoding": "dynamic_array",
						"label": "struct BasicStruct.Todo[]",
						"numberOfBytes": "32"
					},
					"t_bool": {
						"encoding": "inplace",
						"label": "bool",
						"numberOfBytes": "1"
					},
					"t_string_storage": {
						"encoding": "bytes",
						"label": "string",
						"numberOfBytes": "32"
					},
					"t_struct(Todo)6_storage": {
						"encoding": "inplace",
						"label": "struct BasicStruct.Todo",
						"members": [
							{
								"astId": 3,
								"contract": "contracts/28 struct.sol:BasicStruct",
								"label": "nameTask",
								"offset": 0,
								"slot": "0",
								"type": "t_string_storage"
							},
							{
								"astId": 5,
								"contract": "contracts/28 struct.sol:BasicStruct",
								"label": "completed",
								"offset": 0,
								"slot": "1",
								"type": "t_bool"
							}
						],
						"numberOfBytes": "64"
					}
				}
			},
			"userdoc": {
				"kind": "user",
				"methods": {},
				"version": 1
			}
		}
	}
}