{
	"contracts/31 events advance.sol": {
		"EventDriverArchitecture": {
			"abi": [
				{
					"anonymous": false,
					"inputs": [
						{
							"indexed": true,
							"internalType": "address",
							"name": "from",
							"type": "address"
						},
						{
							"indexed": true,
							"internalType": "address",
							"name": "to",
							"type": "address"
						},
						{
							"indexed": false,
							"internalType": "uint256",
							"name": "value",
							"type": "uint256"
						}
					],
					"name": "TransferConfirmed",
					"type": "event"
				},
				{
					"anonymous": false,
					"inputs": [
						{
							"indexed": true,
							"internalType": "address",
							"name": "from",
							"type": "address"
						},
						{
							"indexed": true,
							"internalType": "address",
							"name": "to",
							"type": "address"
						},
						{
							"indexed": false,
							"internalType": "uint256",
							"name": "value",
							"type": "uint256"
						},
						{
							"indexed": false,
							"internalType": "bytes32",
							"name": "transferId",
							"type": "bytes32"
						}
					],
					"name": "TransferInitiated",
					"type": "event"
				},
				{
					"inputs": [
						{
							"internalType": "bytes32",
							"name": "",
							"type": "bytes32"
						}
					],
					"name": "TransferConfirmations",
					"outputs": [
						{
							"internalType": "bool",
							"name": "confirmed",
							"type": "bool"
						},
						{
							"internalType": "uint256",
							"name": "confirmedAt",
							"type": "uint256"
						},
						{
							"internalType": "address",
							"name": "confirmedBy",
							"type": "address"
						}
					],
					"stateMutability": "view",
					"type": "function"
				},
				{
					"inputs": [
						{
							"internalType": "bytes32",
							"name": "transferId",
							"type": "bytes32"
						}
					],
					"name": "confirmTransfer",
					"outputs": [],
					"stateMutability": "nonpayable",
					"type": "function"
				},
				{
					"inputs": [
						{
							"internalType": "address",
							"name": "to",
							"type": "address"
						},
						{
							"internalType": "uint256",
							"name": "value",
							"type": "uint256"
						}
					],
					"name": "initiateTransfer",
					"outputs": [],
					"stateMutability": "nonpayable",
					"type": "function"
				},
				{
					"inputs": [
						{
							"internalType": "bytes32",
							"name": "",
							"type": "bytes32"
						}
					],
					"name": "initiatedTransfer",
					"outputs": [
						{
							"internalType": "address",
							"name": "from",
							"type": "address"
						},
						{
							"internalType": "address",
							"name": "to",
							"type": "address"
						},
						{
							"internalType": "uint256",
							"name": "value",
							"type": "uint256"
						},
						{
							"internalType": "bool",
							"name": "exist",
							"type": "bool"
						}
					],
					"stateMutability": "view",
					"type": "function"
				}
			],
			"devdoc": {
				"kind": "dev",
				"methods": {},
				"version": 1
			},
			"evm": {
				"assembly": "    /* \"contracts/31 events advance.sol\":57:1515  contract EventDriverArchitecture{... */\n  mstore(0x40, 0x80)\n  callvalue\n  dup1\n  iszero\n  tag_1\n  jumpi\n  0x00\n  dup1\n  revert\ntag_1:\n  pop\n  dataSize(sub_0)\n  dup1\n  dataOffset(sub_0)\n  0x00\n  codecopy\n  0x00\n  return\nstop\n\nsub_0: assembly {\n        /* \"contracts/31 events advance.sol\":57:1515  contract EventDriverArchitecture{... */\n      mstore(0x40, 0x80)\n      callvalue\n      dup1\n      iszero\n      tag_1\n      jumpi\n      0x00\n      dup1\n      revert\n    tag_1:\n      pop\n      jumpi(tag_2, lt(calldatasize, 0x04))\n      shr(0xe0, calldataload(0x00))\n      dup1\n      0x14aa2a9b\n      eq\n      tag_3\n      jumpi\n      dup1\n      0x36a55b38\n      eq\n      tag_4\n      jumpi\n      dup1\n      0xb504cd1e\n      eq\n      tag_5\n      jumpi\n      dup1\n      0xef7beec3\n      eq\n      tag_6\n      jumpi\n    tag_2:\n      0x00\n      dup1\n      revert\n        /* \"contracts/31 events advance.sol\":571:639  mapping(bytes32=> TransferConfirmation) public TransferConfirmations */\n    tag_3:\n      tag_7\n      0x04\n      dup1\n      calldatasize\n      sub\n      dup2\n      add\n      swap1\n      tag_8\n      swap2\n      swap1\n      tag_9\n      jump\t// in\n    tag_8:\n      tag_10\n      jump\t// in\n    tag_7:\n      mload(0x40)\n      tag_11\n      swap4\n      swap3\n      swap2\n      swap1\n      tag_12\n      jump\t// in\n    tag_11:\n      mload(0x40)\n      dup1\n      swap2\n      sub\n      swap1\n      return\n        /* \"contracts/31 events advance.sol\":1268:1513  function confirmTransfer(bytes32 transferId) public {... */\n    tag_4:\n      tag_13\n      0x04\n      dup1\n      calldatasize\n      sub\n      dup2\n      add\n      swap1\n      tag_14\n      swap2\n      swap1\n      tag_9\n      jump\t// in\n    tag_14:\n      tag_15\n      jump\t// in\n    tag_13:\n      stop\n        /* \"contracts/31 events advance.sol\":646:1262  function initiateTransfer(address to,uint value) public{... */\n    tag_5:\n      tag_16\n      0x04\n      dup1\n      calldatasize\n      sub\n      dup2\n      add\n      swap1\n      tag_17\n      swap2\n      swap1\n      tag_18\n      jump\t// in\n    tag_17:\n      tag_19\n      jump\t// in\n    tag_16:\n      stop\n        /* \"contracts/31 events advance.sol\":394:445  mapping(bytes32=>Transfer) public initiatedTransfer */\n    tag_6:\n      tag_20\n      0x04\n      dup1\n      calldatasize\n      sub\n      dup2\n      add\n      swap1\n      tag_21\n      swap2\n      swap1\n      tag_9\n      jump\t// in\n    tag_21:\n      tag_22\n      jump\t// in\n    tag_20:\n      mload(0x40)\n      tag_23\n      swap5\n      swap4\n      swap3\n      swap2\n      swap1\n      tag_24\n      jump\t// in\n    tag_23:\n      mload(0x40)\n      dup1\n      swap2\n      sub\n      swap1\n      return\n        /* \"contracts/31 events advance.sol\":571:639  mapping(bytes32=> TransferConfirmation) public TransferConfirmations */\n    tag_10:\n      mstore(0x20, 0x01)\n      dup1\n      0x00\n      mstore\n      keccak256(0x00, 0x40)\n      0x00\n      swap2\n      pop\n      swap1\n      pop\n      dup1\n      0x00\n      add\n      0x00\n      swap1\n      sload\n      swap1\n      0x0100\n      exp\n      swap1\n      div\n      0xff\n      and\n      swap1\n      dup1\n      0x01\n      add\n      sload\n      swap1\n      dup1\n      0x02\n      add\n      0x00\n      swap1\n      sload\n      swap1\n      0x0100\n      exp\n      swap1\n      div\n      0xffffffffffffffffffffffffffffffffffffffff\n      and\n      swap1\n      pop\n      dup4\n      jump\t// out\n        /* \"contracts/31 events advance.sol\":1268:1513  function confirmTransfer(bytes32 transferId) public {... */\n    tag_15:\n        /* \"contracts/31 events advance.sol\":1384:1385  0 */\n      0x00\n        /* \"contracts/31 events advance.sol\":1338:1386  initiatedTransfer[transferId].from != address(0) */\n      0xffffffffffffffffffffffffffffffffffffffff\n      and\n        /* \"contracts/31 events advance.sol\":1338:1355  initiatedTransfer */\n      0x00\n        /* \"contracts/31 events advance.sol\":1338:1367  initiatedTransfer[transferId] */\n      dup1\n        /* \"contracts/31 events advance.sol\":1356:1366  transferId */\n      dup4\n        /* \"contracts/31 events advance.sol\":1338:1367  initiatedTransfer[transferId] */\n      dup2\n      mstore\n      0x20\n      add\n      swap1\n      dup2\n      mstore\n      0x20\n      add\n      0x00\n      keccak256\n        /* \"contracts/31 events advance.sol\":1338:1372  initiatedTransfer[transferId].from */\n      0x00\n      add\n      0x00\n      swap1\n      sload\n      swap1\n      0x0100\n      exp\n      swap1\n      div\n      0xffffffffffffffffffffffffffffffffffffffff\n      and\n        /* \"contracts/31 events advance.sol\":1338:1386  initiatedTransfer[transferId].from != address(0) */\n      0xffffffffffffffffffffffffffffffffffffffff\n      and\n      sub\n        /* \"contracts/31 events advance.sol\":1330:1413  require(initiatedTransfer[transferId].from != address(0),\"transfer not initiated.\") */\n      tag_26\n      jumpi\n      mload(0x40)\n      0x08c379a000000000000000000000000000000000000000000000000000000000\n      dup2\n      mstore\n      0x04\n      add\n      tag_27\n      swap1\n      tag_28\n      jump\t// in\n    tag_27:\n      mload(0x40)\n      dup1\n      swap2\n      sub\n      swap1\n      revert\n    tag_26:\n        /* \"contracts/31 events advance.sol\":1432:1453  TransferConfirmations */\n      0x01\n        /* \"contracts/31 events advance.sol\":1432:1465  TransferConfirmations[transferId] */\n      0x00\n        /* \"contracts/31 events advance.sol\":1454:1464  transferId */\n      dup3\n        /* \"contracts/31 events advance.sol\":1432:1465  TransferConfirmations[transferId] */\n      dup2\n      mstore\n      0x20\n      add\n      swap1\n      dup2\n      mstore\n      0x20\n      add\n      0x00\n      keccak256\n        /* \"contracts/31 events advance.sol\":1432:1475  TransferConfirmations[transferId].confirmed */\n      0x00\n      add\n      0x00\n      swap1\n      sload\n      swap1\n      0x0100\n      exp\n      swap1\n      div\n      0xff\n      and\n        /* \"contracts/31 events advance.sol\":1431:1475  !TransferConfirmations[transferId].confirmed */\n      iszero\n        /* \"contracts/31 events advance.sol\":1423:1506  require(!TransferConfirmations[transferId].confirmed,\"trasnfer already confirmed!\") */\n      tag_29\n      jumpi\n      mload(0x40)\n      0x08c379a000000000000000000000000000000000000000000000000000000000\n      dup2\n      mstore\n      0x04\n      add\n      tag_30\n      swap1\n      tag_31\n      jump\t// in\n    tag_30:\n      mload(0x40)\n      dup1\n      swap2\n      sub\n      swap1\n      revert\n    tag_29:\n        /* \"contracts/31 events advance.sol\":1268:1513  function confirmTransfer(bytes32 transferId) public {... */\n      pop\n      jump\t// out\n        /* \"contracts/31 events advance.sol\":646:1262  function initiateTransfer(address to,uint value) public{... */\n    tag_19:\n        /* \"contracts/31 events advance.sol\":733:734  0 */\n      0x00\n        /* \"contracts/31 events advance.sol\":719:735  to != address(0) */\n      0xffffffffffffffffffffffffffffffffffffffff\n      and\n        /* \"contracts/31 events advance.sol\":719:721  to */\n      dup3\n        /* \"contracts/31 events advance.sol\":719:735  to != address(0) */\n      0xffffffffffffffffffffffffffffffffffffffff\n      and\n      sub\n        /* \"contracts/31 events advance.sol\":711:762  require(to != address(0),\"Invalid receipt address\") */\n      tag_33\n      jumpi\n      mload(0x40)\n      0x08c379a000000000000000000000000000000000000000000000000000000000\n      dup2\n      mstore\n      0x04\n      add\n      tag_34\n      swap1\n      tag_35\n      jump\t// in\n    tag_34:\n      mload(0x40)\n      dup1\n      swap2\n      sub\n      swap1\n      revert\n    tag_33:\n        /* \"contracts/31 events advance.sol\":788:789  0 */\n      0x00\n        /* \"contracts/31 events advance.sol\":780:785  value */\n      dup2\n        /* \"contracts/31 events advance.sol\":780:789  value > 0 */\n      gt\n        /* \"contracts/31 events advance.sol\":772:830  require(value > 0,\"Transfer value must be greater than 0\") */\n      tag_36\n      jumpi\n      mload(0x40)\n      0x08c379a000000000000000000000000000000000000000000000000000000000\n      dup2\n      mstore\n      0x04\n      add\n      tag_37\n      swap1\n      tag_38\n      jump\t// in\n    tag_37:\n      mload(0x40)\n      dup1\n      swap2\n      sub\n      swap1\n      revert\n    tag_36:\n        /* \"contracts/31 events advance.sol\":841:859  bytes32 transferId */\n      0x00\n        /* \"contracts/31 events advance.sol\":889:899  msg.sender */\n      caller\n        /* \"contracts/31 events advance.sol\":900:902  to */\n      dup4\n        /* \"contracts/31 events advance.sol\":903:908  value */\n      dup4\n        /* \"contracts/31 events advance.sol\":909:924  block.timestamp */\n      timestamp\n        /* \"contracts/31 events advance.sol\":872:925  abi.encodePacked(msg.sender,to,value,block.timestamp) */\n      add(0x20, mload(0x40))\n      tag_39\n      swap5\n      swap4\n      swap3\n      swap2\n      swap1\n      tag_40\n      jump\t// in\n    tag_39:\n      mload(0x40)\n      0x20\n      dup2\n      dup4\n      sub\n      sub\n      dup2\n      mstore\n      swap1\n      0x40\n      mstore\n        /* \"contracts/31 events advance.sol\":862:926  keccak256(abi.encodePacked(msg.sender,to,value,block.timestamp)) */\n      dup1\n      mload\n      swap1\n      0x20\n      add\n      keccak256\n        /* \"contracts/31 events advance.sol\":841:926  bytes32 transferId = keccak256(abi.encodePacked(msg.sender,to,value,block.timestamp)) */\n      swap1\n      pop\n        /* \"contracts/31 events advance.sol\":991:992  0 */\n      0x00\n        /* \"contracts/31 events advance.sol\":945:993  initiatedTransfer[transferId].from == address(0) */\n      0xffffffffffffffffffffffffffffffffffffffff\n      and\n        /* \"contracts/31 events advance.sol\":945:962  initiatedTransfer */\n      0x00\n        /* \"contracts/31 events advance.sol\":945:974  initiatedTransfer[transferId] */\n      dup1\n        /* \"contracts/31 events advance.sol\":963:973  transferId */\n      dup4\n        /* \"contracts/31 events advance.sol\":945:974  initiatedTransfer[transferId] */\n      dup2\n      mstore\n      0x20\n      add\n      swap1\n      dup2\n      mstore\n      0x20\n      add\n      0x00\n      keccak256\n        /* \"contracts/31 events advance.sol\":945:979  initiatedTransfer[transferId].from */\n      0x00\n      add\n      0x00\n      swap1\n      sload\n      swap1\n      0x0100\n      exp\n      swap1\n      div\n      0xffffffffffffffffffffffffffffffffffffffff\n      and\n        /* \"contracts/31 events advance.sol\":945:993  initiatedTransfer[transferId].from == address(0) */\n      0xffffffffffffffffffffffffffffffffffffffff\n      and\n      eq\n        /* \"contracts/31 events advance.sol\":937:1023  require(initiatedTransfer[transferId].from == address(0),\"Transfer already initiated\") */\n      tag_41\n      jumpi\n      mload(0x40)\n      0x08c379a000000000000000000000000000000000000000000000000000000000\n      dup2\n      mstore\n      0x04\n      add\n      tag_42\n      swap1\n      tag_43\n      jump\t// in\n    tag_42:\n      mload(0x40)\n      dup1\n      swap2\n      sub\n      swap1\n      revert\n    tag_41:\n        /* \"contracts/31 events advance.sol\":1066:1187  Transfer({... */\n      mload(0x40)\n      dup1\n      0x80\n      add\n      0x40\n      mstore\n      dup1\n        /* \"contracts/31 events advance.sol\":1095:1105  msg.sender */\n      caller\n        /* \"contracts/31 events advance.sol\":1066:1187  Transfer({... */\n      0xffffffffffffffffffffffffffffffffffffffff\n      and\n      dup2\n      mstore\n      0x20\n      add\n        /* \"contracts/31 events advance.sol\":1123:1125  to */\n      dup5\n        /* \"contracts/31 events advance.sol\":1066:1187  Transfer({... */\n      0xffffffffffffffffffffffffffffffffffffffff\n      and\n      dup2\n      mstore\n      0x20\n      add\n        /* \"contracts/31 events advance.sol\":1146:1151  value */\n      dup4\n        /* \"contracts/31 events advance.sol\":1066:1187  Transfer({... */\n      dup2\n      mstore\n      0x20\n      add\n        /* \"contracts/31 events advance.sol\":1172:1176  true */\n      0x01\n        /* \"contracts/31 events advance.sol\":1066:1187  Transfer({... */\n      iszero\n      iszero\n      dup2\n      mstore\n      pop\n        /* \"contracts/31 events advance.sol\":1034:1051  initiatedTransfer */\n      0x00\n        /* \"contracts/31 events advance.sol\":1034:1063  initiatedTransfer[transferId] */\n      dup1\n        /* \"contracts/31 events advance.sol\":1052:1062  transferId */\n      dup4\n        /* \"contracts/31 events advance.sol\":1034:1063  initiatedTransfer[transferId] */\n      dup2\n      mstore\n      0x20\n      add\n      swap1\n      dup2\n      mstore\n      0x20\n      add\n      0x00\n      keccak256\n        /* \"contracts/31 events advance.sol\":1034:1187  initiatedTransfer[transferId] = Transfer({... */\n      0x00\n      dup3\n      add\n      mload\n      dup2\n      0x00\n      add\n      exp(0x0100, 0x00)\n      dup2\n      sload\n      dup2\n      0xffffffffffffffffffffffffffffffffffffffff\n      mul\n      not\n      and\n      swap1\n      dup4\n      0xffffffffffffffffffffffffffffffffffffffff\n      and\n      mul\n      or\n      swap1\n      sstore\n      pop\n      0x20\n      dup3\n      add\n      mload\n      dup2\n      0x01\n      add\n      exp(0x0100, 0x00)\n      dup2\n      sload\n      dup2\n      0xffffffffffffffffffffffffffffffffffffffff\n      mul\n      not\n      and\n      swap1\n      dup4\n      0xffffffffffffffffffffffffffffffffffffffff\n      and\n      mul\n      or\n      swap1\n      sstore\n      pop\n      0x40\n      dup3\n      add\n      mload\n      dup2\n      0x02\n      add\n      sstore\n      0x60\n      dup3\n      add\n      mload\n      dup2\n      0x03\n      add\n      exp(0x0100, 0x00)\n      dup2\n      sload\n      dup2\n      0xff\n      mul\n      not\n      and\n      swap1\n      dup4\n      iszero\n      iszero\n      mul\n      or\n      swap1\n      sstore\n      pop\n      swap1\n      pop\n      pop\n        /* \"contracts/31 events advance.sol\":1233:1235  to */\n      dup3\n        /* \"contracts/31 events advance.sol\":1203:1255  TransferInitiated(msg.sender, to, value, transferId) */\n      0xffffffffffffffffffffffffffffffffffffffff\n      and\n        /* \"contracts/31 events advance.sol\":1221:1231  msg.sender */\n      caller\n        /* \"contracts/31 events advance.sol\":1203:1255  TransferInitiated(msg.sender, to, value, transferId) */\n      0xffffffffffffffffffffffffffffffffffffffff\n      and\n      0xcb9d2044b57a5cf2814b212b31774befe13864f33fcd04d19460489b76e636dc\n        /* \"contracts/31 events advance.sol\":1237:1242  value */\n      dup5\n        /* \"contracts/31 events advance.sol\":1244:1254  transferId */\n      dup5\n        /* \"contracts/31 events advance.sol\":1203:1255  TransferInitiated(msg.sender, to, value, transferId) */\n      mload(0x40)\n      tag_44\n      swap3\n      swap2\n      swap1\n      tag_45\n      jump\t// in\n    tag_44:\n      mload(0x40)\n      dup1\n      swap2\n      sub\n      swap1\n      log3\n        /* \"contracts/31 events advance.sol\":701:1262  {... */\n      pop\n        /* \"contracts/31 events advance.sol\":646:1262  function initiateTransfer(address to,uint value) public{... */\n      pop\n      pop\n      jump\t// out\n        /* \"contracts/31 events advance.sol\":394:445  mapping(bytes32=>Transfer) public initiatedTransfer */\n    tag_22:\n      mstore(0x20, 0x00)\n      dup1\n      0x00\n      mstore\n      keccak256(0x00, 0x40)\n      0x00\n      swap2\n      pop\n      swap1\n      pop\n      dup1\n      0x00\n      add\n      0x00\n      swap1\n      sload\n      swap1\n      0x0100\n      exp\n      swap1\n      div\n      0xffffffffffffffffffffffffffffffffffffffff\n      and\n      swap1\n      dup1\n      0x01\n      add\n      0x00\n      swap1\n      sload\n      swap1\n      0x0100\n      exp\n      swap1\n      div\n      0xffffffffffffffffffffffffffffffffffffffff\n      and\n      swap1\n      dup1\n      0x02\n      add\n      sload\n      swap1\n      dup1\n      0x03\n      add\n      0x00\n      swap1\n      sload\n      swap1\n      0x0100\n      exp\n      swap1\n      div\n      0xff\n      and\n      swap1\n      pop\n      dup5\n      jump\t// out\n        /* \"#utility.yul\":88:205   */\n    tag_47:\n        /* \"#utility.yul\":197:198   */\n      0x00\n        /* \"#utility.yul\":194:195   */\n      dup1\n        /* \"#utility.yul\":187:199   */\n      revert\n        /* \"#utility.yul\":334:411   */\n    tag_49:\n        /* \"#utility.yul\":371:378   */\n      0x00\n        /* \"#utility.yul\":400:405   */\n      dup2\n        /* \"#utility.yul\":389:405   */\n      swap1\n      pop\n        /* \"#utility.yul\":334:411   */\n      swap2\n      swap1\n      pop\n      jump\t// out\n        /* \"#utility.yul\":417:539   */\n    tag_50:\n        /* \"#utility.yul\":490:514   */\n      tag_87\n        /* \"#utility.yul\":508:513   */\n      dup2\n        /* \"#utility.yul\":490:514   */\n      tag_49\n      jump\t// in\n    tag_87:\n        /* \"#utility.yul\":483:488   */\n      dup2\n        /* \"#utility.yul\":480:515   */\n      eq\n        /* \"#utility.yul\":470:533   */\n      tag_88\n      jumpi\n        /* \"#utility.yul\":529:530   */\n      0x00\n        /* \"#utility.yul\":526:527   */\n      dup1\n        /* \"#utility.yul\":519:531   */\n      revert\n        /* \"#utility.yul\":470:533   */\n    tag_88:\n        /* \"#utility.yul\":417:539   */\n      pop\n      jump\t// out\n        /* \"#utility.yul\":545:684   */\n    tag_51:\n        /* \"#utility.yul\":591:596   */\n      0x00\n        /* \"#utility.yul\":629:635   */\n      dup2\n        /* \"#utility.yul\":616:636   */\n      calldataload\n        /* \"#utility.yul\":607:636   */\n      swap1\n      pop\n        /* \"#utility.yul\":645:678   */\n      tag_90\n        /* \"#utility.yul\":672:677   */\n      dup2\n        /* \"#utility.yul\":645:678   */\n      tag_50\n      jump\t// in\n    tag_90:\n        /* \"#utility.yul\":545:684   */\n      swap3\n      swap2\n      pop\n      pop\n      jump\t// out\n        /* \"#utility.yul\":690:1019   */\n    tag_9:\n        /* \"#utility.yul\":749:755   */\n      0x00\n        /* \"#utility.yul\":798:800   */\n      0x20\n        /* \"#utility.yul\":786:795   */\n      dup3\n        /* \"#utility.yul\":777:784   */\n      dup5\n        /* \"#utility.yul\":773:796   */\n      sub\n        /* \"#utility.yul\":769:801   */\n      slt\n        /* \"#utility.yul\":766:885   */\n      iszero\n      tag_92\n      jumpi\n        /* \"#utility.yul\":804:883   */\n      tag_93\n      tag_47\n      jump\t// in\n    tag_93:\n        /* \"#utility.yul\":766:885   */\n    tag_92:\n        /* \"#utility.yul\":924:925   */\n      0x00\n        /* \"#utility.yul\":949:1002   */\n      tag_94\n        /* \"#utility.yul\":994:1001   */\n      dup5\n        /* \"#utility.yul\":985:991   */\n      dup3\n        /* \"#utility.yul\":974:983   */\n      dup6\n        /* \"#utility.yul\":970:992   */\n      add\n        /* \"#utility.yul\":949:1002   */\n      tag_51\n      jump\t// in\n    tag_94:\n        /* \"#utility.yul\":939:1002   */\n      swap2\n      pop\n        /* \"#utility.yul\":895:1012   */\n      pop\n        /* \"#utility.yul\":690:1019   */\n      swap3\n      swap2\n      pop\n      pop\n      jump\t// out\n        /* \"#utility.yul\":1025:1115   */\n    tag_52:\n        /* \"#utility.yul\":1059:1066   */\n      0x00\n        /* \"#utility.yul\":1102:1107   */\n      dup2\n        /* \"#utility.yul\":1095:1108   */\n      iszero\n        /* \"#utility.yul\":1088:1109   */\n      iszero\n        /* \"#utility.yul\":1077:1109   */\n      swap1\n      pop\n        /* \"#utility.yul\":1025:1115   */\n      swap2\n      swap1\n      pop\n      jump\t// out\n        /* \"#utility.yul\":1121:1230   */\n    tag_53:\n        /* \"#utility.yul\":1202:1223   */\n      tag_97\n        /* \"#utility.yul\":1217:1222   */\n      dup2\n        /* \"#utility.yul\":1202:1223   */\n      tag_52\n      jump\t// in\n    tag_97:\n        /* \"#utility.yul\":1197:1200   */\n      dup3\n        /* \"#utility.yul\":1190:1224   */\n      mstore\n        /* \"#utility.yul\":1121:1230   */\n      pop\n      pop\n      jump\t// out\n        /* \"#utility.yul\":1236:1313   */\n    tag_54:\n        /* \"#utility.yul\":1273:1280   */\n      0x00\n        /* \"#utility.yul\":1302:1307   */\n      dup2\n        /* \"#utility.yul\":1291:1307   */\n      swap1\n      pop\n        /* \"#utility.yul\":1236:1313   */\n      swap2\n      swap1\n      pop\n      jump\t// out\n        /* \"#utility.yul\":1319:1437   */\n    tag_55:\n        /* \"#utility.yul\":1406:1430   */\n      tag_100\n        /* \"#utility.yul\":1424:1429   */\n      dup2\n        /* \"#utility.yul\":1406:1430   */\n      tag_54\n      jump\t// in\n    tag_100:\n        /* \"#utility.yul\":1401:1404   */\n      dup3\n        /* \"#utility.yul\":1394:1431   */\n      mstore\n        /* \"#utility.yul\":1319:1437   */\n      pop\n      pop\n      jump\t// out\n        /* \"#utility.yul\":1443:1569   */\n    tag_56:\n        /* \"#utility.yul\":1480:1487   */\n      0x00\n        /* \"#utility.yul\":1520:1562   */\n      0xffffffffffffffffffffffffffffffffffffffff\n        /* \"#utility.yul\":1513:1518   */\n      dup3\n        /* \"#utility.yul\":1509:1563   */\n      and\n        /* \"#utility.yul\":1498:1563   */\n      swap1\n      pop\n        /* \"#utility.yul\":1443:1569   */\n      swap2\n      swap1\n      pop\n      jump\t// out\n        /* \"#utility.yul\":1575:1671   */\n    tag_57:\n        /* \"#utility.yul\":1612:1619   */\n      0x00\n        /* \"#utility.yul\":1641:1665   */\n      tag_103\n        /* \"#utility.yul\":1659:1664   */\n      dup3\n        /* \"#utility.yul\":1641:1665   */\n      tag_56\n      jump\t// in\n    tag_103:\n        /* \"#utility.yul\":1630:1665   */\n      swap1\n      pop\n        /* \"#utility.yul\":1575:1671   */\n      swap2\n      swap1\n      pop\n      jump\t// out\n        /* \"#utility.yul\":1677:1795   */\n    tag_58:\n        /* \"#utility.yul\":1764:1788   */\n      tag_105\n        /* \"#utility.yul\":1782:1787   */\n      dup2\n        /* \"#utility.yul\":1764:1788   */\n      tag_57\n      jump\t// in\n    tag_105:\n        /* \"#utility.yul\":1759:1762   */\n      dup3\n        /* \"#utility.yul\":1752:1789   */\n      mstore\n        /* \"#utility.yul\":1677:1795   */\n      pop\n      pop\n      jump\t// out\n        /* \"#utility.yul\":1801:2231   */\n    tag_12:\n        /* \"#utility.yul\":1944:1948   */\n      0x00\n        /* \"#utility.yul\":1982:1984   */\n      0x60\n        /* \"#utility.yul\":1971:1980   */\n      dup3\n        /* \"#utility.yul\":1967:1985   */\n      add\n        /* \"#utility.yul\":1959:1985   */\n      swap1\n      pop\n        /* \"#utility.yul\":1995:2060   */\n      tag_107\n        /* \"#utility.yul\":2057:2058   */\n      0x00\n        /* \"#utility.yul\":2046:2055   */\n      dup4\n        /* \"#utility.yul\":2042:2059   */\n      add\n        /* \"#utility.yul\":2033:2039   */\n      dup7\n        /* \"#utility.yul\":1995:2060   */\n      tag_53\n      jump\t// in\n    tag_107:\n        /* \"#utility.yul\":2070:2142   */\n      tag_108\n        /* \"#utility.yul\":2138:2140   */\n      0x20\n        /* \"#utility.yul\":2127:2136   */\n      dup4\n        /* \"#utility.yul\":2123:2141   */\n      add\n        /* \"#utility.yul\":2114:2120   */\n      dup6\n        /* \"#utility.yul\":2070:2142   */\n      tag_55\n      jump\t// in\n    tag_108:\n        /* \"#utility.yul\":2152:2224   */\n      tag_109\n        /* \"#utility.yul\":2220:2222   */\n      0x40\n        /* \"#utility.yul\":2209:2218   */\n      dup4\n        /* \"#utility.yul\":2205:2223   */\n      add\n        /* \"#utility.yul\":2196:2202   */\n      dup5\n        /* \"#utility.yul\":2152:2224   */\n      tag_58\n      jump\t// in\n    tag_109:\n        /* \"#utility.yul\":1801:2231   */\n      swap5\n      swap4\n      pop\n      pop\n      pop\n      pop\n      jump\t// out\n        /* \"#utility.yul\":2237:2359   */\n    tag_59:\n        /* \"#utility.yul\":2310:2334   */\n      tag_111\n        /* \"#utility.yul\":2328:2333   */\n      dup2\n        /* \"#utility.yul\":2310:2334   */\n      tag_57\n      jump\t// in\n    tag_111:\n        /* \"#utility.yul\":2303:2308   */\n      dup2\n        /* \"#utility.yul\":2300:2335   */\n      eq\n        /* \"#utility.yul\":2290:2353   */\n      tag_112\n      jumpi\n        /* \"#utility.yul\":2349:2350   */\n      0x00\n        /* \"#utility.yul\":2346:2347   */\n      dup1\n        /* \"#utility.yul\":2339:2351   */\n      revert\n        /* \"#utility.yul\":2290:2353   */\n    tag_112:\n        /* \"#utility.yul\":2237:2359   */\n      pop\n      jump\t// out\n        /* \"#utility.yul\":2365:2504   */\n    tag_60:\n        /* \"#utility.yul\":2411:2416   */\n      0x00\n        /* \"#utility.yul\":2449:2455   */\n      dup2\n        /* \"#utility.yul\":2436:2456   */\n      calldataload\n        /* \"#utility.yul\":2427:2456   */\n      swap1\n      pop\n        /* \"#utility.yul\":2465:2498   */\n      tag_114\n        /* \"#utility.yul\":2492:2497   */\n      dup2\n        /* \"#utility.yul\":2465:2498   */\n      tag_59\n      jump\t// in\n    tag_114:\n        /* \"#utility.yul\":2365:2504   */\n      swap3\n      swap2\n      pop\n      pop\n      jump\t// out\n        /* \"#utility.yul\":2510:2632   */\n    tag_61:\n        /* \"#utility.yul\":2583:2607   */\n      tag_116\n        /* \"#utility.yul\":2601:2606   */\n      dup2\n        /* \"#utility.yul\":2583:2607   */\n      tag_54\n      jump\t// in\n    tag_116:\n        /* \"#utility.yul\":2576:2581   */\n      dup2\n        /* \"#utility.yul\":2573:2608   */\n      eq\n        /* \"#utility.yul\":2563:2626   */\n      tag_117\n      jumpi\n        /* \"#utility.yul\":2622:2623   */\n      0x00\n        /* \"#utility.yul\":2619:2620   */\n      dup1\n        /* \"#utility.yul\":2612:2624   */\n      revert\n        /* \"#utility.yul\":2563:2626   */\n    tag_117:\n        /* \"#utility.yul\":2510:2632   */\n      pop\n      jump\t// out\n        /* \"#utility.yul\":2638:2777   */\n    tag_62:\n        /* \"#utility.yul\":2684:2689   */\n      0x00\n        /* \"#utility.yul\":2722:2728   */\n      dup2\n        /* \"#utility.yul\":2709:2729   */\n      calldataload\n        /* \"#utility.yul\":2700:2729   */\n      swap1\n      pop\n        /* \"#utility.yul\":2738:2771   */\n      tag_119\n        /* \"#utility.yul\":2765:2770   */\n      dup2\n        /* \"#utility.yul\":2738:2771   */\n      tag_61\n      jump\t// in\n    tag_119:\n        /* \"#utility.yul\":2638:2777   */\n      swap3\n      swap2\n      pop\n      pop\n      jump\t// out\n        /* \"#utility.yul\":2783:3257   */\n    tag_18:\n        /* \"#utility.yul\":2851:2857   */\n      0x00\n        /* \"#utility.yul\":2859:2865   */\n      dup1\n        /* \"#utility.yul\":2908:2910   */\n      0x40\n        /* \"#utility.yul\":2896:2905   */\n      dup4\n        /* \"#utility.yul\":2887:2894   */\n      dup6\n        /* \"#utility.yul\":2883:2906   */\n      sub\n        /* \"#utility.yul\":2879:2911   */\n      slt\n        /* \"#utility.yul\":2876:2995   */\n      iszero\n      tag_121\n      jumpi\n        /* \"#utility.yul\":2914:2993   */\n      tag_122\n      tag_47\n      jump\t// in\n    tag_122:\n        /* \"#utility.yul\":2876:2995   */\n    tag_121:\n        /* \"#utility.yul\":3034:3035   */\n      0x00\n        /* \"#utility.yul\":3059:3112   */\n      tag_123\n        /* \"#utility.yul\":3104:3111   */\n      dup6\n        /* \"#utility.yul\":3095:3101   */\n      dup3\n        /* \"#utility.yul\":3084:3093   */\n      dup7\n        /* \"#utility.yul\":3080:3102   */\n      add\n        /* \"#utility.yul\":3059:3112   */\n      tag_60\n      jump\t// in\n    tag_123:\n        /* \"#utility.yul\":3049:3112   */\n      swap3\n      pop\n        /* \"#utility.yul\":3005:3122   */\n      pop\n        /* \"#utility.yul\":3161:3163   */\n      0x20\n        /* \"#utility.yul\":3187:3240   */\n      tag_124\n        /* \"#utility.yul\":3232:3239   */\n      dup6\n        /* \"#utility.yul\":3223:3229   */\n      dup3\n        /* \"#utility.yul\":3212:3221   */\n      dup7\n        /* \"#utility.yul\":3208:3230   */\n      add\n        /* \"#utility.yul\":3187:3240   */\n      tag_62\n      jump\t// in\n    tag_124:\n        /* \"#utility.yul\":3177:3240   */\n      swap2\n      pop\n        /* \"#utility.yul\":3132:3250   */\n      pop\n        /* \"#utility.yul\":2783:3257   */\n      swap3\n      pop\n      swap3\n      swap1\n      pop\n      jump\t// out\n        /* \"#utility.yul\":3263:3804   */\n    tag_24:\n        /* \"#utility.yul\":3434:3438   */\n      0x00\n        /* \"#utility.yul\":3472:3475   */\n      0x80\n        /* \"#utility.yul\":3461:3470   */\n      dup3\n        /* \"#utility.yul\":3457:3476   */\n      add\n        /* \"#utility.yul\":3449:3476   */\n      swap1\n      pop\n        /* \"#utility.yul\":3486:3557   */\n      tag_126\n        /* \"#utility.yul\":3554:3555   */\n      0x00\n        /* \"#utility.yul\":3543:3552   */\n      dup4\n        /* \"#utility.yul\":3539:3556   */\n      add\n        /* \"#utility.yul\":3530:3536   */\n      dup8\n        /* \"#utility.yul\":3486:3557   */\n      tag_58\n      jump\t// in\n    tag_126:\n        /* \"#utility.yul\":3567:3639   */\n      tag_127\n        /* \"#utility.yul\":3635:3637   */\n      0x20\n        /* \"#utility.yul\":3624:3633   */\n      dup4\n        /* \"#utility.yul\":3620:3638   */\n      add\n        /* \"#utility.yul\":3611:3617   */\n      dup7\n        /* \"#utility.yul\":3567:3639   */\n      tag_58\n      jump\t// in\n    tag_127:\n        /* \"#utility.yul\":3649:3721   */\n      tag_128\n        /* \"#utility.yul\":3717:3719   */\n      0x40\n        /* \"#utility.yul\":3706:3715   */\n      dup4\n        /* \"#utility.yul\":3702:3720   */\n      add\n        /* \"#utility.yul\":3693:3699   */\n      dup6\n        /* \"#utility.yul\":3649:3721   */\n      tag_55\n      jump\t// in\n    tag_128:\n        /* \"#utility.yul\":3731:3797   */\n      tag_129\n        /* \"#utility.yul\":3793:3795   */\n      0x60\n        /* \"#utility.yul\":3782:3791   */\n      dup4\n        /* \"#utility.yul\":3778:3796   */\n      add\n        /* \"#utility.yul\":3769:3775   */\n      dup5\n        /* \"#utility.yul\":3731:3797   */\n      tag_53\n      jump\t// in\n    tag_129:\n        /* \"#utility.yul\":3263:3804   */\n      swap6\n      swap5\n      pop\n      pop\n      pop\n      pop\n      pop\n      jump\t// out\n        /* \"#utility.yul\":3810:3979   */\n    tag_63:\n        /* \"#utility.yul\":3894:3905   */\n      0x00\n        /* \"#utility.yul\":3928:3934   */\n      dup3\n        /* \"#utility.yul\":3923:3926   */\n      dup3\n        /* \"#utility.yul\":3916:3935   */\n      mstore\n        /* \"#utility.yul\":3968:3972   */\n      0x20\n        /* \"#utility.yul\":3963:3966   */\n      dup3\n        /* \"#utility.yul\":3959:3973   */\n      add\n        /* \"#utility.yul\":3944:3973   */\n      swap1\n      pop\n        /* \"#utility.yul\":3810:3979   */\n      swap3\n      swap2\n      pop\n      pop\n      jump\t// out\n        /* \"#utility.yul\":3985:4158   */\n    tag_64:\n        /* \"#utility.yul\":4125:4150   */\n      0x7472616e73666572206e6f7420696e697469617465642e000000000000000000\n        /* \"#utility.yul\":4121:4122   */\n      0x00\n        /* \"#utility.yul\":4113:4119   */\n      dup3\n        /* \"#utility.yul\":4109:4123   */\n      add\n        /* \"#utility.yul\":4102:4151   */\n      mstore\n        /* \"#utility.yul\":3985:4158   */\n      pop\n      jump\t// out\n        /* \"#utility.yul\":4164:4530   */\n    tag_65:\n        /* \"#utility.yul\":4306:4309   */\n      0x00\n        /* \"#utility.yul\":4327:4394   */\n      tag_133\n        /* \"#utility.yul\":4391:4393   */\n      0x17\n        /* \"#utility.yul\":4386:4389   */\n      dup4\n        /* \"#utility.yul\":4327:4394   */\n      tag_63\n      jump\t// in\n    tag_133:\n        /* \"#utility.yul\":4320:4394   */\n      swap2\n      pop\n        /* \"#utility.yul\":4403:4496   */\n      tag_134\n        /* \"#utility.yul\":4492:4495   */\n      dup3\n        /* \"#utility.yul\":4403:4496   */\n      tag_64\n      jump\t// in\n    tag_134:\n        /* \"#utility.yul\":4521:4523   */\n      0x20\n        /* \"#utility.yul\":4516:4519   */\n      dup3\n        /* \"#utility.yul\":4512:4524   */\n      add\n        /* \"#utility.yul\":4505:4524   */\n      swap1\n      pop\n        /* \"#utility.yul\":4164:4530   */\n      swap2\n      swap1\n      pop\n      jump\t// out\n        /* \"#utility.yul\":4536:4955   */\n    tag_28:\n        /* \"#utility.yul\":4702:4706   */\n      0x00\n        /* \"#utility.yul\":4740:4742   */\n      0x20\n        /* \"#utility.yul\":4729:4738   */\n      dup3\n        /* \"#utility.yul\":4725:4743   */\n      add\n        /* \"#utility.yul\":4717:4743   */\n      swap1\n      pop\n        /* \"#utility.yul\":4789:4798   */\n      dup2\n        /* \"#utility.yul\":4783:4787   */\n      dup2\n        /* \"#utility.yul\":4779:4799   */\n      sub\n        /* \"#utility.yul\":4775:4776   */\n      0x00\n        /* \"#utility.yul\":4764:4773   */\n      dup4\n        /* \"#utility.yul\":4760:4777   */\n      add\n        /* \"#utility.yul\":4753:4800   */\n      mstore\n        /* \"#utility.yul\":4817:4948   */\n      tag_136\n        /* \"#utility.yul\":4943:4947   */\n      dup2\n        /* \"#utility.yul\":4817:4948   */\n      tag_65\n      jump\t// in\n    tag_136:\n        /* \"#utility.yul\":4809:4948   */\n      swap1\n      pop\n        /* \"#utility.yul\":4536:4955   */\n      swap2\n      swap1\n      pop\n      jump\t// out\n        /* \"#utility.yul\":4961:5138   */\n    tag_66:\n        /* \"#utility.yul\":5101:5130   */\n      0x747261736e66657220616c726561647920636f6e6669726d6564210000000000\n        /* \"#utility.yul\":5097:5098   */\n      0x00\n        /* \"#utility.yul\":5089:5095   */\n      dup3\n        /* \"#utility.yul\":5085:5099   */\n      add\n        /* \"#utility.yul\":5078:5131   */\n      mstore\n        /* \"#utility.yul\":4961:5138   */\n      pop\n      jump\t// out\n        /* \"#utility.yul\":5144:5510   */\n    tag_67:\n        /* \"#utility.yul\":5286:5289   */\n      0x00\n        /* \"#utility.yul\":5307:5374   */\n      tag_139\n        /* \"#utility.yul\":5371:5373   */\n      0x1b\n        /* \"#utility.yul\":5366:5369   */\n      dup4\n        /* \"#utility.yul\":5307:5374   */\n      tag_63\n      jump\t// in\n    tag_139:\n        /* \"#utility.yul\":5300:5374   */\n      swap2\n      pop\n        /* \"#utility.yul\":5383:5476   */\n      tag_140\n        /* \"#utility.yul\":5472:5475   */\n      dup3\n        /* \"#utility.yul\":5383:5476   */\n      tag_66\n      jump\t// in\n    tag_140:\n        /* \"#utility.yul\":5501:5503   */\n      0x20\n        /* \"#utility.yul\":5496:5499   */\n      dup3\n        /* \"#utility.yul\":5492:5504   */\n      add\n        /* \"#utility.yul\":5485:5504   */\n      swap1\n      pop\n        /* \"#utility.yul\":5144:5510   */\n      swap2\n      swap1\n      pop\n      jump\t// out\n        /* \"#utility.yul\":5516:5935   */\n    tag_31:\n        /* \"#utility.yul\":5682:5686   */\n      0x00\n        /* \"#utility.yul\":5720:5722   */\n      0x20\n        /* \"#utility.yul\":5709:5718   */\n      dup3\n        /* \"#utility.yul\":5705:5723   */\n      add\n        /* \"#utility.yul\":5697:5723   */\n      swap1\n      pop\n        /* \"#utility.yul\":5769:5778   */\n      dup2\n        /* \"#utility.yul\":5763:5767   */\n      dup2\n        /* \"#utility.yul\":5759:5779   */\n      sub\n        /* \"#utility.yul\":5755:5756   */\n      0x00\n        /* \"#utility.yul\":5744:5753   */\n      dup4\n        /* \"#utility.yul\":5740:5757   */\n      add\n        /* \"#utility.yul\":5733:5780   */\n      mstore\n        /* \"#utility.yul\":5797:5928   */\n      tag_142\n        /* \"#utility.yul\":5923:5927   */\n      dup2\n        /* \"#utility.yul\":5797:5928   */\n      tag_67\n      jump\t// in\n    tag_142:\n        /* \"#utility.yul\":5789:5928   */\n      swap1\n      pop\n        /* \"#utility.yul\":5516:5935   */\n      swap2\n      swap1\n      pop\n      jump\t// out\n        /* \"#utility.yul\":5941:6114   */\n    tag_68:\n        /* \"#utility.yul\":6081:6106   */\n      0x496e76616c696420726563656970742061646472657373000000000000000000\n        /* \"#utility.yul\":6077:6078   */\n      0x00\n        /* \"#utility.yul\":6069:6075   */\n      dup3\n        /* \"#utility.yul\":6065:6079   */\n      add\n        /* \"#utility.yul\":6058:6107   */\n      mstore\n        /* \"#utility.yul\":5941:6114   */\n      pop\n      jump\t// out\n        /* \"#utility.yul\":6120:6486   */\n    tag_69:\n        /* \"#utility.yul\":6262:6265   */\n      0x00\n        /* \"#utility.yul\":6283:6350   */\n      tag_145\n        /* \"#utility.yul\":6347:6349   */\n      0x17\n        /* \"#utility.yul\":6342:6345   */\n      dup4\n        /* \"#utility.yul\":6283:6350   */\n      tag_63\n      jump\t// in\n    tag_145:\n        /* \"#utility.yul\":6276:6350   */\n      swap2\n      pop\n        /* \"#utility.yul\":6359:6452   */\n      tag_146\n        /* \"#utility.yul\":6448:6451   */\n      dup3\n        /* \"#utility.yul\":6359:6452   */\n      tag_68\n      jump\t// in\n    tag_146:\n        /* \"#utility.yul\":6477:6479   */\n      0x20\n        /* \"#utility.yul\":6472:6475   */\n      dup3\n        /* \"#utility.yul\":6468:6480   */\n      add\n        /* \"#utility.yul\":6461:6480   */\n      swap1\n      pop\n        /* \"#utility.yul\":6120:6486   */\n      swap2\n      swap1\n      pop\n      jump\t// out\n        /* \"#utility.yul\":6492:6911   */\n    tag_35:\n        /* \"#utility.yul\":6658:6662   */\n      0x00\n        /* \"#utility.yul\":6696:6698   */\n      0x20\n        /* \"#utility.yul\":6685:6694   */\n      dup3\n        /* \"#utility.yul\":6681:6699   */\n      add\n        /* \"#utility.yul\":6673:6699   */\n      swap1\n      pop\n        /* \"#utility.yul\":6745:6754   */\n      dup2\n        /* \"#utility.yul\":6739:6743   */\n      dup2\n        /* \"#utility.yul\":6735:6755   */\n      sub\n        /* \"#utility.yul\":6731:6732   */\n      0x00\n        /* \"#utility.yul\":6720:6729   */\n      dup4\n        /* \"#utility.yul\":6716:6733   */\n      add\n        /* \"#utility.yul\":6709:6756   */\n      mstore\n        /* \"#utility.yul\":6773:6904   */\n      tag_148\n        /* \"#utility.yul\":6899:6903   */\n      dup2\n        /* \"#utility.yul\":6773:6904   */\n      tag_69\n      jump\t// in\n    tag_148:\n        /* \"#utility.yul\":6765:6904   */\n      swap1\n      pop\n        /* \"#utility.yul\":6492:6911   */\n      swap2\n      swap1\n      pop\n      jump\t// out\n        /* \"#utility.yul\":6917:7141   */\n    tag_70:\n        /* \"#utility.yul\":7057:7091   */\n      0x5472616e736665722076616c7565206d75737420626520677265617465722074\n        /* \"#utility.yul\":7053:7054   */\n      0x00\n        /* \"#utility.yul\":7045:7051   */\n      dup3\n        /* \"#utility.yul\":7041:7055   */\n      add\n        /* \"#utility.yul\":7034:7092   */\n      mstore\n        /* \"#utility.yul\":7126:7133   */\n      0x68616e2030000000000000000000000000000000000000000000000000000000\n        /* \"#utility.yul\":7121:7123   */\n      0x20\n        /* \"#utility.yul\":7113:7119   */\n      dup3\n        /* \"#utility.yul\":7109:7124   */\n      add\n        /* \"#utility.yul\":7102:7134   */\n      mstore\n        /* \"#utility.yul\":6917:7141   */\n      pop\n      jump\t// out\n        /* \"#utility.yul\":7147:7513   */\n    tag_71:\n        /* \"#utility.yul\":7289:7292   */\n      0x00\n        /* \"#utility.yul\":7310:7377   */\n      tag_151\n        /* \"#utility.yul\":7374:7376   */\n      0x25\n        /* \"#utility.yul\":7369:7372   */\n      dup4\n        /* \"#utility.yul\":7310:7377   */\n      tag_63\n      jump\t// in\n    tag_151:\n        /* \"#utility.yul\":7303:7377   */\n      swap2\n      pop\n        /* \"#utility.yul\":7386:7479   */\n      tag_152\n        /* \"#utility.yul\":7475:7478   */\n      dup3\n        /* \"#utility.yul\":7386:7479   */\n      tag_70\n      jump\t// in\n    tag_152:\n        /* \"#utility.yul\":7504:7506   */\n      0x40\n        /* \"#utility.yul\":7499:7502   */\n      dup3\n        /* \"#utility.yul\":7495:7507   */\n      add\n        /* \"#utility.yul\":7488:7507   */\n      swap1\n      pop\n        /* \"#utility.yul\":7147:7513   */\n      swap2\n      swap1\n      pop\n      jump\t// out\n        /* \"#utility.yul\":7519:7938   */\n    tag_38:\n        /* \"#utility.yul\":7685:7689   */\n      0x00\n        /* \"#utility.yul\":7723:7725   */\n      0x20\n        /* \"#utility.yul\":7712:7721   */\n      dup3\n        /* \"#utility.yul\":7708:7726   */\n      add\n        /* \"#utility.yul\":7700:7726   */\n      swap1\n      pop\n        /* \"#utility.yul\":7772:7781   */\n      dup2\n        /* \"#utility.yul\":7766:7770   */\n      dup2\n        /* \"#utility.yul\":7762:7782   */\n      sub\n        /* \"#utility.yul\":7758:7759   */\n      0x00\n        /* \"#utility.yul\":7747:7756   */\n      dup4\n        /* \"#utility.yul\":7743:7760   */\n      add\n        /* \"#utility.yul\":7736:7783   */\n      mstore\n        /* \"#utility.yul\":7800:7931   */\n      tag_154\n        /* \"#utility.yul\":7926:7930   */\n      dup2\n        /* \"#utility.yul\":7800:7931   */\n      tag_71\n      jump\t// in\n    tag_154:\n        /* \"#utility.yul\":7792:7931   */\n      swap1\n      pop\n        /* \"#utility.yul\":7519:7938   */\n      swap2\n      swap1\n      pop\n      jump\t// out\n        /* \"#utility.yul\":7944:8038   */\n    tag_72:\n        /* \"#utility.yul\":7977:7985   */\n      0x00\n        /* \"#utility.yul\":8025:8030   */\n      dup2\n        /* \"#utility.yul\":8021:8023   */\n      0x60\n        /* \"#utility.yul\":8017:8031   */\n      shl\n        /* \"#utility.yul\":7996:8031   */\n      swap1\n      pop\n        /* \"#utility.yul\":7944:8038   */\n      swap2\n      swap1\n      pop\n      jump\t// out\n        /* \"#utility.yul\":8044:8138   */\n    tag_73:\n        /* \"#utility.yul\":8083:8090   */\n      0x00\n        /* \"#utility.yul\":8112:8132   */\n      tag_157\n        /* \"#utility.yul\":8126:8131   */\n      dup3\n        /* \"#utility.yul\":8112:8132   */\n      tag_72\n      jump\t// in\n    tag_157:\n        /* \"#utility.yul\":8101:8132   */\n      swap1\n      pop\n        /* \"#utility.yul\":8044:8138   */\n      swap2\n      swap1\n      pop\n      jump\t// out\n        /* \"#utility.yul\":8144:8244   */\n    tag_74:\n        /* \"#utility.yul\":8183:8190   */\n      0x00\n        /* \"#utility.yul\":8212:8238   */\n      tag_159\n        /* \"#utility.yul\":8232:8237   */\n      dup3\n        /* \"#utility.yul\":8212:8238   */\n      tag_73\n      jump\t// in\n    tag_159:\n        /* \"#utility.yul\":8201:8238   */\n      swap1\n      pop\n        /* \"#utility.yul\":8144:8244   */\n      swap2\n      swap1\n      pop\n      jump\t// out\n        /* \"#utility.yul\":8250:8407   */\n    tag_75:\n        /* \"#utility.yul\":8355:8400   */\n      tag_161\n        /* \"#utility.yul\":8375:8399   */\n      tag_162\n        /* \"#utility.yul\":8393:8398   */\n      dup3\n        /* \"#utility.yul\":8375:8399   */\n      tag_57\n      jump\t// in\n    tag_162:\n        /* \"#utility.yul\":8355:8400   */\n      tag_74\n      jump\t// in\n    tag_161:\n        /* \"#utility.yul\":8350:8353   */\n      dup3\n        /* \"#utility.yul\":8343:8401   */\n      mstore\n        /* \"#utility.yul\":8250:8407   */\n      pop\n      pop\n      jump\t// out\n        /* \"#utility.yul\":8413:8492   */\n    tag_76:\n        /* \"#utility.yul\":8452:8459   */\n      0x00\n        /* \"#utility.yul\":8481:8486   */\n      dup2\n        /* \"#utility.yul\":8470:8486   */\n      swap1\n      pop\n        /* \"#utility.yul\":8413:8492   */\n      swap2\n      swap1\n      pop\n      jump\t// out\n        /* \"#utility.yul\":8498:8655   */\n    tag_77:\n        /* \"#utility.yul\":8603:8648   */\n      tag_165\n        /* \"#utility.yul\":8623:8647   */\n      tag_166\n        /* \"#utility.yul\":8641:8646   */\n      dup3\n        /* \"#utility.yul\":8623:8647   */\n      tag_54\n      jump\t// in\n    tag_166:\n        /* \"#utility.yul\":8603:8648   */\n      tag_76\n      jump\t// in\n    tag_165:\n        /* \"#utility.yul\":8598:8601   */\n      dup3\n        /* \"#utility.yul\":8591:8649   */\n      mstore\n        /* \"#utility.yul\":8498:8655   */\n      pop\n      pop\n      jump\t// out\n        /* \"#utility.yul\":8661:9340   */\n    tag_40:\n        /* \"#utility.yul\":8857:8860   */\n      0x00\n        /* \"#utility.yul\":8872:8947   */\n      tag_168\n        /* \"#utility.yul\":8943:8946   */\n      dup3\n        /* \"#utility.yul\":8934:8940   */\n      dup8\n        /* \"#utility.yul\":8872:8947   */\n      tag_75\n      jump\t// in\n    tag_168:\n        /* \"#utility.yul\":8972:8974   */\n      0x14\n        /* \"#utility.yul\":8967:8970   */\n      dup3\n        /* \"#utility.yul\":8963:8975   */\n      add\n        /* \"#utility.yul\":8956:8975   */\n      swap2\n      pop\n        /* \"#utility.yul\":8985:9060   */\n      tag_169\n        /* \"#utility.yul\":9056:9059   */\n      dup3\n        /* \"#utility.yul\":9047:9053   */\n      dup7\n        /* \"#utility.yul\":8985:9060   */\n      tag_75\n      jump\t// in\n    tag_169:\n        /* \"#utility.yul\":9085:9087   */\n      0x14\n        /* \"#utility.yul\":9080:9083   */\n      dup3\n        /* \"#utility.yul\":9076:9088   */\n      add\n        /* \"#utility.yul\":9069:9088   */\n      swap2\n      pop\n        /* \"#utility.yul\":9098:9173   */\n      tag_170\n        /* \"#utility.yul\":9169:9172   */\n      dup3\n        /* \"#utility.yul\":9160:9166   */\n      dup6\n        /* \"#utility.yul\":9098:9173   */\n      tag_77\n      jump\t// in\n    tag_170:\n        /* \"#utility.yul\":9198:9200   */\n      0x20\n        /* \"#utility.yul\":9193:9196   */\n      dup3\n        /* \"#utility.yul\":9189:9201   */\n      add\n        /* \"#utility.yul\":9182:9201   */\n      swap2\n      pop\n        /* \"#utility.yul\":9211:9286   */\n      tag_171\n        /* \"#utility.yul\":9282:9285   */\n      dup3\n        /* \"#utility.yul\":9273:9279   */\n      dup5\n        /* \"#utility.yul\":9211:9286   */\n      tag_77\n      jump\t// in\n    tag_171:\n        /* \"#utility.yul\":9311:9313   */\n      0x20\n        /* \"#utility.yul\":9306:9309   */\n      dup3\n        /* \"#utility.yul\":9302:9314   */\n      add\n        /* \"#utility.yul\":9295:9314   */\n      swap2\n      pop\n        /* \"#utility.yul\":9331:9334   */\n      dup2\n        /* \"#utility.yul\":9324:9334   */\n      swap1\n      pop\n        /* \"#utility.yul\":8661:9340   */\n      swap6\n      swap5\n      pop\n      pop\n      pop\n      pop\n      pop\n      jump\t// out\n        /* \"#utility.yul\":9346:9522   */\n    tag_78:\n        /* \"#utility.yul\":9486:9514   */\n      0x5472616e7366657220616c726561647920696e69746961746564000000000000\n        /* \"#utility.yul\":9482:9483   */\n      0x00\n        /* \"#utility.yul\":9474:9480   */\n      dup3\n        /* \"#utility.yul\":9470:9484   */\n      add\n        /* \"#utility.yul\":9463:9515   */\n      mstore\n        /* \"#utility.yul\":9346:9522   */\n      pop\n      jump\t// out\n        /* \"#utility.yul\":9528:9894   */\n    tag_79:\n        /* \"#utility.yul\":9670:9673   */\n      0x00\n        /* \"#utility.yul\":9691:9758   */\n      tag_174\n        /* \"#utility.yul\":9755:9757   */\n      0x1a\n        /* \"#utility.yul\":9750:9753   */\n      dup4\n        /* \"#utility.yul\":9691:9758   */\n      tag_63\n      jump\t// in\n    tag_174:\n        /* \"#utility.yul\":9684:9758   */\n      swap2\n      pop\n        /* \"#utility.yul\":9767:9860   */\n      tag_175\n        /* \"#utility.yul\":9856:9859   */\n      dup3\n        /* \"#utility.yul\":9767:9860   */\n      tag_78\n      jump\t// in\n    tag_175:\n        /* \"#utility.yul\":9885:9887   */\n      0x20\n        /* \"#utility.yul\":9880:9883   */\n      dup3\n        /* \"#utility.yul\":9876:9888   */\n      add\n        /* \"#utility.yul\":9869:9888   */\n      swap1\n      pop\n        /* \"#utility.yul\":9528:9894   */\n      swap2\n      swap1\n      pop\n      jump\t// out\n        /* \"#utility.yul\":9900:10319   */\n    tag_43:\n        /* \"#utility.yul\":10066:10070   */\n      0x00\n        /* \"#utility.yul\":10104:10106   */\n      0x20\n        /* \"#utility.yul\":10093:10102   */\n      dup3\n        /* \"#utility.yul\":10089:10107   */\n      add\n        /* \"#utility.yul\":10081:10107   */\n      swap1\n      pop\n        /* \"#utility.yul\":10153:10162   */\n      dup2\n        /* \"#utility.yul\":10147:10151   */\n      dup2\n        /* \"#utility.yul\":10143:10163   */\n      sub\n        /* \"#utility.yul\":10139:10140   */\n      0x00\n        /* \"#utility.yul\":10128:10137   */\n      dup4\n        /* \"#utility.yul\":10124:10141   */\n      add\n        /* \"#utility.yul\":10117:10164   */\n      mstore\n        /* \"#utility.yul\":10181:10312   */\n      tag_177\n        /* \"#utility.yul\":10307:10311   */\n      dup2\n        /* \"#utility.yul\":10181:10312   */\n      tag_79\n      jump\t// in\n    tag_177:\n        /* \"#utility.yul\":10173:10312   */\n      swap1\n      pop\n        /* \"#utility.yul\":9900:10319   */\n      swap2\n      swap1\n      pop\n      jump\t// out\n        /* \"#utility.yul\":10325:10443   */\n    tag_80:\n        /* \"#utility.yul\":10412:10436   */\n      tag_179\n        /* \"#utility.yul\":10430:10435   */\n      dup2\n        /* \"#utility.yul\":10412:10436   */\n      tag_49\n      jump\t// in\n    tag_179:\n        /* \"#utility.yul\":10407:10410   */\n      dup3\n        /* \"#utility.yul\":10400:10437   */\n      mstore\n        /* \"#utility.yul\":10325:10443   */\n      pop\n      pop\n      jump\t// out\n        /* \"#utility.yul\":10449:10781   */\n    tag_45:\n        /* \"#utility.yul\":10570:10574   */\n      0x00\n        /* \"#utility.yul\":10608:10610   */\n      0x40\n        /* \"#utility.yul\":10597:10606   */\n      dup3\n        /* \"#utility.yul\":10593:10611   */\n      add\n        /* \"#utility.yul\":10585:10611   */\n      swap1\n      pop\n        /* \"#utility.yul\":10621:10692   */\n      tag_181\n        /* \"#utility.yul\":10689:10690   */\n      0x00\n        /* \"#utility.yul\":10678:10687   */\n      dup4\n        /* \"#utility.yul\":10674:10691   */\n      add\n        /* \"#utility.yul\":10665:10671   */\n      dup6\n        /* \"#utility.yul\":10621:10692   */\n      tag_55\n      jump\t// in\n    tag_181:\n        /* \"#utility.yul\":10702:10774   */\n      tag_182\n        /* \"#utility.yul\":10770:10772   */\n      0x20\n        /* \"#utility.yul\":10759:10768   */\n      dup4\n        /* \"#utility.yul\":10755:10773   */\n      add\n        /* \"#utility.yul\":10746:10752   */\n      dup5\n        /* \"#utility.yul\":10702:10774   */\n      tag_80\n      jump\t// in\n    tag_182:\n        /* \"#utility.yul\":10449:10781   */\n      swap4\n      swap3\n      pop\n      pop\n      pop\n      jump\t// out\n\n    auxdata: 0xa26469706673582212206dd593087f2be7a1295dcfeef78ce2f5c7e17361a6c83d5067a838f263d95f5164736f6c634300081a0033\n}\n",
				"bytecode": {
					"linkReferences": {},
					"object": "6080604052348015600e575f80fd5b50610aed8061001c5f395ff3fe608060405234801561000f575f80fd5b506004361061004a575f3560e01c806314aa2a9b1461004e57806336a55b3814610080578063b504cd1e1461009c578063ef7beec3146100b8575b5f80fd5b610068600480360381019061006391906105eb565b6100eb565b60405161007793929190610687565b60405180910390f35b61009a600480360381019061009591906105eb565b61013c565b005b6100b660048036038101906100b19190610710565b61023e565b005b6100d260048036038101906100cd91906105eb565b61053f565b6040516100e2949392919061074e565b60405180910390f35b6001602052805f5260405f205f91509050805f015f9054906101000a900460ff1690806001015490806002015f9054906101000a900473ffffffffffffffffffffffffffffffffffffffff16905083565b5f73ffffffffffffffffffffffffffffffffffffffff165f808381526020019081526020015f205f015f9054906101000a900473ffffffffffffffffffffffffffffffffffffffff1673ffffffffffffffffffffffffffffffffffffffff16036101db576040517f08c379a00000000000000000000000000000000000000000000000000000000081526004016101d2906107eb565b60405180910390fd5b60015f8281526020019081526020015f205f015f9054906101000a900460ff161561023b576040517f08c379a000000000000000000000000000000000000000000000000000000000815260040161023290610853565b60405180910390fd5b50565b5f73ffffffffffffffffffffffffffffffffffffffff168273ffffffffffffffffffffffffffffffffffffffff16036102ac576040517f08c379a00000000000000000000000000000000000000000000000000000000081526004016102a3906108bb565b60405180910390fd5b5f81116102ee576040517f08c379a00000000000000000000000000000000000000000000000000000000081526004016102e590610949565b60405180910390fd5b5f3383834260405160200161030694939291906109cc565b6040516020818303038152906040528051906020012090505f73ffffffffffffffffffffffffffffffffffffffff165f808381526020019081526020015f205f015f9054906101000a900473ffffffffffffffffffffffffffffffffffffffff1673ffffffffffffffffffffffffffffffffffffffff16146103bd576040517f08c379a00000000000000000000000000000000000000000000000000000000081526004016103b490610a63565b60405180910390fd5b60405180608001604052803373ffffffffffffffffffffffffffffffffffffffff1681526020018473ffffffffffffffffffffffffffffffffffffffff168152602001838152602001600115158152505f808381526020019081526020015f205f820151815f015f6101000a81548173ffffffffffffffffffffffffffffffffffffffff021916908373ffffffffffffffffffffffffffffffffffffffff1602179055506020820151816001015f6101000a81548173ffffffffffffffffffffffffffffffffffffffff021916908373ffffffffffffffffffffffffffffffffffffffff160217905550604082015181600201556060820151816003015f6101000a81548160ff0219169083151502179055509050508273ffffffffffffffffffffffffffffffffffffffff163373ffffffffffffffffffffffffffffffffffffffff167fcb9d2044b57a5cf2814b212b31774befe13864f33fcd04d19460489b76e636dc8484604051610532929190610a90565b60405180910390a3505050565b5f602052805f5260405f205f91509050805f015f9054906101000a900473ffffffffffffffffffffffffffffffffffffffff1690806001015f9054906101000a900473ffffffffffffffffffffffffffffffffffffffff1690806002015490806003015f9054906101000a900460ff16905084565b5f80fd5b5f819050919050565b6105ca816105b8565b81146105d4575f80fd5b50565b5f813590506105e5816105c1565b92915050565b5f60208284031215610600576105ff6105b4565b5b5f61060d848285016105d7565b91505092915050565b5f8115159050919050565b61062a81610616565b82525050565b5f819050919050565b61064281610630565b82525050565b5f73ffffffffffffffffffffffffffffffffffffffff82169050919050565b5f61067182610648565b9050919050565b61068181610667565b82525050565b5f60608201905061069a5f830186610621565b6106a76020830185610639565b6106b46040830184610678565b949350505050565b6106c581610667565b81146106cf575f80fd5b50565b5f813590506106e0816106bc565b92915050565b6106ef81610630565b81146106f9575f80fd5b50565b5f8135905061070a816106e6565b92915050565b5f8060408385031215610726576107256105b4565b5b5f610733858286016106d2565b9250506020610744858286016106fc565b9150509250929050565b5f6080820190506107615f830187610678565b61076e6020830186610678565b61077b6040830185610639565b6107886060830184610621565b95945050505050565b5f82825260208201905092915050565b7f7472616e73666572206e6f7420696e697469617465642e0000000000000000005f82015250565b5f6107d5601783610791565b91506107e0826107a1565b602082019050919050565b5f6020820190508181035f830152610802816107c9565b9050919050565b7f747261736e66657220616c726561647920636f6e6669726d65642100000000005f82015250565b5f61083d601b83610791565b915061084882610809565b602082019050919050565b5f6020820190508181035f83015261086a81610831565b9050919050565b7f496e76616c6964207265636569707420616464726573730000000000000000005f82015250565b5f6108a5601783610791565b91506108b082610871565b602082019050919050565b5f6020820190508181035f8301526108d281610899565b9050919050565b7f5472616e736665722076616c7565206d757374206265206772656174657220745f8201527f68616e2030000000000000000000000000000000000000000000000000000000602082015250565b5f610933602583610791565b915061093e826108d9565b604082019050919050565b5f6020820190508181035f83015261096081610927565b9050919050565b5f8160601b9050919050565b5f61097d82610967565b9050919050565b5f61098e82610973565b9050919050565b6109a66109a182610667565b610984565b82525050565b5f819050919050565b6109c66109c182610630565b6109ac565b82525050565b5f6109d78287610995565b6014820191506109e78286610995565b6014820191506109f782856109b5565b602082019150610a0782846109b5565b60208201915081905095945050505050565b7f5472616e7366657220616c726561647920696e697469617465640000000000005f82015250565b5f610a4d601a83610791565b9150610a5882610a19565b602082019050919050565b5f6020820190508181035f830152610a7a81610a41565b9050919050565b610a8a816105b8565b82525050565b5f604082019050610aa35f830185610639565b610ab06020830184610a81565b939250505056fea26469706673582212206dd593087f2be7a1295dcfeef78ce2f5c7e17361a6c83d5067a838f263d95f5164736f6c634300081a0033",
					"opcodes": "PUSH1 0x80 PUSH1 0x40 MSTORE CALLVALUE DUP1 ISZERO PUSH1 0xE JUMPI PUSH0 DUP1 REVERT JUMPDEST POP PUSH2 0xAED DUP1 PUSH2 0x1C PUSH0 CODECOPY PUSH0 RETURN INVALID PUSH1 0x80 PUSH1 0x40 MSTORE CALLVALUE DUP1 ISZERO PUSH2 0xF JUMPI PUSH0 DUP1 REVERT JUMPDEST POP PUSH1 0x4 CALLDATASIZE LT PUSH2 0x4A JUMPI PUSH0 CALLDATALOAD PUSH1 0xE0 SHR DUP1 PUSH4 0x14AA2A9B EQ PUSH2 0x4E JUMPI DUP1 PUSH4 0x36A55B38 EQ PUSH2 0x80 JUMPI DUP1 PUSH4 0xB504CD1E EQ PUSH2 0x9C JUMPI DUP1 PUSH4 0xEF7BEEC3 EQ PUSH2 0xB8 JUMPI JUMPDEST PUSH0 DUP1 REVERT JUMPDEST PUSH2 0x68 PUSH1 0x4 DUP1 CALLDATASIZE SUB DUP2 ADD SWAP1 PUSH2 0x63 SWAP2 SWAP1 PUSH2 0x5EB JUMP JUMPDEST PUSH2 0xEB JUMP JUMPDEST PUSH1 0x40 MLOAD PUSH2 0x77 SWAP4 SWAP3 SWAP2 SWAP1 PUSH2 0x687 JUMP JUMPDEST PUSH1 0x40 MLOAD DUP1 SWAP2 SUB SWAP1 RETURN JUMPDEST PUSH2 0x9A PUSH1 0x4 DUP1 CALLDATASIZE SUB DUP2 ADD SWAP1 PUSH2 0x95 SWAP2 SWAP1 PUSH2 0x5EB JUMP JUMPDEST PUSH2 0x13C JUMP JUMPDEST STOP JUMPDEST PUSH2 0xB6 PUSH1 0x4 DUP1 CALLDATASIZE SUB DUP2 ADD SWAP1 PUSH2 0xB1 SWAP2 SWAP1 PUSH2 0x710 JUMP JUMPDEST PUSH2 0x23E JUMP JUMPDEST STOP JUMPDEST PUSH2 0xD2 PUSH1 0x4 DUP1 CALLDATASIZE SUB DUP2 ADD SWAP1 PUSH2 0xCD SWAP2 SWAP1 PUSH2 0x5EB JUMP JUMPDEST PUSH2 0x53F JUMP JUMPDEST PUSH1 0x40 MLOAD PUSH2 0xE2 SWAP5 SWAP4 SWAP3 SWAP2 SWAP1 PUSH2 0x74E JUMP JUMPDEST PUSH1 0x40 MLOAD DUP1 SWAP2 SUB SWAP1 RETURN JUMPDEST PUSH1 0x1 PUSH1 0x20 MSTORE DUP1 PUSH0 MSTORE PUSH1 0x40 PUSH0 KECCAK256 PUSH0 SWAP2 POP SWAP1 POP DUP1 PUSH0 ADD PUSH0 SWAP1 SLOAD SWAP1 PUSH2 0x100 EXP SWAP1 DIV PUSH1 0xFF AND SWAP1 DUP1 PUSH1 0x1 ADD SLOAD SWAP1 DUP1 PUSH1 0x2 ADD PUSH0 SWAP1 SLOAD SWAP1 PUSH2 0x100 EXP SWAP1 DIV PUSH20 0xFFFFFFFFFFFFFFFFFFFFFFFFFFFFFFFFFFFFFFFF AND SWAP1 POP DUP4 JUMP JUMPDEST PUSH0 PUSH20 0xFFFFFFFFFFFFFFFFFFFFFFFFFFFFFFFFFFFFFFFF AND PUSH0 DUP1 DUP4 DUP2 MSTORE PUSH1 0x20 ADD SWAP1 DUP2 MSTORE PUSH1 0x20 ADD PUSH0 KECCAK256 PUSH0 ADD PUSH0 SWAP1 SLOAD SWAP1 PUSH2 0x100 EXP SWAP1 DIV PUSH20 0xFFFFFFFFFFFFFFFFFFFFFFFFFFFFFFFFFFFFFFFF AND PUSH20 0xFFFFFFFFFFFFFFFFFFFFFFFFFFFFFFFFFFFFFFFF AND SUB PUSH2 0x1DB JUMPI PUSH1 0x40 MLOAD PUSH32 0x8C379A000000000000000000000000000000000000000000000000000000000 DUP2 MSTORE PUSH1 0x4 ADD PUSH2 0x1D2 SWAP1 PUSH2 0x7EB JUMP JUMPDEST PUSH1 0x40 MLOAD DUP1 SWAP2 SUB SWAP1 REVERT JUMPDEST PUSH1 0x1 PUSH0 DUP3 DUP2 MSTORE PUSH1 0x20 ADD SWAP1 DUP2 MSTORE PUSH1 0x20 ADD PUSH0 KECCAK256 PUSH0 ADD PUSH0 SWAP1 SLOAD SWAP1 PUSH2 0x100 EXP SWAP1 DIV PUSH1 0xFF AND ISZERO PUSH2 0x23B JUMPI PUSH1 0x40 MLOAD PUSH32 0x8C379A000000000000000000000000000000000000000000000000000000000 DUP2 MSTORE PUSH1 0x4 ADD PUSH2 0x232 SWAP1 PUSH2 0x853 JUMP JUMPDEST PUSH1 0x40 MLOAD DUP1 SWAP2 SUB SWAP1 REVERT JUMPDEST POP JUMP JUMPDEST PUSH0 PUSH20 0xFFFFFFFFFFFFFFFFFFFFFFFFFFFFFFFFFFFFFFFF AND DUP3 PUSH20 0xFFFFFFFFFFFFFFFFFFFFFFFFFFFFFFFFFFFFFFFF AND SUB PUSH2 0x2AC JUMPI PUSH1 0x40 MLOAD PUSH32 0x8C379A000000000000000000000000000000000000000000000000000000000 DUP2 MSTORE PUSH1 0x4 ADD PUSH2 0x2A3 SWAP1 PUSH2 0x8BB JUMP JUMPDEST PUSH1 0x40 MLOAD DUP1 SWAP2 SUB SWAP1 REVERT JUMPDEST PUSH0 DUP2 GT PUSH2 0x2EE JUMPI PUSH1 0x40 MLOAD PUSH32 0x8C379A000000000000000000000000000000000000000000000000000000000 DUP2 MSTORE PUSH1 0x4 ADD PUSH2 0x2E5 SWAP1 PUSH2 0x949 JUMP JUMPDEST PUSH1 0x40 MLOAD DUP1 SWAP2 SUB SWAP1 REVERT JUMPDEST PUSH0 CALLER DUP4 DUP4 TIMESTAMP PUSH1 0x40 MLOAD PUSH1 0x20 ADD PUSH2 0x306 SWAP5 SWAP4 SWAP3 SWAP2 SWAP1 PUSH2 0x9CC JUMP JUMPDEST PUSH1 0x40 MLOAD PUSH1 0x20 DUP2 DUP4 SUB SUB DUP2 MSTORE SWAP1 PUSH1 0x40 MSTORE DUP1 MLOAD SWAP1 PUSH1 0x20 ADD KECCAK256 SWAP1 POP PUSH0 PUSH20 0xFFFFFFFFFFFFFFFFFFFFFFFFFFFFFFFFFFFFFFFF AND PUSH0 DUP1 DUP4 DUP2 MSTORE PUSH1 0x20 ADD SWAP1 DUP2 MSTORE PUSH1 0x20 ADD PUSH0 KECCAK256 PUSH0 ADD PUSH0 SWAP1 SLOAD SWAP1 PUSH2 0x100 EXP SWAP1 DIV PUSH20 0xFFFFFFFFFFFFFFFFFFFFFFFFFFFFFFFFFFFFFFFF AND PUSH20 0xFFFFFFFFFFFFFFFFFFFFFFFFFFFFFFFFFFFFFFFF AND EQ PUSH2 0x3BD JUMPI PUSH1 0x40 MLOAD PUSH32 0x8C379A000000000000000000000000000000000000000000000000000000000 DUP2 MSTORE PUSH1 0x4 ADD PUSH2 0x3B4 SWAP1 PUSH2 0xA63 JUMP JUMPDEST PUSH1 0x40 MLOAD DUP1 SWAP2 SUB SWAP1 REVERT JUMPDEST PUSH1 0x40 MLOAD DUP1 PUSH1 0x80 ADD PUSH1 0x40 MSTORE DUP1 CALLER PUSH20 0xFFFFFFFFFFFFFFFFFFFFFFFFFFFFFFFFFFFFFFFF AND DUP2 MSTORE PUSH1 0x20 ADD DUP5 PUSH20 0xFFFFFFFFFFFFFFFFFFFFFFFFFFFFFFFFFFFFFFFF AND DUP2 MSTORE PUSH1 0x20 ADD DUP4 DUP2 MSTORE PUSH1 0x20 ADD PUSH1 0x1 ISZERO ISZERO DUP2 MSTORE POP PUSH0 DUP1 DUP4 DUP2 MSTORE PUSH1 0x20 ADD SWAP1 DUP2 MSTORE PUSH1 0x20 ADD PUSH0 KECCAK256 PUSH0 DUP3 ADD MLOAD DUP2 PUSH0 ADD PUSH0 PUSH2 0x100 EXP DUP2 SLOAD DUP2 PUSH20 0xFFFFFFFFFFFFFFFFFFFFFFFFFFFFFFFFFFFFFFFF MUL NOT AND SWAP1 DUP4 PUSH20 0xFFFFFFFFFFFFFFFFFFFFFFFFFFFFFFFFFFFFFFFF AND MUL OR SWAP1 SSTORE POP PUSH1 0x20 DUP3 ADD MLOAD DUP2 PUSH1 0x1 ADD PUSH0 PUSH2 0x100 EXP DUP2 SLOAD DUP2 PUSH20 0xFFFFFFFFFFFFFFFFFFFFFFFFFFFFFFFFFFFFFFFF MUL NOT AND SWAP1 DUP4 PUSH20 0xFFFFFFFFFFFFFFFFFFFFFFFFFFFFFFFFFFFFFFFF AND MUL OR SWAP1 SSTORE POP PUSH1 0x40 DUP3 ADD MLOAD DUP2 PUSH1 0x2 ADD SSTORE PUSH1 0x60 DUP3 ADD MLOAD DUP2 PUSH1 0x3 ADD PUSH0 PUSH2 0x100 EXP DUP2 SLOAD DUP2 PUSH1 0xFF MUL NOT AND SWAP1 DUP4 ISZERO ISZERO MUL OR SWAP1 SSTORE POP SWAP1 POP POP DUP3 PUSH20 0xFFFFFFFFFFFFFFFFFFFFFFFFFFFFFFFFFFFFFFFF AND CALLER PUSH20 0xFFFFFFFFFFFFFFFFFFFFFFFFFFFFFFFFFFFFFFFF AND PUSH32 0xCB9D2044B57A5CF2814B212B31774BEFE13864F33FCD04D19460489B76E636DC DUP5 DUP5 PUSH1 0x40 MLOAD PUSH2 0x532 SWAP3 SWAP2 SWAP1 PUSH2 0xA90 JUMP JUMPDEST PUSH1 0x40 MLOAD DUP1 SWAP2 SUB SWAP1 LOG3 POP POP POP JUMP JUMPDEST PUSH0 PUSH1 0x20 MSTORE DUP1 PUSH0 MSTORE PUSH1 0x40 PUSH0 KECCAK256 PUSH0 SWAP2 POP SWAP1 POP DUP1 PUSH0 ADD PUSH0 SWAP1 SLOAD SWAP1 PUSH2 0x100 EXP SWAP1 DIV PUSH20 0xFFFFFFFFFFFFFFFFFFFFFFFFFFFFFFFFFFFFFFFF AND SWAP1 DUP1 PUSH1 0x1 ADD PUSH0 SWAP1 SLOAD SWAP1 PUSH2 0x100 EXP SWAP1 DIV PUSH20 0xFFFFFFFFFFFFFFFFFFFFFFFFFFFFFFFFFFFFFFFF AND SWAP1 DUP1 PUSH1 0x2 ADD SLOAD SWAP1 DUP1 PUSH1 0x3 ADD PUSH0 SWAP1 SLOAD SWAP1 PUSH2 0x100 EXP SWAP1 DIV PUSH1 0xFF AND SWAP1 POP DUP5 JUMP JUMPDEST PUSH0 DUP1 REVERT JUMPDEST PUSH0 DUP2 SWAP1 POP SWAP2 SWAP1 POP JUMP JUMPDEST PUSH2 0x5CA DUP2 PUSH2 0x5B8 JUMP JUMPDEST DUP2 EQ PUSH2 0x5D4 JUMPI PUSH0 DUP1 REVERT JUMPDEST POP JUMP JUMPDEST PUSH0 DUP2 CALLDATALOAD SWAP1 POP PUSH2 0x5E5 DUP2 PUSH2 0x5C1 JUMP JUMPDEST SWAP3 SWAP2 POP POP JUMP JUMPDEST PUSH0 PUSH1 0x20 DUP3 DUP5 SUB SLT ISZERO PUSH2 0x600 JUMPI PUSH2 0x5FF PUSH2 0x5B4 JUMP JUMPDEST JUMPDEST PUSH0 PUSH2 0x60D DUP5 DUP3 DUP6 ADD PUSH2 0x5D7 JUMP JUMPDEST SWAP2 POP POP SWAP3 SWAP2 POP POP JUMP JUMPDEST PUSH0 DUP2 ISZERO ISZERO SWAP1 POP SWAP2 SWAP1 POP JUMP JUMPDEST PUSH2 0x62A DUP2 PUSH2 0x616 JUMP JUMPDEST DUP3 MSTORE POP POP JUMP JUMPDEST PUSH0 DUP2 SWAP1 POP SWAP2 SWAP1 POP JUMP JUMPDEST PUSH2 0x642 DUP2 PUSH2 0x630 JUMP JUMPDEST DUP3 MSTORE POP POP JUMP JUMPDEST PUSH0 PUSH20 0xFFFFFFFFFFFFFFFFFFFFFFFFFFFFFFFFFFFFFFFF DUP3 AND SWAP1 POP SWAP2 SWAP1 POP JUMP JUMPDEST PUSH0 PUSH2 0x671 DUP3 PUSH2 0x648 JUMP JUMPDEST SWAP1 POP SWAP2 SWAP1 POP JUMP JUMPDEST PUSH2 0x681 DUP2 PUSH2 0x667 JUMP JUMPDEST DUP3 MSTORE POP POP JUMP JUMPDEST PUSH0 PUSH1 0x60 DUP3 ADD SWAP1 POP PUSH2 0x69A PUSH0 DUP4 ADD DUP7 PUSH2 0x621 JUMP JUMPDEST PUSH2 0x6A7 PUSH1 0x20 DUP4 ADD DUP6 PUSH2 0x639 JUMP JUMPDEST PUSH2 0x6B4 PUSH1 0x40 DUP4 ADD DUP5 PUSH2 0x678 JUMP JUMPDEST SWAP5 SWAP4 POP POP POP POP JUMP JUMPDEST PUSH2 0x6C5 DUP2 PUSH2 0x667 JUMP JUMPDEST DUP2 EQ PUSH2 0x6CF JUMPI PUSH0 DUP1 REVERT JUMPDEST POP JUMP JUMPDEST PUSH0 DUP2 CALLDATALOAD SWAP1 POP PUSH2 0x6E0 DUP2 PUSH2 0x6BC JUMP JUMPDEST SWAP3 SWAP2 POP POP JUMP JUMPDEST PUSH2 0x6EF DUP2 PUSH2 0x630 JUMP JUMPDEST DUP2 EQ PUSH2 0x6F9 JUMPI PUSH0 DUP1 REVERT JUMPDEST POP JUMP JUMPDEST PUSH0 DUP2 CALLDATALOAD SWAP1 POP PUSH2 0x70A DUP2 PUSH2 0x6E6 JUMP JUMPDEST SWAP3 SWAP2 POP POP JUMP JUMPDEST PUSH0 DUP1 PUSH1 0x40 DUP4 DUP6 SUB SLT ISZERO PUSH2 0x726 JUMPI PUSH2 0x725 PUSH2 0x5B4 JUMP JUMPDEST JUMPDEST PUSH0 PUSH2 0x733 DUP6 DUP3 DUP7 ADD PUSH2 0x6D2 JUMP JUMPDEST SWAP3 POP POP PUSH1 0x20 PUSH2 0x744 DUP6 DUP3 DUP7 ADD PUSH2 0x6FC JUMP JUMPDEST SWAP2 POP POP SWAP3 POP SWAP3 SWAP1 POP JUMP JUMPDEST PUSH0 PUSH1 0x80 DUP3 ADD SWAP1 POP PUSH2 0x761 PUSH0 DUP4 ADD DUP8 PUSH2 0x678 JUMP JUMPDEST PUSH2 0x76E PUSH1 0x20 DUP4 ADD DUP7 PUSH2 0x678 JUMP JUMPDEST PUSH2 0x77B PUSH1 0x40 DUP4 ADD DUP6 PUSH2 0x639 JUMP JUMPDEST PUSH2 0x788 PUSH1 0x60 DUP4 ADD DUP5 PUSH2 0x621 JUMP JUMPDEST SWAP6 SWAP5 POP POP POP POP POP JUMP JUMPDEST PUSH0 DUP3 DUP3 MSTORE PUSH1 0x20 DUP3 ADD SWAP1 POP SWAP3 SWAP2 POP POP JUMP JUMPDEST PUSH32 0x7472616E73666572206E6F7420696E697469617465642E000000000000000000 PUSH0 DUP3 ADD MSTORE POP JUMP JUMPDEST PUSH0 PUSH2 0x7D5 PUSH1 0x17 DUP4 PUSH2 0x791 JUMP JUMPDEST SWAP2 POP PUSH2 0x7E0 DUP3 PUSH2 0x7A1 JUMP JUMPDEST PUSH1 0x20 DUP3 ADD SWAP1 POP SWAP2 SWAP1 POP JUMP JUMPDEST PUSH0 PUSH1 0x20 DUP3 ADD SWAP1 POP DUP2 DUP2 SUB PUSH0 DUP4 ADD MSTORE PUSH2 0x802 DUP2 PUSH2 0x7C9 JUMP JUMPDEST SWAP1 POP SWAP2 SWAP1 POP JUMP JUMPDEST PUSH32 0x747261736E66657220616C726561647920636F6E6669726D6564210000000000 PUSH0 DUP3 ADD MSTORE POP JUMP JUMPDEST PUSH0 PUSH2 0x83D PUSH1 0x1B DUP4 PUSH2 0x791 JUMP JUMPDEST SWAP2 POP PUSH2 0x848 DUP3 PUSH2 0x809 JUMP JUMPDEST PUSH1 0x20 DUP3 ADD SWAP1 POP SWAP2 SWAP1 POP JUMP JUMPDEST PUSH0 PUSH1 0x20 DUP3 ADD SWAP1 POP DUP2 DUP2 SUB PUSH0 DUP4 ADD MSTORE PUSH2 0x86A DUP2 PUSH2 0x831 JUMP JUMPDEST SWAP1 POP SWAP2 SWAP1 POP JUMP JUMPDEST PUSH32 0x496E76616C696420726563656970742061646472657373000000000000000000 PUSH0 DUP3 ADD MSTORE POP JUMP JUMPDEST PUSH0 PUSH2 0x8A5 PUSH1 0x17 DUP4 PUSH2 0x791 JUMP JUMPDEST SWAP2 POP PUSH2 0x8B0 DUP3 PUSH2 0x871 JUMP JUMPDEST PUSH1 0x20 DUP3 ADD SWAP1 POP SWAP2 SWAP1 POP JUMP JUMPDEST PUSH0 PUSH1 0x20 DUP3 ADD SWAP1 POP DUP2 DUP2 SUB PUSH0 DUP4 ADD MSTORE PUSH2 0x8D2 DUP2 PUSH2 0x899 JUMP JUMPDEST SWAP1 POP SWAP2 SWAP1 POP JUMP JUMPDEST PUSH32 0x5472616E736665722076616C7565206D75737420626520677265617465722074 PUSH0 DUP3 ADD MSTORE PUSH32 0x68616E2030000000000000000000000000000000000000000000000000000000 PUSH1 0x20 DUP3 ADD MSTORE POP JUMP JUMPDEST PUSH0 PUSH2 0x933 PUSH1 0x25 DUP4 PUSH2 0x791 JUMP JUMPDEST SWAP2 POP PUSH2 0x93E DUP3 PUSH2 0x8D9 JUMP JUMPDEST PUSH1 0x40 DUP3 ADD SWAP1 POP SWAP2 SWAP1 POP JUMP JUMPDEST PUSH0 PUSH1 0x20 DUP3 ADD SWAP1 POP DUP2 DUP2 SUB PUSH0 DUP4 ADD MSTORE PUSH2 0x960 DUP2 PUSH2 0x927 JUMP JUMPDEST SWAP1 POP SWAP2 SWAP1 POP JUMP JUMPDEST PUSH0 DUP2 PUSH1 0x60 SHL SWAP1 POP SWAP2 SWAP1 POP JUMP JUMPDEST PUSH0 PUSH2 0x97D DUP3 PUSH2 0x967 JUMP JUMPDEST SWAP1 POP SWAP2 SWAP1 POP JUMP JUMPDEST PUSH0 PUSH2 0x98E DUP3 PUSH2 0x973 JUMP JUMPDEST SWAP1 POP SWAP2 SWAP1 POP JUMP JUMPDEST PUSH2 0x9A6 PUSH2 0x9A1 DUP3 PUSH2 0x667 JUMP JUMPDEST PUSH2 0x984 JUMP JUMPDEST DUP3 MSTORE POP POP JUMP JUMPDEST PUSH0 DUP2 SWAP1 POP SWAP2 SWAP1 POP JUMP JUMPDEST PUSH2 0x9C6 PUSH2 0x9C1 DUP3 PUSH2 0x630 JUMP JUMPDEST PUSH2 0x9AC JUMP JUMPDEST DUP3 MSTORE POP POP JUMP JUMPDEST PUSH0 PUSH2 0x9D7 DUP3 DUP8 PUSH2 0x995 JUMP JUMPDEST PUSH1 0x14 DUP3 ADD SWAP2 POP PUSH2 0x9E7 DUP3 DUP7 PUSH2 0x995 JUMP JUMPDEST PUSH1 0x14 DUP3 ADD SWAP2 POP PUSH2 0x9F7 DUP3 DUP6 PUSH2 0x9B5 JUMP JUMPDEST PUSH1 0x20 DUP3 ADD SWAP2 POP PUSH2 0xA07 DUP3 DUP5 PUSH2 0x9B5 JUMP JUMPDEST PUSH1 0x20 DUP3 ADD SWAP2 POP DUP2 SWAP1 POP SWAP6 SWAP5 POP POP POP POP POP JUMP JUMPDEST PUSH32 0x5472616E7366657220616C726561647920696E69746961746564000000000000 PUSH0 DUP3 ADD MSTORE POP JUMP JUMPDEST PUSH0 PUSH2 0xA4D PUSH1 0x1A DUP4 PUSH2 0x791 JUMP JUMPDEST SWAP2 POP PUSH2 0xA58 DUP3 PUSH2 0xA19 JUMP JUMPDEST PUSH1 0x20 DUP3 ADD SWAP1 POP SWAP2 SWAP1 POP JUMP JUMPDEST PUSH0 PUSH1 0x20 DUP3 ADD SWAP1 POP DUP2 DUP2 SUB PUSH0 DUP4 ADD MSTORE PUSH2 0xA7A DUP2 PUSH2 0xA41 JUMP JUMPDEST SWAP1 POP SWAP2 SWAP1 POP JUMP JUMPDEST PUSH2 0xA8A DUP2 PUSH2 0x5B8 JUMP JUMPDEST DUP3 MSTORE POP POP JUMP JUMPDEST PUSH0 PUSH1 0x40 DUP3 ADD SWAP1 POP PUSH2 0xAA3 PUSH0 DUP4 ADD DUP6 PUSH2 0x639 JUMP JUMPDEST PUSH2 0xAB0 PUSH1 0x20 DUP4 ADD DUP5 PUSH2 0xA81 JUMP JUMPDEST SWAP4 SWAP3 POP POP POP JUMP INVALID LOG2 PUSH5 0x6970667358 0x22 SLT KECCAK256 PUSH14 0xD593087F2BE7A1295DCFEEF78CE2 CREATE2 0xC7 0xE1 PUSH20 0x61A6C83D5067A838F263D95F5164736F6C634300 ADDMOD BYTE STOP CALLER "
				},
				"gasEstimates": {
					"creation": {
						"codeDepositCost": "559400",
						"executionCost": "592",
						"totalCost": "559992"
					},
					"external": {
						"TransferConfirmations(bytes32)": "7291",
						"confirmTransfer(bytes32)": "5169",
						"initiateTransfer(address,uint256)": "infinite",
						"initiatedTransfer(bytes32)": "infinite"
					}
				},
				"methodIdentifiers": {
					"TransferConfirmations(bytes32)": "14aa2a9b",
					"confirmTransfer(bytes32)": "36a55b38",
					"initiateTransfer(address,uint256)": "b504cd1e",
					"initiatedTransfer(bytes32)": "ef7beec3"
				}
			},
			"storageLayout": {
				"storage": [
					{
						"astId": 33,
						"contract": "contracts/31 events advance.sol:EventDriverArchitecture",
						"label": "initiatedTransfer",
						"offset": 0,
						"slot": "0",
						"type": "t_mapping(t_bytes32,t_struct(Transfer)28_storage)"
					},
					{
						"astId": 45,
						"contract": "contracts/31 events advance.sol:EventDriverArchitecture",
						"label": "TransferConfirmations",
						"offset": 0,
						"slot": "1",
						"type": "t_mapping(t_bytes32,t_struct(TransferConfirmation)40_storage)"
					}
				],
				"types": {
					"t_address": {
						"encoding": "inplace",
						"label": "address",
						"numberOfBytes": "20"
					},
					"t_bool": {
						"encoding": "inplace",
						"label": "bool",
						"numberOfBytes": "1"
					},
					"t_bytes32": {
						"encoding": "inplace",
						"label": "bytes32",
						"numberOfBytes": "32"
					},
					"t_mapping(t_bytes32,t_struct(Transfer)28_storage)": {
						"encoding": "mapping",
						"key": "t_bytes32",
						"label": "mapping(bytes32 => struct EventDriverArchitecture.Transfer)",
						"numberOfBytes": "32",
						"value": "t_struct(Transfer)28_storage"
					},
					"t_mapping(t_bytes32,t_struct(TransferConfirmation)40_storage)": {
						"encoding": "mapping",
						"key": "t_bytes32",
						"label": "mapping(bytes32 => struct EventDriverArchitecture.TransferConfirmation)",
						"numberOfBytes": "32",
						"value": "t_struct(TransferConfirmation)40_storage"
					},
					"t_struct(Transfer)28_storage": {
						"encoding": "inplace",
						"label": "struct EventDriverArchitecture.Transfer",
						"members": [
							{
								"astId": 21,
								"contract": "contracts/31 events advance.sol:EventDriverArchitecture",
								"label": "from",
								"offset": 0,
								"slot": "0",
								"type": "t_address"
							},
							{
								"astId": 23,
								"contract": "contracts/31 events advance.sol:EventDriverArchitecture",
								"label": "to",
								"offset": 0,
								"slot": "1",
								"type": "t_address"
							},
							{
								"astId": 25,
								"contract": "contracts/31 events advance.sol:EventDriverArchitecture",
								"label": "value",
								"offset": 0,
								"slot": "2",
								"type": "t_uint256"
							},
							{
								"astId": 27,
								"contract": "contracts/31 events advance.sol:EventDriverArchitecture",
								"label": "exist",
								"offset": 0,
								"slot": "3",
								"type": "t_bool"
							}
						],
						"numberOfBytes": "128"
					},
					"t_struct(TransferConfirmation)40_storage": {
						"encoding": "inplace",
						"label": "struct EventDriverArchitecture.TransferConfirmation",
						"members": [
							{
								"astId": 35,
								"contract": "contracts/31 events advance.sol:EventDriverArchitecture",
								"label": "confirmed",
								"offset": 0,
								"slot": "0",
								"type": "t_bool"
							},
							{
								"astId": 37,
								"contract": "contracts/31 events advance.sol:EventDriverArchitecture",
								"label": "confirmedAt",
								"offset": 0,
								"slot": "1",
								"type": "t_uint256"
							},
							{
								"astId": 39,
								"contract": "contracts/31 events advance.sol:EventDriverArchitecture",
								"label": "confirmedBy",
								"offset": 0,
								"slot": "2",
								"type": "t_address"
							}
						],
						"numberOfBytes": "96"
					},
					"t_uint256": {
						"encoding": "inplace",
						"label": "uint256",
						"numberOfBytes": "32"
					}
				}
			},
			"userdoc": {
				"kind": "user",
				"methods": {},
				"version": 1
			}
		}
	}
}