{
	"contracts/Chalange 03.sol": {
		"IntroFunction": {
			"abi": [
				{
					"inputs": [
						{
							"internalType": "uint256",
							"name": "x",
							"type": "uint256"
						},
						{
							"internalType": "uint256",
							"name": "y",
							"type": "uint256"
						}
					],
					"name": "add",
					"outputs": [
						{
							"internalType": "uint256",
							"name": "",
							"type": "uint256"
						}
					],
					"stateMutability": "pure",
					"type": "function"
				},
				{
					"inputs": [
						{
							"internalType": "uint256",
							"name": "x",
							"type": "uint256"
						},
						{
							"internalType": "uint256",
							"name": "y",
							"type": "uint256"
						}
					],
					"name": "div",
					"outputs": [
						{
							"internalType": "uint256",
							"name": "",
							"type": "uint256"
						}
					],
					"stateMutability": "pure",
					"type": "function"
				},
				{
					"inputs": [
						{
							"internalType": "uint256",
							"name": "x",
							"type": "uint256"
						},
						{
							"internalType": "uint256",
							"name": "y",
							"type": "uint256"
						}
					],
					"name": "exp",
					"outputs": [
						{
							"internalType": "uint256",
							"name": "",
							"type": "uint256"
						}
					],
					"stateMutability": "pure",
					"type": "function"
				},
				{
					"inputs": [
						{
							"internalType": "uint256",
							"name": "x",
							"type": "uint256"
						},
						{
							"internalType": "uint256",
							"name": "y",
							"type": "uint256"
						}
					],
					"name": "mod",
					"outputs": [
						{
							"internalType": "uint256",
							"name": "",
							"type": "uint256"
						}
					],
					"stateMutability": "pure",
					"type": "function"
				},
				{
					"inputs": [
						{
							"internalType": "uint256",
							"name": "x",
							"type": "uint256"
						},
						{
							"internalType": "uint256",
							"name": "y",
							"type": "uint256"
						}
					],
					"name": "mult",
					"outputs": [
						{
							"internalType": "uint256",
							"name": "",
							"type": "uint256"
						}
					],
					"stateMutability": "pure",
					"type": "function"
				},
				{
					"inputs": [
						{
							"internalType": "uint256",
							"name": "newX",
							"type": "uint256"
						}
					],
					"name": "setX",
					"outputs": [],
					"stateMutability": "nonpayable",
					"type": "function"
				},
				{
					"inputs": [
						{
							"internalType": "uint256",
							"name": "newY",
							"type": "uint256"
						}
					],
					"name": "setY",
					"outputs": [],
					"stateMutability": "nonpayable",
					"type": "function"
				},
				{
					"inputs": [
						{
							"internalType": "uint256",
							"name": "x",
							"type": "uint256"
						},
						{
							"internalType": "uint256",
							"name": "y",
							"type": "uint256"
						}
					],
					"name": "sub",
					"outputs": [
						{
							"internalType": "uint256",
							"name": "",
							"type": "uint256"
						}
					],
					"stateMutability": "pure",
					"type": "function"
				},
				{
					"inputs": [],
					"name": "x",
					"outputs": [
						{
							"internalType": "uint256",
							"name": "",
							"type": "uint256"
						}
					],
					"stateMutability": "view",
					"type": "function"
				},
				{
					"inputs": [],
					"name": "y",
					"outputs": [
						{
							"internalType": "uint256",
							"name": "",
							"type": "uint256"
						}
					],
					"stateMutability": "view",
					"type": "function"
				}
			],
			"devdoc": {
				"kind": "dev",
				"methods": {},
				"version": 1
			},
			"evm": {
				"assembly": "    /* \"contracts/Chalange 03.sol\":57:785  contract IntroFunction{... */\n  mstore(0x40, 0x80)\n  callvalue\n  dup1\n  iszero\n  tag_1\n  jumpi\n  0x00\n  dup1\n  revert\ntag_1:\n  pop\n  dataSize(sub_0)\n  dup1\n  dataOffset(sub_0)\n  0x00\n  codecopy\n  0x00\n  return\nstop\n\nsub_0: assembly {\n        /* \"contracts/Chalange 03.sol\":57:785  contract IntroFunction{... */\n      mstore(0x40, 0x80)\n      callvalue\n      dup1\n      iszero\n      tag_1\n      jumpi\n      0x00\n      dup1\n      revert\n    tag_1:\n      pop\n      jumpi(tag_2, lt(calldatasize, 0x04))\n      shr(0xe0, calldataload(0x00))\n      dup1\n      0xa391c15b\n      gt\n      tag_13\n      jumpi\n      dup1\n      0xa391c15b\n      eq\n      tag_8\n      jumpi\n      dup1\n      0xa56dfe4a\n      eq\n      tag_9\n      jumpi\n      dup1\n      0xb67d77c5\n      eq\n      tag_10\n      jumpi\n      dup1\n      0xf43f523a\n      eq\n      tag_11\n      jumpi\n      dup1\n      0xf5f565f8\n      eq\n      tag_12\n      jumpi\n      jump(tag_2)\n    tag_13:\n      dup1\n      0x0c55699c\n      eq\n      tag_3\n      jumpi\n      dup1\n      0x4018d9aa\n      eq\n      tag_4\n      jumpi\n      dup1\n      0x68d466b8\n      eq\n      tag_5\n      jumpi\n      dup1\n      0x771602f7\n      eq\n      tag_6\n      jumpi\n      dup1\n      0x9aa727f6\n      eq\n      tag_7\n      jumpi\n    tag_2:\n      0x00\n      dup1\n      revert\n        /* \"contracts/Chalange 03.sol\":85:98  uint public x */\n    tag_3:\n      tag_14\n      tag_15\n      jump\t// in\n    tag_14:\n      mload(0x40)\n      tag_16\n      swap2\n      swap1\n      tag_17\n      jump\t// in\n    tag_16:\n      mload(0x40)\n      dup1\n      swap2\n      sub\n      swap1\n      return\n        /* \"contracts/Chalange 03.sol\":124:180  function setX(uint newX) public{... */\n    tag_4:\n      tag_18\n      0x04\n      dup1\n      calldatasize\n      sub\n      dup2\n      add\n      swap1\n      tag_19\n      swap2\n      swap1\n      tag_20\n      jump\t// in\n    tag_19:\n      tag_21\n      jump\t// in\n    tag_18:\n      stop\n        /* \"contracts/Chalange 03.sol\":190:245  function setY(uint newY)public{... */\n    tag_5:\n      tag_22\n      0x04\n      dup1\n      calldatasize\n      sub\n      dup2\n      add\n      swap1\n      tag_23\n      swap2\n      swap1\n      tag_20\n      jump\t// in\n    tag_23:\n      tag_24\n      jump\t// in\n    tag_22:\n      stop\n        /* \"contracts/Chalange 03.sol\":251:336  function add(uint x,uint y) external pure returns (uint){... */\n    tag_6:\n      tag_25\n      0x04\n      dup1\n      calldatasize\n      sub\n      dup2\n      add\n      swap1\n      tag_26\n      swap2\n      swap1\n      tag_27\n      jump\t// in\n    tag_26:\n      tag_28\n      jump\t// in\n    tag_25:\n      mload(0x40)\n      tag_29\n      swap2\n      swap1\n      tag_17\n      jump\t// in\n    tag_29:\n      mload(0x40)\n      dup1\n      swap2\n      sub\n      swap1\n      return\n        /* \"contracts/Chalange 03.sol\":430:515  function mult(uint x,uint y) external pure returns(uint){... */\n    tag_7:\n      tag_30\n      0x04\n      dup1\n      calldatasize\n      sub\n      dup2\n      add\n      swap1\n      tag_31\n      swap2\n      swap1\n      tag_27\n      jump\t// in\n    tag_31:\n      tag_32\n      jump\t// in\n    tag_30:\n      mload(0x40)\n      tag_33\n      swap2\n      swap1\n      tag_17\n      jump\t// in\n    tag_33:\n      mload(0x40)\n      dup1\n      swap2\n      sub\n      swap1\n      return\n        /* \"contracts/Chalange 03.sol\":520:604  function div(uint x,uint y) external pure returns(uint){... */\n    tag_8:\n      tag_34\n      0x04\n      dup1\n      calldatasize\n      sub\n      dup2\n      add\n      swap1\n      tag_35\n      swap2\n      swap1\n      tag_27\n      jump\t// in\n    tag_35:\n      tag_36\n      jump\t// in\n    tag_34:\n      mload(0x40)\n      tag_37\n      swap2\n      swap1\n      tag_17\n      jump\t// in\n    tag_37:\n      mload(0x40)\n      dup1\n      swap2\n      sub\n      swap1\n      return\n        /* \"contracts/Chalange 03.sol\":104:117  uint public y */\n    tag_9:\n      tag_38\n      tag_39\n      jump\t// in\n    tag_38:\n      mload(0x40)\n      tag_40\n      swap2\n      swap1\n      tag_17\n      jump\t// in\n    tag_40:\n      mload(0x40)\n      dup1\n      swap2\n      sub\n      swap1\n      return\n        /* \"contracts/Chalange 03.sol\":341:425  function sub(uint x,uint y) external pure returns(uint){... */\n    tag_10:\n      tag_41\n      0x04\n      dup1\n      calldatasize\n      sub\n      dup2\n      add\n      swap1\n      tag_42\n      swap2\n      swap1\n      tag_27\n      jump\t// in\n    tag_42:\n      tag_43\n      jump\t// in\n    tag_41:\n      mload(0x40)\n      tag_44\n      swap2\n      swap1\n      tag_17\n      jump\t// in\n    tag_44:\n      mload(0x40)\n      dup1\n      swap2\n      sub\n      swap1\n      return\n        /* \"contracts/Chalange 03.sol\":609:693  function mod(uint x,uint y) external pure returns(uint){... */\n    tag_11:\n      tag_45\n      0x04\n      dup1\n      calldatasize\n      sub\n      dup2\n      add\n      swap1\n      tag_46\n      swap2\n      swap1\n      tag_27\n      jump\t// in\n    tag_46:\n      tag_47\n      jump\t// in\n    tag_45:\n      mload(0x40)\n      tag_48\n      swap2\n      swap1\n      tag_17\n      jump\t// in\n    tag_48:\n      mload(0x40)\n      dup1\n      swap2\n      sub\n      swap1\n      return\n        /* \"contracts/Chalange 03.sol\":698:783  function exp(uint x,uint y) external pure returns(uint){... */\n    tag_12:\n      tag_49\n      0x04\n      dup1\n      calldatasize\n      sub\n      dup2\n      add\n      swap1\n      tag_50\n      swap2\n      swap1\n      tag_27\n      jump\t// in\n    tag_50:\n      tag_51\n      jump\t// in\n    tag_49:\n      mload(0x40)\n      tag_52\n      swap2\n      swap1\n      tag_17\n      jump\t// in\n    tag_52:\n      mload(0x40)\n      dup1\n      swap2\n      sub\n      swap1\n      return\n        /* \"contracts/Chalange 03.sol\":85:98  uint public x */\n    tag_15:\n      sload(0x00)\n      dup2\n      jump\t// out\n        /* \"contracts/Chalange 03.sol\":124:180  function setX(uint newX) public{... */\n    tag_21:\n        /* \"contracts/Chalange 03.sol\":169:173  newX */\n      dup1\n        /* \"contracts/Chalange 03.sol\":165:166  x */\n      0x00\n        /* \"contracts/Chalange 03.sol\":165:173  x = newX */\n      dup2\n      swap1\n      sstore\n      pop\n        /* \"contracts/Chalange 03.sol\":124:180  function setX(uint newX) public{... */\n      pop\n      jump\t// out\n        /* \"contracts/Chalange 03.sol\":190:245  function setY(uint newY)public{... */\n    tag_24:\n        /* \"contracts/Chalange 03.sol\":234:238  newY */\n      dup1\n        /* \"contracts/Chalange 03.sol\":230:231  y */\n      0x01\n        /* \"contracts/Chalange 03.sol\":230:238  y = newY */\n      dup2\n      swap1\n      sstore\n      pop\n        /* \"contracts/Chalange 03.sol\":190:245  function setY(uint newY)public{... */\n      pop\n      jump\t// out\n        /* \"contracts/Chalange 03.sol\":251:336  function add(uint x,uint y) external pure returns (uint){... */\n    tag_28:\n        /* \"contracts/Chalange 03.sol\":302:306  uint */\n      0x00\n        /* \"contracts/Chalange 03.sol\":328:329  y */\n      dup2\n        /* \"contracts/Chalange 03.sol\":324:325  x */\n      dup4\n        /* \"contracts/Chalange 03.sol\":324:329  x + y */\n      tag_56\n      swap2\n      swap1\n      tag_57\n      jump\t// in\n    tag_56:\n        /* \"contracts/Chalange 03.sol\":317:329  return x + y */\n      swap1\n      pop\n        /* \"contracts/Chalange 03.sol\":251:336  function add(uint x,uint y) external pure returns (uint){... */\n      swap3\n      swap2\n      pop\n      pop\n      jump\t// out\n        /* \"contracts/Chalange 03.sol\":430:515  function mult(uint x,uint y) external pure returns(uint){... */\n    tag_32:\n        /* \"contracts/Chalange 03.sol\":481:485  uint */\n      0x00\n        /* \"contracts/Chalange 03.sol\":507:508  y */\n      dup2\n        /* \"contracts/Chalange 03.sol\":503:504  x */\n      dup4\n        /* \"contracts/Chalange 03.sol\":503:508  x * y */\n      tag_59\n      swap2\n      swap1\n      tag_60\n      jump\t// in\n    tag_59:\n        /* \"contracts/Chalange 03.sol\":496:508  return x * y */\n      swap1\n      pop\n        /* \"contracts/Chalange 03.sol\":430:515  function mult(uint x,uint y) external pure returns(uint){... */\n      swap3\n      swap2\n      pop\n      pop\n      jump\t// out\n        /* \"contracts/Chalange 03.sol\":520:604  function div(uint x,uint y) external pure returns(uint){... */\n    tag_36:\n        /* \"contracts/Chalange 03.sol\":570:574  uint */\n      0x00\n        /* \"contracts/Chalange 03.sol\":596:597  y */\n      dup2\n        /* \"contracts/Chalange 03.sol\":592:593  x */\n      dup4\n        /* \"contracts/Chalange 03.sol\":592:597  x / y */\n      tag_62\n      swap2\n      swap1\n      tag_63\n      jump\t// in\n    tag_62:\n        /* \"contracts/Chalange 03.sol\":585:597  return x / y */\n      swap1\n      pop\n        /* \"contracts/Chalange 03.sol\":520:604  function div(uint x,uint y) external pure returns(uint){... */\n      swap3\n      swap2\n      pop\n      pop\n      jump\t// out\n        /* \"contracts/Chalange 03.sol\":104:117  uint public y */\n    tag_39:\n      sload(0x01)\n      dup2\n      jump\t// out\n        /* \"contracts/Chalange 03.sol\":341:425  function sub(uint x,uint y) external pure returns(uint){... */\n    tag_43:\n        /* \"contracts/Chalange 03.sol\":391:395  uint */\n      0x00\n        /* \"contracts/Chalange 03.sol\":417:418  y */\n      dup2\n        /* \"contracts/Chalange 03.sol\":413:414  x */\n      dup4\n        /* \"contracts/Chalange 03.sol\":413:418  x - y */\n      tag_65\n      swap2\n      swap1\n      tag_66\n      jump\t// in\n    tag_65:\n        /* \"contracts/Chalange 03.sol\":406:418  return x - y */\n      swap1\n      pop\n        /* \"contracts/Chalange 03.sol\":341:425  function sub(uint x,uint y) external pure returns(uint){... */\n      swap3\n      swap2\n      pop\n      pop\n      jump\t// out\n        /* \"contracts/Chalange 03.sol\":609:693  function mod(uint x,uint y) external pure returns(uint){... */\n    tag_47:\n        /* \"contracts/Chalange 03.sol\":659:663  uint */\n      0x00\n        /* \"contracts/Chalange 03.sol\":685:686  y */\n      dup2\n        /* \"contracts/Chalange 03.sol\":681:682  x */\n      dup4\n        /* \"contracts/Chalange 03.sol\":681:686  x % y */\n      tag_68\n      swap2\n      swap1\n      tag_69\n      jump\t// in\n    tag_68:\n        /* \"contracts/Chalange 03.sol\":674:686  return x % y */\n      swap1\n      pop\n        /* \"contracts/Chalange 03.sol\":609:693  function mod(uint x,uint y) external pure returns(uint){... */\n      swap3\n      swap2\n      pop\n      pop\n      jump\t// out\n        /* \"contracts/Chalange 03.sol\":698:783  function exp(uint x,uint y) external pure returns(uint){... */\n    tag_51:\n        /* \"contracts/Chalange 03.sol\":748:752  uint */\n      0x00\n        /* \"contracts/Chalange 03.sol\":775:776  y */\n      dup2\n        /* \"contracts/Chalange 03.sol\":770:771  x */\n      dup4\n        /* \"contracts/Chalange 03.sol\":770:776  x ** y */\n      tag_71\n      swap2\n      swap1\n      tag_72\n      jump\t// in\n    tag_71:\n        /* \"contracts/Chalange 03.sol\":763:776  return x ** y */\n      swap1\n      pop\n        /* \"contracts/Chalange 03.sol\":698:783  function exp(uint x,uint y) external pure returns(uint){... */\n      swap3\n      swap2\n      pop\n      pop\n      jump\t// out\n        /* \"#utility.yul\":7:84   */\n    tag_73:\n        /* \"#utility.yul\":44:51   */\n      0x00\n        /* \"#utility.yul\":73:78   */\n      dup2\n        /* \"#utility.yul\":62:78   */\n      swap1\n      pop\n        /* \"#utility.yul\":7:84   */\n      swap2\n      swap1\n      pop\n      jump\t// out\n        /* \"#utility.yul\":90:208   */\n    tag_74:\n        /* \"#utility.yul\":177:201   */\n      tag_88\n        /* \"#utility.yul\":195:200   */\n      dup2\n        /* \"#utility.yul\":177:201   */\n      tag_73\n      jump\t// in\n    tag_88:\n        /* \"#utility.yul\":172:175   */\n      dup3\n        /* \"#utility.yul\":165:202   */\n      mstore\n        /* \"#utility.yul\":90:208   */\n      pop\n      pop\n      jump\t// out\n        /* \"#utility.yul\":214:436   */\n    tag_17:\n        /* \"#utility.yul\":307:311   */\n      0x00\n        /* \"#utility.yul\":345:347   */\n      0x20\n        /* \"#utility.yul\":334:343   */\n      dup3\n        /* \"#utility.yul\":330:348   */\n      add\n        /* \"#utility.yul\":322:348   */\n      swap1\n      pop\n        /* \"#utility.yul\":358:429   */\n      tag_90\n        /* \"#utility.yul\":426:427   */\n      0x00\n        /* \"#utility.yul\":415:424   */\n      dup4\n        /* \"#utility.yul\":411:428   */\n      add\n        /* \"#utility.yul\":402:408   */\n      dup5\n        /* \"#utility.yul\":358:429   */\n      tag_74\n      jump\t// in\n    tag_90:\n        /* \"#utility.yul\":214:436   */\n      swap3\n      swap2\n      pop\n      pop\n      jump\t// out\n        /* \"#utility.yul\":523:640   */\n    tag_76:\n        /* \"#utility.yul\":632:633   */\n      0x00\n        /* \"#utility.yul\":629:630   */\n      dup1\n        /* \"#utility.yul\":622:634   */\n      revert\n        /* \"#utility.yul\":769:891   */\n    tag_78:\n        /* \"#utility.yul\":842:866   */\n      tag_95\n        /* \"#utility.yul\":860:865   */\n      dup2\n        /* \"#utility.yul\":842:866   */\n      tag_73\n      jump\t// in\n    tag_95:\n        /* \"#utility.yul\":835:840   */\n      dup2\n        /* \"#utility.yul\":832:867   */\n      eq\n        /* \"#utility.yul\":822:885   */\n      tag_96\n      jumpi\n        /* \"#utility.yul\":881:882   */\n      0x00\n        /* \"#utility.yul\":878:879   */\n      dup1\n        /* \"#utility.yul\":871:883   */\n      revert\n        /* \"#utility.yul\":822:885   */\n    tag_96:\n        /* \"#utility.yul\":769:891   */\n      pop\n      jump\t// out\n        /* \"#utility.yul\":897:1036   */\n    tag_79:\n        /* \"#utility.yul\":943:948   */\n      0x00\n        /* \"#utility.yul\":981:987   */\n      dup2\n        /* \"#utility.yul\":968:988   */\n      calldataload\n        /* \"#utility.yul\":959:988   */\n      swap1\n      pop\n        /* \"#utility.yul\":997:1030   */\n      tag_98\n        /* \"#utility.yul\":1024:1029   */\n      dup2\n        /* \"#utility.yul\":997:1030   */\n      tag_78\n      jump\t// in\n    tag_98:\n        /* \"#utility.yul\":897:1036   */\n      swap3\n      swap2\n      pop\n      pop\n      jump\t// out\n        /* \"#utility.yul\":1042:1371   */\n    tag_20:\n        /* \"#utility.yul\":1101:1107   */\n      0x00\n        /* \"#utility.yul\":1150:1152   */\n      0x20\n        /* \"#utility.yul\":1138:1147   */\n      dup3\n        /* \"#utility.yul\":1129:1136   */\n      dup5\n        /* \"#utility.yul\":1125:1148   */\n      sub\n        /* \"#utility.yul\":1121:1153   */\n      slt\n        /* \"#utility.yul\":1118:1237   */\n      iszero\n      tag_100\n      jumpi\n        /* \"#utility.yul\":1156:1235   */\n      tag_101\n      tag_76\n      jump\t// in\n    tag_101:\n        /* \"#utility.yul\":1118:1237   */\n    tag_100:\n        /* \"#utility.yul\":1276:1277   */\n      0x00\n        /* \"#utility.yul\":1301:1354   */\n      tag_102\n        /* \"#utility.yul\":1346:1353   */\n      dup5\n        /* \"#utility.yul\":1337:1343   */\n      dup3\n        /* \"#utility.yul\":1326:1335   */\n      dup6\n        /* \"#utility.yul\":1322:1344   */\n      add\n        /* \"#utility.yul\":1301:1354   */\n      tag_79\n      jump\t// in\n    tag_102:\n        /* \"#utility.yul\":1291:1354   */\n      swap2\n      pop\n        /* \"#utility.yul\":1247:1364   */\n      pop\n        /* \"#utility.yul\":1042:1371   */\n      swap3\n      swap2\n      pop\n      pop\n      jump\t// out\n        /* \"#utility.yul\":1377:1851   */\n    tag_27:\n        /* \"#utility.yul\":1445:1451   */\n      0x00\n        /* \"#utility.yul\":1453:1459   */\n      dup1\n        /* \"#utility.yul\":1502:1504   */\n      0x40\n        /* \"#utility.yul\":1490:1499   */\n      dup4\n        /* \"#utility.yul\":1481:1488   */\n      dup6\n        /* \"#utility.yul\":1477:1500   */\n      sub\n        /* \"#utility.yul\":1473:1505   */\n      slt\n        /* \"#utility.yul\":1470:1589   */\n      iszero\n      tag_104\n      jumpi\n        /* \"#utility.yul\":1508:1587   */\n      tag_105\n      tag_76\n      jump\t// in\n    tag_105:\n        /* \"#utility.yul\":1470:1589   */\n    tag_104:\n        /* \"#utility.yul\":1628:1629   */\n      0x00\n        /* \"#utility.yul\":1653:1706   */\n      tag_106\n        /* \"#utility.yul\":1698:1705   */\n      dup6\n        /* \"#utility.yul\":1689:1695   */\n      dup3\n        /* \"#utility.yul\":1678:1687   */\n      dup7\n        /* \"#utility.yul\":1674:1696   */\n      add\n        /* \"#utility.yul\":1653:1706   */\n      tag_79\n      jump\t// in\n    tag_106:\n        /* \"#utility.yul\":1643:1706   */\n      swap3\n      pop\n        /* \"#utility.yul\":1599:1716   */\n      pop\n        /* \"#utility.yul\":1755:1757   */\n      0x20\n        /* \"#utility.yul\":1781:1834   */\n      tag_107\n        /* \"#utility.yul\":1826:1833   */\n      dup6\n        /* \"#utility.yul\":1817:1823   */\n      dup3\n        /* \"#utility.yul\":1806:1815   */\n      dup7\n        /* \"#utility.yul\":1802:1824   */\n      add\n        /* \"#utility.yul\":1781:1834   */\n      tag_79\n      jump\t// in\n    tag_107:\n        /* \"#utility.yul\":1771:1834   */\n      swap2\n      pop\n        /* \"#utility.yul\":1726:1844   */\n      pop\n        /* \"#utility.yul\":1377:1851   */\n      swap3\n      pop\n      swap3\n      swap1\n      pop\n      jump\t// out\n        /* \"#utility.yul\":1857:2037   */\n    tag_80:\n        /* \"#utility.yul\":1905:1982   */\n      0x4e487b7100000000000000000000000000000000000000000000000000000000\n        /* \"#utility.yul\":1902:1903   */\n      0x00\n        /* \"#utility.yul\":1895:1983   */\n      mstore\n        /* \"#utility.yul\":2002:2006   */\n      0x11\n        /* \"#utility.yul\":1999:2000   */\n      0x04\n        /* \"#utility.yul\":1992:2007   */\n      mstore\n        /* \"#utility.yul\":2026:2030   */\n      0x24\n        /* \"#utility.yul\":2023:2024   */\n      0x00\n        /* \"#utility.yul\":2016:2031   */\n      revert\n        /* \"#utility.yul\":2043:2234   */\n    tag_57:\n        /* \"#utility.yul\":2083:2086   */\n      0x00\n        /* \"#utility.yul\":2102:2122   */\n      tag_110\n        /* \"#utility.yul\":2120:2121   */\n      dup3\n        /* \"#utility.yul\":2102:2122   */\n      tag_73\n      jump\t// in\n    tag_110:\n        /* \"#utility.yul\":2097:2122   */\n      swap2\n      pop\n        /* \"#utility.yul\":2136:2156   */\n      tag_111\n        /* \"#utility.yul\":2154:2155   */\n      dup4\n        /* \"#utility.yul\":2136:2156   */\n      tag_73\n      jump\t// in\n    tag_111:\n        /* \"#utility.yul\":2131:2156   */\n      swap3\n      pop\n        /* \"#utility.yul\":2179:2180   */\n      dup3\n        /* \"#utility.yul\":2176:2177   */\n      dup3\n        /* \"#utility.yul\":2172:2181   */\n      add\n        /* \"#utility.yul\":2165:2181   */\n      swap1\n      pop\n        /* \"#utility.yul\":2200:2203   */\n      dup1\n        /* \"#utility.yul\":2197:2198   */\n      dup3\n        /* \"#utility.yul\":2194:2204   */\n      gt\n        /* \"#utility.yul\":2191:2227   */\n      iszero\n      tag_112\n      jumpi\n        /* \"#utility.yul\":2207:2225   */\n      tag_113\n      tag_80\n      jump\t// in\n    tag_113:\n        /* \"#utility.yul\":2191:2227   */\n    tag_112:\n        /* \"#utility.yul\":2043:2234   */\n      swap3\n      swap2\n      pop\n      pop\n      jump\t// out\n        /* \"#utility.yul\":2240:2650   */\n    tag_60:\n        /* \"#utility.yul\":2280:2287   */\n      0x00\n        /* \"#utility.yul\":2303:2323   */\n      tag_115\n        /* \"#utility.yul\":2321:2322   */\n      dup3\n        /* \"#utility.yul\":2303:2323   */\n      tag_73\n      jump\t// in\n    tag_115:\n        /* \"#utility.yul\":2298:2323   */\n      swap2\n      pop\n        /* \"#utility.yul\":2337:2357   */\n      tag_116\n        /* \"#utility.yul\":2355:2356   */\n      dup4\n        /* \"#utility.yul\":2337:2357   */\n      tag_73\n      jump\t// in\n    tag_116:\n        /* \"#utility.yul\":2332:2357   */\n      swap3\n      pop\n        /* \"#utility.yul\":2392:2393   */\n      dup3\n        /* \"#utility.yul\":2389:2390   */\n      dup3\n        /* \"#utility.yul\":2385:2394   */\n      mul\n        /* \"#utility.yul\":2414:2444   */\n      tag_117\n        /* \"#utility.yul\":2432:2443   */\n      dup2\n        /* \"#utility.yul\":2414:2444   */\n      tag_73\n      jump\t// in\n    tag_117:\n        /* \"#utility.yul\":2403:2444   */\n      swap2\n      pop\n        /* \"#utility.yul\":2593:2594   */\n      dup3\n        /* \"#utility.yul\":2584:2591   */\n      dup3\n        /* \"#utility.yul\":2580:2595   */\n      div\n        /* \"#utility.yul\":2577:2578   */\n      dup5\n        /* \"#utility.yul\":2574:2596   */\n      eq\n        /* \"#utility.yul\":2554:2555   */\n      dup4\n        /* \"#utility.yul\":2547:2556   */\n      iszero\n        /* \"#utility.yul\":2527:2610   */\n      or\n        /* \"#utility.yul\":2504:2643   */\n      tag_118\n      jumpi\n        /* \"#utility.yul\":2623:2641   */\n      tag_119\n      tag_80\n      jump\t// in\n    tag_119:\n        /* \"#utility.yul\":2504:2643   */\n    tag_118:\n        /* \"#utility.yul\":2288:2650   */\n      pop\n        /* \"#utility.yul\":2240:2650   */\n      swap3\n      swap2\n      pop\n      pop\n      jump\t// out\n        /* \"#utility.yul\":2656:2836   */\n    tag_81:\n        /* \"#utility.yul\":2704:2781   */\n      0x4e487b7100000000000000000000000000000000000000000000000000000000\n        /* \"#utility.yul\":2701:2702   */\n      0x00\n        /* \"#utility.yul\":2694:2782   */\n      mstore\n        /* \"#utility.yul\":2801:2805   */\n      0x12\n        /* \"#utility.yul\":2798:2799   */\n      0x04\n        /* \"#utility.yul\":2791:2806   */\n      mstore\n        /* \"#utility.yul\":2825:2829   */\n      0x24\n        /* \"#utility.yul\":2822:2823   */\n      0x00\n        /* \"#utility.yul\":2815:2830   */\n      revert\n        /* \"#utility.yul\":2842:3027   */\n    tag_63:\n        /* \"#utility.yul\":2882:2883   */\n      0x00\n        /* \"#utility.yul\":2899:2919   */\n      tag_122\n        /* \"#utility.yul\":2917:2918   */\n      dup3\n        /* \"#utility.yul\":2899:2919   */\n      tag_73\n      jump\t// in\n    tag_122:\n        /* \"#utility.yul\":2894:2919   */\n      swap2\n      pop\n        /* \"#utility.yul\":2933:2953   */\n      tag_123\n        /* \"#utility.yul\":2951:2952   */\n      dup4\n        /* \"#utility.yul\":2933:2953   */\n      tag_73\n      jump\t// in\n    tag_123:\n        /* \"#utility.yul\":2928:2953   */\n      swap3\n      pop\n        /* \"#utility.yul\":2972:2973   */\n      dup3\n        /* \"#utility.yul\":2962:2997   */\n      tag_124\n      jumpi\n        /* \"#utility.yul\":2977:2995   */\n      tag_125\n      tag_81\n      jump\t// in\n    tag_125:\n        /* \"#utility.yul\":2962:2997   */\n    tag_124:\n        /* \"#utility.yul\":3019:3020   */\n      dup3\n        /* \"#utility.yul\":3016:3017   */\n      dup3\n        /* \"#utility.yul\":3012:3021   */\n      div\n        /* \"#utility.yul\":3007:3021   */\n      swap1\n      pop\n        /* \"#utility.yul\":2842:3027   */\n      swap3\n      swap2\n      pop\n      pop\n      jump\t// out\n        /* \"#utility.yul\":3033:3227   */\n    tag_66:\n        /* \"#utility.yul\":3073:3077   */\n      0x00\n        /* \"#utility.yul\":3093:3113   */\n      tag_127\n        /* \"#utility.yul\":3111:3112   */\n      dup3\n        /* \"#utility.yul\":3093:3113   */\n      tag_73\n      jump\t// in\n    tag_127:\n        /* \"#utility.yul\":3088:3113   */\n      swap2\n      pop\n        /* \"#utility.yul\":3127:3147   */\n      tag_128\n        /* \"#utility.yul\":3145:3146   */\n      dup4\n        /* \"#utility.yul\":3127:3147   */\n      tag_73\n      jump\t// in\n    tag_128:\n        /* \"#utility.yul\":3122:3147   */\n      swap3\n      pop\n        /* \"#utility.yul\":3171:3172   */\n      dup3\n        /* \"#utility.yul\":3168:3169   */\n      dup3\n        /* \"#utility.yul\":3164:3173   */\n      sub\n        /* \"#utility.yul\":3156:3173   */\n      swap1\n      pop\n        /* \"#utility.yul\":3195:3196   */\n      dup2\n        /* \"#utility.yul\":3189:3193   */\n      dup2\n        /* \"#utility.yul\":3186:3197   */\n      gt\n        /* \"#utility.yul\":3183:3220   */\n      iszero\n      tag_129\n      jumpi\n        /* \"#utility.yul\":3200:3218   */\n      tag_130\n      tag_80\n      jump\t// in\n    tag_130:\n        /* \"#utility.yul\":3183:3220   */\n    tag_129:\n        /* \"#utility.yul\":3033:3227   */\n      swap3\n      swap2\n      pop\n      pop\n      jump\t// out\n        /* \"#utility.yul\":3233:3409   */\n    tag_69:\n        /* \"#utility.yul\":3265:3266   */\n      0x00\n        /* \"#utility.yul\":3282:3302   */\n      tag_132\n        /* \"#utility.yul\":3300:3301   */\n      dup3\n        /* \"#utility.yul\":3282:3302   */\n      tag_73\n      jump\t// in\n    tag_132:\n        /* \"#utility.yul\":3277:3302   */\n      swap2\n      pop\n        /* \"#utility.yul\":3316:3336   */\n      tag_133\n        /* \"#utility.yul\":3334:3335   */\n      dup4\n        /* \"#utility.yul\":3316:3336   */\n      tag_73\n      jump\t// in\n    tag_133:\n        /* \"#utility.yul\":3311:3336   */\n      swap3\n      pop\n        /* \"#utility.yul\":3355:3356   */\n      dup3\n        /* \"#utility.yul\":3345:3380   */\n      tag_134\n      jumpi\n        /* \"#utility.yul\":3360:3378   */\n      tag_135\n      tag_81\n      jump\t// in\n    tag_135:\n        /* \"#utility.yul\":3345:3380   */\n    tag_134:\n        /* \"#utility.yul\":3401:3402   */\n      dup3\n        /* \"#utility.yul\":3398:3399   */\n      dup3\n        /* \"#utility.yul\":3394:3403   */\n      mod\n        /* \"#utility.yul\":3389:3403   */\n      swap1\n      pop\n        /* \"#utility.yul\":3233:3409   */\n      swap3\n      swap2\n      pop\n      pop\n      jump\t// out\n        /* \"#utility.yul\":3415:3517   */\n    tag_82:\n        /* \"#utility.yul\":3457:3465   */\n      0x00\n        /* \"#utility.yul\":3504:3509   */\n      dup2\n        /* \"#utility.yul\":3501:3502   */\n      0x01\n        /* \"#utility.yul\":3497:3510   */\n      shr\n        /* \"#utility.yul\":3476:3510   */\n      swap1\n      pop\n        /* \"#utility.yul\":3415:3517   */\n      swap2\n      swap1\n      pop\n      jump\t// out\n        /* \"#utility.yul\":3523:4371   */\n    tag_83:\n        /* \"#utility.yul\":3584:3589   */\n      0x00\n        /* \"#utility.yul\":3591:3595   */\n      dup1\n        /* \"#utility.yul\":3615:3621   */\n      dup3\n        /* \"#utility.yul\":3606:3621   */\n      swap2\n      pop\n        /* \"#utility.yul\":3639:3644   */\n      dup4\n        /* \"#utility.yul\":3630:3644   */\n      swap1\n      pop\n        /* \"#utility.yul\":3653:4365   */\n    tag_138:\n        /* \"#utility.yul\":3674:3675   */\n      0x01\n        /* \"#utility.yul\":3664:3672   */\n      dup6\n        /* \"#utility.yul\":3661:3676   */\n      gt\n        /* \"#utility.yul\":3653:4365   */\n      iszero\n      tag_140\n      jumpi\n        /* \"#utility.yul\":3769:3773   */\n      dup1\n        /* \"#utility.yul\":3764:3767   */\n      dup7\n        /* \"#utility.yul\":3760:3774   */\n      div\n        /* \"#utility.yul\":3754:3758   */\n      dup2\n        /* \"#utility.yul\":3751:3775   */\n      gt\n        /* \"#utility.yul\":3748:3798   */\n      iszero\n      tag_141\n      jumpi\n        /* \"#utility.yul\":3778:3796   */\n      tag_142\n      tag_80\n      jump\t// in\n    tag_142:\n        /* \"#utility.yul\":3748:3798   */\n    tag_141:\n        /* \"#utility.yul\":3828:3829   */\n      0x01\n        /* \"#utility.yul\":3818:3826   */\n      dup6\n        /* \"#utility.yul\":3814:3830   */\n      and\n        /* \"#utility.yul\":3811:4262   */\n      iszero\n      tag_143\n      jumpi\n        /* \"#utility.yul\":4243:4247   */\n      dup1\n        /* \"#utility.yul\":4236:4241   */\n      dup3\n        /* \"#utility.yul\":4232:4248   */\n      mul\n        /* \"#utility.yul\":4223:4248   */\n      swap2\n      pop\n        /* \"#utility.yul\":3811:4262   */\n    tag_143:\n        /* \"#utility.yul\":4293:4297   */\n      dup1\n        /* \"#utility.yul\":4287:4291   */\n      dup2\n        /* \"#utility.yul\":4283:4298   */\n      mul\n        /* \"#utility.yul\":4275:4298   */\n      swap1\n      pop\n        /* \"#utility.yul\":4323:4355   */\n      tag_144\n        /* \"#utility.yul\":4346:4354   */\n      dup6\n        /* \"#utility.yul\":4323:4355   */\n      tag_82\n      jump\t// in\n    tag_144:\n        /* \"#utility.yul\":4311:4355   */\n      swap5\n      pop\n        /* \"#utility.yul\":3653:4365   */\n      jump(tag_138)\n    tag_140:\n        /* \"#utility.yul\":3523:4371   */\n      swap5\n      pop\n      swap5\n      swap3\n      pop\n      pop\n      pop\n      jump\t// out\n        /* \"#utility.yul\":4377:5450   */\n    tag_84:\n        /* \"#utility.yul\":4431:4436   */\n      0x00\n        /* \"#utility.yul\":4622:4630   */\n      dup3\n        /* \"#utility.yul\":4612:4652   */\n      tag_146\n      jumpi\n        /* \"#utility.yul\":4643:4644   */\n      0x01\n        /* \"#utility.yul\":4634:4644   */\n      swap1\n      pop\n        /* \"#utility.yul\":4645:4650   */\n      jump(tag_145)\n        /* \"#utility.yul\":4612:4652   */\n    tag_146:\n        /* \"#utility.yul\":4671:4675   */\n      dup2\n        /* \"#utility.yul\":4661:4697   */\n      tag_147\n      jumpi\n        /* \"#utility.yul\":4688:4689   */\n      0x00\n        /* \"#utility.yul\":4679:4689   */\n      swap1\n      pop\n        /* \"#utility.yul\":4690:4695   */\n      jump(tag_145)\n        /* \"#utility.yul\":4661:4697   */\n    tag_147:\n        /* \"#utility.yul\":4757:4761   */\n      dup2\n        /* \"#utility.yul\":4805:4806   */\n      0x01\n        /* \"#utility.yul\":4800:4827   */\n      dup2\n      eq\n      tag_149\n      jumpi\n        /* \"#utility.yul\":4841:4842   */\n      0x02\n        /* \"#utility.yul\":4836:5027   */\n      dup2\n      eq\n      tag_150\n      jumpi\n        /* \"#utility.yul\":4750:5027   */\n      jump(tag_148)\n        /* \"#utility.yul\":4800:4827   */\n    tag_149:\n        /* \"#utility.yul\":4818:4819   */\n      0x01\n        /* \"#utility.yul\":4809:4819   */\n      swap2\n      pop\n        /* \"#utility.yul\":4820:4825   */\n      pop\n      jump(tag_145)\n        /* \"#utility.yul\":4836:5027   */\n    tag_150:\n        /* \"#utility.yul\":4881:4884   */\n      0xff\n        /* \"#utility.yul\":4871:4879   */\n      dup5\n        /* \"#utility.yul\":4868:4885   */\n      gt\n        /* \"#utility.yul\":4865:4908   */\n      iszero\n      tag_151\n      jumpi\n        /* \"#utility.yul\":4888:4906   */\n      tag_152\n      tag_80\n      jump\t// in\n    tag_152:\n        /* \"#utility.yul\":4865:4908   */\n    tag_151:\n        /* \"#utility.yul\":4937:4945   */\n      dup4\n        /* \"#utility.yul\":4934:4935   */\n      0x02\n        /* \"#utility.yul\":4930:4946   */\n      exp\n        /* \"#utility.yul\":4921:4946   */\n      swap2\n      pop\n        /* \"#utility.yul\":4972:4975   */\n      dup5\n        /* \"#utility.yul\":4965:4970   */\n      dup3\n        /* \"#utility.yul\":4962:4976   */\n      gt\n        /* \"#utility.yul\":4959:4999   */\n      iszero\n      tag_153\n      jumpi\n        /* \"#utility.yul\":4979:4997   */\n      tag_154\n      tag_80\n      jump\t// in\n    tag_154:\n        /* \"#utility.yul\":4959:4999   */\n    tag_153:\n        /* \"#utility.yul\":5012:5017   */\n      pop\n      jump(tag_145)\n        /* \"#utility.yul\":4750:5027   */\n    tag_148:\n      pop\n        /* \"#utility.yul\":5136:5138   */\n      0x20\n        /* \"#utility.yul\":5126:5134   */\n      dup4\n        /* \"#utility.yul\":5123:5139   */\n      lt\n        /* \"#utility.yul\":5117:5120   */\n      0x0133\n        /* \"#utility.yul\":5111:5115   */\n      dup4\n        /* \"#utility.yul\":5108:5121   */\n      lt\n        /* \"#utility.yul\":5104:5140   */\n      and\n        /* \"#utility.yul\":5086:5088   */\n      0x4e\n        /* \"#utility.yul\":5076:5084   */\n      dup5\n        /* \"#utility.yul\":5073:5089   */\n      lt\n        /* \"#utility.yul\":5068:5070   */\n      0x0b\n        /* \"#utility.yul\":5062:5066   */\n      dup5\n        /* \"#utility.yul\":5059:5071   */\n      lt\n        /* \"#utility.yul\":5055:5090   */\n      and\n        /* \"#utility.yul\":5039:5150   */\n      or\n        /* \"#utility.yul\":5036:5282   */\n      iszero\n      tag_155\n      jumpi\n        /* \"#utility.yul\":5192:5200   */\n      dup3\n        /* \"#utility.yul\":5186:5190   */\n      dup3\n        /* \"#utility.yul\":5182:5201   */\n      exp\n        /* \"#utility.yul\":5173:5201   */\n      swap1\n      pop\n        /* \"#utility.yul\":5227:5230   */\n      dup4\n        /* \"#utility.yul\":5220:5225   */\n      dup2\n        /* \"#utility.yul\":5217:5231   */\n      gt\n        /* \"#utility.yul\":5214:5254   */\n      iszero\n      tag_156\n      jumpi\n        /* \"#utility.yul\":5234:5252   */\n      tag_157\n      tag_80\n      jump\t// in\n    tag_157:\n        /* \"#utility.yul\":5214:5254   */\n    tag_156:\n        /* \"#utility.yul\":5267:5272   */\n      jump(tag_145)\n        /* \"#utility.yul\":5036:5282   */\n    tag_155:\n        /* \"#utility.yul\":5307:5349   */\n      tag_158\n        /* \"#utility.yul\":5345:5348   */\n      dup5\n        /* \"#utility.yul\":5335:5343   */\n      dup5\n        /* \"#utility.yul\":5329:5333   */\n      dup5\n        /* \"#utility.yul\":5326:5327   */\n      0x01\n        /* \"#utility.yul\":5307:5349   */\n      tag_83\n      jump\t// in\n    tag_158:\n        /* \"#utility.yul\":5292:5349   */\n      swap3\n      pop\n      swap1\n      pop\n        /* \"#utility.yul\":5381:5385   */\n      dup2\n        /* \"#utility.yul\":5376:5379   */\n      dup5\n        /* \"#utility.yul\":5372:5386   */\n      div\n        /* \"#utility.yul\":5365:5370   */\n      dup2\n        /* \"#utility.yul\":5362:5387   */\n      gt\n        /* \"#utility.yul\":5359:5410   */\n      iszero\n      tag_159\n      jumpi\n        /* \"#utility.yul\":5390:5408   */\n      tag_160\n      tag_80\n      jump\t// in\n    tag_160:\n        /* \"#utility.yul\":5359:5410   */\n    tag_159:\n        /* \"#utility.yul\":5439:5443   */\n      dup2\n        /* \"#utility.yul\":5432:5437   */\n      dup2\n        /* \"#utility.yul\":5428:5444   */\n      mul\n        /* \"#utility.yul\":5419:5444   */\n      swap1\n      pop\n        /* \"#utility.yul\":4377:5450   */\n    tag_145:\n      swap4\n      swap3\n      pop\n      pop\n      pop\n      jump\t// out\n        /* \"#utility.yul\":5456:5741   */\n    tag_72:\n        /* \"#utility.yul\":5516:5521   */\n      0x00\n        /* \"#utility.yul\":5540:5563   */\n      tag_162\n        /* \"#utility.yul\":5558:5562   */\n      dup3\n        /* \"#utility.yul\":5540:5563   */\n      tag_73\n      jump\t// in\n    tag_162:\n        /* \"#utility.yul\":5532:5563   */\n      swap2\n      pop\n        /* \"#utility.yul\":5584:5611   */\n      tag_163\n        /* \"#utility.yul\":5602:5610   */\n      dup4\n        /* \"#utility.yul\":5584:5611   */\n      tag_73\n      jump\t// in\n    tag_163:\n        /* \"#utility.yul\":5572:5611   */\n      swap3\n      pop\n        /* \"#utility.yul\":5630:5734   */\n      tag_164\n        /* \"#utility.yul\":5667:5733   */\n      0xffffffffffffffffffffffffffffffffffffffffffffffffffffffffffffffff\n        /* \"#utility.yul\":5657:5665   */\n      dup5\n        /* \"#utility.yul\":5651:5655   */\n      dup5\n        /* \"#utility.yul\":5630:5734   */\n      tag_84\n      jump\t// in\n    tag_164:\n        /* \"#utility.yul\":5621:5734   */\n      swap1\n      pop\n        /* \"#utility.yul\":5456:5741   */\n      swap3\n      swap2\n      pop\n      pop\n      jump\t// out\n\n    auxdata: 0xa264697066735822122080bea3965025b12559b09fc89cb36c1e657f8969adf964b6c620dae6b51beae264736f6c634300081a0033\n}\n",
				"bytecode": {
					"linkReferences": {},
					"object": "6080604052348015600e575f80fd5b506106a88061001c5f395ff3fe608060405234801561000f575f80fd5b506004361061009c575f3560e01c8063a391c15b11610064578063a391c15b14610156578063a56dfe4a14610186578063b67d77c5146101a4578063f43f523a146101d4578063f5f565f8146102045761009c565b80630c55699c146100a05780634018d9aa146100be57806368d466b8146100da578063771602f7146100f65780639aa727f614610126575b5f80fd5b6100a8610234565b6040516100b591906102e8565b60405180910390f35b6100d860048036038101906100d3919061032f565b610239565b005b6100f460048036038101906100ef919061032f565b610242565b005b610110600480360381019061010b919061035a565b61024c565b60405161011d91906102e8565b60405180910390f35b610140600480360381019061013b919061035a565b610261565b60405161014d91906102e8565b60405180910390f35b610170600480360381019061016b919061035a565b610276565b60405161017d91906102e8565b60405180910390f35b61018e61028b565b60405161019b91906102e8565b60405180910390f35b6101be60048036038101906101b9919061035a565b610291565b6040516101cb91906102e8565b60405180910390f35b6101ee60048036038101906101e9919061035a565b6102a6565b6040516101fb91906102e8565b60405180910390f35b61021e6004803603810190610219919061035a565b6102bb565b60405161022b91906102e8565b60405180910390f35b5f5481565b805f8190555050565b8060018190555050565b5f818361025991906103c5565b905092915050565b5f818361026e91906103f8565b905092915050565b5f81836102839190610466565b905092915050565b60015481565b5f818361029e9190610496565b905092915050565b5f81836102b391906104c9565b905092915050565b5f81836102c89190610628565b905092915050565b5f819050919050565b6102e2816102d0565b82525050565b5f6020820190506102fb5f8301846102d9565b92915050565b5f80fd5b61030e816102d0565b8114610318575f80fd5b50565b5f8135905061032981610305565b92915050565b5f6020828403121561034457610343610301565b5b5f6103518482850161031b565b91505092915050565b5f80604083850312156103705761036f610301565b5b5f61037d8582860161031b565b925050602061038e8582860161031b565b9150509250929050565b7f4e487b71000000000000000000000000000000000000000000000000000000005f52601160045260245ffd5b5f6103cf826102d0565b91506103da836102d0565b92508282019050808211156103f2576103f1610398565b5b92915050565b5f610402826102d0565b915061040d836102d0565b925082820261041b816102d0565b9150828204841483151761043257610431610398565b5b5092915050565b7f4e487b71000000000000000000000000000000000000000000000000000000005f52601260045260245ffd5b5f610470826102d0565b915061047b836102d0565b92508261048b5761048a610439565b5b828204905092915050565b5f6104a0826102d0565b91506104ab836102d0565b92508282039050818111156104c3576104c2610398565b5b92915050565b5f6104d3826102d0565b91506104de836102d0565b9250826104ee576104ed610439565b5b828206905092915050565b5f8160011c9050919050565b5f808291508390505b600185111561054e5780860481111561052a57610529610398565b5b60018516156105395780820291505b8081029050610547856104f9565b945061050e565b94509492505050565b5f826105665760019050610621565b81610573575f9050610621565b81600181146105895760028114610593576105c2565b6001915050610621565b60ff8411156105a5576105a4610398565b5b8360020a9150848211156105bc576105bb610398565b5b50610621565b5060208310610133831016604e8410600b84101617156105f75782820a9050838111156105f2576105f1610398565b5b610621565b6106048484846001610505565b9250905081840481111561061b5761061a610398565b5b81810290505b9392505050565b5f610632826102d0565b915061063d836102d0565b925061066a7fffffffffffffffffffffffffffffffffffffffffffffffffffffffffffffffff8484610557565b90509291505056fea264697066735822122080bea3965025b12559b09fc89cb36c1e657f8969adf964b6c620dae6b51beae264736f6c634300081a0033",
					"opcodes": "PUSH1 0x80 PUSH1 0x40 MSTORE CALLVALUE DUP1 ISZERO PUSH1 0xE JUMPI PUSH0 DUP1 REVERT JUMPDEST POP PUSH2 0x6A8 DUP1 PUSH2 0x1C PUSH0 CODECOPY PUSH0 RETURN INVALID PUSH1 0x80 PUSH1 0x40 MSTORE CALLVALUE DUP1 ISZERO PUSH2 0xF JUMPI PUSH0 DUP1 REVERT JUMPDEST POP PUSH1 0x4 CALLDATASIZE LT PUSH2 0x9C JUMPI PUSH0 CALLDATALOAD PUSH1 0xE0 SHR DUP1 PUSH4 0xA391C15B GT PUSH2 0x64 JUMPI DUP1 PUSH4 0xA391C15B EQ PUSH2 0x156 JUMPI DUP1 PUSH4 0xA56DFE4A EQ PUSH2 0x186 JUMPI DUP1 PUSH4 0xB67D77C5 EQ PUSH2 0x1A4 JUMPI DUP1 PUSH4 0xF43F523A EQ PUSH2 0x1D4 JUMPI DUP1 PUSH4 0xF5F565F8 EQ PUSH2 0x204 JUMPI PUSH2 0x9C JUMP JUMPDEST DUP1 PUSH4 0xC55699C EQ PUSH2 0xA0 JUMPI DUP1 PUSH4 0x4018D9AA EQ PUSH2 0xBE JUMPI DUP1 PUSH4 0x68D466B8 EQ PUSH2 0xDA JUMPI DUP1 PUSH4 0x771602F7 EQ PUSH2 0xF6 JUMPI DUP1 PUSH4 0x9AA727F6 EQ PUSH2 0x126 JUMPI JUMPDEST PUSH0 DUP1 REVERT JUMPDEST PUSH2 0xA8 PUSH2 0x234 JUMP JUMPDEST PUSH1 0x40 MLOAD PUSH2 0xB5 SWAP2 SWAP1 PUSH2 0x2E8 JUMP JUMPDEST PUSH1 0x40 MLOAD DUP1 SWAP2 SUB SWAP1 RETURN JUMPDEST PUSH2 0xD8 PUSH1 0x4 DUP1 CALLDATASIZE SUB DUP2 ADD SWAP1 PUSH2 0xD3 SWAP2 SWAP1 PUSH2 0x32F JUMP JUMPDEST PUSH2 0x239 JUMP JUMPDEST STOP JUMPDEST PUSH2 0xF4 PUSH1 0x4 DUP1 CALLDATASIZE SUB DUP2 ADD SWAP1 PUSH2 0xEF SWAP2 SWAP1 PUSH2 0x32F JUMP JUMPDEST PUSH2 0x242 JUMP JUMPDEST STOP JUMPDEST PUSH2 0x110 PUSH1 0x4 DUP1 CALLDATASIZE SUB DUP2 ADD SWAP1 PUSH2 0x10B SWAP2 SWAP1 PUSH2 0x35A JUMP JUMPDEST PUSH2 0x24C JUMP JUMPDEST PUSH1 0x40 MLOAD PUSH2 0x11D SWAP2 SWAP1 PUSH2 0x2E8 JUMP JUMPDEST PUSH1 0x40 MLOAD DUP1 SWAP2 SUB SWAP1 RETURN JUMPDEST PUSH2 0x140 PUSH1 0x4 DUP1 CALLDATASIZE SUB DUP2 ADD SWAP1 PUSH2 0x13B SWAP2 SWAP1 PUSH2 0x35A JUMP JUMPDEST PUSH2 0x261 JUMP JUMPDEST PUSH1 0x40 MLOAD PUSH2 0x14D SWAP2 SWAP1 PUSH2 0x2E8 JUMP JUMPDEST PUSH1 0x40 MLOAD DUP1 SWAP2 SUB SWAP1 RETURN JUMPDEST PUSH2 0x170 PUSH1 0x4 DUP1 CALLDATASIZE SUB DUP2 ADD SWAP1 PUSH2 0x16B SWAP2 SWAP1 PUSH2 0x35A JUMP JUMPDEST PUSH2 0x276 JUMP JUMPDEST PUSH1 0x40 MLOAD PUSH2 0x17D SWAP2 SWAP1 PUSH2 0x2E8 JUMP JUMPDEST PUSH1 0x40 MLOAD DUP1 SWAP2 SUB SWAP1 RETURN JUMPDEST PUSH2 0x18E PUSH2 0x28B JUMP JUMPDEST PUSH1 0x40 MLOAD PUSH2 0x19B SWAP2 SWAP1 PUSH2 0x2E8 JUMP JUMPDEST PUSH1 0x40 MLOAD DUP1 SWAP2 SUB SWAP1 RETURN JUMPDEST PUSH2 0x1BE PUSH1 0x4 DUP1 CALLDATASIZE SUB DUP2 ADD SWAP1 PUSH2 0x1B9 SWAP2 SWAP1 PUSH2 0x35A JUMP JUMPDEST PUSH2 0x291 JUMP JUMPDEST PUSH1 0x40 MLOAD PUSH2 0x1CB SWAP2 SWAP1 PUSH2 0x2E8 JUMP JUMPDEST PUSH1 0x40 MLOAD DUP1 SWAP2 SUB SWAP1 RETURN JUMPDEST PUSH2 0x1EE PUSH1 0x4 DUP1 CALLDATASIZE SUB DUP2 ADD SWAP1 PUSH2 0x1E9 SWAP2 SWAP1 PUSH2 0x35A JUMP JUMPDEST PUSH2 0x2A6 JUMP JUMPDEST PUSH1 0x40 MLOAD PUSH2 0x1FB SWAP2 SWAP1 PUSH2 0x2E8 JUMP JUMPDEST PUSH1 0x40 MLOAD DUP1 SWAP2 SUB SWAP1 RETURN JUMPDEST PUSH2 0x21E PUSH1 0x4 DUP1 CALLDATASIZE SUB DUP2 ADD SWAP1 PUSH2 0x219 SWAP2 SWAP1 PUSH2 0x35A JUMP JUMPDEST PUSH2 0x2BB JUMP JUMPDEST PUSH1 0x40 MLOAD PUSH2 0x22B SWAP2 SWAP1 PUSH2 0x2E8 JUMP JUMPDEST PUSH1 0x40 MLOAD DUP1 SWAP2 SUB SWAP1 RETURN JUMPDEST PUSH0 SLOAD DUP2 JUMP JUMPDEST DUP1 PUSH0 DUP2 SWAP1 SSTORE POP POP JUMP JUMPDEST DUP1 PUSH1 0x1 DUP2 SWAP1 SSTORE POP POP JUMP JUMPDEST PUSH0 DUP2 DUP4 PUSH2 0x259 SWAP2 SWAP1 PUSH2 0x3C5 JUMP JUMPDEST SWAP1 POP SWAP3 SWAP2 POP POP JUMP JUMPDEST PUSH0 DUP2 DUP4 PUSH2 0x26E SWAP2 SWAP1 PUSH2 0x3F8 JUMP JUMPDEST SWAP1 POP SWAP3 SWAP2 POP POP JUMP JUMPDEST PUSH0 DUP2 DUP4 PUSH2 0x283 SWAP2 SWAP1 PUSH2 0x466 JUMP JUMPDEST SWAP1 POP SWAP3 SWAP2 POP POP JUMP JUMPDEST PUSH1 0x1 SLOAD DUP2 JUMP JUMPDEST PUSH0 DUP2 DUP4 PUSH2 0x29E SWAP2 SWAP1 PUSH2 0x496 JUMP JUMPDEST SWAP1 POP SWAP3 SWAP2 POP POP JUMP JUMPDEST PUSH0 DUP2 DUP4 PUSH2 0x2B3 SWAP2 SWAP1 PUSH2 0x4C9 JUMP JUMPDEST SWAP1 POP SWAP3 SWAP2 POP POP JUMP JUMPDEST PUSH0 DUP2 DUP4 PUSH2 0x2C8 SWAP2 SWAP1 PUSH2 0x628 JUMP JUMPDEST SWAP1 POP SWAP3 SWAP2 POP POP JUMP JUMPDEST PUSH0 DUP2 SWAP1 POP SWAP2 SWAP1 POP JUMP JUMPDEST PUSH2 0x2E2 DUP2 PUSH2 0x2D0 JUMP JUMPDEST DUP3 MSTORE POP POP JUMP JUMPDEST PUSH0 PUSH1 0x20 DUP3 ADD SWAP1 POP PUSH2 0x2FB PUSH0 DUP4 ADD DUP5 PUSH2 0x2D9 JUMP JUMPDEST SWAP3 SWAP2 POP POP JUMP JUMPDEST PUSH0 DUP1 REVERT JUMPDEST PUSH2 0x30E DUP2 PUSH2 0x2D0 JUMP JUMPDEST DUP2 EQ PUSH2 0x318 JUMPI PUSH0 DUP1 REVERT JUMPDEST POP JUMP JUMPDEST PUSH0 DUP2 CALLDATALOAD SWAP1 POP PUSH2 0x329 DUP2 PUSH2 0x305 JUMP JUMPDEST SWAP3 SWAP2 POP POP JUMP JUMPDEST PUSH0 PUSH1 0x20 DUP3 DUP5 SUB SLT ISZERO PUSH2 0x344 JUMPI PUSH2 0x343 PUSH2 0x301 JUMP JUMPDEST JUMPDEST PUSH0 PUSH2 0x351 DUP5 DUP3 DUP6 ADD PUSH2 0x31B JUMP JUMPDEST SWAP2 POP POP SWAP3 SWAP2 POP POP JUMP JUMPDEST PUSH0 DUP1 PUSH1 0x40 DUP4 DUP6 SUB SLT ISZERO PUSH2 0x370 JUMPI PUSH2 0x36F PUSH2 0x301 JUMP JUMPDEST JUMPDEST PUSH0 PUSH2 0x37D DUP6 DUP3 DUP7 ADD PUSH2 0x31B JUMP JUMPDEST SWAP3 POP POP PUSH1 0x20 PUSH2 0x38E DUP6 DUP3 DUP7 ADD PUSH2 0x31B JUMP JUMPDEST SWAP2 POP POP SWAP3 POP SWAP3 SWAP1 POP JUMP JUMPDEST PUSH32 0x4E487B7100000000000000000000000000000000000000000000000000000000 PUSH0 MSTORE PUSH1 0x11 PUSH1 0x4 MSTORE PUSH1 0x24 PUSH0 REVERT JUMPDEST PUSH0 PUSH2 0x3CF DUP3 PUSH2 0x2D0 JUMP JUMPDEST SWAP2 POP PUSH2 0x3DA DUP4 PUSH2 0x2D0 JUMP JUMPDEST SWAP3 POP DUP3 DUP3 ADD SWAP1 POP DUP1 DUP3 GT ISZERO PUSH2 0x3F2 JUMPI PUSH2 0x3F1 PUSH2 0x398 JUMP JUMPDEST JUMPDEST SWAP3 SWAP2 POP POP JUMP JUMPDEST PUSH0 PUSH2 0x402 DUP3 PUSH2 0x2D0 JUMP JUMPDEST SWAP2 POP PUSH2 0x40D DUP4 PUSH2 0x2D0 JUMP JUMPDEST SWAP3 POP DUP3 DUP3 MUL PUSH2 0x41B DUP2 PUSH2 0x2D0 JUMP JUMPDEST SWAP2 POP DUP3 DUP3 DIV DUP5 EQ DUP4 ISZERO OR PUSH2 0x432 JUMPI PUSH2 0x431 PUSH2 0x398 JUMP JUMPDEST JUMPDEST POP SWAP3 SWAP2 POP POP JUMP JUMPDEST PUSH32 0x4E487B7100000000000000000000000000000000000000000000000000000000 PUSH0 MSTORE PUSH1 0x12 PUSH1 0x4 MSTORE PUSH1 0x24 PUSH0 REVERT JUMPDEST PUSH0 PUSH2 0x470 DUP3 PUSH2 0x2D0 JUMP JUMPDEST SWAP2 POP PUSH2 0x47B DUP4 PUSH2 0x2D0 JUMP JUMPDEST SWAP3 POP DUP3 PUSH2 0x48B JUMPI PUSH2 0x48A PUSH2 0x439 JUMP JUMPDEST JUMPDEST DUP3 DUP3 DIV SWAP1 POP SWAP3 SWAP2 POP POP JUMP JUMPDEST PUSH0 PUSH2 0x4A0 DUP3 PUSH2 0x2D0 JUMP JUMPDEST SWAP2 POP PUSH2 0x4AB DUP4 PUSH2 0x2D0 JUMP JUMPDEST SWAP3 POP DUP3 DUP3 SUB SWAP1 POP DUP2 DUP2 GT ISZERO PUSH2 0x4C3 JUMPI PUSH2 0x4C2 PUSH2 0x398 JUMP JUMPDEST JUMPDEST SWAP3 SWAP2 POP POP JUMP JUMPDEST PUSH0 PUSH2 0x4D3 DUP3 PUSH2 0x2D0 JUMP JUMPDEST SWAP2 POP PUSH2 0x4DE DUP4 PUSH2 0x2D0 JUMP JUMPDEST SWAP3 POP DUP3 PUSH2 0x4EE JUMPI PUSH2 0x4ED PUSH2 0x439 JUMP JUMPDEST JUMPDEST DUP3 DUP3 MOD SWAP1 POP SWAP3 SWAP2 POP POP JUMP JUMPDEST PUSH0 DUP2 PUSH1 0x1 SHR SWAP1 POP SWAP2 SWAP1 POP JUMP JUMPDEST PUSH0 DUP1 DUP3 SWAP2 POP DUP4 SWAP1 POP JUMPDEST PUSH1 0x1 DUP6 GT ISZERO PUSH2 0x54E JUMPI DUP1 DUP7 DIV DUP2 GT ISZERO PUSH2 0x52A JUMPI PUSH2 0x529 PUSH2 0x398 JUMP JUMPDEST JUMPDEST PUSH1 0x1 DUP6 AND ISZERO PUSH2 0x539 JUMPI DUP1 DUP3 MUL SWAP2 POP JUMPDEST DUP1 DUP2 MUL SWAP1 POP PUSH2 0x547 DUP6 PUSH2 0x4F9 JUMP JUMPDEST SWAP5 POP PUSH2 0x50E JUMP JUMPDEST SWAP5 POP SWAP5 SWAP3 POP POP POP JUMP JUMPDEST PUSH0 DUP3 PUSH2 0x566 JUMPI PUSH1 0x1 SWAP1 POP PUSH2 0x621 JUMP JUMPDEST DUP2 PUSH2 0x573 JUMPI PUSH0 SWAP1 POP PUSH2 0x621 JUMP JUMPDEST DUP2 PUSH1 0x1 DUP2 EQ PUSH2 0x589 JUMPI PUSH1 0x2 DUP2 EQ PUSH2 0x593 JUMPI PUSH2 0x5C2 JUMP JUMPDEST PUSH1 0x1 SWAP2 POP POP PUSH2 0x621 JUMP JUMPDEST PUSH1 0xFF DUP5 GT ISZERO PUSH2 0x5A5 JUMPI PUSH2 0x5A4 PUSH2 0x398 JUMP JUMPDEST JUMPDEST DUP4 PUSH1 0x2 EXP SWAP2 POP DUP5 DUP3 GT ISZERO PUSH2 0x5BC JUMPI PUSH2 0x5BB PUSH2 0x398 JUMP JUMPDEST JUMPDEST POP PUSH2 0x621 JUMP JUMPDEST POP PUSH1 0x20 DUP4 LT PUSH2 0x133 DUP4 LT AND PUSH1 0x4E DUP5 LT PUSH1 0xB DUP5 LT AND OR ISZERO PUSH2 0x5F7 JUMPI DUP3 DUP3 EXP SWAP1 POP DUP4 DUP2 GT ISZERO PUSH2 0x5F2 JUMPI PUSH2 0x5F1 PUSH2 0x398 JUMP JUMPDEST JUMPDEST PUSH2 0x621 JUMP JUMPDEST PUSH2 0x604 DUP5 DUP5 DUP5 PUSH1 0x1 PUSH2 0x505 JUMP JUMPDEST SWAP3 POP SWAP1 POP DUP2 DUP5 DIV DUP2 GT ISZERO PUSH2 0x61B JUMPI PUSH2 0x61A PUSH2 0x398 JUMP JUMPDEST JUMPDEST DUP2 DUP2 MUL SWAP1 POP JUMPDEST SWAP4 SWAP3 POP POP POP JUMP JUMPDEST PUSH0 PUSH2 0x632 DUP3 PUSH2 0x2D0 JUMP JUMPDEST SWAP2 POP PUSH2 0x63D DUP4 PUSH2 0x2D0 JUMP JUMPDEST SWAP3 POP PUSH2 0x66A PUSH32 0xFFFFFFFFFFFFFFFFFFFFFFFFFFFFFFFFFFFFFFFFFFFFFFFFFFFFFFFFFFFFFFFF DUP5 DUP5 PUSH2 0x557 JUMP JUMPDEST SWAP1 POP SWAP3 SWAP2 POP POP JUMP INVALID LOG2 PUSH5 0x6970667358 0x22 SLT KECCAK256 DUP1 0xBE LOG3 SWAP7 POP 0x25 0xB1 0x25 MSIZE 0xB0 SWAP16 0xC8 SWAP13 0xB3 PUSH13 0x1E657F8969ADF964B6C620DAE6 0xB5 SHL 0xEA 0xE2 PUSH5 0x736F6C6343 STOP ADDMOD BYTE STOP CALLER "
				},
				"gasEstimates": {
					"creation": {
						"codeDepositCost": "340800",
						"executionCost": "378",
						"totalCost": "341178"
					},
					"external": {
						"add(uint256,uint256)": "infinite",
						"div(uint256,uint256)": "infinite",
						"exp(uint256,uint256)": "infinite",
						"mod(uint256,uint256)": "infinite",
						"mult(uint256,uint256)": "infinite",
						"setX(uint256)": "22537",
						"setY(uint256)": "22560",
						"sub(uint256,uint256)": "infinite",
						"x()": "2425",
						"y()": "2447"
					}
				},
				"methodIdentifiers": {
					"add(uint256,uint256)": "771602f7",
					"div(uint256,uint256)": "a391c15b",
					"exp(uint256,uint256)": "f5f565f8",
					"mod(uint256,uint256)": "f43f523a",
					"mult(uint256,uint256)": "9aa727f6",
					"setX(uint256)": "4018d9aa",
					"setY(uint256)": "68d466b8",
					"sub(uint256,uint256)": "b67d77c5",
					"x()": "0c55699c",
					"y()": "a56dfe4a"
				}
			},
			"storageLayout": {
				"storage": [
					{
						"astId": 3,
						"contract": "contracts/Chalange 03.sol:IntroFunction",
						"label": "x",
						"offset": 0,
						"slot": "0",
						"type": "t_uint256"
					},
					{
						"astId": 5,
						"contract": "contracts/Chalange 03.sol:IntroFunction",
						"label": "y",
						"offset": 0,
						"slot": "1",
						"type": "t_uint256"
					}
				],
				"types": {
					"t_uint256": {
						"encoding": "inplace",
						"label": "uint256",
						"numberOfBytes": "32"
					}
				}
			},
			"userdoc": {
				"kind": "user",
				"methods": {},
				"version": 1
			}
		}
	}
}