{
	"contracts/17 revert1.sol": {
		"FirstRevert": {
			"abi": [
				{
					"inputs": [],
					"name": "onlyOwner",
					"outputs": [],
					"stateMutability": "view",
					"type": "function"
				},
				{
					"inputs": [],
					"name": "owner",
					"outputs": [
						{
							"internalType": "address",
							"name": "",
							"type": "address"
						}
					],
					"stateMutability": "view",
					"type": "function"
				}
			],
			"devdoc": {
				"kind": "dev",
				"methods": {},
				"version": 1
			},
			"evm": {
				"assembly": "    /* \"contracts/17 revert1.sol\":57:320  contract FirstRevert{... */\n  mstore(0x40, 0x80)\n  callvalue\n  dup1\n  iszero\n  tag_1\n  jumpi\n  0x00\n  dup1\n  revert\ntag_1:\n  pop\n  dataSize(sub_0)\n  dup1\n  dataOffset(sub_0)\n  0x00\n  codecopy\n  0x00\n  return\nstop\n\nsub_0: assembly {\n        /* \"contracts/17 revert1.sol\":57:320  contract FirstRevert{... */\n      mstore(0x40, 0x80)\n      callvalue\n      dup1\n      iszero\n      tag_1\n      jumpi\n      0x00\n      dup1\n      revert\n    tag_1:\n      pop\n      jumpi(tag_2, lt(calldatasize, 0x04))\n      shr(0xe0, calldataload(0x00))\n      dup1\n      0x1036e0a8\n      eq\n      tag_3\n      jumpi\n      dup1\n      0x8da5cb5b\n      eq\n      tag_4\n      jumpi\n    tag_2:\n      0x00\n      dup1\n      revert\n        /* \"contracts/17 revert1.sol\":173:318  function onlyOwner() public view {... */\n    tag_3:\n      tag_5\n      tag_6\n      jump\t// in\n    tag_5:\n      stop\n        /* \"contracts/17 revert1.sol\":83:103  address public owner */\n    tag_4:\n      tag_7\n      tag_8\n      jump\t// in\n    tag_7:\n      mload(0x40)\n      tag_9\n      swap2\n      swap1\n      tag_10\n      jump\t// in\n    tag_9:\n      mload(0x40)\n      dup1\n      swap2\n      sub\n      swap1\n      return\n        /* \"contracts/17 revert1.sol\":173:318  function onlyOwner() public view {... */\n    tag_6:\n        /* \"contracts/17 revert1.sol\":233:238  owner */\n      0x00\n      dup1\n      sload\n      swap1\n      0x0100\n      exp\n      swap1\n      div\n      0xffffffffffffffffffffffffffffffffffffffff\n      and\n        /* \"contracts/17 revert1.sol\":219:238  msg.sender != owner */\n      0xffffffffffffffffffffffffffffffffffffffff\n      and\n        /* \"contracts/17 revert1.sol\":219:229  msg.sender */\n      caller\n        /* \"contracts/17 revert1.sol\":219:238  msg.sender != owner */\n      0xffffffffffffffffffffffffffffffffffffffff\n      and\n      eq\n        /* \"contracts/17 revert1.sol\":216:311  if(msg.sender != owner){... */\n      tag_12\n      jumpi\n        /* \"contracts/17 revert1.sol\":253:300  revert(\"Only the owner can call this function\") */\n      mload(0x40)\n      0x08c379a000000000000000000000000000000000000000000000000000000000\n      dup2\n      mstore\n      0x04\n      add\n      tag_13\n      swap1\n      tag_14\n      jump\t// in\n    tag_13:\n      mload(0x40)\n      dup1\n      swap2\n      sub\n      swap1\n      revert\n        /* \"contracts/17 revert1.sol\":216:311  if(msg.sender != owner){... */\n    tag_12:\n        /* \"contracts/17 revert1.sol\":173:318  function onlyOwner() public view {... */\n      jump\t// out\n        /* \"contracts/17 revert1.sol\":83:103  address public owner */\n    tag_8:\n      0x00\n      dup1\n      sload\n      swap1\n      0x0100\n      exp\n      swap1\n      div\n      0xffffffffffffffffffffffffffffffffffffffff\n      and\n      dup2\n      jump\t// out\n        /* \"#utility.yul\":7:133   */\n    tag_15:\n        /* \"#utility.yul\":44:51   */\n      0x00\n        /* \"#utility.yul\":84:126   */\n      0xffffffffffffffffffffffffffffffffffffffff\n        /* \"#utility.yul\":77:82   */\n      dup3\n        /* \"#utility.yul\":73:127   */\n      and\n        /* \"#utility.yul\":62:127   */\n      swap1\n      pop\n        /* \"#utility.yul\":7:133   */\n      swap2\n      swap1\n      pop\n      jump\t// out\n        /* \"#utility.yul\":139:235   */\n    tag_16:\n        /* \"#utility.yul\":176:183   */\n      0x00\n        /* \"#utility.yul\":205:229   */\n      tag_24\n        /* \"#utility.yul\":223:228   */\n      dup3\n        /* \"#utility.yul\":205:229   */\n      tag_15\n      jump\t// in\n    tag_24:\n        /* \"#utility.yul\":194:229   */\n      swap1\n      pop\n        /* \"#utility.yul\":139:235   */\n      swap2\n      swap1\n      pop\n      jump\t// out\n        /* \"#utility.yul\":241:359   */\n    tag_17:\n        /* \"#utility.yul\":328:352   */\n      tag_26\n        /* \"#utility.yul\":346:351   */\n      dup2\n        /* \"#utility.yul\":328:352   */\n      tag_16\n      jump\t// in\n    tag_26:\n        /* \"#utility.yul\":323:326   */\n      dup3\n        /* \"#utility.yul\":316:353   */\n      mstore\n        /* \"#utility.yul\":241:359   */\n      pop\n      pop\n      jump\t// out\n        /* \"#utility.yul\":365:587   */\n    tag_10:\n        /* \"#utility.yul\":458:462   */\n      0x00\n        /* \"#utility.yul\":496:498   */\n      0x20\n        /* \"#utility.yul\":485:494   */\n      dup3\n        /* \"#utility.yul\":481:499   */\n      add\n        /* \"#utility.yul\":473:499   */\n      swap1\n      pop\n        /* \"#utility.yul\":509:580   */\n      tag_28\n        /* \"#utility.yul\":577:578   */\n      0x00\n        /* \"#utility.yul\":566:575   */\n      dup4\n        /* \"#utility.yul\":562:579   */\n      add\n        /* \"#utility.yul\":553:559   */\n      dup5\n        /* \"#utility.yul\":509:580   */\n      tag_17\n      jump\t// in\n    tag_28:\n        /* \"#utility.yul\":365:587   */\n      swap3\n      swap2\n      pop\n      pop\n      jump\t// out\n        /* \"#utility.yul\":593:762   */\n    tag_18:\n        /* \"#utility.yul\":677:688   */\n      0x00\n        /* \"#utility.yul\":711:717   */\n      dup3\n        /* \"#utility.yul\":706:709   */\n      dup3\n        /* \"#utility.yul\":699:718   */\n      mstore\n        /* \"#utility.yul\":751:755   */\n      0x20\n        /* \"#utility.yul\":746:749   */\n      dup3\n        /* \"#utility.yul\":742:756   */\n      add\n        /* \"#utility.yul\":727:756   */\n      swap1\n      pop\n        /* \"#utility.yul\":593:762   */\n      swap3\n      swap2\n      pop\n      pop\n      jump\t// out\n        /* \"#utility.yul\":768:992   */\n    tag_19:\n        /* \"#utility.yul\":908:942   */\n      0x4f6e6c7920746865206f776e65722063616e2063616c6c20746869732066756e\n        /* \"#utility.yul\":904:905   */\n      0x00\n        /* \"#utility.yul\":896:902   */\n      dup3\n        /* \"#utility.yul\":892:906   */\n      add\n        /* \"#utility.yul\":885:943   */\n      mstore\n        /* \"#utility.yul\":977:984   */\n      0x6374696f6e000000000000000000000000000000000000000000000000000000\n        /* \"#utility.yul\":972:974   */\n      0x20\n        /* \"#utility.yul\":964:970   */\n      dup3\n        /* \"#utility.yul\":960:975   */\n      add\n        /* \"#utility.yul\":953:985   */\n      mstore\n        /* \"#utility.yul\":768:992   */\n      pop\n      jump\t// out\n        /* \"#utility.yul\":998:1364   */\n    tag_20:\n        /* \"#utility.yul\":1140:1143   */\n      0x00\n        /* \"#utility.yul\":1161:1228   */\n      tag_32\n        /* \"#utility.yul\":1225:1227   */\n      0x25\n        /* \"#utility.yul\":1220:1223   */\n      dup4\n        /* \"#utility.yul\":1161:1228   */\n      tag_18\n      jump\t// in\n    tag_32:\n        /* \"#utility.yul\":1154:1228   */\n      swap2\n      pop\n        /* \"#utility.yul\":1237:1330   */\n      tag_33\n        /* \"#utility.yul\":1326:1329   */\n      dup3\n        /* \"#utility.yul\":1237:1330   */\n      tag_19\n      jump\t// in\n    tag_33:\n        /* \"#utility.yul\":1355:1357   */\n      0x40\n        /* \"#utility.yul\":1350:1353   */\n      dup3\n        /* \"#utility.yul\":1346:1358   */\n      add\n        /* \"#utility.yul\":1339:1358   */\n      swap1\n      pop\n        /* \"#utility.yul\":998:1364   */\n      swap2\n      swap1\n      pop\n      jump\t// out\n        /* \"#utility.yul\":1370:1789   */\n    tag_14:\n        /* \"#utility.yul\":1536:1540   */\n      0x00\n        /* \"#utility.yul\":1574:1576   */\n      0x20\n        /* \"#utility.yul\":1563:1572   */\n      dup3\n        /* \"#utility.yul\":1559:1577   */\n      add\n        /* \"#utility.yul\":1551:1577   */\n      swap1\n      pop\n        /* \"#utility.yul\":1623:1632   */\n      dup2\n        /* \"#utility.yul\":1617:1621   */\n      dup2\n        /* \"#utility.yul\":1613:1633   */\n      sub\n        /* \"#utility.yul\":1609:1610   */\n      0x00\n        /* \"#utility.yul\":1598:1607   */\n      dup4\n        /* \"#utility.yul\":1594:1611   */\n      add\n        /* \"#utility.yul\":1587:1634   */\n      mstore\n        /* \"#utility.yul\":1651:1782   */\n      tag_35\n        /* \"#utility.yul\":1777:1781   */\n      dup2\n        /* \"#utility.yul\":1651:1782   */\n      tag_20\n      jump\t// in\n    tag_35:\n        /* \"#utility.yul\":1643:1782   */\n      swap1\n      pop\n        /* \"#utility.yul\":1370:1789   */\n      swap2\n      swap1\n      pop\n      jump\t// out\n\n    auxdata: 0xa2646970667358221220f4a937e957548fc9edd0d6efe269880ac4ebc36e5c919874d2b6212ae3aba72264736f6c634300081a0033\n}\n",
				"bytecode": {
					"linkReferences": {},
					"object": "6080604052348015600e575f80fd5b5061023e8061001c5f395ff3fe608060405234801561000f575f80fd5b5060043610610034575f3560e01c80631036e0a8146100385780638da5cb5b14610042575b5f80fd5b610040610060565b005b61004a6100ef565b6040516100579190610151565b60405180910390f35b5f8054906101000a900473ffffffffffffffffffffffffffffffffffffffff1673ffffffffffffffffffffffffffffffffffffffff163373ffffffffffffffffffffffffffffffffffffffff16146100ed576040517f08c379a00000000000000000000000000000000000000000000000000000000081526004016100e4906101ea565b60405180910390fd5b565b5f8054906101000a900473ffffffffffffffffffffffffffffffffffffffff1681565b5f73ffffffffffffffffffffffffffffffffffffffff82169050919050565b5f61013b82610112565b9050919050565b61014b81610131565b82525050565b5f6020820190506101645f830184610142565b92915050565b5f82825260208201905092915050565b7f4f6e6c7920746865206f776e65722063616e2063616c6c20746869732066756e5f8201527f6374696f6e000000000000000000000000000000000000000000000000000000602082015250565b5f6101d460258361016a565b91506101df8261017a565b604082019050919050565b5f6020820190508181035f830152610201816101c8565b905091905056fea2646970667358221220f4a937e957548fc9edd0d6efe269880ac4ebc36e5c919874d2b6212ae3aba72264736f6c634300081a0033",
					"opcodes": "PUSH1 0x80 PUSH1 0x40 MSTORE CALLVALUE DUP1 ISZERO PUSH1 0xE JUMPI PUSH0 DUP1 REVERT JUMPDEST POP PUSH2 0x23E DUP1 PUSH2 0x1C PUSH0 CODECOPY PUSH0 RETURN INVALID PUSH1 0x80 PUSH1 0x40 MSTORE CALLVALUE DUP1 ISZERO PUSH2 0xF JUMPI PUSH0 DUP1 REVERT JUMPDEST POP PUSH1 0x4 CALLDATASIZE LT PUSH2 0x34 JUMPI PUSH0 CALLDATALOAD PUSH1 0xE0 SHR DUP1 PUSH4 0x1036E0A8 EQ PUSH2 0x38 JUMPI DUP1 PUSH4 0x8DA5CB5B EQ PUSH2 0x42 JUMPI JUMPDEST PUSH0 DUP1 REVERT JUMPDEST PUSH2 0x40 PUSH2 0x60 JUMP JUMPDEST STOP JUMPDEST PUSH2 0x4A PUSH2 0xEF JUMP JUMPDEST PUSH1 0x40 MLOAD PUSH2 0x57 SWAP2 SWAP1 PUSH2 0x151 JUMP JUMPDEST PUSH1 0x40 MLOAD DUP1 SWAP2 SUB SWAP1 RETURN JUMPDEST PUSH0 DUP1 SLOAD SWAP1 PUSH2 0x100 EXP SWAP1 DIV PUSH20 0xFFFFFFFFFFFFFFFFFFFFFFFFFFFFFFFFFFFFFFFF AND PUSH20 0xFFFFFFFFFFFFFFFFFFFFFFFFFFFFFFFFFFFFFFFF AND CALLER PUSH20 0xFFFFFFFFFFFFFFFFFFFFFFFFFFFFFFFFFFFFFFFF AND EQ PUSH2 0xED JUMPI PUSH1 0x40 MLOAD PUSH32 0x8C379A000000000000000000000000000000000000000000000000000000000 DUP2 MSTORE PUSH1 0x4 ADD PUSH2 0xE4 SWAP1 PUSH2 0x1EA JUMP JUMPDEST PUSH1 0x40 MLOAD DUP1 SWAP2 SUB SWAP1 REVERT JUMPDEST JUMP JUMPDEST PUSH0 DUP1 SLOAD SWAP1 PUSH2 0x100 EXP SWAP1 DIV PUSH20 0xFFFFFFFFFFFFFFFFFFFFFFFFFFFFFFFFFFFFFFFF AND DUP2 JUMP JUMPDEST PUSH0 PUSH20 0xFFFFFFFFFFFFFFFFFFFFFFFFFFFFFFFFFFFFFFFF DUP3 AND SWAP1 POP SWAP2 SWAP1 POP JUMP JUMPDEST PUSH0 PUSH2 0x13B DUP3 PUSH2 0x112 JUMP JUMPDEST SWAP1 POP SWAP2 SWAP1 POP JUMP JUMPDEST PUSH2 0x14B DUP2 PUSH2 0x131 JUMP JUMPDEST DUP3 MSTORE POP POP JUMP JUMPDEST PUSH0 PUSH1 0x20 DUP3 ADD SWAP1 POP PUSH2 0x164 PUSH0 DUP4 ADD DUP5 PUSH2 0x142 JUMP JUMPDEST SWAP3 SWAP2 POP POP JUMP JUMPDEST PUSH0 DUP3 DUP3 MSTORE PUSH1 0x20 DUP3 ADD SWAP1 POP SWAP3 SWAP2 POP POP JUMP JUMPDEST PUSH32 0x4F6E6C7920746865206F776E65722063616E2063616C6C20746869732066756E PUSH0 DUP3 ADD MSTORE PUSH32 0x6374696F6E000000000000000000000000000000000000000000000000000000 PUSH1 0x20 DUP3 ADD MSTORE POP JUMP JUMPDEST PUSH0 PUSH2 0x1D4 PUSH1 0x25 DUP4 PUSH2 0x16A JUMP JUMPDEST SWAP2 POP PUSH2 0x1DF DUP3 PUSH2 0x17A JUMP JUMPDEST PUSH1 0x40 DUP3 ADD SWAP1 POP SWAP2 SWAP1 POP JUMP JUMPDEST PUSH0 PUSH1 0x20 DUP3 ADD SWAP1 POP DUP2 DUP2 SUB PUSH0 DUP4 ADD MSTORE PUSH2 0x201 DUP2 PUSH2 0x1C8 JUMP JUMPDEST SWAP1 POP SWAP2 SWAP1 POP JUMP INVALID LOG2 PUSH5 0x6970667358 0x22 SLT KECCAK256 DELEGATECALL 0xA9 CALLDATACOPY 0xE9 JUMPI SLOAD DUP16 0xC9 0xED 0xD0 0xD6 0xEF 0xE2 PUSH10 0x880AC4EBC36E5C919874 0xD2 0xB6 0x21 0x2A 0xE3 0xAB 0xA7 0x22 PUSH5 0x736F6C6343 STOP ADDMOD BYTE STOP CALLER "
				},
				"gasEstimates": {
					"creation": {
						"codeDepositCost": "114800",
						"executionCost": "157",
						"totalCost": "114957"
					},
					"external": {
						"onlyOwner()": "2589",
						"owner()": "2505"
					}
				},
				"methodIdentifiers": {
					"onlyOwner()": "1036e0a8",
					"owner()": "8da5cb5b"
				}
			},
			"storageLayout": {
				"storage": [
					{
						"astId": 3,
						"contract": "contracts/17 revert1.sol:FirstRevert",
						"label": "owner",
						"offset": 0,
						"slot": "0",
						"type": "t_address"
					}
				],
				"types": {
					"t_address": {
						"encoding": "inplace",
						"label": "address",
						"numberOfBytes": "20"
					}
				}
			},
			"userdoc": {
				"kind": "user",
				"methods": {},
				"version": 1
			}
		}
	}
}