{
	"contracts/10 counter.sol": {
		"CounterExample": {
			"abi": [
				{
					"inputs": [],
					"name": "decrement",
					"outputs": [],
					"stateMutability": "nonpayable",
					"type": "function"
				},
				{
					"inputs": [],
					"name": "getValue",
					"outputs": [
						{
							"internalType": "uint256",
							"name": "",
							"type": "uint256"
						}
					],
					"stateMutability": "view",
					"type": "function"
				},
				{
					"inputs": [],
					"name": "increment",
					"outputs": [],
					"stateMutability": "nonpayable",
					"type": "function"
				},
				{
					"inputs": [],
					"name": "stateVariable",
					"outputs": [
						{
							"internalType": "uint256",
							"name": "",
							"type": "uint256"
						}
					],
					"stateMutability": "view",
					"type": "function"
				}
			],
			"devdoc": {
				"kind": "dev",
				"methods": {},
				"version": 1
			},
			"evm": {
				"assembly": "    /* \"contracts/10 counter.sol\":57:436  contract CounterExample{... */\n  mstore(0x40, 0x80)\n  callvalue\n  dup1\n  iszero\n  tag_1\n  jumpi\n  0x00\n  dup1\n  revert\ntag_1:\n  pop\n  dataSize(sub_0)\n  dup1\n  dataOffset(sub_0)\n  0x00\n  codecopy\n  0x00\n  return\nstop\n\nsub_0: assembly {\n        /* \"contracts/10 counter.sol\":57:436  contract CounterExample{... */\n      mstore(0x40, 0x80)\n      callvalue\n      dup1\n      iszero\n      tag_1\n      jumpi\n      0x00\n      dup1\n      revert\n    tag_1:\n      pop\n      jumpi(tag_2, lt(calldatasize, 0x04))\n      shr(0xe0, calldataload(0x00))\n      dup1\n      0x20965255\n      eq\n      tag_3\n      jumpi\n      dup1\n      0x2baeceb7\n      eq\n      tag_4\n      jumpi\n      dup1\n      0xd09de08a\n      eq\n      tag_5\n      jumpi\n      dup1\n      0xe1967eae\n      eq\n      tag_6\n      jumpi\n    tag_2:\n      0x00\n      dup1\n      revert\n        /* \"contracts/10 counter.sol\":350:433  function getValue()external view returns(uint){... */\n    tag_3:\n      tag_7\n      tag_8\n      jump\t// in\n    tag_7:\n      mload(0x40)\n      tag_9\n      swap2\n      swap1\n      tag_10\n      jump\t// in\n    tag_9:\n      mload(0x40)\n      dup1\n      swap2\n      sub\n      swap1\n      return\n        /* \"contracts/10 counter.sol\":210:340  function decrement()external {... */\n    tag_4:\n      tag_11\n      tag_12\n      jump\t// in\n    tag_11:\n      stop\n        /* \"contracts/10 counter.sol\":140:204  function increment()external {... */\n    tag_5:\n      tag_13\n      tag_14\n      jump\t// in\n    tag_13:\n      stop\n        /* \"contracts/10 counter.sol\":108:133  uint public stateVariable */\n    tag_6:\n      tag_15\n      tag_16\n      jump\t// in\n    tag_15:\n      mload(0x40)\n      tag_17\n      swap2\n      swap1\n      tag_10\n      jump\t// in\n    tag_17:\n      mload(0x40)\n      dup1\n      swap2\n      sub\n      swap1\n      return\n        /* \"contracts/10 counter.sol\":350:433  function getValue()external view returns(uint){... */\n    tag_8:\n        /* \"contracts/10 counter.sol\":391:395  uint */\n      0x00\n        /* \"contracts/10 counter.sol\":413:426  stateVariable */\n      dup1\n      sload\n        /* \"contracts/10 counter.sol\":406:426  return stateVariable */\n      swap1\n      pop\n        /* \"contracts/10 counter.sol\":350:433  function getValue()external view returns(uint){... */\n      swap1\n      jump\t// out\n        /* \"contracts/10 counter.sol\":210:340  function decrement()external {... */\n    tag_12:\n        /* \"contracts/10 counter.sol\":273:274  1 */\n      0x01\n        /* \"contracts/10 counter.sol\":257:270  stateVariable */\n      sload(0x00)\n        /* \"contracts/10 counter.sol\":257:274  stateVariable > 1 */\n      gt\n        /* \"contracts/10 counter.sol\":249:305  require(stateVariable > 1,\"counter can not be negative\") */\n      tag_20\n      jumpi\n      mload(0x40)\n      0x08c379a000000000000000000000000000000000000000000000000000000000\n      dup2\n      mstore\n      0x04\n      add\n      tag_21\n      swap1\n      tag_22\n      jump\t// in\n    tag_21:\n      mload(0x40)\n      dup1\n      swap2\n      sub\n      swap1\n      revert\n    tag_20:\n        /* \"contracts/10 counter.sol\":332:333  1 */\n      0x01\n        /* \"contracts/10 counter.sol\":315:328  stateVariable */\n      0x00\n      dup1\n        /* \"contracts/10 counter.sol\":315:333  stateVariable -= 1 */\n      dup3\n      dup3\n      sload\n      tag_23\n      swap2\n      swap1\n      tag_24\n      jump\t// in\n    tag_23:\n      swap3\n      pop\n      pop\n      dup2\n      swap1\n      sstore\n      pop\n        /* \"contracts/10 counter.sol\":210:340  function decrement()external {... */\n      jump\t// out\n        /* \"contracts/10 counter.sol\":140:204  function increment()external {... */\n    tag_14:\n        /* \"contracts/10 counter.sol\":196:197  1 */\n      0x01\n        /* \"contracts/10 counter.sol\":179:192  stateVariable */\n      0x00\n      dup1\n        /* \"contracts/10 counter.sol\":179:197  stateVariable += 1 */\n      dup3\n      dup3\n      sload\n      tag_26\n      swap2\n      swap1\n      tag_27\n      jump\t// in\n    tag_26:\n      swap3\n      pop\n      pop\n      dup2\n      swap1\n      sstore\n      pop\n        /* \"contracts/10 counter.sol\":140:204  function increment()external {... */\n      jump\t// out\n        /* \"contracts/10 counter.sol\":108:133  uint public stateVariable */\n    tag_16:\n      sload(0x00)\n      dup2\n      jump\t// out\n        /* \"#utility.yul\":7:84   */\n    tag_28:\n        /* \"#utility.yul\":44:51   */\n      0x00\n        /* \"#utility.yul\":73:78   */\n      dup2\n        /* \"#utility.yul\":62:78   */\n      swap1\n      pop\n        /* \"#utility.yul\":7:84   */\n      swap2\n      swap1\n      pop\n      jump\t// out\n        /* \"#utility.yul\":90:208   */\n    tag_29:\n        /* \"#utility.yul\":177:201   */\n      tag_37\n        /* \"#utility.yul\":195:200   */\n      dup2\n        /* \"#utility.yul\":177:201   */\n      tag_28\n      jump\t// in\n    tag_37:\n        /* \"#utility.yul\":172:175   */\n      dup3\n        /* \"#utility.yul\":165:202   */\n      mstore\n        /* \"#utility.yul\":90:208   */\n      pop\n      pop\n      jump\t// out\n        /* \"#utility.yul\":214:436   */\n    tag_10:\n        /* \"#utility.yul\":307:311   */\n      0x00\n        /* \"#utility.yul\":345:347   */\n      0x20\n        /* \"#utility.yul\":334:343   */\n      dup3\n        /* \"#utility.yul\":330:348   */\n      add\n        /* \"#utility.yul\":322:348   */\n      swap1\n      pop\n        /* \"#utility.yul\":358:429   */\n      tag_39\n        /* \"#utility.yul\":426:427   */\n      0x00\n        /* \"#utility.yul\":415:424   */\n      dup4\n        /* \"#utility.yul\":411:428   */\n      add\n        /* \"#utility.yul\":402:408   */\n      dup5\n        /* \"#utility.yul\":358:429   */\n      tag_29\n      jump\t// in\n    tag_39:\n        /* \"#utility.yul\":214:436   */\n      swap3\n      swap2\n      pop\n      pop\n      jump\t// out\n        /* \"#utility.yul\":442:611   */\n    tag_30:\n        /* \"#utility.yul\":526:537   */\n      0x00\n        /* \"#utility.yul\":560:566   */\n      dup3\n        /* \"#utility.yul\":555:558   */\n      dup3\n        /* \"#utility.yul\":548:567   */\n      mstore\n        /* \"#utility.yul\":600:604   */\n      0x20\n        /* \"#utility.yul\":595:598   */\n      dup3\n        /* \"#utility.yul\":591:605   */\n      add\n        /* \"#utility.yul\":576:605   */\n      swap1\n      pop\n        /* \"#utility.yul\":442:611   */\n      swap3\n      swap2\n      pop\n      pop\n      jump\t// out\n        /* \"#utility.yul\":617:794   */\n    tag_31:\n        /* \"#utility.yul\":757:786   */\n      0x636f756e7465722063616e206e6f74206265206e656761746976650000000000\n        /* \"#utility.yul\":753:754   */\n      0x00\n        /* \"#utility.yul\":745:751   */\n      dup3\n        /* \"#utility.yul\":741:755   */\n      add\n        /* \"#utility.yul\":734:787   */\n      mstore\n        /* \"#utility.yul\":617:794   */\n      pop\n      jump\t// out\n        /* \"#utility.yul\":800:1166   */\n    tag_32:\n        /* \"#utility.yul\":942:945   */\n      0x00\n        /* \"#utility.yul\":963:1030   */\n      tag_43\n        /* \"#utility.yul\":1027:1029   */\n      0x1b\n        /* \"#utility.yul\":1022:1025   */\n      dup4\n        /* \"#utility.yul\":963:1030   */\n      tag_30\n      jump\t// in\n    tag_43:\n        /* \"#utility.yul\":956:1030   */\n      swap2\n      pop\n        /* \"#utility.yul\":1039:1132   */\n      tag_44\n        /* \"#utility.yul\":1128:1131   */\n      dup3\n        /* \"#utility.yul\":1039:1132   */\n      tag_31\n      jump\t// in\n    tag_44:\n        /* \"#utility.yul\":1157:1159   */\n      0x20\n        /* \"#utility.yul\":1152:1155   */\n      dup3\n        /* \"#utility.yul\":1148:1160   */\n      add\n        /* \"#utility.yul\":1141:1160   */\n      swap1\n      pop\n        /* \"#utility.yul\":800:1166   */\n      swap2\n      swap1\n      pop\n      jump\t// out\n        /* \"#utility.yul\":1172:1591   */\n    tag_22:\n        /* \"#utility.yul\":1338:1342   */\n      0x00\n        /* \"#utility.yul\":1376:1378   */\n      0x20\n        /* \"#utility.yul\":1365:1374   */\n      dup3\n        /* \"#utility.yul\":1361:1379   */\n      add\n        /* \"#utility.yul\":1353:1379   */\n      swap1\n      pop\n        /* \"#utility.yul\":1425:1434   */\n      dup2\n        /* \"#utility.yul\":1419:1423   */\n      dup2\n        /* \"#utility.yul\":1415:1435   */\n      sub\n        /* \"#utility.yul\":1411:1412   */\n      0x00\n        /* \"#utility.yul\":1400:1409   */\n      dup4\n        /* \"#utility.yul\":1396:1413   */\n      add\n        /* \"#utility.yul\":1389:1436   */\n      mstore\n        /* \"#utility.yul\":1453:1584   */\n      tag_46\n        /* \"#utility.yul\":1579:1583   */\n      dup2\n        /* \"#utility.yul\":1453:1584   */\n      tag_32\n      jump\t// in\n    tag_46:\n        /* \"#utility.yul\":1445:1584   */\n      swap1\n      pop\n        /* \"#utility.yul\":1172:1591   */\n      swap2\n      swap1\n      pop\n      jump\t// out\n        /* \"#utility.yul\":1597:1777   */\n    tag_33:\n        /* \"#utility.yul\":1645:1722   */\n      0x4e487b7100000000000000000000000000000000000000000000000000000000\n        /* \"#utility.yul\":1642:1643   */\n      0x00\n        /* \"#utility.yul\":1635:1723   */\n      mstore\n        /* \"#utility.yul\":1742:1746   */\n      0x11\n        /* \"#utility.yul\":1739:1740   */\n      0x04\n        /* \"#utility.yul\":1732:1747   */\n      mstore\n        /* \"#utility.yul\":1766:1770   */\n      0x24\n        /* \"#utility.yul\":1763:1764   */\n      0x00\n        /* \"#utility.yul\":1756:1771   */\n      revert\n        /* \"#utility.yul\":1783:1977   */\n    tag_24:\n        /* \"#utility.yul\":1823:1827   */\n      0x00\n        /* \"#utility.yul\":1843:1863   */\n      tag_49\n        /* \"#utility.yul\":1861:1862   */\n      dup3\n        /* \"#utility.yul\":1843:1863   */\n      tag_28\n      jump\t// in\n    tag_49:\n        /* \"#utility.yul\":1838:1863   */\n      swap2\n      pop\n        /* \"#utility.yul\":1877:1897   */\n      tag_50\n        /* \"#utility.yul\":1895:1896   */\n      dup4\n        /* \"#utility.yul\":1877:1897   */\n      tag_28\n      jump\t// in\n    tag_50:\n        /* \"#utility.yul\":1872:1897   */\n      swap3\n      pop\n        /* \"#utility.yul\":1921:1922   */\n      dup3\n        /* \"#utility.yul\":1918:1919   */\n      dup3\n        /* \"#utility.yul\":1914:1923   */\n      sub\n        /* \"#utility.yul\":1906:1923   */\n      swap1\n      pop\n        /* \"#utility.yul\":1945:1946   */\n      dup2\n        /* \"#utility.yul\":1939:1943   */\n      dup2\n        /* \"#utility.yul\":1936:1947   */\n      gt\n        /* \"#utility.yul\":1933:1970   */\n      iszero\n      tag_51\n      jumpi\n        /* \"#utility.yul\":1950:1968   */\n      tag_52\n      tag_33\n      jump\t// in\n    tag_52:\n        /* \"#utility.yul\":1933:1970   */\n    tag_51:\n        /* \"#utility.yul\":1783:1977   */\n      swap3\n      swap2\n      pop\n      pop\n      jump\t// out\n        /* \"#utility.yul\":1983:2174   */\n    tag_27:\n        /* \"#utility.yul\":2023:2026   */\n      0x00\n        /* \"#utility.yul\":2042:2062   */\n      tag_54\n        /* \"#utility.yul\":2060:2061   */\n      dup3\n        /* \"#utility.yul\":2042:2062   */\n      tag_28\n      jump\t// in\n    tag_54:\n        /* \"#utility.yul\":2037:2062   */\n      swap2\n      pop\n        /* \"#utility.yul\":2076:2096   */\n      tag_55\n        /* \"#utility.yul\":2094:2095   */\n      dup4\n        /* \"#utility.yul\":2076:2096   */\n      tag_28\n      jump\t// in\n    tag_55:\n        /* \"#utility.yul\":2071:2096   */\n      swap3\n      pop\n        /* \"#utility.yul\":2119:2120   */\n      dup3\n        /* \"#utility.yul\":2116:2117   */\n      dup3\n        /* \"#utility.yul\":2112:2121   */\n      add\n        /* \"#utility.yul\":2105:2121   */\n      swap1\n      pop\n        /* \"#utility.yul\":2140:2143   */\n      dup1\n        /* \"#utility.yul\":2137:2138   */\n      dup3\n        /* \"#utility.yul\":2134:2144   */\n      gt\n        /* \"#utility.yul\":2131:2167   */\n      iszero\n      tag_56\n      jumpi\n        /* \"#utility.yul\":2147:2165   */\n      tag_57\n      tag_33\n      jump\t// in\n    tag_57:\n        /* \"#utility.yul\":2131:2167   */\n    tag_56:\n        /* \"#utility.yul\":1983:2174   */\n      swap3\n      swap2\n      pop\n      pop\n      jump\t// out\n\n    auxdata: 0xa26469706673582212209bbf47888505369dbbf8d92bcbbe8d0d750742807819e226ea86ee40ffb1388b64736f6c634300081a0033\n}\n",
				"bytecode": {
					"linkReferences": {},
					"object": "6080604052348015600e575f80fd5b506102958061001c5f395ff3fe608060405234801561000f575f80fd5b506004361061004a575f3560e01c8063209652551461004e5780632baeceb71461006c578063d09de08a14610076578063e1967eae14610080575b5f80fd5b61005661009e565b604051610063919061013b565b60405180910390f35b6100746100a6565b005b61007e610104565b005b61008861011e565b604051610095919061013b565b60405180910390f35b5f8054905090565b60015f54116100ea576040517f08c379a00000000000000000000000000000000000000000000000000000000081526004016100e1906101ae565b60405180910390fd5b60015f808282546100fb91906101f9565b92505081905550565b60015f80828254610115919061022c565b92505081905550565b5f5481565b5f819050919050565b61013581610123565b82525050565b5f60208201905061014e5f83018461012c565b92915050565b5f82825260208201905092915050565b7f636f756e7465722063616e206e6f74206265206e6567617469766500000000005f82015250565b5f610198601b83610154565b91506101a382610164565b602082019050919050565b5f6020820190508181035f8301526101c58161018c565b9050919050565b7f4e487b71000000000000000000000000000000000000000000000000000000005f52601160045260245ffd5b5f61020382610123565b915061020e83610123565b9250828203905081811115610226576102256101cc565b5b92915050565b5f61023682610123565b915061024183610123565b9250828201905080821115610259576102586101cc565b5b9291505056fea26469706673582212209bbf47888505369dbbf8d92bcbbe8d0d750742807819e226ea86ee40ffb1388b64736f6c634300081a0033",
					"opcodes": "PUSH1 0x80 PUSH1 0x40 MSTORE CALLVALUE DUP1 ISZERO PUSH1 0xE JUMPI PUSH0 DUP1 REVERT JUMPDEST POP PUSH2 0x295 DUP1 PUSH2 0x1C PUSH0 CODECOPY PUSH0 RETURN INVALID PUSH1 0x80 PUSH1 0x40 MSTORE CALLVALUE DUP1 ISZERO PUSH2 0xF JUMPI PUSH0 DUP1 REVERT JUMPDEST POP PUSH1 0x4 CALLDATASIZE LT PUSH2 0x4A JUMPI PUSH0 CALLDATALOAD PUSH1 0xE0 SHR DUP1 PUSH4 0x20965255 EQ PUSH2 0x4E JUMPI DUP1 PUSH4 0x2BAECEB7 EQ PUSH2 0x6C JUMPI DUP1 PUSH4 0xD09DE08A EQ PUSH2 0x76 JUMPI DUP1 PUSH4 0xE1967EAE EQ PUSH2 0x80 JUMPI JUMPDEST PUSH0 DUP1 REVERT JUMPDEST PUSH2 0x56 PUSH2 0x9E JUMP JUMPDEST PUSH1 0x40 MLOAD PUSH2 0x63 SWAP2 SWAP1 PUSH2 0x13B JUMP JUMPDEST PUSH1 0x40 MLOAD DUP1 SWAP2 SUB SWAP1 RETURN JUMPDEST PUSH2 0x74 PUSH2 0xA6 JUMP JUMPDEST STOP JUMPDEST PUSH2 0x7E PUSH2 0x104 JUMP JUMPDEST STOP JUMPDEST PUSH2 0x88 PUSH2 0x11E JUMP JUMPDEST PUSH1 0x40 MLOAD PUSH2 0x95 SWAP2 SWAP1 PUSH2 0x13B JUMP JUMPDEST PUSH1 0x40 MLOAD DUP1 SWAP2 SUB SWAP1 RETURN JUMPDEST PUSH0 DUP1 SLOAD SWAP1 POP SWAP1 JUMP JUMPDEST PUSH1 0x1 PUSH0 SLOAD GT PUSH2 0xEA JUMPI PUSH1 0x40 MLOAD PUSH32 0x8C379A000000000000000000000000000000000000000000000000000000000 DUP2 MSTORE PUSH1 0x4 ADD PUSH2 0xE1 SWAP1 PUSH2 0x1AE JUMP JUMPDEST PUSH1 0x40 MLOAD DUP1 SWAP2 SUB SWAP1 REVERT JUMPDEST PUSH1 0x1 PUSH0 DUP1 DUP3 DUP3 SLOAD PUSH2 0xFB SWAP2 SWAP1 PUSH2 0x1F9 JUMP JUMPDEST SWAP3 POP POP DUP2 SWAP1 SSTORE POP JUMP JUMPDEST PUSH1 0x1 PUSH0 DUP1 DUP3 DUP3 SLOAD PUSH2 0x115 SWAP2 SWAP1 PUSH2 0x22C JUMP JUMPDEST SWAP3 POP POP DUP2 SWAP1 SSTORE POP JUMP JUMPDEST PUSH0 SLOAD DUP2 JUMP JUMPDEST PUSH0 DUP2 SWAP1 POP SWAP2 SWAP1 POP JUMP JUMPDEST PUSH2 0x135 DUP2 PUSH2 0x123 JUMP JUMPDEST DUP3 MSTORE POP POP JUMP JUMPDEST PUSH0 PUSH1 0x20 DUP3 ADD SWAP1 POP PUSH2 0x14E PUSH0 DUP4 ADD DUP5 PUSH2 0x12C JUMP JUMPDEST SWAP3 SWAP2 POP POP JUMP JUMPDEST PUSH0 DUP3 DUP3 MSTORE PUSH1 0x20 DUP3 ADD SWAP1 POP SWAP3 SWAP2 POP POP JUMP JUMPDEST PUSH32 0x636F756E7465722063616E206E6F74206265206E656761746976650000000000 PUSH0 DUP3 ADD MSTORE POP JUMP JUMPDEST PUSH0 PUSH2 0x198 PUSH1 0x1B DUP4 PUSH2 0x154 JUMP JUMPDEST SWAP2 POP PUSH2 0x1A3 DUP3 PUSH2 0x164 JUMP JUMPDEST PUSH1 0x20 DUP3 ADD SWAP1 POP SWAP2 SWAP1 POP JUMP JUMPDEST PUSH0 PUSH1 0x20 DUP3 ADD SWAP1 POP DUP2 DUP2 SUB PUSH0 DUP4 ADD MSTORE PUSH2 0x1C5 DUP2 PUSH2 0x18C JUMP JUMPDEST SWAP1 POP SWAP2 SWAP1 POP JUMP JUMPDEST PUSH32 0x4E487B7100000000000000000000000000000000000000000000000000000000 PUSH0 MSTORE PUSH1 0x11 PUSH1 0x4 MSTORE PUSH1 0x24 PUSH0 REVERT JUMPDEST PUSH0 PUSH2 0x203 DUP3 PUSH2 0x123 JUMP JUMPDEST SWAP2 POP PUSH2 0x20E DUP4 PUSH2 0x123 JUMP JUMPDEST SWAP3 POP DUP3 DUP3 SUB SWAP1 POP DUP2 DUP2 GT ISZERO PUSH2 0x226 JUMPI PUSH2 0x225 PUSH2 0x1CC JUMP JUMPDEST JUMPDEST SWAP3 SWAP2 POP POP JUMP JUMPDEST PUSH0 PUSH2 0x236 DUP3 PUSH2 0x123 JUMP JUMPDEST SWAP2 POP PUSH2 0x241 DUP4 PUSH2 0x123 JUMP JUMPDEST SWAP3 POP DUP3 DUP3 ADD SWAP1 POP DUP1 DUP3 GT ISZERO PUSH2 0x259 JUMPI PUSH2 0x258 PUSH2 0x1CC JUMP JUMPDEST JUMPDEST SWAP3 SWAP2 POP POP JUMP INVALID LOG2 PUSH5 0x6970667358 0x22 SLT KECCAK256 SWAP12 0xBF SELFBALANCE DUP9 DUP6 SDIV CALLDATASIZE SWAP14 0xBB 0xF8 0xD9 0x2B 0xCB 0xBE DUP14 0xD PUSH22 0x742807819E226EA86EE40FFB1388B64736F6C634300 ADDMOD BYTE STOP CALLER "
				},
				"gasEstimates": {
					"creation": {
						"codeDepositCost": "132200",
						"executionCost": "175",
						"totalCost": "132375"
					},
					"external": {
						"decrement()": "infinite",
						"getValue()": "2410",
						"increment()": "infinite",
						"stateVariable()": "2468"
					}
				},
				"methodIdentifiers": {
					"decrement()": "2baeceb7",
					"getValue()": "20965255",
					"increment()": "d09de08a",
					"stateVariable()": "e1967eae"
				}
			},
			"storageLayout": {
				"storage": [
					{
						"astId": 3,
						"contract": "contracts/10 counter.sol:CounterExample",
						"label": "stateVariable",
						"offset": 0,
						"slot": "0",
						"type": "t_uint256"
					}
				],
				"types": {
					"t_uint256": {
						"encoding": "inplace",
						"label": "uint256",
						"numberOfBytes": "32"
					}
				}
			},
			"userdoc": {
				"kind": "user",
				"methods": {},
				"version": 1
			}
		}
	}
}