{
	"data": {
		"bytecode": {
			"linkReferences": {},
			"object": "6080604052348015600e575f80fd5b50600a5f80600581106021576020608a565b5b018190555060145f6001600581106039576038608a565b5b0181905550601e5f6002600581106051576050608a565b5b018190555060285f6003600581106069576068608a565b5b018190555060325f6004600581106081576080608a565b5b018190555060b7565b7f4e487b71000000000000000000000000000000000000000000000000000000005f52603260045260245ffd5b610621806100c45f395ff3fe608060405234801561000f575f80fd5b506004361061007b575f3560e01c8063ab35ec6311610059578063ab35ec63146100c1578063be1c766b146100f1578063f8a8fd6d1461010f578063fb8cbced146101195761007b565b806313c48e941461007f578063959ac4841461009b578063a4ece52c146100b7575b5f80fd5b610099600480360381019061009491906103c2565b610137565b005b6100b560048036038101906100b091906103c2565b610159565b005b6100bf610182565b005b6100db60048036038101906100d691906103c2565b6101a9565b6040516100e891906103fc565b60405180910390f35b6100f9610209565b60405161010691906103fc565b60405180910390f35b610117610215565b005b6101216102ca565b60405161012e91906104cc565b60405180910390f35b6005818154811061014b5761014a6104ec565b5b905f5260205f20015f905550565b600581908060018154018082558091505060019003905f5260205f20015f909190919091505550565b600580548061019457610193610519565b5b600190038181905f5260205f20015f90559055565b5f600582106101ed576040517f08c379a00000000000000000000000000000000000000000000000000000000081526004016101e4906105a0565b60405180910390fd5b5f8260058110610200576101ff6104ec565b5b01549050919050565b5f600580549050905090565b6040518060800160405280600160ff168152602001600260ff168152602001600360ff168152602001600460ff168152506005906004610256929190610320565b5060046005805490501461026d5761026c6105be565b5b600160055f81548110610283576102826104ec565b5b905f5260205f2001541461029a576102996105be565b5b600460056003815481106102b1576102b06104ec565b5b905f5260205f200154146102c8576102c76105be565b5b565b6060600580548060200260200160405190810160405280929190818152602001828054801561031657602002820191905f5260205f20905b815481526020019060010190808311610302575b5050505050905090565b828054828255905f5260205f2090810192821561035f579160200282015b8281111561035e578251829060ff1690559160200191906001019061033e565b5b50905061036c9190610370565b5090565b5b80821115610387575f815f905550600101610371565b5090565b5f80fd5b5f819050919050565b6103a18161038f565b81146103ab575f80fd5b50565b5f813590506103bc81610398565b92915050565b5f602082840312156103d7576103d661038b565b5b5f6103e4848285016103ae565b91505092915050565b6103f68161038f565b82525050565b5f60208201905061040f5f8301846103ed565b92915050565b5f81519050919050565b5f82825260208201905092915050565b5f819050602082019050919050565b6104478161038f565b82525050565b5f610458838361043e565b60208301905092915050565b5f602082019050919050565b5f61047a82610415565b610484818561041f565b935061048f8361042f565b805f5b838110156104bf5781516104a6888261044d565b97506104b183610464565b925050600181019050610492565b5085935050505092915050565b5f6020820190508181035f8301526104e48184610470565b905092915050565b7f4e487b71000000000000000000000000000000000000000000000000000000005f52603260045260245ffd5b7f4e487b71000000000000000000000000000000000000000000000000000000005f52603160045260245ffd5b5f82825260208201905092915050565b7f696e646578206973206f7574206f662072616e676500000000000000000000005f82015250565b5f61058a601583610546565b915061059582610556565b602082019050919050565b5f6020820190508181035f8301526105b78161057e565b9050919050565b7f4e487b71000000000000000000000000000000000000000000000000000000005f52600160045260245ffdfea2646970667358221220736c8375c15ce02d4b603c9073574aa87598b4a3e6ec9bcd2389ca870bf4a1f164736f6c634300081a0033",
			"opcodes": "PUSH1 0x80 PUSH1 0x40 MSTORE CALLVALUE DUP1 ISZERO PUSH1 0xE JUMPI PUSH0 DUP1 REVERT JUMPDEST POP PUSH1 0xA PUSH0 DUP1 PUSH1 0x5 DUP2 LT PUSH1 0x21 JUMPI PUSH1 0x20 PUSH1 0x8A JUMP JUMPDEST JUMPDEST ADD DUP2 SWAP1 SSTORE POP PUSH1 0x14 PUSH0 PUSH1 0x1 PUSH1 0x5 DUP2 LT PUSH1 0x39 JUMPI PUSH1 0x38 PUSH1 0x8A JUMP JUMPDEST JUMPDEST ADD DUP2 SWAP1 SSTORE POP PUSH1 0x1E PUSH0 PUSH1 0x2 PUSH1 0x5 DUP2 LT PUSH1 0x51 JUMPI PUSH1 0x50 PUSH1 0x8A JUMP JUMPDEST JUMPDEST ADD DUP2 SWAP1 SSTORE POP PUSH1 0x28 PUSH0 PUSH1 0x3 PUSH1 0x5 DUP2 LT PUSH1 0x69 JUMPI PUSH1 0x68 PUSH1 0x8A JUMP JUMPDEST JUMPDEST ADD DUP2 SWAP1 SSTORE POP PUSH1 0x32 PUSH0 PUSH1 0x4 PUSH1 0x5 DUP2 LT PUSH1 0x81 JUMPI PUSH1 0x80 PUSH1 0x8A JUMP JUMPDEST JUMPDEST ADD DUP2 SWAP1 SSTORE POP PUSH1 0xB7 JUMP JUMPDEST PUSH32 0x4E487B7100000000000000000000000000000000000000000000000000000000 PUSH0 MSTORE PUSH1 0x32 PUSH1 0x4 MSTORE PUSH1 0x24 PUSH0 REVERT JUMPDEST PUSH2 0x621 DUP1 PUSH2 0xC4 PUSH0 CODECOPY PUSH0 RETURN INVALID PUSH1 0x80 PUSH1 0x40 MSTORE CALLVALUE DUP1 ISZERO PUSH2 0xF JUMPI PUSH0 DUP1 REVERT JUMPDEST POP PUSH1 0x4 CALLDATASIZE LT PUSH2 0x7B JUMPI PUSH0 CALLDATALOAD PUSH1 0xE0 SHR DUP1 PUSH4 0xAB35EC63 GT PUSH2 0x59 JUMPI DUP1 PUSH4 0xAB35EC63 EQ PUSH2 0xC1 JUMPI DUP1 PUSH4 0xBE1C766B EQ PUSH2 0xF1 JUMPI DUP1 PUSH4 0xF8A8FD6D EQ PUSH2 0x10F JUMPI DUP1 PUSH4 0xFB8CBCED EQ PUSH2 0x119 JUMPI PUSH2 0x7B JUMP JUMPDEST DUP1 PUSH4 0x13C48E94 EQ PUSH2 0x7F JUMPI DUP1 PUSH4 0x959AC484 EQ PUSH2 0x9B JUMPI DUP1 PUSH4 0xA4ECE52C EQ PUSH2 0xB7 JUMPI JUMPDEST PUSH0 DUP1 REVERT JUMPDEST PUSH2 0x99 PUSH1 0x4 DUP1 CALLDATASIZE SUB DUP2 ADD SWAP1 PUSH2 0x94 SWAP2 SWAP1 PUSH2 0x3C2 JUMP JUMPDEST PUSH2 0x137 JUMP JUMPDEST STOP JUMPDEST PUSH2 0xB5 PUSH1 0x4 DUP1 CALLDATASIZE SUB DUP2 ADD SWAP1 PUSH2 0xB0 SWAP2 SWAP1 PUSH2 0x3C2 JUMP JUMPDEST PUSH2 0x159 JUMP JUMPDEST STOP JUMPDEST PUSH2 0xBF PUSH2 0x182 JUMP JUMPDEST STOP JUMPDEST PUSH2 0xDB PUSH1 0x4 DUP1 CALLDATASIZE SUB DUP2 ADD SWAP1 PUSH2 0xD6 SWAP2 SWAP1 PUSH2 0x3C2 JUMP JUMPDEST PUSH2 0x1A9 JUMP JUMPDEST PUSH1 0x40 MLOAD PUSH2 0xE8 SWAP2 SWAP1 PUSH2 0x3FC JUMP JUMPDEST PUSH1 0x40 MLOAD DUP1 SWAP2 SUB SWAP1 RETURN JUMPDEST PUSH2 0xF9 PUSH2 0x209 JUMP JUMPDEST PUSH1 0x40 MLOAD PUSH2 0x106 SWAP2 SWAP1 PUSH2 0x3FC JUMP JUMPDEST PUSH1 0x40 MLOAD DUP1 SWAP2 SUB SWAP1 RETURN JUMPDEST PUSH2 0x117 PUSH2 0x215 JUMP JUMPDEST STOP JUMPDEST PUSH2 0x121 PUSH2 0x2CA JUMP JUMPDEST PUSH1 0x40 MLOAD PUSH2 0x12E SWAP2 SWAP1 PUSH2 0x4CC JUMP JUMPDEST PUSH1 0x40 MLOAD DUP1 SWAP2 SUB SWAP1 RETURN JUMPDEST PUSH1 0x5 DUP2 DUP2 SLOAD DUP2 LT PUSH2 0x14B JUMPI PUSH2 0x14A PUSH2 0x4EC JUMP JUMPDEST JUMPDEST SWAP1 PUSH0 MSTORE PUSH1 0x20 PUSH0 KECCAK256 ADD PUSH0 SWAP1 SSTORE POP JUMP JUMPDEST PUSH1 0x5 DUP2 SWAP1 DUP1 PUSH1 0x1 DUP2 SLOAD ADD DUP1 DUP3 SSTORE DUP1 SWAP2 POP POP PUSH1 0x1 SWAP1 SUB SWAP1 PUSH0 MSTORE PUSH1 0x20 PUSH0 KECCAK256 ADD PUSH0 SWAP1 SWAP2 SWAP1 SWAP2 SWAP1 SWAP2 POP SSTORE POP JUMP JUMPDEST PUSH1 0x5 DUP1 SLOAD DUP1 PUSH2 0x194 JUMPI PUSH2 0x193 PUSH2 0x519 JUMP JUMPDEST JUMPDEST PUSH1 0x1 SWAP1 SUB DUP2 DUP2 SWAP1 PUSH0 MSTORE PUSH1 0x20 PUSH0 KECCAK256 ADD PUSH0 SWAP1 SSTORE SWAP1 SSTORE JUMP JUMPDEST PUSH0 PUSH1 0x5 DUP3 LT PUSH2 0x1ED JUMPI PUSH1 0x40 MLOAD PUSH32 0x8C379A000000000000000000000000000000000000000000000000000000000 DUP2 MSTORE PUSH1 0x4 ADD PUSH2 0x1E4 SWAP1 PUSH2 0x5A0 JUMP JUMPDEST PUSH1 0x40 MLOAD DUP1 SWAP2 SUB SWAP1 REVERT JUMPDEST PUSH0 DUP3 PUSH1 0x5 DUP2 LT PUSH2 0x200 JUMPI PUSH2 0x1FF PUSH2 0x4EC JUMP JUMPDEST JUMPDEST ADD SLOAD SWAP1 POP SWAP2 SWAP1 POP JUMP JUMPDEST PUSH0 PUSH1 0x5 DUP1 SLOAD SWAP1 POP SWAP1 POP SWAP1 JUMP JUMPDEST PUSH1 0x40 MLOAD DUP1 PUSH1 0x80 ADD PUSH1 0x40 MSTORE DUP1 PUSH1 0x1 PUSH1 0xFF AND DUP2 MSTORE PUSH1 0x20 ADD PUSH1 0x2 PUSH1 0xFF AND DUP2 MSTORE PUSH1 0x20 ADD PUSH1 0x3 PUSH1 0xFF AND DUP2 MSTORE PUSH1 0x20 ADD PUSH1 0x4 PUSH1 0xFF AND DUP2 MSTORE POP PUSH1 0x5 SWAP1 PUSH1 0x4 PUSH2 0x256 SWAP3 SWAP2 SWAP1 PUSH2 0x320 JUMP JUMPDEST POP PUSH1 0x4 PUSH1 0x5 DUP1 SLOAD SWAP1 POP EQ PUSH2 0x26D JUMPI PUSH2 0x26C PUSH2 0x5BE JUMP JUMPDEST JUMPDEST PUSH1 0x1 PUSH1 0x5 PUSH0 DUP2 SLOAD DUP2 LT PUSH2 0x283 JUMPI PUSH2 0x282 PUSH2 0x4EC JUMP JUMPDEST JUMPDEST SWAP1 PUSH0 MSTORE PUSH1 0x20 PUSH0 KECCAK256 ADD SLOAD EQ PUSH2 0x29A JUMPI PUSH2 0x299 PUSH2 0x5BE JUMP JUMPDEST JUMPDEST PUSH1 0x4 PUSH1 0x5 PUSH1 0x3 DUP2 SLOAD DUP2 LT PUSH2 0x2B1 JUMPI PUSH2 0x2B0 PUSH2 0x4EC JUMP JUMPDEST JUMPDEST SWAP1 PUSH0 MSTORE PUSH1 0x20 PUSH0 KECCAK256 ADD SLOAD EQ PUSH2 0x2C8 JUMPI PUSH2 0x2C7 PUSH2 0x5BE JUMP JUMPDEST JUMPDEST JUMP JUMPDEST PUSH1 0x60 PUSH1 0x5 DUP1 SLOAD DUP1 PUSH1 0x20 MUL PUSH1 0x20 ADD PUSH1 0x40 MLOAD SWAP1 DUP2 ADD PUSH1 0x40 MSTORE DUP1 SWAP3 SWAP2 SWAP1 DUP2 DUP2 MSTORE PUSH1 0x20 ADD DUP3 DUP1 SLOAD DUP1 ISZERO PUSH2 0x316 JUMPI PUSH1 0x20 MUL DUP3 ADD SWAP2 SWAP1 PUSH0 MSTORE PUSH1 0x20 PUSH0 KECCAK256 SWAP1 JUMPDEST DUP2 SLOAD DUP2 MSTORE PUSH1 0x20 ADD SWAP1 PUSH1 0x1 ADD SWAP1 DUP1 DUP4 GT PUSH2 0x302 JUMPI JUMPDEST POP POP POP POP POP SWAP1 POP SWAP1 JUMP JUMPDEST DUP3 DUP1 SLOAD DUP3 DUP3 SSTORE SWAP1 PUSH0 MSTORE PUSH1 0x20 PUSH0 KECCAK256 SWAP1 DUP2 ADD SWAP3 DUP3 ISZERO PUSH2 0x35F JUMPI SWAP2 PUSH1 0x20 MUL DUP3 ADD JUMPDEST DUP3 DUP2 GT ISZERO PUSH2 0x35E JUMPI DUP3 MLOAD DUP3 SWAP1 PUSH1 0xFF AND SWAP1 SSTORE SWAP2 PUSH1 0x20 ADD SWAP2 SWAP1 PUSH1 0x1 ADD SWAP1 PUSH2 0x33E JUMP JUMPDEST JUMPDEST POP SWAP1 POP PUSH2 0x36C SWAP2 SWAP1 PUSH2 0x370 JUMP JUMPDEST POP SWAP1 JUMP JUMPDEST JUMPDEST DUP1 DUP3 GT ISZERO PUSH2 0x387 JUMPI PUSH0 DUP2 PUSH0 SWAP1 SSTORE POP PUSH1 0x1 ADD PUSH2 0x371 JUMP JUMPDEST POP SWAP1 JUMP JUMPDEST PUSH0 DUP1 REVERT JUMPDEST PUSH0 DUP2 SWAP1 POP SWAP2 SWAP1 POP JUMP JUMPDEST PUSH2 0x3A1 DUP2 PUSH2 0x38F JUMP JUMPDEST DUP2 EQ PUSH2 0x3AB JUMPI PUSH0 DUP1 REVERT JUMPDEST POP JUMP JUMPDEST PUSH0 DUP2 CALLDATALOAD SWAP1 POP PUSH2 0x3BC DUP2 PUSH2 0x398 JUMP JUMPDEST SWAP3 SWAP2 POP POP JUMP JUMPDEST PUSH0 PUSH1 0x20 DUP3 DUP5 SUB SLT ISZERO PUSH2 0x3D7 JUMPI PUSH2 0x3D6 PUSH2 0x38B JUMP JUMPDEST JUMPDEST PUSH0 PUSH2 0x3E4 DUP5 DUP3 DUP6 ADD PUSH2 0x3AE JUMP JUMPDEST SWAP2 POP POP SWAP3 SWAP2 POP POP JUMP JUMPDEST PUSH2 0x3F6 DUP2 PUSH2 0x38F JUMP JUMPDEST DUP3 MSTORE POP POP JUMP JUMPDEST PUSH0 PUSH1 0x20 DUP3 ADD SWAP1 POP PUSH2 0x40F PUSH0 DUP4 ADD DUP5 PUSH2 0x3ED JUMP JUMPDEST SWAP3 SWAP2 POP POP JUMP JUMPDEST PUSH0 DUP2 MLOAD SWAP1 POP SWAP2 SWAP1 POP JUMP JUMPDEST PUSH0 DUP3 DUP3 MSTORE PUSH1 0x20 DUP3 ADD SWAP1 POP SWAP3 SWAP2 POP POP JUMP JUMPDEST PUSH0 DUP2 SWAP1 POP PUSH1 0x20 DUP3 ADD SWAP1 POP SWAP2 SWAP1 POP JUMP JUMPDEST PUSH2 0x447 DUP2 PUSH2 0x38F JUMP JUMPDEST DUP3 MSTORE POP POP JUMP JUMPDEST PUSH0 PUSH2 0x458 DUP4 DUP4 PUSH2 0x43E JUMP JUMPDEST PUSH1 0x20 DUP4 ADD SWAP1 POP SWAP3 SWAP2 POP POP JUMP JUMPDEST PUSH0 PUSH1 0x20 DUP3 ADD SWAP1 POP SWAP2 SWAP1 POP JUMP JUMPDEST PUSH0 PUSH2 0x47A DUP3 PUSH2 0x415 JUMP JUMPDEST PUSH2 0x484 DUP2 DUP6 PUSH2 0x41F JUMP JUMPDEST SWAP4 POP PUSH2 0x48F DUP4 PUSH2 0x42F JUMP JUMPDEST DUP1 PUSH0 JUMPDEST DUP4 DUP2 LT ISZERO PUSH2 0x4BF JUMPI DUP2 MLOAD PUSH2 0x4A6 DUP9 DUP3 PUSH2 0x44D JUMP JUMPDEST SWAP8 POP PUSH2 0x4B1 DUP4 PUSH2 0x464 JUMP JUMPDEST SWAP3 POP POP PUSH1 0x1 DUP2 ADD SWAP1 POP PUSH2 0x492 JUMP JUMPDEST POP DUP6 SWAP4 POP POP POP POP SWAP3 SWAP2 POP POP JUMP JUMPDEST PUSH0 PUSH1 0x20 DUP3 ADD SWAP1 POP DUP2 DUP2 SUB PUSH0 DUP4 ADD MSTORE PUSH2 0x4E4 DUP2 DUP5 PUSH2 0x470 JUMP JUMPDEST SWAP1 POP SWAP3 SWAP2 POP POP JUMP JUMPDEST PUSH32 0x4E487B7100000000000000000000000000000000000000000000000000000000 PUSH0 MSTORE PUSH1 0x32 PUSH1 0x4 MSTORE PUSH1 0x24 PUSH0 REVERT JUMPDEST PUSH32 0x4E487B7100000000000000000000000000000000000000000000000000000000 PUSH0 MSTORE PUSH1 0x31 PUSH1 0x4 MSTORE PUSH1 0x24 PUSH0 REVERT JUMPDEST PUSH0 DUP3 DUP3 MSTORE PUSH1 0x20 DUP3 ADD SWAP1 POP SWAP3 SWAP2 POP POP JUMP JUMPDEST PUSH32 0x696E646578206973206F7574206F662072616E67650000000000000000000000 PUSH0 DUP3 ADD MSTORE POP JUMP JUMPDEST PUSH0 PUSH2 0x58A PUSH1 0x15 DUP4 PUSH2 0x546 JUMP JUMPDEST SWAP2 POP PUSH2 0x595 DUP3 PUSH2 0x556 JUMP JUMPDEST PUSH1 0x20 DUP3 ADD SWAP1 POP SWAP2 SWAP1 POP JUMP JUMPDEST PUSH0 PUSH1 0x20 DUP3 ADD SWAP1 POP DUP2 DUP2 SUB PUSH0 DUP4 ADD MSTORE PUSH2 0x5B7 DUP2 PUSH2 0x57E JUMP JUMPDEST SWAP1 POP SWAP2 SWAP1 POP JUMP JUMPDEST PUSH32 0x4E487B7100000000000000000000000000000000000000000000000000000000 PUSH0 MSTORE PUSH1 0x1 PUSH1 0x4 MSTORE PUSH1 0x24 PUSH0 REVERT INVALID LOG2 PUSH5 0x6970667358 0x22 SLT KECCAK256 PUSH20 0x6C8375C15CE02D4B603C9073574AA87598B4A3E6 0xEC SWAP12 0xCD 0x23 DUP10 0xCA DUP8 SIGNEXTEND DELEGATECALL LOG1 CALL PUSH5 0x736F6C6343 STOP ADDMOD BYTE STOP CALLER "
		},
		"gasEstimates": {
			"creation": {
				"codeDepositCost": "313800",
				"executionCost": "111075",
				"totalCost": "424875"
			},
			"external": {
				"deleteOnIndex(uint256)": "7588",
				"getArr()": "infinite",
				"getArray(uint256)": "infinite",
				"getLength()": "2462",
				"pop()": "29486",
				"push(uint256)": "46844",
				"test()": "infinite"
			}
		},
		"methodIdentifiers": {
			"deleteOnIndex(uint256)": "13c48e94",
			"getArr()": "fb8cbced",
			"getArray(uint256)": "ab35ec63",
			"getLength()": "be1c766b",
			"pop()": "a4ece52c",
			"push(uint256)": "959ac484",
			"test()": "f8a8fd6d"
		}
	},
	"abi": [
		{
			"inputs": [],
			"stateMutability": "nonpayable",
			"type": "constructor"
		},
		{
			"inputs": [
				{
					"internalType": "uint256",
					"name": "index",
					"type": "uint256"
				}
			],
			"name": "deleteOnIndex",
			"outputs": [],
			"stateMutability": "nonpayable",
			"type": "function"
		},
		{
			"inputs": [],
			"name": "getArr",
			"outputs": [
				{
					"internalType": "uint256[]",
					"name": "",
					"type": "uint256[]"
				}
			],
			"stateMutability": "view",
			"type": "function"
		},
		{
			"inputs": [
				{
					"internalType": "uint256",
					"name": "element",
					"type": "uint256"
				}
			],
			"name": "getArray",
			"outputs": [
				{
					"internalType": "uint256",
					"name": "",
					"type": "uint256"
				}
			],
			"stateMutability": "view",
			"type": "function"
		},
		{
			"inputs": [],
			"name": "getLength",
			"outputs": [
				{
					"internalType": "uint256",
					"name": "",
					"type": "uint256"
				}
			],
			"stateMutability": "view",
			"type": "function"
		},
		{
			"inputs": [],
			"name": "pop",
			"outputs": [],
			"stateMutability": "nonpayable",
			"type": "function"
		},
		{
			"inputs": [
				{
					"internalType": "uint256",
					"name": "value",
					"type": "uint256"
				}
			],
			"name": "push",
			"outputs": [],
			"stateMutability": "nonpayable",
			"type": "function"
		},
		{
			"inputs": [],
			"name": "test",
			"outputs": [],
			"stateMutability": "nonpayable",
			"type": "function"
		}
	]
}