{
	"data": {
		"bytecode": {
			"linkReferences": {},
			"object": "6080604052348015600e575f80fd5b506101ce8061001c5f395ff3fe608060405234801561000f575f80fd5b506004361061003f575f3560e01c806306c18a311461004357806328aee41f146100615780639a295e731461007f575b5f80fd5b61004b61009e565b6040516100589190610127565b60405180910390f35b6100696100b6565b6040516100769190610158565b60405180910390f35b6100876100c1565b604051610095929190610171565b60405180910390f35b735b38da6a701c568545dcfcb03fcb875f56beddc481565b660b29430a256d2181565b5f80660b29430a256d21735b38da6a701c568545dcfcb03fcb875f56beddc4915091509091565b5f73ffffffffffffffffffffffffffffffffffffffff82169050919050565b5f610111826100e8565b9050919050565b61012181610107565b82525050565b5f60208201905061013a5f830184610118565b92915050565b5f819050919050565b61015281610140565b82525050565b5f60208201905061016b5f830184610149565b92915050565b5f6040820190506101845f830185610149565b6101916020830184610118565b939250505056fea2646970667358221220f6e4aa7d8a0d711b980b63b843523ef690375b84f796e6ec8c1a73c12b47691d64736f6c634300081a0033",
			"opcodes": "PUSH1 0x80 PUSH1 0x40 MSTORE CALLVALUE DUP1 ISZERO PUSH1 0xE JUMPI PUSH0 DUP1 REVERT JUMPDEST POP PUSH2 0x1CE DUP1 PUSH2 0x1C PUSH0 CODECOPY PUSH0 RETURN INVALID PUSH1 0x80 PUSH1 0x40 MSTORE CALLVALUE DUP1 ISZERO PUSH2 0xF JUMPI PUSH0 DUP1 REVERT JUMPDEST POP PUSH1 0x4 CALLDATASIZE LT PUSH2 0x3F JUMPI PUSH0 CALLDATALOAD PUSH1 0xE0 SHR DUP1 PUSH4 0x6C18A31 EQ PUSH2 0x43 JUMPI DUP1 PUSH4 0x28AEE41F EQ PUSH2 0x61 JUMPI DUP1 PUSH4 0x9A295E73 EQ PUSH2 0x7F JUMPI JUMPDEST PUSH0 DUP1 REVERT JUMPDEST PUSH2 0x4B PUSH2 0x9E JUMP JUMPDEST PUSH1 0x40 MLOAD PUSH2 0x58 SWAP2 SWAP1 PUSH2 0x127 JUMP JUMPDEST PUSH1 0x40 MLOAD DUP1 SWAP2 SUB SWAP1 RETURN JUMPDEST PUSH2 0x69 PUSH2 0xB6 JUMP JUMPDEST PUSH1 0x40 MLOAD PUSH2 0x76 SWAP2 SWAP1 PUSH2 0x158 JUMP JUMPDEST PUSH1 0x40 MLOAD DUP1 SWAP2 SUB SWAP1 RETURN JUMPDEST PUSH2 0x87 PUSH2 0xC1 JUMP JUMPDEST PUSH1 0x40 MLOAD PUSH2 0x95 SWAP3 SWAP2 SWAP1 PUSH2 0x171 JUMP JUMPDEST PUSH1 0x40 MLOAD DUP1 SWAP2 SUB SWAP1 RETURN JUMPDEST PUSH20 0x5B38DA6A701C568545DCFCB03FCB875F56BEDDC4 DUP2 JUMP JUMPDEST PUSH7 0xB29430A256D21 DUP2 JUMP JUMPDEST PUSH0 DUP1 PUSH7 0xB29430A256D21 PUSH20 0x5B38DA6A701C568545DCFCB03FCB875F56BEDDC4 SWAP2 POP SWAP2 POP SWAP1 SWAP2 JUMP JUMPDEST PUSH0 PUSH20 0xFFFFFFFFFFFFFFFFFFFFFFFFFFFFFFFFFFFFFFFF DUP3 AND SWAP1 POP SWAP2 SWAP1 POP JUMP JUMPDEST PUSH0 PUSH2 0x111 DUP3 PUSH2 0xE8 JUMP JUMPDEST SWAP1 POP SWAP2 SWAP1 POP JUMP JUMPDEST PUSH2 0x121 DUP2 PUSH2 0x107 JUMP JUMPDEST DUP3 MSTORE POP POP JUMP JUMPDEST PUSH0 PUSH1 0x20 DUP3 ADD SWAP1 POP PUSH2 0x13A PUSH0 DUP4 ADD DUP5 PUSH2 0x118 JUMP JUMPDEST SWAP3 SWAP2 POP POP JUMP JUMPDEST PUSH0 DUP2 SWAP1 POP SWAP2 SWAP1 POP JUMP JUMPDEST PUSH2 0x152 DUP2 PUSH2 0x140 JUMP JUMPDEST DUP3 MSTORE POP POP JUMP JUMPDEST PUSH0 PUSH1 0x20 DUP3 ADD SWAP1 POP PUSH2 0x16B PUSH0 DUP4 ADD DUP5 PUSH2 0x149 JUMP JUMPDEST SWAP3 SWAP2 POP POP JUMP JUMPDEST PUSH0 PUSH1 0x40 DUP3 ADD SWAP1 POP PUSH2 0x184 PUSH0 DUP4 ADD DUP6 PUSH2 0x149 JUMP JUMPDEST PUSH2 0x191 PUSH1 0x20 DUP4 ADD DUP5 PUSH2 0x118 JUMP JUMPDEST SWAP4 SWAP3 POP POP POP JUMP INVALID LOG2 PUSH5 0x6970667358 0x22 SLT KECCAK256 0xF6 0xE4 0xAA PUSH30 0x8A0D711B980B63B843523EF690375B84F796E6EC8C1A73C12B47691D6473 PUSH16 0x6C634300081A00330000000000000000 "
		},
		"gasEstimates": {
			"creation": {
				"codeDepositCost": "92400",
				"executionCost": "139",
				"totalCost": "92539"
			},
			"external": {
				"OWNER_ADDRESS()": "351",
				"PII()": "325",
				"getConstants()": "515"
			}
		},
		"methodIdentifiers": {
			"OWNER_ADDRESS()": "06c18a31",
			"PII()": "28aee41f",
			"getConstants()": "9a295e73"
		}
	},
	"abi": [
		{
			"inputs": [],
			"name": "OWNER_ADDRESS",
			"outputs": [
				{
					"internalType": "address",
					"name": "",
					"type": "address"
				}
			],
			"stateMutability": "view",
			"type": "function"
		},
		{
			"inputs": [],
			"name": "PII",
			"outputs": [
				{
					"internalType": "uint256",
					"name": "",
					"type": "uint256"
				}
			],
			"stateMutability": "view",
			"type": "function"
		},
		{
			"inputs": [],
			"name": "getConstants",
			"outputs": [
				{
					"internalType": "uint256",
					"name": "",
					"type": "uint256"
				},
				{
					"internalType": "address",
					"name": "",
					"type": "address"
				}
			],
			"stateMutability": "pure",
			"type": "function"
		}
	]
}