{
	"data": {
		"bytecode": {
			"linkReferences": {},
			"object": "6080604052348015600e575f80fd5b5061084c8061001c5f395ff3fe608060405234801561000f575f80fd5b5060043610610034575f3560e01c80635e20c84314610038578063fb2837c41461006a575b5f80fd5b610052600480360381019061004d9190610266565b610086565b6040516100619392919061034f565b60405180910390f35b610084600480360381019061007f91906104e1565b61015f565b005b5f8181548110610094575f80fd5b905f5260205f2090600302015f91509050805f0154908060010180546100b99061057a565b80601f01602080910402602001604051908101604052809291908181526020018280546100e59061057a565b80156101305780601f1061010757610100808354040283529160200191610130565b820191905f5260205f20905b81548152906001019060200180831161011357829003601f168201915b505050505090806002015f9054906101000a900473ffffffffffffffffffffffffffffffffffffffff16905083565b5f60405180606001604052808581526020018481526020018373ffffffffffffffffffffffffffffffffffffffff16815250908060018154018082558091505060019003905f5260205f2090600302015f909190919091505f820151815f015560208201518160010190816101d49190610747565b506040820151816002015f6101000a81548173ffffffffffffffffffffffffffffffffffffffff021916908373ffffffffffffffffffffffffffffffffffffffff1602179055505050505050565b5f604051905090565b5f80fd5b5f80fd5b5f819050919050565b61024581610233565b811461024f575f80fd5b50565b5f813590506102608161023c565b92915050565b5f6020828403121561027b5761027a61022b565b5b5f61028884828501610252565b91505092915050565b61029a81610233565b82525050565b5f81519050919050565b5f82825260208201905092915050565b8281835e5f83830152505050565b5f601f19601f8301169050919050565b5f6102e2826102a0565b6102ec81856102aa565b93506102fc8185602086016102ba565b610305816102c8565b840191505092915050565b5f73ffffffffffffffffffffffffffffffffffffffff82169050919050565b5f61033982610310565b9050919050565b6103498161032f565b82525050565b5f6060820190506103625f830186610291565b818103602083015261037481856102d8565b90506103836040830184610340565b949350505050565b5f80fd5b5f80fd5b7f4e487b71000000000000000000000000000000000000000000000000000000005f52604160045260245ffd5b6103c9826102c8565b810181811067ffffffffffffffff821117156103e8576103e7610393565b5b80604052505050565b5f6103fa610222565b905061040682826103c0565b919050565b5f67ffffffffffffffff82111561042557610424610393565b5b61042e826102c8565b9050602081019050919050565b828183375f83830152505050565b5f61045b6104568461040b565b6103f1565b9050828152602081018484840111156104775761047661038f565b5b61048284828561043b565b509392505050565b5f82601f83011261049e5761049d61038b565b5b81356104ae848260208601610449565b91505092915050565b6104c08161032f565b81146104ca575f80fd5b50565b5f813590506104db816104b7565b92915050565b5f805f606084860312156104f8576104f761022b565b5b5f61050586828701610252565b935050602084013567ffffffffffffffff8111156105265761052561022f565b5b6105328682870161048a565b9250506040610543868287016104cd565b9150509250925092565b7f4e487b71000000000000000000000000000000000000000000000000000000005f52602260045260245ffd5b5f600282049050600182168061059157607f821691505b6020821081036105a4576105a361054d565b5b50919050565b5f819050815f5260205f209050919050565b5f6020601f8301049050919050565b5f82821b905092915050565b5f600883026106067fffffffffffffffffffffffffffffffffffffffffffffffffffffffffffffffff826105cb565b61061086836105cb565b95508019841693508086168417925050509392505050565b5f819050919050565b5f61064b61064661064184610233565b610628565b610233565b9050919050565b5f819050919050565b61066483610631565b61067861067082610652565b8484546105d7565b825550505050565b5f90565b61068c610680565b61069781848461065b565b505050565b5b818110156106ba576106af5f82610684565b60018101905061069d565b5050565b601f8211156106ff576106d0816105aa565b6106d9846105bc565b810160208510156106e8578190505b6106fc6106f4856105bc565b83018261069c565b50505b505050565b5f82821c905092915050565b5f61071f5f1984600802610704565b1980831691505092915050565b5f6107378383610710565b9150826002028217905092915050565b610750826102a0565b67ffffffffffffffff81111561076957610768610393565b5b610773825461057a565b61077e8282856106be565b5f60209050601f8311600181146107af575f841561079d578287015190505b6107a7858261072c565b86555061080e565b601f1984166107bd866105aa565b5f5b828110156107e4578489015182556001820191506020850194506020810190506107bf565b8683101561080157848901516107fd601f891682610710565b8355505b6001600288020188555050505b50505050505056fea2646970667358221220ce44621241e317e668c30f28af6044f72ab86ede9211d199a26bb82ddfa548f464736f6c634300081a0033",
			"opcodes": "PUSH1 0x80 PUSH1 0x40 MSTORE CALLVALUE DUP1 ISZERO PUSH1 0xE JUMPI PUSH0 DUP1 REVERT JUMPDEST POP PUSH2 0x84C DUP1 PUSH2 0x1C PUSH0 CODECOPY PUSH0 RETURN INVALID PUSH1 0x80 PUSH1 0x40 MSTORE CALLVALUE DUP1 ISZERO PUSH2 0xF JUMPI PUSH0 DUP1 REVERT JUMPDEST POP PUSH1 0x4 CALLDATASIZE LT PUSH2 0x34 JUMPI PUSH0 CALLDATALOAD PUSH1 0xE0 SHR DUP1 PUSH4 0x5E20C843 EQ PUSH2 0x38 JUMPI DUP1 PUSH4 0xFB2837C4 EQ PUSH2 0x6A JUMPI JUMPDEST PUSH0 DUP1 REVERT JUMPDEST PUSH2 0x52 PUSH1 0x4 DUP1 CALLDATASIZE SUB DUP2 ADD SWAP1 PUSH2 0x4D SWAP2 SWAP1 PUSH2 0x266 JUMP JUMPDEST PUSH2 0x86 JUMP JUMPDEST PUSH1 0x40 MLOAD PUSH2 0x61 SWAP4 SWAP3 SWAP2 SWAP1 PUSH2 0x34F JUMP JUMPDEST PUSH1 0x40 MLOAD DUP1 SWAP2 SUB SWAP1 RETURN JUMPDEST PUSH2 0x84 PUSH1 0x4 DUP1 CALLDATASIZE SUB DUP2 ADD SWAP1 PUSH2 0x7F SWAP2 SWAP1 PUSH2 0x4E1 JUMP JUMPDEST PUSH2 0x15F JUMP JUMPDEST STOP JUMPDEST PUSH0 DUP2 DUP2 SLOAD DUP2 LT PUSH2 0x94 JUMPI PUSH0 DUP1 REVERT JUMPDEST SWAP1 PUSH0 MSTORE PUSH1 0x20 PUSH0 KECCAK256 SWAP1 PUSH1 0x3 MUL ADD PUSH0 SWAP2 POP SWAP1 POP DUP1 PUSH0 ADD SLOAD SWAP1 DUP1 PUSH1 0x1 ADD DUP1 SLOAD PUSH2 0xB9 SWAP1 PUSH2 0x57A JUMP JUMPDEST DUP1 PUSH1 0x1F ADD PUSH1 0x20 DUP1 SWAP2 DIV MUL PUSH1 0x20 ADD PUSH1 0x40 MLOAD SWAP1 DUP2 ADD PUSH1 0x40 MSTORE DUP1 SWAP3 SWAP2 SWAP1 DUP2 DUP2 MSTORE PUSH1 0x20 ADD DUP3 DUP1 SLOAD PUSH2 0xE5 SWAP1 PUSH2 0x57A JUMP JUMPDEST DUP1 ISZERO PUSH2 0x130 JUMPI DUP1 PUSH1 0x1F LT PUSH2 0x107 JUMPI PUSH2 0x100 DUP1 DUP4 SLOAD DIV MUL DUP4 MSTORE SWAP2 PUSH1 0x20 ADD SWAP2 PUSH2 0x130 JUMP JUMPDEST DUP3 ADD SWAP2 SWAP1 PUSH0 MSTORE PUSH1 0x20 PUSH0 KECCAK256 SWAP1 JUMPDEST DUP2 SLOAD DUP2 MSTORE SWAP1 PUSH1 0x1 ADD SWAP1 PUSH1 0x20 ADD DUP1 DUP4 GT PUSH2 0x113 JUMPI DUP3 SWAP1 SUB PUSH1 0x1F AND DUP3 ADD SWAP2 JUMPDEST POP POP POP POP POP SWAP1 DUP1 PUSH1 0x2 ADD PUSH0 SWAP1 SLOAD SWAP1 PUSH2 0x100 EXP SWAP1 DIV PUSH20 0xFFFFFFFFFFFFFFFFFFFFFFFFFFFFFFFFFFFFFFFF AND SWAP1 POP DUP4 JUMP JUMPDEST PUSH0 PUSH1 0x40 MLOAD DUP1 PUSH1 0x60 ADD PUSH1 0x40 MSTORE DUP1 DUP6 DUP2 MSTORE PUSH1 0x20 ADD DUP5 DUP2 MSTORE PUSH1 0x20 ADD DUP4 PUSH20 0xFFFFFFFFFFFFFFFFFFFFFFFFFFFFFFFFFFFFFFFF AND DUP2 MSTORE POP SWAP1 DUP1 PUSH1 0x1 DUP2 SLOAD ADD DUP1 DUP3 SSTORE DUP1 SWAP2 POP POP PUSH1 0x1 SWAP1 SUB SWAP1 PUSH0 MSTORE PUSH1 0x20 PUSH0 KECCAK256 SWAP1 PUSH1 0x3 MUL ADD PUSH0 SWAP1 SWAP2 SWAP1 SWAP2 SWAP1 SWAP2 POP PUSH0 DUP3 ADD MLOAD DUP2 PUSH0 ADD SSTORE PUSH1 0x20 DUP3 ADD MLOAD DUP2 PUSH1 0x1 ADD SWAP1 DUP2 PUSH2 0x1D4 SWAP2 SWAP1 PUSH2 0x747 JUMP JUMPDEST POP PUSH1 0x40 DUP3 ADD MLOAD DUP2 PUSH1 0x2 ADD PUSH0 PUSH2 0x100 EXP DUP2 SLOAD DUP2 PUSH20 0xFFFFFFFFFFFFFFFFFFFFFFFFFFFFFFFFFFFFFFFF MUL NOT AND SWAP1 DUP4 PUSH20 0xFFFFFFFFFFFFFFFFFFFFFFFFFFFFFFFFFFFFFFFF AND MUL OR SWAP1 SSTORE POP POP POP POP POP POP JUMP JUMPDEST PUSH0 PUSH1 0x40 MLOAD SWAP1 POP SWAP1 JUMP JUMPDEST PUSH0 DUP1 REVERT JUMPDEST PUSH0 DUP1 REVERT JUMPDEST PUSH0 DUP2 SWAP1 POP SWAP2 SWAP1 POP JUMP JUMPDEST PUSH2 0x245 DUP2 PUSH2 0x233 JUMP JUMPDEST DUP2 EQ PUSH2 0x24F JUMPI PUSH0 DUP1 REVERT JUMPDEST POP JUMP JUMPDEST PUSH0 DUP2 CALLDATALOAD SWAP1 POP PUSH2 0x260 DUP2 PUSH2 0x23C JUMP JUMPDEST SWAP3 SWAP2 POP POP JUMP JUMPDEST PUSH0 PUSH1 0x20 DUP3 DUP5 SUB SLT ISZERO PUSH2 0x27B JUMPI PUSH2 0x27A PUSH2 0x22B JUMP JUMPDEST JUMPDEST PUSH0 PUSH2 0x288 DUP5 DUP3 DUP6 ADD PUSH2 0x252 JUMP JUMPDEST SWAP2 POP POP SWAP3 SWAP2 POP POP JUMP JUMPDEST PUSH2 0x29A DUP2 PUSH2 0x233 JUMP JUMPDEST DUP3 MSTORE POP POP JUMP JUMPDEST PUSH0 DUP2 MLOAD SWAP1 POP SWAP2 SWAP1 POP JUMP JUMPDEST PUSH0 DUP3 DUP3 MSTORE PUSH1 0x20 DUP3 ADD SWAP1 POP SWAP3 SWAP2 POP POP JUMP JUMPDEST DUP3 DUP2 DUP4 MCOPY PUSH0 DUP4 DUP4 ADD MSTORE POP POP POP JUMP JUMPDEST PUSH0 PUSH1 0x1F NOT PUSH1 0x1F DUP4 ADD AND SWAP1 POP SWAP2 SWAP1 POP JUMP JUMPDEST PUSH0 PUSH2 0x2E2 DUP3 PUSH2 0x2A0 JUMP JUMPDEST PUSH2 0x2EC DUP2 DUP6 PUSH2 0x2AA JUMP JUMPDEST SWAP4 POP PUSH2 0x2FC DUP2 DUP6 PUSH1 0x20 DUP7 ADD PUSH2 0x2BA JUMP JUMPDEST PUSH2 0x305 DUP2 PUSH2 0x2C8 JUMP JUMPDEST DUP5 ADD SWAP2 POP POP SWAP3 SWAP2 POP POP JUMP JUMPDEST PUSH0 PUSH20 0xFFFFFFFFFFFFFFFFFFFFFFFFFFFFFFFFFFFFFFFF DUP3 AND SWAP1 POP SWAP2 SWAP1 POP JUMP JUMPDEST PUSH0 PUSH2 0x339 DUP3 PUSH2 0x310 JUMP JUMPDEST SWAP1 POP SWAP2 SWAP1 POP JUMP JUMPDEST PUSH2 0x349 DUP2 PUSH2 0x32F JUMP JUMPDEST DUP3 MSTORE POP POP JUMP JUMPDEST PUSH0 PUSH1 0x60 DUP3 ADD SWAP1 POP PUSH2 0x362 PUSH0 DUP4 ADD DUP7 PUSH2 0x291 JUMP JUMPDEST DUP2 DUP2 SUB PUSH1 0x20 DUP4 ADD MSTORE PUSH2 0x374 DUP2 DUP6 PUSH2 0x2D8 JUMP JUMPDEST SWAP1 POP PUSH2 0x383 PUSH1 0x40 DUP4 ADD DUP5 PUSH2 0x340 JUMP JUMPDEST SWAP5 SWAP4 POP POP POP POP JUMP JUMPDEST PUSH0 DUP1 REVERT JUMPDEST PUSH0 DUP1 REVERT JUMPDEST PUSH32 0x4E487B7100000000000000000000000000000000000000000000000000000000 PUSH0 MSTORE PUSH1 0x41 PUSH1 0x4 MSTORE PUSH1 0x24 PUSH0 REVERT JUMPDEST PUSH2 0x3C9 DUP3 PUSH2 0x2C8 JUMP JUMPDEST DUP2 ADD DUP2 DUP2 LT PUSH8 0xFFFFFFFFFFFFFFFF DUP3 GT OR ISZERO PUSH2 0x3E8 JUMPI PUSH2 0x3E7 PUSH2 0x393 JUMP JUMPDEST JUMPDEST DUP1 PUSH1 0x40 MSTORE POP POP POP JUMP JUMPDEST PUSH0 PUSH2 0x3FA PUSH2 0x222 JUMP JUMPDEST SWAP1 POP PUSH2 0x406 DUP3 DUP3 PUSH2 0x3C0 JUMP JUMPDEST SWAP2 SWAP1 POP JUMP JUMPDEST PUSH0 PUSH8 0xFFFFFFFFFFFFFFFF DUP3 GT ISZERO PUSH2 0x425 JUMPI PUSH2 0x424 PUSH2 0x393 JUMP JUMPDEST JUMPDEST PUSH2 0x42E DUP3 PUSH2 0x2C8 JUMP JUMPDEST SWAP1 POP PUSH1 0x20 DUP2 ADD SWAP1 POP SWAP2 SWAP1 POP JUMP JUMPDEST DUP3 DUP2 DUP4 CALLDATACOPY PUSH0 DUP4 DUP4 ADD MSTORE POP POP POP JUMP JUMPDEST PUSH0 PUSH2 0x45B PUSH2 0x456 DUP5 PUSH2 0x40B JUMP JUMPDEST PUSH2 0x3F1 JUMP JUMPDEST SWAP1 POP DUP3 DUP2 MSTORE PUSH1 0x20 DUP2 ADD DUP5 DUP5 DUP5 ADD GT ISZERO PUSH2 0x477 JUMPI PUSH2 0x476 PUSH2 0x38F JUMP JUMPDEST JUMPDEST PUSH2 0x482 DUP5 DUP3 DUP6 PUSH2 0x43B JUMP JUMPDEST POP SWAP4 SWAP3 POP POP POP JUMP JUMPDEST PUSH0 DUP3 PUSH1 0x1F DUP4 ADD SLT PUSH2 0x49E JUMPI PUSH2 0x49D PUSH2 0x38B JUMP JUMPDEST JUMPDEST DUP2 CALLDATALOAD PUSH2 0x4AE DUP5 DUP3 PUSH1 0x20 DUP7 ADD PUSH2 0x449 JUMP JUMPDEST SWAP2 POP POP SWAP3 SWAP2 POP POP JUMP JUMPDEST PUSH2 0x4C0 DUP2 PUSH2 0x32F JUMP JUMPDEST DUP2 EQ PUSH2 0x4CA JUMPI PUSH0 DUP1 REVERT JUMPDEST POP JUMP JUMPDEST PUSH0 DUP2 CALLDATALOAD SWAP1 POP PUSH2 0x4DB DUP2 PUSH2 0x4B7 JUMP JUMPDEST SWAP3 SWAP2 POP POP JUMP JUMPDEST PUSH0 DUP1 PUSH0 PUSH1 0x60 DUP5 DUP7 SUB SLT ISZERO PUSH2 0x4F8 JUMPI PUSH2 0x4F7 PUSH2 0x22B JUMP JUMPDEST JUMPDEST PUSH0 PUSH2 0x505 DUP7 DUP3 DUP8 ADD PUSH2 0x252 JUMP JUMPDEST SWAP4 POP POP PUSH1 0x20 DUP5 ADD CALLDATALOAD PUSH8 0xFFFFFFFFFFFFFFFF DUP2 GT ISZERO PUSH2 0x526 JUMPI PUSH2 0x525 PUSH2 0x22F JUMP JUMPDEST JUMPDEST PUSH2 0x532 DUP7 DUP3 DUP8 ADD PUSH2 0x48A JUMP JUMPDEST SWAP3 POP POP PUSH1 0x40 PUSH2 0x543 DUP7 DUP3 DUP8 ADD PUSH2 0x4CD JUMP JUMPDEST SWAP2 POP POP SWAP3 POP SWAP3 POP SWAP3 JUMP JUMPDEST PUSH32 0x4E487B7100000000000000000000000000000000000000000000000000000000 PUSH0 MSTORE PUSH1 0x22 PUSH1 0x4 MSTORE PUSH1 0x24 PUSH0 REVERT JUMPDEST PUSH0 PUSH1 0x2 DUP3 DIV SWAP1 POP PUSH1 0x1 DUP3 AND DUP1 PUSH2 0x591 JUMPI PUSH1 0x7F DUP3 AND SWAP2 POP JUMPDEST PUSH1 0x20 DUP3 LT DUP2 SUB PUSH2 0x5A4 JUMPI PUSH2 0x5A3 PUSH2 0x54D JUMP JUMPDEST JUMPDEST POP SWAP2 SWAP1 POP JUMP JUMPDEST PUSH0 DUP2 SWAP1 POP DUP2 PUSH0 MSTORE PUSH1 0x20 PUSH0 KECCAK256 SWAP1 POP SWAP2 SWAP1 POP JUMP JUMPDEST PUSH0 PUSH1 0x20 PUSH1 0x1F DUP4 ADD DIV SWAP1 POP SWAP2 SWAP1 POP JUMP JUMPDEST PUSH0 DUP3 DUP3 SHL SWAP1 POP SWAP3 SWAP2 POP POP JUMP JUMPDEST PUSH0 PUSH1 0x8 DUP4 MUL PUSH2 0x606 PUSH32 0xFFFFFFFFFFFFFFFFFFFFFFFFFFFFFFFFFFFFFFFFFFFFFFFFFFFFFFFFFFFFFFFF DUP3 PUSH2 0x5CB JUMP JUMPDEST PUSH2 0x610 DUP7 DUP4 PUSH2 0x5CB JUMP JUMPDEST SWAP6 POP DUP1 NOT DUP5 AND SWAP4 POP DUP1 DUP7 AND DUP5 OR SWAP3 POP POP POP SWAP4 SWAP3 POP POP POP JUMP JUMPDEST PUSH0 DUP2 SWAP1 POP SWAP2 SWAP1 POP JUMP JUMPDEST PUSH0 PUSH2 0x64B PUSH2 0x646 PUSH2 0x641 DUP5 PUSH2 0x233 JUMP JUMPDEST PUSH2 0x628 JUMP JUMPDEST PUSH2 0x233 JUMP JUMPDEST SWAP1 POP SWAP2 SWAP1 POP JUMP JUMPDEST PUSH0 DUP2 SWAP1 POP SWAP2 SWAP1 POP JUMP JUMPDEST PUSH2 0x664 DUP4 PUSH2 0x631 JUMP JUMPDEST PUSH2 0x678 PUSH2 0x670 DUP3 PUSH2 0x652 JUMP JUMPDEST DUP5 DUP5 SLOAD PUSH2 0x5D7 JUMP JUMPDEST DUP3 SSTORE POP POP POP POP JUMP JUMPDEST PUSH0 SWAP1 JUMP JUMPDEST PUSH2 0x68C PUSH2 0x680 JUMP JUMPDEST PUSH2 0x697 DUP2 DUP5 DUP5 PUSH2 0x65B JUMP JUMPDEST POP POP POP JUMP JUMPDEST JUMPDEST DUP2 DUP2 LT ISZERO PUSH2 0x6BA JUMPI PUSH2 0x6AF PUSH0 DUP3 PUSH2 0x684 JUMP JUMPDEST PUSH1 0x1 DUP2 ADD SWAP1 POP PUSH2 0x69D JUMP JUMPDEST POP POP JUMP JUMPDEST PUSH1 0x1F DUP3 GT ISZERO PUSH2 0x6FF JUMPI PUSH2 0x6D0 DUP2 PUSH2 0x5AA JUMP JUMPDEST PUSH2 0x6D9 DUP5 PUSH2 0x5BC JUMP JUMPDEST DUP2 ADD PUSH1 0x20 DUP6 LT ISZERO PUSH2 0x6E8 JUMPI DUP2 SWAP1 POP JUMPDEST PUSH2 0x6FC PUSH2 0x6F4 DUP6 PUSH2 0x5BC JUMP JUMPDEST DUP4 ADD DUP3 PUSH2 0x69C JUMP JUMPDEST POP POP JUMPDEST POP POP POP JUMP JUMPDEST PUSH0 DUP3 DUP3 SHR SWAP1 POP SWAP3 SWAP2 POP POP JUMP JUMPDEST PUSH0 PUSH2 0x71F PUSH0 NOT DUP5 PUSH1 0x8 MUL PUSH2 0x704 JUMP JUMPDEST NOT DUP1 DUP4 AND SWAP2 POP POP SWAP3 SWAP2 POP POP JUMP JUMPDEST PUSH0 PUSH2 0x737 DUP4 DUP4 PUSH2 0x710 JUMP JUMPDEST SWAP2 POP DUP3 PUSH1 0x2 MUL DUP3 OR SWAP1 POP SWAP3 SWAP2 POP POP JUMP JUMPDEST PUSH2 0x750 DUP3 PUSH2 0x2A0 JUMP JUMPDEST PUSH8 0xFFFFFFFFFFFFFFFF DUP2 GT ISZERO PUSH2 0x769 JUMPI PUSH2 0x768 PUSH2 0x393 JUMP JUMPDEST JUMPDEST PUSH2 0x773 DUP3 SLOAD PUSH2 0x57A JUMP JUMPDEST PUSH2 0x77E DUP3 DUP3 DUP6 PUSH2 0x6BE JUMP JUMPDEST PUSH0 PUSH1 0x20 SWAP1 POP PUSH1 0x1F DUP4 GT PUSH1 0x1 DUP2 EQ PUSH2 0x7AF JUMPI PUSH0 DUP5 ISZERO PUSH2 0x79D JUMPI DUP3 DUP8 ADD MLOAD SWAP1 POP JUMPDEST PUSH2 0x7A7 DUP6 DUP3 PUSH2 0x72C JUMP JUMPDEST DUP7 SSTORE POP PUSH2 0x80E JUMP JUMPDEST PUSH1 0x1F NOT DUP5 AND PUSH2 0x7BD DUP7 PUSH2 0x5AA JUMP JUMPDEST PUSH0 JUMPDEST DUP3 DUP2 LT ISZERO PUSH2 0x7E4 JUMPI DUP5 DUP10 ADD MLOAD DUP3 SSTORE PUSH1 0x1 DUP3 ADD SWAP2 POP PUSH1 0x20 DUP6 ADD SWAP5 POP PUSH1 0x20 DUP2 ADD SWAP1 POP PUSH2 0x7BF JUMP JUMPDEST DUP7 DUP4 LT ISZERO PUSH2 0x801 JUMPI DUP5 DUP10 ADD MLOAD PUSH2 0x7FD PUSH1 0x1F DUP10 AND DUP3 PUSH2 0x710 JUMP JUMPDEST DUP4 SSTORE POP JUMPDEST PUSH1 0x1 PUSH1 0x2 DUP9 MUL ADD DUP9 SSTORE POP POP POP JUMPDEST POP POP POP POP POP POP JUMP INVALID LOG2 PUSH5 0x6970667358 0x22 SLT KECCAK256 0xCE PREVRANDAO PUSH3 0x1241E3 OR 0xE6 PUSH9 0xC30F28AF6044F72AB8 PUSH15 0xDE9211D199A26BB82DDFA548F46473 PUSH16 0x6C634300081A00330000000000000000 "
		},
		"gasEstimates": {
			"creation": {
				"codeDepositCost": "424800",
				"executionCost": "459",
				"totalCost": "425259"
			},
			"external": {
				"ListOfStudents(uint256)": "infinite",
				"input(uint256,string,address)": "infinite"
			}
		},
		"methodIdentifiers": {
			"ListOfStudents(uint256)": "5e20c843",
			"input(uint256,string,address)": "fb2837c4"
		}
	},
	"abi": [
		{
			"inputs": [
				{
					"internalType": "uint256",
					"name": "",
					"type": "uint256"
				}
			],
			"name": "ListOfStudents",
			"outputs": [
				{
					"internalType": "uint256",
					"name": "Id",
					"type": "uint256"
				},
				{
					"internalType": "string",
					"name": "FullName",
					"type": "string"
				},
				{
					"internalType": "address",
					"name": "Wallet",
					"type": "address"
				}
			],
			"stateMutability": "view",
			"type": "function"
		},
		{
			"inputs": [
				{
					"internalType": "uint256",
					"name": "_id",
					"type": "uint256"
				},
				{
					"internalType": "string",
					"name": "_fullName",
					"type": "string"
				},
				{
					"internalType": "address",
					"name": "_wallet",
					"type": "address"
				}
			],
			"name": "input",
			"outputs": [],
			"stateMutability": "nonpayable",
			"type": "function"
		}
	]
}